{
	"contracts/error.sol": {
		"ErrorImpl": {
			"abi": [
				{
					"inputs": [
						{
							"internalType": "string",
							"name": "value",
							"type": "string"
						}
					],
					"name": "CCError",
					"type": "error"
				},
				{
					"anonymous": false,
					"inputs": [
						{
							"indexed": false,
							"internalType": "string",
							"name": "value",
							"type": "string"
						}
					],
					"name": "Success",
					"type": "event"
				},
				{
					"inputs": [
						{
							"internalType": "uint256",
							"name": "_c",
							"type": "uint256"
						}
					],
					"name": "test1",
					"outputs": [],
					"stateMutability": "nonpayable",
					"type": "function"
				},
				{
					"inputs": [
						{
							"internalType": "uint256",
							"name": "_c",
							"type": "uint256"
						}
					],
					"name": "test2",
					"outputs": [],
					"stateMutability": "nonpayable",
					"type": "function"
				},
				{
					"inputs": [
						{
							"internalType": "uint256",
							"name": "_c",
							"type": "uint256"
						}
					],
					"name": "test3",
					"outputs": [],
					"stateMutability": "nonpayable",
					"type": "function"
				}
			],
			"devdoc": {
				"kind": "dev",
				"methods": {},
				"version": 1
			},
			"evm": {
				"assembly": "    /* \"contracts/error.sol\":65:642  contract ErrorImpl {... */\n  mstore(0x40, 0x80)\n  callvalue\n  dup1\n  iszero\n  tag_1\n  jumpi\n  0x00\n  dup1\n  revert\ntag_1:\n  pop\n  dataSize(sub_0)\n  dup1\n  dataOffset(sub_0)\n  0x00\n  codecopy\n  0x00\n  return\nstop\n\nsub_0: assembly {\n        /* \"contracts/error.sol\":65:642  contract ErrorImpl {... */\n      mstore(0x40, 0x80)\n      callvalue\n      dup1\n      iszero\n      tag_1\n      jumpi\n      0x00\n      dup1\n      revert\n    tag_1:\n      pop\n      jumpi(tag_2, lt(calldatasize, 0x04))\n      shr(0xe0, calldataload(0x00))\n      dup1\n      0x19ae8994\n      eq\n      tag_3\n      jumpi\n      dup1\n      0xcaf44683\n      eq\n      tag_4\n      jumpi\n      dup1\n      0xf7adc48f\n      eq\n      tag_5\n      jumpi\n    tag_2:\n      0x00\n      dup1\n      revert\n        /* \"contracts/error.sol\":196:330  function test1(uint256 _c) public {... */\n    tag_3:\n      tag_6\n      0x04\n      dup1\n      calldatasize\n      sub\n      dup2\n      add\n      swap1\n      tag_7\n      swap2\n      swap1\n      tag_8\n      jump\t// in\n    tag_7:\n      tag_9\n      jump\t// in\n    tag_6:\n      stop\n        /* \"contracts/error.sol\":336:443  function test2(uint256 _c) public {... */\n    tag_4:\n      tag_10\n      0x04\n      dup1\n      calldatasize\n      sub\n      dup2\n      add\n      swap1\n      tag_11\n      swap2\n      swap1\n      tag_8\n      jump\t// in\n    tag_11:\n      tag_12\n      jump\t// in\n    tag_10:\n      stop\n        /* \"contracts/error.sol\":449:638  function test3(uint256 _c) public {... */\n    tag_5:\n      tag_13\n      0x04\n      dup1\n      calldatasize\n      sub\n      dup2\n      add\n      swap1\n      tag_14\n      swap2\n      swap1\n      tag_8\n      jump\t// in\n    tag_14:\n      tag_15\n      jump\t// in\n    tag_13:\n      stop\n        /* \"contracts/error.sol\":196:330  function test1(uint256 _c) public {... */\n    tag_9:\n        /* \"contracts/error.sol\":186:189  245 */\n      0xf5\n        /* \"contracts/error.sol\":248:250  _c */\n      dup2\n        /* \"contracts/error.sol\":248:261  _c == CORRECT */\n      eq\n        /* \"contracts/error.sol\":240:288  require(_c == CORRECT, \"error 1, not valid num\") */\n      tag_17\n      jumpi\n      mload(0x40)\n      0x08c379a000000000000000000000000000000000000000000000000000000000\n      dup2\n      mstore\n      0x04\n      add\n      tag_18\n      swap1\n      tag_19\n      jump\t// in\n    tag_18:\n      mload(0x40)\n      dup1\n      swap2\n      sub\n      swap1\n      revert\n    tag_17:\n        /* \"contracts/error.sol\":303:323  Success(\"success 1\") */\n      0x166b96a382dc3abc86ba052ca9c020cfd7022d2d3059e868918a3d20779e41cc\n      mload(0x40)\n      tag_20\n      swap1\n      tag_21\n      jump\t// in\n    tag_20:\n      mload(0x40)\n      dup1\n      swap2\n      sub\n      swap1\n      log1\n        /* \"contracts/error.sol\":196:330  function test1(uint256 _c) public {... */\n      pop\n      jump\t// out\n        /* \"contracts/error.sol\":336:443  function test2(uint256 _c) public {... */\n    tag_12:\n        /* \"contracts/error.sol\":186:189  245 */\n      0xf5\n        /* \"contracts/error.sol\":387:389  _c */\n      dup2\n        /* \"contracts/error.sol\":387:400  _c == CORRECT */\n      eq\n        /* \"contracts/error.sol\":380:401  assert(_c == CORRECT) */\n      tag_23\n      jumpi\n      tag_24\n      tag_25\n      jump\t// in\n    tag_24:\n    tag_23:\n        /* \"contracts/error.sol\":416:436  Success(\"success 2\") */\n      0x166b96a382dc3abc86ba052ca9c020cfd7022d2d3059e868918a3d20779e41cc\n      mload(0x40)\n      tag_26\n      swap1\n      tag_27\n      jump\t// in\n    tag_26:\n      mload(0x40)\n      dup1\n      swap2\n      sub\n      swap1\n      log1\n        /* \"contracts/error.sol\":336:443  function test2(uint256 _c) public {... */\n      pop\n      jump\t// out\n        /* \"contracts/error.sol\":449:638  function test3(uint256 _c) public {... */\n    tag_15:\n        /* \"contracts/error.sol\":186:189  245 */\n      0xf5\n        /* \"contracts/error.sol\":497:499  _c */\n      dup2\n        /* \"contracts/error.sol\":497:510  _c != CORRECT */\n      eq\n        /* \"contracts/error.sol\":493:632  if (_c != CORRECT) {... */\n      tag_29\n      jumpi\n        /* \"contracts/error.sol\":533:565  CCError(\"error3, not valid num\") */\n      mload(0x40)\n      0x6d20926100000000000000000000000000000000000000000000000000000000\n      dup2\n      mstore\n      0x04\n      add\n      tag_30\n      swap1\n      tag_31\n      jump\t// in\n    tag_30:\n      mload(0x40)\n      dup1\n      swap2\n      sub\n      swap1\n      revert\n        /* \"contracts/error.sol\":493:632  if (_c != CORRECT) {... */\n    tag_29:\n        /* \"contracts/error.sol\":601:621  Success(\"success 3\") */\n      0x166b96a382dc3abc86ba052ca9c020cfd7022d2d3059e868918a3d20779e41cc\n      mload(0x40)\n      tag_33\n      swap1\n      tag_34\n      jump\t// in\n    tag_33:\n      mload(0x40)\n      dup1\n      swap2\n      sub\n      swap1\n      log1\n        /* \"contracts/error.sol\":449:638  function test3(uint256 _c) public {... */\n      pop\n      jump\t// out\n        /* \"#utility.yul\":7:146   */\n    tag_36:\n        /* \"#utility.yul\":53:58   */\n      0x00\n        /* \"#utility.yul\":91:97   */\n      dup2\n        /* \"#utility.yul\":78:98   */\n      calldataload\n        /* \"#utility.yul\":69:98   */\n      swap1\n      pop\n        /* \"#utility.yul\":107:140   */\n      tag_38\n        /* \"#utility.yul\":134:139   */\n      dup2\n        /* \"#utility.yul\":107:140   */\n      tag_39\n      jump\t// in\n    tag_38:\n        /* \"#utility.yul\":7:146   */\n      swap3\n      swap2\n      pop\n      pop\n      jump\t// out\n        /* \"#utility.yul\":152:481   */\n    tag_8:\n        /* \"#utility.yul\":211:217   */\n      0x00\n        /* \"#utility.yul\":260:262   */\n      0x20\n        /* \"#utility.yul\":248:257   */\n      dup3\n        /* \"#utility.yul\":239:246   */\n      dup5\n        /* \"#utility.yul\":235:258   */\n      sub\n        /* \"#utility.yul\":231:263   */\n      slt\n        /* \"#utility.yul\":228:347   */\n      iszero\n      tag_41\n      jumpi\n        /* \"#utility.yul\":266:345   */\n      tag_42\n      tag_43\n      jump\t// in\n    tag_42:\n        /* \"#utility.yul\":228:347   */\n    tag_41:\n        /* \"#utility.yul\":386:387   */\n      0x00\n        /* \"#utility.yul\":411:464   */\n      tag_44\n        /* \"#utility.yul\":456:463   */\n      dup5\n        /* \"#utility.yul\":447:453   */\n      dup3\n        /* \"#utility.yul\":436:445   */\n      dup6\n        /* \"#utility.yul\":432:454   */\n      add\n        /* \"#utility.yul\":411:464   */\n      tag_36\n      jump\t// in\n    tag_44:\n        /* \"#utility.yul\":401:464   */\n      swap2\n      pop\n        /* \"#utility.yul\":357:474   */\n      pop\n        /* \"#utility.yul\":152:481   */\n      swap3\n      swap2\n      pop\n      pop\n      jump\t// out\n        /* \"#utility.yul\":487:852   */\n    tag_45:\n        /* \"#utility.yul\":629:632   */\n      0x00\n        /* \"#utility.yul\":650:716   */\n      tag_47\n        /* \"#utility.yul\":714:715   */\n      0x09\n        /* \"#utility.yul\":709:712   */\n      dup4\n        /* \"#utility.yul\":650:716   */\n      tag_48\n      jump\t// in\n    tag_47:\n        /* \"#utility.yul\":643:716   */\n      swap2\n      pop\n        /* \"#utility.yul\":725:818   */\n      tag_49\n        /* \"#utility.yul\":814:817   */\n      dup3\n        /* \"#utility.yul\":725:818   */\n      tag_50\n      jump\t// in\n    tag_49:\n        /* \"#utility.yul\":843:845   */\n      0x20\n        /* \"#utility.yul\":838:841   */\n      dup3\n        /* \"#utility.yul\":834:846   */\n      add\n        /* \"#utility.yul\":827:846   */\n      swap1\n      pop\n        /* \"#utility.yul\":487:852   */\n      swap2\n      swap1\n      pop\n      jump\t// out\n        /* \"#utility.yul\":858:1223   */\n    tag_51:\n        /* \"#utility.yul\":1000:1003   */\n      0x00\n        /* \"#utility.yul\":1021:1087   */\n      tag_53\n        /* \"#utility.yul\":1085:1086   */\n      0x09\n        /* \"#utility.yul\":1080:1083   */\n      dup4\n        /* \"#utility.yul\":1021:1087   */\n      tag_48\n      jump\t// in\n    tag_53:\n        /* \"#utility.yul\":1014:1087   */\n      swap2\n      pop\n        /* \"#utility.yul\":1096:1189   */\n      tag_54\n        /* \"#utility.yul\":1185:1188   */\n      dup3\n        /* \"#utility.yul\":1096:1189   */\n      tag_55\n      jump\t// in\n    tag_54:\n        /* \"#utility.yul\":1214:1216   */\n      0x20\n        /* \"#utility.yul\":1209:1212   */\n      dup3\n        /* \"#utility.yul\":1205:1217   */\n      add\n        /* \"#utility.yul\":1198:1217   */\n      swap1\n      pop\n        /* \"#utility.yul\":858:1223   */\n      swap2\n      swap1\n      pop\n      jump\t// out\n        /* \"#utility.yul\":1229:1595   */\n    tag_56:\n        /* \"#utility.yul\":1371:1374   */\n      0x00\n        /* \"#utility.yul\":1392:1459   */\n      tag_58\n        /* \"#utility.yul\":1456:1458   */\n      0x16\n        /* \"#utility.yul\":1451:1454   */\n      dup4\n        /* \"#utility.yul\":1392:1459   */\n      tag_48\n      jump\t// in\n    tag_58:\n        /* \"#utility.yul\":1385:1459   */\n      swap2\n      pop\n        /* \"#utility.yul\":1468:1561   */\n      tag_59\n        /* \"#utility.yul\":1557:1560   */\n      dup3\n        /* \"#utility.yul\":1468:1561   */\n      tag_60\n      jump\t// in\n    tag_59:\n        /* \"#utility.yul\":1586:1588   */\n      0x20\n        /* \"#utility.yul\":1581:1584   */\n      dup3\n        /* \"#utility.yul\":1577:1589   */\n      add\n        /* \"#utility.yul\":1570:1589   */\n      swap1\n      pop\n        /* \"#utility.yul\":1229:1595   */\n      swap2\n      swap1\n      pop\n      jump\t// out\n        /* \"#utility.yul\":1601:1967   */\n    tag_61:\n        /* \"#utility.yul\":1743:1746   */\n      0x00\n        /* \"#utility.yul\":1764:1831   */\n      tag_63\n        /* \"#utility.yul\":1828:1830   */\n      0x15\n        /* \"#utility.yul\":1823:1826   */\n      dup4\n        /* \"#utility.yul\":1764:1831   */\n      tag_48\n      jump\t// in\n    tag_63:\n        /* \"#utility.yul\":1757:1831   */\n      swap2\n      pop\n        /* \"#utility.yul\":1840:1933   */\n      tag_64\n        /* \"#utility.yul\":1929:1932   */\n      dup3\n        /* \"#utility.yul\":1840:1933   */\n      tag_65\n      jump\t// in\n    tag_64:\n        /* \"#utility.yul\":1958:1960   */\n      0x20\n        /* \"#utility.yul\":1953:1956   */\n      dup3\n        /* \"#utility.yul\":1949:1961   */\n      add\n        /* \"#utility.yul\":1942:1961   */\n      swap1\n      pop\n        /* \"#utility.yul\":1601:1967   */\n      swap2\n      swap1\n      pop\n      jump\t// out\n        /* \"#utility.yul\":1973:2338   */\n    tag_66:\n        /* \"#utility.yul\":2115:2118   */\n      0x00\n        /* \"#utility.yul\":2136:2202   */\n      tag_68\n        /* \"#utility.yul\":2200:2201   */\n      0x09\n        /* \"#utility.yul\":2195:2198   */\n      dup4\n        /* \"#utility.yul\":2136:2202   */\n      tag_48\n      jump\t// in\n    tag_68:\n        /* \"#utility.yul\":2129:2202   */\n      swap2\n      pop\n        /* \"#utility.yul\":2211:2304   */\n      tag_69\n        /* \"#utility.yul\":2300:2303   */\n      dup3\n        /* \"#utility.yul\":2211:2304   */\n      tag_70\n      jump\t// in\n    tag_69:\n        /* \"#utility.yul\":2329:2331   */\n      0x20\n        /* \"#utility.yul\":2324:2327   */\n      dup3\n        /* \"#utility.yul\":2320:2332   */\n      add\n        /* \"#utility.yul\":2313:2332   */\n      swap1\n      pop\n        /* \"#utility.yul\":1973:2338   */\n      swap2\n      swap1\n      pop\n      jump\t// out\n        /* \"#utility.yul\":2344:2763   */\n    tag_34:\n        /* \"#utility.yul\":2510:2514   */\n      0x00\n        /* \"#utility.yul\":2548:2550   */\n      0x20\n        /* \"#utility.yul\":2537:2546   */\n      dup3\n        /* \"#utility.yul\":2533:2551   */\n      add\n        /* \"#utility.yul\":2525:2551   */\n      swap1\n      pop\n        /* \"#utility.yul\":2597:2606   */\n      dup2\n        /* \"#utility.yul\":2591:2595   */\n      dup2\n        /* \"#utility.yul\":2587:2607   */\n      sub\n        /* \"#utility.yul\":2583:2584   */\n      0x00\n        /* \"#utility.yul\":2572:2581   */\n      dup4\n        /* \"#utility.yul\":2568:2585   */\n      add\n        /* \"#utility.yul\":2561:2608   */\n      mstore\n        /* \"#utility.yul\":2625:2756   */\n      tag_72\n        /* \"#utility.yul\":2751:2755   */\n      dup2\n        /* \"#utility.yul\":2625:2756   */\n      tag_45\n      jump\t// in\n    tag_72:\n        /* \"#utility.yul\":2617:2756   */\n      swap1\n      pop\n        /* \"#utility.yul\":2344:2763   */\n      swap2\n      swap1\n      pop\n      jump\t// out\n        /* \"#utility.yul\":2769:3188   */\n    tag_27:\n        /* \"#utility.yul\":2935:2939   */\n      0x00\n        /* \"#utility.yul\":2973:2975   */\n      0x20\n        /* \"#utility.yul\":2962:2971   */\n      dup3\n        /* \"#utility.yul\":2958:2976   */\n      add\n        /* \"#utility.yul\":2950:2976   */\n      swap1\n      pop\n        /* \"#utility.yul\":3022:3031   */\n      dup2\n        /* \"#utility.yul\":3016:3020   */\n      dup2\n        /* \"#utility.yul\":3012:3032   */\n      sub\n        /* \"#utility.yul\":3008:3009   */\n      0x00\n        /* \"#utility.yul\":2997:3006   */\n      dup4\n        /* \"#utility.yul\":2993:3010   */\n      add\n        /* \"#utility.yul\":2986:3033   */\n      mstore\n        /* \"#utility.yul\":3050:3181   */\n      tag_74\n        /* \"#utility.yul\":3176:3180   */\n      dup2\n        /* \"#utility.yul\":3050:3181   */\n      tag_51\n      jump\t// in\n    tag_74:\n        /* \"#utility.yul\":3042:3181   */\n      swap1\n      pop\n        /* \"#utility.yul\":2769:3188   */\n      swap2\n      swap1\n      pop\n      jump\t// out\n        /* \"#utility.yul\":3194:3613   */\n    tag_19:\n        /* \"#utility.yul\":3360:3364   */\n      0x00\n        /* \"#utility.yul\":3398:3400   */\n      0x20\n        /* \"#utility.yul\":3387:3396   */\n      dup3\n        /* \"#utility.yul\":3383:3401   */\n      add\n        /* \"#utility.yul\":3375:3401   */\n      swap1\n      pop\n        /* \"#utility.yul\":3447:3456   */\n      dup2\n        /* \"#utility.yul\":3441:3445   */\n      dup2\n        /* \"#utility.yul\":3437:3457   */\n      sub\n        /* \"#utility.yul\":3433:3434   */\n      0x00\n        /* \"#utility.yul\":3422:3431   */\n      dup4\n        /* \"#utility.yul\":3418:3435   */\n      add\n        /* \"#utility.yul\":3411:3458   */\n      mstore\n        /* \"#utility.yul\":3475:3606   */\n      tag_76\n        /* \"#utility.yul\":3601:3605   */\n      dup2\n        /* \"#utility.yul\":3475:3606   */\n      tag_56\n      jump\t// in\n    tag_76:\n        /* \"#utility.yul\":3467:3606   */\n      swap1\n      pop\n        /* \"#utility.yul\":3194:3613   */\n      swap2\n      swap1\n      pop\n      jump\t// out\n        /* \"#utility.yul\":3619:4038   */\n    tag_31:\n        /* \"#utility.yul\":3785:3789   */\n      0x00\n        /* \"#utility.yul\":3823:3825   */\n      0x20\n        /* \"#utility.yul\":3812:3821   */\n      dup3\n        /* \"#utility.yul\":3808:3826   */\n      add\n        /* \"#utility.yul\":3800:3826   */\n      swap1\n      pop\n        /* \"#utility.yul\":3872:3881   */\n      dup2\n        /* \"#utility.yul\":3866:3870   */\n      dup2\n        /* \"#utility.yul\":3862:3882   */\n      sub\n        /* \"#utility.yul\":3858:3859   */\n      0x00\n        /* \"#utility.yul\":3847:3856   */\n      dup4\n        /* \"#utility.yul\":3843:3860   */\n      add\n        /* \"#utility.yul\":3836:3883   */\n      mstore\n        /* \"#utility.yul\":3900:4031   */\n      tag_78\n        /* \"#utility.yul\":4026:4030   */\n      dup2\n        /* \"#utility.yul\":3900:4031   */\n      tag_61\n      jump\t// in\n    tag_78:\n        /* \"#utility.yul\":3892:4031   */\n      swap1\n      pop\n        /* \"#utility.yul\":3619:4038   */\n      swap2\n      swap1\n      pop\n      jump\t// out\n        /* \"#utility.yul\":4044:4463   */\n    tag_21:\n        /* \"#utility.yul\":4210:4214   */\n      0x00\n        /* \"#utility.yul\":4248:4250   */\n      0x20\n        /* \"#utility.yul\":4237:4246   */\n      dup3\n        /* \"#utility.yul\":4233:4251   */\n      add\n        /* \"#utility.yul\":4225:4251   */\n      swap1\n      pop\n        /* \"#utility.yul\":4297:4306   */\n      dup2\n        /* \"#utility.yul\":4291:4295   */\n      dup2\n        /* \"#utility.yul\":4287:4307   */\n      sub\n        /* \"#utility.yul\":4283:4284   */\n      0x00\n        /* \"#utility.yul\":4272:4281   */\n      dup4\n        /* \"#utility.yul\":4268:4285   */\n      add\n        /* \"#utility.yul\":4261:4308   */\n      mstore\n        /* \"#utility.yul\":4325:4456   */\n      tag_80\n        /* \"#utility.yul\":4451:4455   */\n      dup2\n        /* \"#utility.yul\":4325:4456   */\n      tag_66\n      jump\t// in\n    tag_80:\n        /* \"#utility.yul\":4317:4456   */\n      swap1\n      pop\n        /* \"#utility.yul\":4044:4463   */\n      swap2\n      swap1\n      pop\n      jump\t// out\n        /* \"#utility.yul\":4550:4719   */\n    tag_48:\n        /* \"#utility.yul\":4634:4645   */\n      0x00\n        /* \"#utility.yul\":4668:4674   */\n      dup3\n        /* \"#utility.yul\":4663:4666   */\n      dup3\n        /* \"#utility.yul\":4656:4675   */\n      mstore\n        /* \"#utility.yul\":4708:4712   */\n      0x20\n        /* \"#utility.yul\":4703:4706   */\n      dup3\n        /* \"#utility.yul\":4699:4713   */\n      add\n        /* \"#utility.yul\":4684:4713   */\n      swap1\n      pop\n        /* \"#utility.yul\":4550:4719   */\n      swap3\n      swap2\n      pop\n      pop\n      jump\t// out\n        /* \"#utility.yul\":4725:4802   */\n    tag_84:\n        /* \"#utility.yul\":4762:4769   */\n      0x00\n        /* \"#utility.yul\":4791:4796   */\n      dup2\n        /* \"#utility.yul\":4780:4796   */\n      swap1\n      pop\n        /* \"#utility.yul\":4725:4802   */\n      swap2\n      swap1\n      pop\n      jump\t// out\n        /* \"#utility.yul\":4808:4988   */\n    tag_25:\n        /* \"#utility.yul\":4856:4933   */\n      0x4e487b7100000000000000000000000000000000000000000000000000000000\n        /* \"#utility.yul\":4853:4854   */\n      0x00\n        /* \"#utility.yul\":4846:4934   */\n      mstore\n        /* \"#utility.yul\":4953:4957   */\n      0x01\n        /* \"#utility.yul\":4950:4951   */\n      0x04\n        /* \"#utility.yul\":4943:4958   */\n      mstore\n        /* \"#utility.yul\":4977:4981   */\n      0x24\n        /* \"#utility.yul\":4974:4975   */\n      0x00\n        /* \"#utility.yul\":4967:4982   */\n      revert\n        /* \"#utility.yul\":5117:5234   */\n    tag_43:\n        /* \"#utility.yul\":5226:5227   */\n      0x00\n        /* \"#utility.yul\":5223:5224   */\n      dup1\n        /* \"#utility.yul\":5216:5228   */\n      revert\n        /* \"#utility.yul\":5240:5399   */\n    tag_50:\n        /* \"#utility.yul\":5380:5391   */\n      0x7375636365737320330000000000000000000000000000000000000000000000\n        /* \"#utility.yul\":5376:5377   */\n      0x00\n        /* \"#utility.yul\":5368:5374   */\n      dup3\n        /* \"#utility.yul\":5364:5378   */\n      add\n        /* \"#utility.yul\":5357:5392   */\n      mstore\n        /* \"#utility.yul\":5240:5399   */\n      pop\n      jump\t// out\n        /* \"#utility.yul\":5405:5564   */\n    tag_55:\n        /* \"#utility.yul\":5545:5556   */\n      0x7375636365737320320000000000000000000000000000000000000000000000\n        /* \"#utility.yul\":5541:5542   */\n      0x00\n        /* \"#utility.yul\":5533:5539   */\n      dup3\n        /* \"#utility.yul\":5529:5543   */\n      add\n        /* \"#utility.yul\":5522:5557   */\n      mstore\n        /* \"#utility.yul\":5405:5564   */\n      pop\n      jump\t// out\n        /* \"#utility.yul\":5570:5742   */\n    tag_60:\n        /* \"#utility.yul\":5710:5734   */\n      0x6572726f7220312c206e6f742076616c6964206e756d00000000000000000000\n        /* \"#utility.yul\":5706:5707   */\n      0x00\n        /* \"#utility.yul\":5698:5704   */\n      dup3\n        /* \"#utility.yul\":5694:5708   */\n      add\n        /* \"#utility.yul\":5687:5735   */\n      mstore\n        /* \"#utility.yul\":5570:5742   */\n      pop\n      jump\t// out\n        /* \"#utility.yul\":5748:5919   */\n    tag_65:\n        /* \"#utility.yul\":5888:5911   */\n      0x6572726f72332c206e6f742076616c6964206e756d0000000000000000000000\n        /* \"#utility.yul\":5884:5885   */\n      0x00\n        /* \"#utility.yul\":5876:5882   */\n      dup3\n        /* \"#utility.yul\":5872:5886   */\n      add\n        /* \"#utility.yul\":5865:5912   */\n      mstore\n        /* \"#utility.yul\":5748:5919   */\n      pop\n      jump\t// out\n        /* \"#utility.yul\":5925:6084   */\n    tag_70:\n        /* \"#utility.yul\":6065:6076   */\n      0x7375636365737320310000000000000000000000000000000000000000000000\n        /* \"#utility.yul\":6061:6062   */\n      0x00\n        /* \"#utility.yul\":6053:6059   */\n      dup3\n        /* \"#utility.yul\":6049:6063   */\n      add\n        /* \"#utility.yul\":6042:6077   */\n      mstore\n        /* \"#utility.yul\":5925:6084   */\n      pop\n      jump\t// out\n        /* \"#utility.yul\":6090:6212   */\n    tag_39:\n        /* \"#utility.yul\":6163:6187   */\n      tag_96\n        /* \"#utility.yul\":6181:6186   */\n      dup2\n        /* \"#utility.yul\":6163:6187   */\n      tag_84\n      jump\t// in\n    tag_96:\n        /* \"#utility.yul\":6156:6161   */\n      dup2\n        /* \"#utility.yul\":6153:6188   */\n      eq\n        /* \"#utility.yul\":6143:6206   */\n      tag_97\n      jumpi\n        /* \"#utility.yul\":6202:6203   */\n      0x00\n        /* \"#utility.yul\":6199:6200   */\n      dup1\n        /* \"#utility.yul\":6192:6204   */\n      revert\n        /* \"#utility.yul\":6143:6206   */\n    tag_97:\n        /* \"#utility.yul\":6090:6212   */\n      pop\n      jump\t// out\n\n    auxdata: 0xa2646970667358221220568ec61969dac430a7e0138e6e06dad6eb01965d3e288bfcdeec0d1ee9e5b1aa64736f6c63430008070033\n}\n",
				"bytecode": {
					"linkReferences": {},
					"object": "608060405234801561001057600080fd5b506104d3806100206000396000f3fe608060405234801561001057600080fd5b50600436106100415760003560e01c806319ae899414610046578063caf4468314610062578063f7adc48f1461007e575b600080fd5b610060600480360381019061005b91906101ee565b61009a565b005b61007c600480360381019061007791906101ee565b610115565b005b610098600480360381019061009391906101ee565b61015e565b005b60f581146100dd576040517f08c379a00000000000000000000000000000000000000000000000000000000081526004016100d49061030a565b60405180910390fd5b7f166b96a382dc3abc86ba052ca9c020cfd7022d2d3059e868918a3d20779e41cc60405161010a9061034a565b60405180910390a150565b60f5811461012657610125610385565b5b7f166b96a382dc3abc86ba052ca9c020cfd7022d2d3059e868918a3d20779e41cc604051610153906102ea565b60405180910390a150565b60f581146101a1576040517f6d2092610000000000000000000000000000000000000000000000000000000081526004016101989061032a565b60405180910390fd5b7f166b96a382dc3abc86ba052ca9c020cfd7022d2d3059e868918a3d20779e41cc6040516101ce906102ca565b60405180910390a150565b6000813590506101e881610486565b92915050565b600060208284031215610204576102036103b4565b5b6000610212848285016101d9565b91505092915050565b600061022860098361036a565b9150610233826103b9565b602082019050919050565b600061024b60098361036a565b9150610256826103e2565b602082019050919050565b600061026e60168361036a565b91506102798261040b565b602082019050919050565b600061029160158361036a565b915061029c82610434565b602082019050919050565b60006102b460098361036a565b91506102bf8261045d565b602082019050919050565b600060208201905081810360008301526102e38161021b565b9050919050565b600060208201905081810360008301526103038161023e565b9050919050565b6000602082019050818103600083015261032381610261565b9050919050565b6000602082019050818103600083015261034381610284565b9050919050565b60006020820190508181036000830152610363816102a7565b9050919050565b600082825260208201905092915050565b6000819050919050565b7f4e487b7100000000000000000000000000000000000000000000000000000000600052600160045260246000fd5b600080fd5b7f7375636365737320330000000000000000000000000000000000000000000000600082015250565b7f7375636365737320320000000000000000000000000000000000000000000000600082015250565b7f6572726f7220312c206e6f742076616c6964206e756d00000000000000000000600082015250565b7f6572726f72332c206e6f742076616c6964206e756d0000000000000000000000600082015250565b7f7375636365737320310000000000000000000000000000000000000000000000600082015250565b61048f8161037b565b811461049a57600080fd5b5056fea2646970667358221220568ec61969dac430a7e0138e6e06dad6eb01965d3e288bfcdeec0d1ee9e5b1aa64736f6c63430008070033",
					"opcodes": "PUSH1 0x80 PUSH1 0x40 MSTORE CALLVALUE DUP1 ISZERO PUSH2 0x10 JUMPI PUSH1 0x0 DUP1 REVERT JUMPDEST POP PUSH2 0x4D3 DUP1 PUSH2 0x20 PUSH1 0x0 CODECOPY PUSH1 0x0 RETURN INVALID PUSH1 0x80 PUSH1 0x40 MSTORE CALLVALUE DUP1 ISZERO PUSH2 0x10 JUMPI PUSH1 0x0 DUP1 REVERT JUMPDEST POP PUSH1 0x4 CALLDATASIZE LT PUSH2 0x41 JUMPI PUSH1 0x0 CALLDATALOAD PUSH1 0xE0 SHR DUP1 PUSH4 0x19AE8994 EQ PUSH2 0x46 JUMPI DUP1 PUSH4 0xCAF44683 EQ PUSH2 0x62 JUMPI DUP1 PUSH4 0xF7ADC48F EQ PUSH2 0x7E JUMPI JUMPDEST PUSH1 0x0 DUP1 REVERT JUMPDEST PUSH2 0x60 PUSH1 0x4 DUP1 CALLDATASIZE SUB DUP2 ADD SWAP1 PUSH2 0x5B SWAP2 SWAP1 PUSH2 0x1EE JUMP JUMPDEST PUSH2 0x9A JUMP JUMPDEST STOP JUMPDEST PUSH2 0x7C PUSH1 0x4 DUP1 CALLDATASIZE SUB DUP2 ADD SWAP1 PUSH2 0x77 SWAP2 SWAP1 PUSH2 0x1EE JUMP JUMPDEST PUSH2 0x115 JUMP JUMPDEST STOP JUMPDEST PUSH2 0x98 PUSH1 0x4 DUP1 CALLDATASIZE SUB DUP2 ADD SWAP1 PUSH2 0x93 SWAP2 SWAP1 PUSH2 0x1EE JUMP JUMPDEST PUSH2 0x15E JUMP JUMPDEST STOP JUMPDEST PUSH1 0xF5 DUP2 EQ PUSH2 0xDD JUMPI PUSH1 0x40 MLOAD PUSH32 0x8C379A000000000000000000000000000000000000000000000000000000000 DUP2 MSTORE PUSH1 0x4 ADD PUSH2 0xD4 SWAP1 PUSH2 0x30A JUMP JUMPDEST PUSH1 0x40 MLOAD DUP1 SWAP2 SUB SWAP1 REVERT JUMPDEST PUSH32 0x166B96A382DC3ABC86BA052CA9C020CFD7022D2D3059E868918A3D20779E41CC PUSH1 0x40 MLOAD PUSH2 0x10A SWAP1 PUSH2 0x34A JUMP JUMPDEST PUSH1 0x40 MLOAD DUP1 SWAP2 SUB SWAP1 LOG1 POP JUMP JUMPDEST PUSH1 0xF5 DUP2 EQ PUSH2 0x126 JUMPI PUSH2 0x125 PUSH2 0x385 JUMP JUMPDEST JUMPDEST PUSH32 0x166B96A382DC3ABC86BA052CA9C020CFD7022D2D3059E868918A3D20779E41CC PUSH1 0x40 MLOAD PUSH2 0x153 SWAP1 PUSH2 0x2EA JUMP JUMPDEST PUSH1 0x40 MLOAD DUP1 SWAP2 SUB SWAP1 LOG1 POP JUMP JUMPDEST PUSH1 0xF5 DUP2 EQ PUSH2 0x1A1 JUMPI PUSH1 0x40 MLOAD PUSH32 0x6D20926100000000000000000000000000000000000000000000000000000000 DUP2 MSTORE PUSH1 0x4 ADD PUSH2 0x198 SWAP1 PUSH2 0x32A JUMP JUMPDEST PUSH1 0x40 MLOAD DUP1 SWAP2 SUB SWAP1 REVERT JUMPDEST PUSH32 0x166B96A382DC3ABC86BA052CA9C020CFD7022D2D3059E868918A3D20779E41CC PUSH1 0x40 MLOAD PUSH2 0x1CE SWAP1 PUSH2 0x2CA JUMP JUMPDEST PUSH1 0x40 MLOAD DUP1 SWAP2 SUB SWAP1 LOG1 POP JUMP JUMPDEST PUSH1 0x0 DUP2 CALLDATALOAD SWAP1 POP PUSH2 0x1E8 DUP2 PUSH2 0x486 JUMP JUMPDEST SWAP3 SWAP2 POP POP JUMP JUMPDEST PUSH1 0x0 PUSH1 0x20 DUP3 DUP5 SUB SLT ISZERO PUSH2 0x204 JUMPI PUSH2 0x203 PUSH2 0x3B4 JUMP JUMPDEST JUMPDEST PUSH1 0x0 PUSH2 0x212 DUP5 DUP3 DUP6 ADD PUSH2 0x1D9 JUMP JUMPDEST SWAP2 POP POP SWAP3 SWAP2 POP POP JUMP JUMPDEST PUSH1 0x0 PUSH2 0x228 PUSH1 0x9 DUP4 PUSH2 0x36A JUMP JUMPDEST SWAP2 POP PUSH2 0x233 DUP3 PUSH2 0x3B9 JUMP JUMPDEST PUSH1 0x20 DUP3 ADD SWAP1 POP SWAP2 SWAP1 POP JUMP JUMPDEST PUSH1 0x0 PUSH2 0x24B PUSH1 0x9 DUP4 PUSH2 0x36A JUMP JUMPDEST SWAP2 POP PUSH2 0x256 DUP3 PUSH2 0x3E2 JUMP JUMPDEST PUSH1 0x20 DUP3 ADD SWAP1 POP SWAP2 SWAP1 POP JUMP JUMPDEST PUSH1 0x0 PUSH2 0x26E PUSH1 0x16 DUP4 PUSH2 0x36A JUMP JUMPDEST SWAP2 POP PUSH2 0x279 DUP3 PUSH2 0x40B JUMP JUMPDEST PUSH1 0x20 DUP3 ADD SWAP1 POP SWAP2 SWAP1 POP JUMP JUMPDEST PUSH1 0x0 PUSH2 0x291 PUSH1 0x15 DUP4 PUSH2 0x36A JUMP JUMPDEST SWAP2 POP PUSH2 0x29C DUP3 PUSH2 0x434 JUMP JUMPDEST PUSH1 0x20 DUP3 ADD SWAP1 POP SWAP2 SWAP1 POP JUMP JUMPDEST PUSH1 0x0 PUSH2 0x2B4 PUSH1 0x9 DUP4 PUSH2 0x36A JUMP JUMPDEST SWAP2 POP PUSH2 0x2BF DUP3 PUSH2 0x45D JUMP JUMPDEST PUSH1 0x20 DUP3 ADD SWAP1 POP SWAP2 SWAP1 POP JUMP JUMPDEST PUSH1 0x0 PUSH1 0x20 DUP3 ADD SWAP1 POP DUP2 DUP2 SUB PUSH1 0x0 DUP4 ADD MSTORE PUSH2 0x2E3 DUP2 PUSH2 0x21B JUMP JUMPDEST SWAP1 POP SWAP2 SWAP1 POP JUMP JUMPDEST PUSH1 0x0 PUSH1 0x20 DUP3 ADD SWAP1 POP DUP2 DUP2 SUB PUSH1 0x0 DUP4 ADD MSTORE PUSH2 0x303 DUP2 PUSH2 0x23E JUMP JUMPDEST SWAP1 POP SWAP2 SWAP1 POP JUMP JUMPDEST PUSH1 0x0 PUSH1 0x20 DUP3 ADD SWAP1 POP DUP2 DUP2 SUB PUSH1 0x0 DUP4 ADD MSTORE PUSH2 0x323 DUP2 PUSH2 0x261 JUMP JUMPDEST SWAP1 POP SWAP2 SWAP1 POP JUMP JUMPDEST PUSH1 0x0 PUSH1 0x20 DUP3 ADD SWAP1 POP DUP2 DUP2 SUB PUSH1 0x0 DUP4 ADD MSTORE PUSH2 0x343 DUP2 PUSH2 0x284 JUMP JUMPDEST SWAP1 POP SWAP2 SWAP1 POP JUMP JUMPDEST PUSH1 0x0 PUSH1 0x20 DUP3 ADD SWAP1 POP DUP2 DUP2 SUB PUSH1 0x0 DUP4 ADD MSTORE PUSH2 0x363 DUP2 PUSH2 0x2A7 JUMP JUMPDEST SWAP1 POP SWAP2 SWAP1 POP JUMP JUMPDEST PUSH1 0x0 DUP3 DUP3 MSTORE PUSH1 0x20 DUP3 ADD SWAP1 POP SWAP3 SWAP2 POP POP JUMP JUMPDEST PUSH1 0x0 DUP2 SWAP1 POP SWAP2 SWAP1 POP JUMP JUMPDEST PUSH32 0x4E487B7100000000000000000000000000000000000000000000000000000000 PUSH1 0x0 MSTORE PUSH1 0x1 PUSH1 0x4 MSTORE PUSH1 0x24 PUSH1 0x0 REVERT JUMPDEST PUSH1 0x0 DUP1 REVERT JUMPDEST PUSH32 0x7375636365737320330000000000000000000000000000000000000000000000 PUSH1 0x0 DUP3 ADD MSTORE POP JUMP JUMPDEST PUSH32 0x7375636365737320320000000000000000000000000000000000000000000000 PUSH1 0x0 DUP3 ADD MSTORE POP JUMP JUMPDEST PUSH32 0x6572726F7220312C206E6F742076616C6964206E756D00000000000000000000 PUSH1 0x0 DUP3 ADD MSTORE POP JUMP JUMPDEST PUSH32 0x6572726F72332C206E6F742076616C6964206E756D0000000000000000000000 PUSH1 0x0 DUP3 ADD MSTORE POP JUMP JUMPDEST PUSH32 0x7375636365737320310000000000000000000000000000000000000000000000 PUSH1 0x0 DUP3 ADD MSTORE POP JUMP JUMPDEST PUSH2 0x48F DUP2 PUSH2 0x37B JUMP JUMPDEST DUP2 EQ PUSH2 0x49A JUMPI PUSH1 0x0 DUP1 REVERT JUMPDEST POP JUMP INVALID LOG2 PUSH5 0x6970667358 0x22 SLT KECCAK256 JUMP DUP15 0xC6 NOT PUSH10 0xDAC430A7E0138E6E06DA 0xD6 0xEB ADD SWAP7 0x5D RETURNDATACOPY 0x28 DUP12 0xFC 0xDE 0xEC 0xD 0x1E 0xE9 0xE5 0xB1 0xAA PUSH5 0x736F6C6343 STOP ADDMOD SMOD STOP CALLER "
				},
				"gasEstimates": {
					"creation": {
						"codeDepositCost": "247000",
						"executionCost": "287",
						"totalCost": "247287"
					},
					"external": {
						"test1(uint256)": "694",
						"test2(uint256)": "2231",
						"test3(uint256)": "738"
					}
				},
				"methodIdentifiers": {
					"test1(uint256)": "19ae8994",
					"test2(uint256)": "caf44683",
					"test3(uint256)": "f7adc48f"
				}
			},
			"storageLayout": {
				"storage": [],
				"types": null
			},
			"userdoc": {
				"kind": "user",
				"methods": {},
				"version": 1
			}
		}
	}
}