{
	"contracts/call.sol": {
		"CallContract": {
			"abi": [
				{
					"anonymous": false,
					"inputs": [
						{
							"indexed": false,
							"internalType": "bool",
							"name": "successs",
							"type": "bool"
						},
						{
							"indexed": false,
							"internalType": "bytes",
							"name": "data",
							"type": "bytes"
						}
					],
					"name": "Response",
					"type": "event"
				},
				{
					"inputs": [
						{
							"internalType": "address payable",
							"name": "_addr",
							"type": "address"
						},
						{
							"internalType": "uint256",
							"name": "amount",
							"type": "uint256"
						}
					],
					"name": "callSetX",
					"outputs": [],
					"stateMutability": "payable",
					"type": "function"
				},
				{
					"inputs": [
						{
							"internalType": "address payable",
							"name": "_address",
							"type": "address"
						}
					],
					"name": "getBalance",
					"outputs": [
						{
							"internalType": "uint256",
							"name": "",
							"type": "uint256"
						}
					],
					"stateMutability": "view",
					"type": "function"
				}
			],
			"devdoc": {
				"kind": "dev",
				"methods": {},
				"version": 1
			},
			"evm": {
				"assembly": "    /* \"contracts/call.sol\":556:1050  contract CallContract {... */\n  mstore(0x40, 0x80)\n  callvalue\n  dup1\n  iszero\n  tag_1\n  jumpi\n  0x00\n  dup1\n  revert\ntag_1:\n  pop\n  dataSize(sub_0)\n  dup1\n  dataOffset(sub_0)\n  0x00\n  codecopy\n  0x00\n  return\nstop\n\nsub_0: assembly {\n        /* \"contracts/call.sol\":556:1050  contract CallContract {... */\n      mstore(0x40, 0x80)\n      jumpi(tag_1, lt(calldatasize, 0x04))\n      shr(0xe0, calldataload(0x00))\n      dup1\n      0x3ca065bb\n      eq\n      tag_2\n      jumpi\n      dup1\n      0xf8b2cb4f\n      eq\n      tag_3\n      jumpi\n    tag_1:\n      0x00\n      dup1\n      revert\n        /* \"contracts/call.sol\":779:1048  function callSetX(address payable _addr, uint256 amount) public payable {... */\n    tag_2:\n      tag_4\n      0x04\n      dup1\n      calldatasize\n      sub\n      dup2\n      add\n      swap1\n      tag_5\n      swap2\n      swap1\n      tag_6\n      jump\t// in\n    tag_5:\n      tag_7\n      jump\t// in\n    tag_4:\n      stop\n        /* \"contracts/call.sol\":633:773  function getBalance(address payable _address) external view returns(uint256) {... */\n    tag_3:\n      callvalue\n      dup1\n      iszero\n      tag_8\n      jumpi\n      0x00\n      dup1\n      revert\n    tag_8:\n      pop\n      tag_9\n      0x04\n      dup1\n      calldatasize\n      sub\n      dup2\n      add\n      swap1\n      tag_10\n      swap2\n      swap1\n      tag_11\n      jump\t// in\n    tag_10:\n      tag_12\n      jump\t// in\n    tag_9:\n      mload(0x40)\n      tag_13\n      swap2\n      swap1\n      tag_14\n      jump\t// in\n    tag_13:\n      mload(0x40)\n      dup1\n      swap2\n      sub\n      swap1\n      return\n        /* \"contracts/call.sol\":779:1048  function callSetX(address payable _addr, uint256 amount) public payable {... */\n    tag_7:\n        /* \"contracts/call.sol\":862:874  bool success */\n      0x00\n        /* \"contracts/call.sol\":876:893  bytes memory data */\n      dup1\n        /* \"contracts/call.sol\":897:902  _addr */\n      dup4\n        /* \"contracts/call.sol\":897:907  _addr.call */\n      0xffffffffffffffffffffffffffffffffffffffff\n      and\n        /* \"contracts/call.sol\":915:924  msg.value */\n      callvalue\n        /* \"contracts/call.sol\":986:992  amount */\n      dup5\n        /* \"contracts/call.sol\":940:993  abi.encodeWithSignature(\"set_y(unit amount)\", amount) */\n      add(0x24, mload(0x40))\n      tag_16\n      swap2\n      swap1\n      tag_14\n      jump\t// in\n    tag_16:\n      mload(0x40)\n      0x20\n      dup2\n      dup4\n      sub\n      sub\n      dup2\n      mstore\n      swap1\n      0x40\n      mstore\n      and(not(0xffffffffffffffffffffffffffffffffffffffffffffffffffffffff), 0xe2c8bab100000000000000000000000000000000000000000000000000000000)\n      0x20\n      dup3\n      add\n      dup1\n      mload\n      0xffffffffffffffffffffffffffffffffffffffffffffffffffffffff\n      dup4\n      dup2\n      dup4\n      and\n      or\n      dup4\n      mstore\n      pop\n      pop\n      pop\n      pop\n        /* \"contracts/call.sol\":897:1003  _addr.call{value: msg.value} (... */\n      mload(0x40)\n      tag_17\n      swap2\n      swap1\n      tag_18\n      jump\t// in\n    tag_17:\n      0x00\n      mload(0x40)\n      dup1\n      dup4\n      sub\n      dup2\n      dup6\n      dup8\n      gas\n      call\n      swap3\n      pop\n      pop\n      pop\n      returndatasize\n      dup1\n      0x00\n      dup2\n      eq\n      tag_21\n      jumpi\n      mload(0x40)\n      swap2\n      pop\n      and(add(returndatasize, 0x3f), not(0x1f))\n      dup3\n      add\n      0x40\n      mstore\n      returndatasize\n      dup3\n      mstore\n      returndatasize\n      0x00\n      0x20\n      dup5\n      add\n      returndatacopy\n      jump(tag_20)\n    tag_21:\n      0x60\n      swap2\n      pop\n    tag_20:\n      pop\n        /* \"contracts/call.sol\":861:1003  (bool success, bytes memory data) = _addr.call{value: msg.value} (... */\n      swap2\n      pop\n      swap2\n      pop\n        /* \"contracts/call.sol\":1018:1041  Response(success, data) */\n      0x13848c3e38f8886f3f5d2ad9dff80d8092c2bbb8efd5b887a99c2c6cfc09ac2a\n        /* \"contracts/call.sol\":1027:1034  success */\n      dup3\n        /* \"contracts/call.sol\":1036:1040  data */\n      dup3\n        /* \"contracts/call.sol\":1018:1041  Response(success, data) */\n      mload(0x40)\n      tag_22\n      swap3\n      swap2\n      swap1\n      tag_23\n      jump\t// in\n    tag_22:\n      mload(0x40)\n      dup1\n      swap2\n      sub\n      swap1\n      log1\n        /* \"contracts/call.sol\":851:1048  {... */\n      pop\n      pop\n        /* \"contracts/call.sol\":779:1048  function callSetX(address payable _addr, uint256 amount) public payable {... */\n      pop\n      pop\n      jump\t// out\n        /* \"contracts/call.sol\":633:773  function getBalance(address payable _address) external view returns(uint256) {... */\n    tag_12:\n        /* \"contracts/call.sol\":701:708  uint256 */\n      0x00\n        /* \"contracts/call.sol\":741:749  _address */\n      dup2\n        /* \"contracts/call.sol\":727:764  OtherContract(_address).getETHBalance */\n      0xffffffffffffffffffffffffffffffffffffffff\n      and\n      0x6e947298\n        /* \"contracts/call.sol\":727:766  OtherContract(_address).getETHBalance() */\n      mload(0x40)\n      dup2\n      0xffffffff\n      and\n      0xe0\n      shl\n      dup2\n      mstore\n      0x04\n      add\n      0x20\n      mload(0x40)\n      dup1\n      dup4\n      sub\n      dup2\n      dup7\n      dup1\n      extcodesize\n      iszero\n      dup1\n      iszero\n      tag_25\n      jumpi\n      0x00\n      dup1\n      revert\n    tag_25:\n      pop\n      gas\n      staticcall\n      iszero\n      dup1\n      iszero\n      tag_27\n      jumpi\n      returndatasize\n      0x00\n      dup1\n      returndatacopy\n      revert(0x00, returndatasize)\n    tag_27:\n      pop\n      pop\n      pop\n      pop\n      mload(0x40)\n      returndatasize\n      not(0x1f)\n      0x1f\n      dup3\n      add\n      and\n      dup3\n      add\n      dup1\n      0x40\n      mstore\n      pop\n      dup2\n      add\n      swap1\n      tag_28\n      swap2\n      swap1\n      tag_29\n      jump\t// in\n    tag_28:\n        /* \"contracts/call.sol\":720:766  return OtherContract(_address).getETHBalance() */\n      swap1\n      pop\n        /* \"contracts/call.sol\":633:773  function getBalance(address payable _address) external view returns(uint256) {... */\n      swap2\n      swap1\n      pop\n      jump\t// out\n        /* \"#utility.yul\":7:162   */\n    tag_31:\n        /* \"#utility.yul\":61:66   */\n      0x00\n        /* \"#utility.yul\":99:105   */\n      dup2\n        /* \"#utility.yul\":86:106   */\n      calldataload\n        /* \"#utility.yul\":77:106   */\n      swap1\n      pop\n        /* \"#utility.yul\":115:156   */\n      tag_33\n        /* \"#utility.yul\":150:155   */\n      dup2\n        /* \"#utility.yul\":115:156   */\n      tag_34\n      jump\t// in\n    tag_33:\n        /* \"#utility.yul\":7:162   */\n      swap3\n      swap2\n      pop\n      pop\n      jump\t// out\n        /* \"#utility.yul\":168:307   */\n    tag_35:\n        /* \"#utility.yul\":214:219   */\n      0x00\n        /* \"#utility.yul\":252:258   */\n      dup2\n        /* \"#utility.yul\":239:259   */\n      calldataload\n        /* \"#utility.yul\":230:259   */\n      swap1\n      pop\n        /* \"#utility.yul\":268:301   */\n      tag_37\n        /* \"#utility.yul\":295:300   */\n      dup2\n        /* \"#utility.yul\":268:301   */\n      tag_38\n      jump\t// in\n    tag_37:\n        /* \"#utility.yul\":168:307   */\n      swap3\n      swap2\n      pop\n      pop\n      jump\t// out\n        /* \"#utility.yul\":313:456   */\n    tag_39:\n        /* \"#utility.yul\":370:375   */\n      0x00\n        /* \"#utility.yul\":401:407   */\n      dup2\n        /* \"#utility.yul\":395:408   */\n      mload\n        /* \"#utility.yul\":386:408   */\n      swap1\n      pop\n        /* \"#utility.yul\":417:450   */\n      tag_41\n        /* \"#utility.yul\":444:449   */\n      dup2\n        /* \"#utility.yul\":417:450   */\n      tag_38\n      jump\t// in\n    tag_41:\n        /* \"#utility.yul\":313:456   */\n      swap3\n      swap2\n      pop\n      pop\n      jump\t// out\n        /* \"#utility.yul\":462:807   */\n    tag_11:\n        /* \"#utility.yul\":529:535   */\n      0x00\n        /* \"#utility.yul\":578:580   */\n      0x20\n        /* \"#utility.yul\":566:575   */\n      dup3\n        /* \"#utility.yul\":557:564   */\n      dup5\n        /* \"#utility.yul\":553:576   */\n      sub\n        /* \"#utility.yul\":549:581   */\n      slt\n        /* \"#utility.yul\":546:665   */\n      iszero\n      tag_43\n      jumpi\n        /* \"#utility.yul\":584:663   */\n      tag_44\n      tag_45\n      jump\t// in\n    tag_44:\n        /* \"#utility.yul\":546:665   */\n    tag_43:\n        /* \"#utility.yul\":704:705   */\n      0x00\n        /* \"#utility.yul\":729:790   */\n      tag_46\n        /* \"#utility.yul\":782:789   */\n      dup5\n        /* \"#utility.yul\":773:779   */\n      dup3\n        /* \"#utility.yul\":762:771   */\n      dup6\n        /* \"#utility.yul\":758:780   */\n      add\n        /* \"#utility.yul\":729:790   */\n      tag_31\n      jump\t// in\n    tag_46:\n        /* \"#utility.yul\":719:790   */\n      swap2\n      pop\n        /* \"#utility.yul\":675:800   */\n      pop\n        /* \"#utility.yul\":462:807   */\n      swap3\n      swap2\n      pop\n      pop\n      jump\t// out\n        /* \"#utility.yul\":813:1303   */\n    tag_6:\n        /* \"#utility.yul\":889:895   */\n      0x00\n        /* \"#utility.yul\":897:903   */\n      dup1\n        /* \"#utility.yul\":946:948   */\n      0x40\n        /* \"#utility.yul\":934:943   */\n      dup4\n        /* \"#utility.yul\":925:932   */\n      dup6\n        /* \"#utility.yul\":921:944   */\n      sub\n        /* \"#utility.yul\":917:949   */\n      slt\n        /* \"#utility.yul\":914:1033   */\n      iszero\n      tag_48\n      jumpi\n        /* \"#utility.yul\":952:1031   */\n      tag_49\n      tag_45\n      jump\t// in\n    tag_49:\n        /* \"#utility.yul\":914:1033   */\n    tag_48:\n        /* \"#utility.yul\":1072:1073   */\n      0x00\n        /* \"#utility.yul\":1097:1158   */\n      tag_50\n        /* \"#utility.yul\":1150:1157   */\n      dup6\n        /* \"#utility.yul\":1141:1147   */\n      dup3\n        /* \"#utility.yul\":1130:1139   */\n      dup7\n        /* \"#utility.yul\":1126:1148   */\n      add\n        /* \"#utility.yul\":1097:1158   */\n      tag_31\n      jump\t// in\n    tag_50:\n        /* \"#utility.yul\":1087:1158   */\n      swap3\n      pop\n        /* \"#utility.yul\":1043:1168   */\n      pop\n        /* \"#utility.yul\":1207:1209   */\n      0x20\n        /* \"#utility.yul\":1233:1286   */\n      tag_51\n        /* \"#utility.yul\":1278:1285   */\n      dup6\n        /* \"#utility.yul\":1269:1275   */\n      dup3\n        /* \"#utility.yul\":1258:1267   */\n      dup7\n        /* \"#utility.yul\":1254:1276   */\n      add\n        /* \"#utility.yul\":1233:1286   */\n      tag_35\n      jump\t// in\n    tag_51:\n        /* \"#utility.yul\":1223:1286   */\n      swap2\n      pop\n        /* \"#utility.yul\":1178:1296   */\n      pop\n        /* \"#utility.yul\":813:1303   */\n      swap3\n      pop\n      swap3\n      swap1\n      pop\n      jump\t// out\n        /* \"#utility.yul\":1309:1660   */\n    tag_29:\n        /* \"#utility.yul\":1379:1385   */\n      0x00\n        /* \"#utility.yul\":1428:1430   */\n      0x20\n        /* \"#utility.yul\":1416:1425   */\n      dup3\n        /* \"#utility.yul\":1407:1414   */\n      dup5\n        /* \"#utility.yul\":1403:1426   */\n      sub\n        /* \"#utility.yul\":1399:1431   */\n      slt\n        /* \"#utility.yul\":1396:1515   */\n      iszero\n      tag_53\n      jumpi\n        /* \"#utility.yul\":1434:1513   */\n      tag_54\n      tag_45\n      jump\t// in\n    tag_54:\n        /* \"#utility.yul\":1396:1515   */\n    tag_53:\n        /* \"#utility.yul\":1554:1555   */\n      0x00\n        /* \"#utility.yul\":1579:1643   */\n      tag_55\n        /* \"#utility.yul\":1635:1642   */\n      dup5\n        /* \"#utility.yul\":1626:1632   */\n      dup3\n        /* \"#utility.yul\":1615:1624   */\n      dup6\n        /* \"#utility.yul\":1611:1633   */\n      add\n        /* \"#utility.yul\":1579:1643   */\n      tag_39\n      jump\t// in\n    tag_55:\n        /* \"#utility.yul\":1569:1643   */\n      swap2\n      pop\n        /* \"#utility.yul\":1525:1653   */\n      pop\n        /* \"#utility.yul\":1309:1660   */\n      swap3\n      swap2\n      pop\n      pop\n      jump\t// out\n        /* \"#utility.yul\":1666:1775   */\n    tag_56:\n        /* \"#utility.yul\":1747:1768   */\n      tag_58\n        /* \"#utility.yul\":1762:1767   */\n      dup2\n        /* \"#utility.yul\":1747:1768   */\n      tag_59\n      jump\t// in\n    tag_58:\n        /* \"#utility.yul\":1742:1745   */\n      dup3\n        /* \"#utility.yul\":1735:1769   */\n      mstore\n        /* \"#utility.yul\":1666:1775   */\n      pop\n      pop\n      jump\t// out\n        /* \"#utility.yul\":1781:2141   */\n    tag_60:\n        /* \"#utility.yul\":1867:1870   */\n      0x00\n        /* \"#utility.yul\":1895:1933   */\n      tag_62\n        /* \"#utility.yul\":1927:1932   */\n      dup3\n        /* \"#utility.yul\":1895:1933   */\n      tag_63\n      jump\t// in\n    tag_62:\n        /* \"#utility.yul\":1949:2019   */\n      tag_64\n        /* \"#utility.yul\":2012:2018   */\n      dup2\n        /* \"#utility.yul\":2007:2010   */\n      dup6\n        /* \"#utility.yul\":1949:2019   */\n      tag_65\n      jump\t// in\n    tag_64:\n        /* \"#utility.yul\":1942:2019   */\n      swap4\n      pop\n        /* \"#utility.yul\":2028:2080   */\n      tag_66\n        /* \"#utility.yul\":2073:2079   */\n      dup2\n        /* \"#utility.yul\":2068:2071   */\n      dup6\n        /* \"#utility.yul\":2061:2065   */\n      0x20\n        /* \"#utility.yul\":2054:2059   */\n      dup7\n        /* \"#utility.yul\":2050:2066   */\n      add\n        /* \"#utility.yul\":2028:2080   */\n      tag_67\n      jump\t// in\n    tag_66:\n        /* \"#utility.yul\":2105:2134   */\n      tag_68\n        /* \"#utility.yul\":2127:2133   */\n      dup2\n        /* \"#utility.yul\":2105:2134   */\n      tag_69\n      jump\t// in\n    tag_68:\n        /* \"#utility.yul\":2100:2103   */\n      dup5\n        /* \"#utility.yul\":2096:2135   */\n      add\n        /* \"#utility.yul\":2089:2135   */\n      swap2\n      pop\n        /* \"#utility.yul\":1871:2141   */\n      pop\n        /* \"#utility.yul\":1781:2141   */\n      swap3\n      swap2\n      pop\n      pop\n      jump\t// out\n        /* \"#utility.yul\":2147:2520   */\n    tag_70:\n        /* \"#utility.yul\":2251:2254   */\n      0x00\n        /* \"#utility.yul\":2279:2317   */\n      tag_72\n        /* \"#utility.yul\":2311:2316   */\n      dup3\n        /* \"#utility.yul\":2279:2317   */\n      tag_63\n      jump\t// in\n    tag_72:\n        /* \"#utility.yul\":2333:2421   */\n      tag_73\n        /* \"#utility.yul\":2414:2420   */\n      dup2\n        /* \"#utility.yul\":2409:2412   */\n      dup6\n        /* \"#utility.yul\":2333:2421   */\n      tag_74\n      jump\t// in\n    tag_73:\n        /* \"#utility.yul\":2326:2421   */\n      swap4\n      pop\n        /* \"#utility.yul\":2430:2482   */\n      tag_75\n        /* \"#utility.yul\":2475:2481   */\n      dup2\n        /* \"#utility.yul\":2470:2473   */\n      dup6\n        /* \"#utility.yul\":2463:2467   */\n      0x20\n        /* \"#utility.yul\":2456:2461   */\n      dup7\n        /* \"#utility.yul\":2452:2468   */\n      add\n        /* \"#utility.yul\":2430:2482   */\n      tag_67\n      jump\t// in\n    tag_75:\n        /* \"#utility.yul\":2507:2513   */\n      dup1\n        /* \"#utility.yul\":2502:2505   */\n      dup5\n        /* \"#utility.yul\":2498:2514   */\n      add\n        /* \"#utility.yul\":2491:2514   */\n      swap2\n      pop\n        /* \"#utility.yul\":2255:2520   */\n      pop\n        /* \"#utility.yul\":2147:2520   */\n      swap3\n      swap2\n      pop\n      pop\n      jump\t// out\n        /* \"#utility.yul\":2526:2644   */\n    tag_76:\n        /* \"#utility.yul\":2613:2637   */\n      tag_78\n        /* \"#utility.yul\":2631:2636   */\n      dup2\n        /* \"#utility.yul\":2613:2637   */\n      tag_79\n      jump\t// in\n    tag_78:\n        /* \"#utility.yul\":2608:2611   */\n      dup3\n        /* \"#utility.yul\":2601:2638   */\n      mstore\n        /* \"#utility.yul\":2526:2644   */\n      pop\n      pop\n      jump\t// out\n        /* \"#utility.yul\":2650:2921   */\n    tag_18:\n        /* \"#utility.yul\":2780:2783   */\n      0x00\n        /* \"#utility.yul\":2802:2895   */\n      tag_81\n        /* \"#utility.yul\":2891:2894   */\n      dup3\n        /* \"#utility.yul\":2882:2888   */\n      dup5\n        /* \"#utility.yul\":2802:2895   */\n      tag_70\n      jump\t// in\n    tag_81:\n        /* \"#utility.yul\":2795:2895   */\n      swap2\n      pop\n        /* \"#utility.yul\":2912:2915   */\n      dup2\n        /* \"#utility.yul\":2905:2915   */\n      swap1\n      pop\n        /* \"#utility.yul\":2650:2921   */\n      swap3\n      swap2\n      pop\n      pop\n      jump\t// out\n        /* \"#utility.yul\":2927:3334   */\n    tag_23:\n        /* \"#utility.yul\":3060:3064   */\n      0x00\n        /* \"#utility.yul\":3098:3100   */\n      0x40\n        /* \"#utility.yul\":3087:3096   */\n      dup3\n        /* \"#utility.yul\":3083:3101   */\n      add\n        /* \"#utility.yul\":3075:3101   */\n      swap1\n      pop\n        /* \"#utility.yul\":3111:3176   */\n      tag_83\n        /* \"#utility.yul\":3173:3174   */\n      0x00\n        /* \"#utility.yul\":3162:3171   */\n      dup4\n        /* \"#utility.yul\":3158:3175   */\n      add\n        /* \"#utility.yul\":3149:3155   */\n      dup6\n        /* \"#utility.yul\":3111:3176   */\n      tag_56\n      jump\t// in\n    tag_83:\n        /* \"#utility.yul\":3223:3232   */\n      dup2\n        /* \"#utility.yul\":3217:3221   */\n      dup2\n        /* \"#utility.yul\":3213:3233   */\n      sub\n        /* \"#utility.yul\":3208:3210   */\n      0x20\n        /* \"#utility.yul\":3197:3206   */\n      dup4\n        /* \"#utility.yul\":3193:3211   */\n      add\n        /* \"#utility.yul\":3186:3234   */\n      mstore\n        /* \"#utility.yul\":3251:3327   */\n      tag_84\n        /* \"#utility.yul\":3322:3326   */\n      dup2\n        /* \"#utility.yul\":3313:3319   */\n      dup5\n        /* \"#utility.yul\":3251:3327   */\n      tag_60\n      jump\t// in\n    tag_84:\n        /* \"#utility.yul\":3243:3327   */\n      swap1\n      pop\n        /* \"#utility.yul\":2927:3334   */\n      swap4\n      swap3\n      pop\n      pop\n      pop\n      jump\t// out\n        /* \"#utility.yul\":3340:3562   */\n    tag_14:\n        /* \"#utility.yul\":3433:3437   */\n      0x00\n        /* \"#utility.yul\":3471:3473   */\n      0x20\n        /* \"#utility.yul\":3460:3469   */\n      dup3\n        /* \"#utility.yul\":3456:3474   */\n      add\n        /* \"#utility.yul\":3448:3474   */\n      swap1\n      pop\n        /* \"#utility.yul\":3484:3555   */\n      tag_86\n        /* \"#utility.yul\":3552:3553   */\n      0x00\n        /* \"#utility.yul\":3541:3550   */\n      dup4\n        /* \"#utility.yul\":3537:3554   */\n      add\n        /* \"#utility.yul\":3528:3534   */\n      dup5\n        /* \"#utility.yul\":3484:3555   */\n      tag_76\n      jump\t// in\n    tag_86:\n        /* \"#utility.yul\":3340:3562   */\n      swap3\n      swap2\n      pop\n      pop\n      jump\t// out\n        /* \"#utility.yul\":3649:3747   */\n    tag_63:\n        /* \"#utility.yul\":3700:3706   */\n      0x00\n        /* \"#utility.yul\":3734:3739   */\n      dup2\n        /* \"#utility.yul\":3728:3740   */\n      mload\n        /* \"#utility.yul\":3718:3740   */\n      swap1\n      pop\n        /* \"#utility.yul\":3649:3747   */\n      swap2\n      swap1\n      pop\n      jump\t// out\n        /* \"#utility.yul\":3753:3921   */\n    tag_65:\n        /* \"#utility.yul\":3836:3847   */\n      0x00\n        /* \"#utility.yul\":3870:3876   */\n      dup3\n        /* \"#utility.yul\":3865:3868   */\n      dup3\n        /* \"#utility.yul\":3858:3877   */\n      mstore\n        /* \"#utility.yul\":3910:3914   */\n      0x20\n        /* \"#utility.yul\":3905:3908   */\n      dup3\n        /* \"#utility.yul\":3901:3915   */\n      add\n        /* \"#utility.yul\":3886:3915   */\n      swap1\n      pop\n        /* \"#utility.yul\":3753:3921   */\n      swap3\n      swap2\n      pop\n      pop\n      jump\t// out\n        /* \"#utility.yul\":3927:4074   */\n    tag_74:\n        /* \"#utility.yul\":4028:4039   */\n      0x00\n        /* \"#utility.yul\":4065:4068   */\n      dup2\n        /* \"#utility.yul\":4050:4068   */\n      swap1\n      pop\n        /* \"#utility.yul\":3927:4074   */\n      swap3\n      swap2\n      pop\n      pop\n      jump\t// out\n        /* \"#utility.yul\":4080:4184   */\n    tag_92:\n        /* \"#utility.yul\":4125:4132   */\n      0x00\n        /* \"#utility.yul\":4154:4178   */\n      tag_94\n        /* \"#utility.yul\":4172:4177   */\n      dup3\n        /* \"#utility.yul\":4154:4178   */\n      tag_95\n      jump\t// in\n    tag_94:\n        /* \"#utility.yul\":4143:4178   */\n      swap1\n      pop\n        /* \"#utility.yul\":4080:4184   */\n      swap2\n      swap1\n      pop\n      jump\t// out\n        /* \"#utility.yul\":4190:4280   */\n    tag_59:\n        /* \"#utility.yul\":4224:4231   */\n      0x00\n        /* \"#utility.yul\":4267:4272   */\n      dup2\n        /* \"#utility.yul\":4260:4273   */\n      iszero\n        /* \"#utility.yul\":4253:4274   */\n      iszero\n        /* \"#utility.yul\":4242:4274   */\n      swap1\n      pop\n        /* \"#utility.yul\":4190:4280   */\n      swap2\n      swap1\n      pop\n      jump\t// out\n        /* \"#utility.yul\":4286:4412   */\n    tag_95:\n        /* \"#utility.yul\":4323:4330   */\n      0x00\n        /* \"#utility.yul\":4363:4405   */\n      0xffffffffffffffffffffffffffffffffffffffff\n        /* \"#utility.yul\":4356:4361   */\n      dup3\n        /* \"#utility.yul\":4352:4406   */\n      and\n        /* \"#utility.yul\":4341:4406   */\n      swap1\n      pop\n        /* \"#utility.yul\":4286:4412   */\n      swap2\n      swap1\n      pop\n      jump\t// out\n        /* \"#utility.yul\":4418:4495   */\n    tag_79:\n        /* \"#utility.yul\":4455:4462   */\n      0x00\n        /* \"#utility.yul\":4484:4489   */\n      dup2\n        /* \"#utility.yul\":4473:4489   */\n      swap1\n      pop\n        /* \"#utility.yul\":4418:4495   */\n      swap2\n      swap1\n      pop\n      jump\t// out\n        /* \"#utility.yul\":4501:4808   */\n    tag_67:\n        /* \"#utility.yul\":4569:4570   */\n      0x00\n        /* \"#utility.yul\":4579:4692   */\n    tag_100:\n        /* \"#utility.yul\":4593:4599   */\n      dup4\n        /* \"#utility.yul\":4590:4591   */\n      dup2\n        /* \"#utility.yul\":4587:4600   */\n      lt\n        /* \"#utility.yul\":4579:4692   */\n      iszero\n      tag_102\n      jumpi\n        /* \"#utility.yul\":4678:4679   */\n      dup1\n        /* \"#utility.yul\":4673:4676   */\n      dup3\n        /* \"#utility.yul\":4669:4680   */\n      add\n        /* \"#utility.yul\":4663:4681   */\n      mload\n        /* \"#utility.yul\":4659:4660   */\n      dup2\n        /* \"#utility.yul\":4654:4657   */\n      dup5\n        /* \"#utility.yul\":4650:4661   */\n      add\n        /* \"#utility.yul\":4643:4682   */\n      mstore\n        /* \"#utility.yul\":4615:4617   */\n      0x20\n        /* \"#utility.yul\":4612:4613   */\n      dup2\n        /* \"#utility.yul\":4608:4618   */\n      add\n        /* \"#utility.yul\":4603:4618   */\n      swap1\n      pop\n        /* \"#utility.yul\":4579:4692   */\n      jump(tag_100)\n    tag_102:\n        /* \"#utility.yul\":4710:4716   */\n      dup4\n        /* \"#utility.yul\":4707:4708   */\n      dup2\n        /* \"#utility.yul\":4704:4717   */\n      gt\n        /* \"#utility.yul\":4701:4802   */\n      iszero\n      tag_103\n      jumpi\n        /* \"#utility.yul\":4790:4791   */\n      0x00\n        /* \"#utility.yul\":4781:4787   */\n      dup5\n        /* \"#utility.yul\":4776:4779   */\n      dup5\n        /* \"#utility.yul\":4772:4788   */\n      add\n        /* \"#utility.yul\":4765:4792   */\n      mstore\n        /* \"#utility.yul\":4701:4802   */\n    tag_103:\n        /* \"#utility.yul\":4550:4808   */\n      pop\n        /* \"#utility.yul\":4501:4808   */\n      pop\n      pop\n      pop\n      jump\t// out\n        /* \"#utility.yul\":4937:5054   */\n    tag_45:\n        /* \"#utility.yul\":5046:5047   */\n      0x00\n        /* \"#utility.yul\":5043:5044   */\n      dup1\n        /* \"#utility.yul\":5036:5048   */\n      revert\n        /* \"#utility.yul\":5060:5162   */\n    tag_69:\n        /* \"#utility.yul\":5101:5107   */\n      0x00\n        /* \"#utility.yul\":5152:5154   */\n      0x1f\n        /* \"#utility.yul\":5148:5155   */\n      not\n        /* \"#utility.yul\":5143:5145   */\n      0x1f\n        /* \"#utility.yul\":5136:5141   */\n      dup4\n        /* \"#utility.yul\":5132:5146   */\n      add\n        /* \"#utility.yul\":5128:5156   */\n      and\n        /* \"#utility.yul\":5118:5156   */\n      swap1\n      pop\n        /* \"#utility.yul\":5060:5162   */\n      swap2\n      swap1\n      pop\n      jump\t// out\n        /* \"#utility.yul\":5168:5306   */\n    tag_34:\n        /* \"#utility.yul\":5249:5281   */\n      tag_109\n        /* \"#utility.yul\":5275:5280   */\n      dup2\n        /* \"#utility.yul\":5249:5281   */\n      tag_92\n      jump\t// in\n    tag_109:\n        /* \"#utility.yul\":5242:5247   */\n      dup2\n        /* \"#utility.yul\":5239:5282   */\n      eq\n        /* \"#utility.yul\":5229:5300   */\n      tag_110\n      jumpi\n        /* \"#utility.yul\":5296:5297   */\n      0x00\n        /* \"#utility.yul\":5293:5294   */\n      dup1\n        /* \"#utility.yul\":5286:5298   */\n      revert\n        /* \"#utility.yul\":5229:5300   */\n    tag_110:\n        /* \"#utility.yul\":5168:5306   */\n      pop\n      jump\t// out\n        /* \"#utility.yul\":5312:5434   */\n    tag_38:\n        /* \"#utility.yul\":5385:5409   */\n      tag_112\n        /* \"#utility.yul\":5403:5408   */\n      dup2\n        /* \"#utility.yul\":5385:5409   */\n      tag_79\n      jump\t// in\n    tag_112:\n        /* \"#utility.yul\":5378:5383   */\n      dup2\n        /* \"#utility.yul\":5375:5410   */\n      eq\n        /* \"#utility.yul\":5365:5428   */\n      tag_113\n      jumpi\n        /* \"#utility.yul\":5424:5425   */\n      0x00\n        /* \"#utility.yul\":5421:5422   */\n      dup1\n        /* \"#utility.yul\":5414:5426   */\n      revert\n        /* \"#utility.yul\":5365:5428   */\n    tag_113:\n        /* \"#utility.yul\":5312:5434   */\n      pop\n      jump\t// out\n\n    auxdata: 0xa26469706673582212204fa6359944952c3f9872ab0cf1870f9344ff351ef0324eab88cb27246ab8a52664736f6c63430008070033\n}\n",
				"bytecode": {
					"linkReferences": {},
					"object": "608060405234801561001057600080fd5b50610529806100206000396000f3fe6080604052600436106100295760003560e01c80633ca065bb1461002e578063f8b2cb4f1461004a575b600080fd5b610048600480360381019061004391906102b6565b610087565b005b34801561005657600080fd5b50610071600480360381019061006c9190610289565b6101c3565b60405161007e91906103f2565b60405180910390f35b6000808373ffffffffffffffffffffffffffffffffffffffff1634846040516024016100b391906103f2565b6040516020818303038152906040527fe2c8bab1000000000000000000000000000000000000000000000000000000007bffffffffffffffffffffffffffffffffffffffffffffffffffffffff19166020820180517bffffffffffffffffffffffffffffffffffffffffffffffffffffffff838183161783525050505060405161013d91906103ab565b60006040518083038185875af1925050503d806000811461017a576040519150601f19603f3d011682016040523d82523d6000602084013e61017f565b606091505b50915091507f13848c3e38f8886f3f5d2ad9dff80d8092c2bbb8efd5b887a99c2c6cfc09ac2a82826040516101b59291906103c2565b60405180910390a150505050565b60008173ffffffffffffffffffffffffffffffffffffffff16636e9472986040518163ffffffff1660e01b815260040160206040518083038186803b15801561020b57600080fd5b505afa15801561021f573d6000803e3d6000fd5b505050506040513d601f19601f8201168201806040525081019061024391906102f6565b9050919050565b600081359050610259816104c5565b92915050565b60008135905061026e816104dc565b92915050565b600081519050610283816104dc565b92915050565b60006020828403121561029f5761029e6104af565b5b60006102ad8482850161024a565b91505092915050565b600080604083850312156102cd576102cc6104af565b5b60006102db8582860161024a565b92505060206102ec8582860161025f565b9150509250929050565b60006020828403121561030c5761030b6104af565b5b600061031a84828501610274565b91505092915050565b61032c81610446565b82525050565b600061033d8261040d565b6103478185610418565b935061035781856020860161047c565b610360816104b4565b840191505092915050565b60006103768261040d565b6103808185610429565b935061039081856020860161047c565b80840191505092915050565b6103a581610472565b82525050565b60006103b7828461036b565b915081905092915050565b60006040820190506103d76000830185610323565b81810360208301526103e98184610332565b90509392505050565b6000602082019050610407600083018461039c565b92915050565b600081519050919050565b600082825260208201905092915050565b600081905092915050565b600061043f82610452565b9050919050565b60008115159050919050565b600073ffffffffffffffffffffffffffffffffffffffff82169050919050565b6000819050919050565b60005b8381101561049a57808201518184015260208101905061047f565b838111156104a9576000848401525b50505050565b600080fd5b6000601f19601f8301169050919050565b6104ce81610434565b81146104d957600080fd5b50565b6104e581610472565b81146104f057600080fd5b5056fea26469706673582212204fa6359944952c3f9872ab0cf1870f9344ff351ef0324eab88cb27246ab8a52664736f6c63430008070033",
					"opcodes": "PUSH1 0x80 PUSH1 0x40 MSTORE CALLVALUE DUP1 ISZERO PUSH2 0x10 JUMPI PUSH1 0x0 DUP1 REVERT JUMPDEST POP PUSH2 0x529 DUP1 PUSH2 0x20 PUSH1 0x0 CODECOPY PUSH1 0x0 RETURN INVALID PUSH1 0x80 PUSH1 0x40 MSTORE PUSH1 0x4 CALLDATASIZE LT PUSH2 0x29 JUMPI PUSH1 0x0 CALLDATALOAD PUSH1 0xE0 SHR DUP1 PUSH4 0x3CA065BB EQ PUSH2 0x2E JUMPI DUP1 PUSH4 0xF8B2CB4F EQ PUSH2 0x4A JUMPI JUMPDEST PUSH1 0x0 DUP1 REVERT JUMPDEST PUSH2 0x48 PUSH1 0x4 DUP1 CALLDATASIZE SUB DUP2 ADD SWAP1 PUSH2 0x43 SWAP2 SWAP1 PUSH2 0x2B6 JUMP JUMPDEST PUSH2 0x87 JUMP JUMPDEST STOP JUMPDEST CALLVALUE DUP1 ISZERO PUSH2 0x56 JUMPI PUSH1 0x0 DUP1 REVERT JUMPDEST POP PUSH2 0x71 PUSH1 0x4 DUP1 CALLDATASIZE SUB DUP2 ADD SWAP1 PUSH2 0x6C SWAP2 SWAP1 PUSH2 0x289 JUMP JUMPDEST PUSH2 0x1C3 JUMP JUMPDEST PUSH1 0x40 MLOAD PUSH2 0x7E SWAP2 SWAP1 PUSH2 0x3F2 JUMP JUMPDEST PUSH1 0x40 MLOAD DUP1 SWAP2 SUB SWAP1 RETURN JUMPDEST PUSH1 0x0 DUP1 DUP4 PUSH20 0xFFFFFFFFFFFFFFFFFFFFFFFFFFFFFFFFFFFFFFFF AND CALLVALUE DUP5 PUSH1 0x40 MLOAD PUSH1 0x24 ADD PUSH2 0xB3 SWAP2 SWAP1 PUSH2 0x3F2 JUMP JUMPDEST PUSH1 0x40 MLOAD PUSH1 0x20 DUP2 DUP4 SUB SUB DUP2 MSTORE SWAP1 PUSH1 0x40 MSTORE PUSH32 0xE2C8BAB100000000000000000000000000000000000000000000000000000000 PUSH28 0xFFFFFFFFFFFFFFFFFFFFFFFFFFFFFFFFFFFFFFFFFFFFFFFFFFFFFFFF NOT AND PUSH1 0x20 DUP3 ADD DUP1 MLOAD PUSH28 0xFFFFFFFFFFFFFFFFFFFFFFFFFFFFFFFFFFFFFFFFFFFFFFFFFFFFFFFF DUP4 DUP2 DUP4 AND OR DUP4 MSTORE POP POP POP POP PUSH1 0x40 MLOAD PUSH2 0x13D SWAP2 SWAP1 PUSH2 0x3AB JUMP JUMPDEST PUSH1 0x0 PUSH1 0x40 MLOAD DUP1 DUP4 SUB DUP2 DUP6 DUP8 GAS CALL SWAP3 POP POP POP RETURNDATASIZE DUP1 PUSH1 0x0 DUP2 EQ PUSH2 0x17A JUMPI PUSH1 0x40 MLOAD SWAP2 POP PUSH1 0x1F NOT PUSH1 0x3F RETURNDATASIZE ADD AND DUP3 ADD PUSH1 0x40 MSTORE RETURNDATASIZE DUP3 MSTORE RETURNDATASIZE PUSH1 0x0 PUSH1 0x20 DUP5 ADD RETURNDATACOPY PUSH2 0x17F JUMP JUMPDEST PUSH1 0x60 SWAP2 POP JUMPDEST POP SWAP2 POP SWAP2 POP PUSH32 0x13848C3E38F8886F3F5D2AD9DFF80D8092C2BBB8EFD5B887A99C2C6CFC09AC2A DUP3 DUP3 PUSH1 0x40 MLOAD PUSH2 0x1B5 SWAP3 SWAP2 SWAP1 PUSH2 0x3C2 JUMP JUMPDEST PUSH1 0x40 MLOAD DUP1 SWAP2 SUB SWAP1 LOG1 POP POP POP POP JUMP JUMPDEST PUSH1 0x0 DUP2 PUSH20 0xFFFFFFFFFFFFFFFFFFFFFFFFFFFFFFFFFFFFFFFF AND PUSH4 0x6E947298 PUSH1 0x40 MLOAD DUP2 PUSH4 0xFFFFFFFF AND PUSH1 0xE0 SHL DUP2 MSTORE PUSH1 0x4 ADD PUSH1 0x20 PUSH1 0x40 MLOAD DUP1 DUP4 SUB DUP2 DUP7 DUP1 EXTCODESIZE ISZERO DUP1 ISZERO PUSH2 0x20B JUMPI PUSH1 0x0 DUP1 REVERT JUMPDEST POP GAS STATICCALL ISZERO DUP1 ISZERO PUSH2 0x21F JUMPI RETURNDATASIZE PUSH1 0x0 DUP1 RETURNDATACOPY RETURNDATASIZE PUSH1 0x0 REVERT JUMPDEST POP POP POP POP PUSH1 0x40 MLOAD RETURNDATASIZE PUSH1 0x1F NOT PUSH1 0x1F DUP3 ADD AND DUP3 ADD DUP1 PUSH1 0x40 MSTORE POP DUP2 ADD SWAP1 PUSH2 0x243 SWAP2 SWAP1 PUSH2 0x2F6 JUMP JUMPDEST SWAP1 POP SWAP2 SWAP1 POP JUMP JUMPDEST PUSH1 0x0 DUP2 CALLDATALOAD SWAP1 POP PUSH2 0x259 DUP2 PUSH2 0x4C5 JUMP JUMPDEST SWAP3 SWAP2 POP POP JUMP JUMPDEST PUSH1 0x0 DUP2 CALLDATALOAD SWAP1 POP PUSH2 0x26E DUP2 PUSH2 0x4DC JUMP JUMPDEST SWAP3 SWAP2 POP POP JUMP JUMPDEST PUSH1 0x0 DUP2 MLOAD SWAP1 POP PUSH2 0x283 DUP2 PUSH2 0x4DC JUMP JUMPDEST SWAP3 SWAP2 POP POP JUMP JUMPDEST PUSH1 0x0 PUSH1 0x20 DUP3 DUP5 SUB SLT ISZERO PUSH2 0x29F JUMPI PUSH2 0x29E PUSH2 0x4AF JUMP JUMPDEST JUMPDEST PUSH1 0x0 PUSH2 0x2AD DUP5 DUP3 DUP6 ADD PUSH2 0x24A JUMP JUMPDEST SWAP2 POP POP SWAP3 SWAP2 POP POP JUMP JUMPDEST PUSH1 0x0 DUP1 PUSH1 0x40 DUP4 DUP6 SUB SLT ISZERO PUSH2 0x2CD JUMPI PUSH2 0x2CC PUSH2 0x4AF JUMP JUMPDEST JUMPDEST PUSH1 0x0 PUSH2 0x2DB DUP6 DUP3 DUP7 ADD PUSH2 0x24A JUMP JUMPDEST SWAP3 POP POP PUSH1 0x20 PUSH2 0x2EC DUP6 DUP3 DUP7 ADD PUSH2 0x25F JUMP JUMPDEST SWAP2 POP POP SWAP3 POP SWAP3 SWAP1 POP JUMP JUMPDEST PUSH1 0x0 PUSH1 0x20 DUP3 DUP5 SUB SLT ISZERO PUSH2 0x30C JUMPI PUSH2 0x30B PUSH2 0x4AF JUMP JUMPDEST JUMPDEST PUSH1 0x0 PUSH2 0x31A DUP5 DUP3 DUP6 ADD PUSH2 0x274 JUMP JUMPDEST SWAP2 POP POP SWAP3 SWAP2 POP POP JUMP JUMPDEST PUSH2 0x32C DUP2 PUSH2 0x446 JUMP JUMPDEST DUP3 MSTORE POP POP JUMP JUMPDEST PUSH1 0x0 PUSH2 0x33D DUP3 PUSH2 0x40D JUMP JUMPDEST PUSH2 0x347 DUP2 DUP6 PUSH2 0x418 JUMP JUMPDEST SWAP4 POP PUSH2 0x357 DUP2 DUP6 PUSH1 0x20 DUP7 ADD PUSH2 0x47C JUMP JUMPDEST PUSH2 0x360 DUP2 PUSH2 0x4B4 JUMP JUMPDEST DUP5 ADD SWAP2 POP POP SWAP3 SWAP2 POP POP JUMP JUMPDEST PUSH1 0x0 PUSH2 0x376 DUP3 PUSH2 0x40D JUMP JUMPDEST PUSH2 0x380 DUP2 DUP6 PUSH2 0x429 JUMP JUMPDEST SWAP4 POP PUSH2 0x390 DUP2 DUP6 PUSH1 0x20 DUP7 ADD PUSH2 0x47C JUMP JUMPDEST DUP1 DUP5 ADD SWAP2 POP POP SWAP3 SWAP2 POP POP JUMP JUMPDEST PUSH2 0x3A5 DUP2 PUSH2 0x472 JUMP JUMPDEST DUP3 MSTORE POP POP JUMP JUMPDEST PUSH1 0x0 PUSH2 0x3B7 DUP3 DUP5 PUSH2 0x36B JUMP JUMPDEST SWAP2 POP DUP2 SWAP1 POP SWAP3 SWAP2 POP POP JUMP JUMPDEST PUSH1 0x0 PUSH1 0x40 DUP3 ADD SWAP1 POP PUSH2 0x3D7 PUSH1 0x0 DUP4 ADD DUP6 PUSH2 0x323 JUMP JUMPDEST DUP2 DUP2 SUB PUSH1 0x20 DUP4 ADD MSTORE PUSH2 0x3E9 DUP2 DUP5 PUSH2 0x332 JUMP JUMPDEST SWAP1 POP SWAP4 SWAP3 POP POP POP JUMP JUMPDEST PUSH1 0x0 PUSH1 0x20 DUP3 ADD SWAP1 POP PUSH2 0x407 PUSH1 0x0 DUP4 ADD DUP5 PUSH2 0x39C JUMP JUMPDEST SWAP3 SWAP2 POP POP JUMP JUMPDEST PUSH1 0x0 DUP2 MLOAD SWAP1 POP SWAP2 SWAP1 POP JUMP JUMPDEST PUSH1 0x0 DUP3 DUP3 MSTORE PUSH1 0x20 DUP3 ADD SWAP1 POP SWAP3 SWAP2 POP POP JUMP JUMPDEST PUSH1 0x0 DUP2 SWAP1 POP SWAP3 SWAP2 POP POP JUMP JUMPDEST PUSH1 0x0 PUSH2 0x43F DUP3 PUSH2 0x452 JUMP JUMPDEST SWAP1 POP SWAP2 SWAP1 POP JUMP JUMPDEST PUSH1 0x0 DUP2 ISZERO ISZERO SWAP1 POP SWAP2 SWAP1 POP JUMP JUMPDEST PUSH1 0x0 PUSH20 0xFFFFFFFFFFFFFFFFFFFFFFFFFFFFFFFFFFFFFFFF DUP3 AND SWAP1 POP SWAP2 SWAP1 POP JUMP JUMPDEST PUSH1 0x0 DUP2 SWAP1 POP SWAP2 SWAP1 POP JUMP JUMPDEST PUSH1 0x0 JUMPDEST DUP4 DUP2 LT ISZERO PUSH2 0x49A JUMPI DUP1 DUP3 ADD MLOAD DUP2 DUP5 ADD MSTORE PUSH1 0x20 DUP2 ADD SWAP1 POP PUSH2 0x47F JUMP JUMPDEST DUP4 DUP2 GT ISZERO PUSH2 0x4A9 JUMPI PUSH1 0x0 DUP5 DUP5 ADD MSTORE JUMPDEST POP POP POP POP JUMP JUMPDEST PUSH1 0x0 DUP1 REVERT JUMPDEST PUSH1 0x0 PUSH1 0x1F NOT PUSH1 0x1F DUP4 ADD AND SWAP1 POP SWAP2 SWAP1 POP JUMP JUMPDEST PUSH2 0x4CE DUP2 PUSH2 0x434 JUMP JUMPDEST DUP2 EQ PUSH2 0x4D9 JUMPI PUSH1 0x0 DUP1 REVERT JUMPDEST POP JUMP JUMPDEST PUSH2 0x4E5 DUP2 PUSH2 0x472 JUMP JUMPDEST DUP2 EQ PUSH2 0x4F0 JUMPI PUSH1 0x0 DUP1 REVERT JUMPDEST POP JUMP INVALID LOG2 PUSH5 0x6970667358 0x22 SLT KECCAK256 0x4F 0xA6 CALLDATALOAD SWAP10 DIFFICULTY SWAP6 0x2C EXTCODEHASH SWAP9 PUSH19 0xAB0CF1870F9344FF351EF0324EAB88CB27246A 0xB8 0xA5 0x26 PUSH5 0x736F6C6343 STOP ADDMOD SMOD STOP CALLER "
				},
				"gasEstimates": {
					"creation": {
						"codeDepositCost": "264200",
						"executionCost": "306",
						"totalCost": "264506"
					},
					"external": {
						"callSetX(address,uint256)": "infinite",
						"getBalance(address)": "infinite"
					}
				},
				"methodIdentifiers": {
					"callSetX(address,uint256)": "3ca065bb",
					"getBalance(address)": "f8b2cb4f"
				}
			},
			"storageLayout": {
				"storage": [],
				"types": null
			},
			"userdoc": {
				"kind": "user",
				"methods": {},
				"version": 1
			}
		}
	}
}