{
	"contracts/Floor.sol": {
		"Elevator": {
			"abi": [
				{
					"inputs": [],
					"name": "floor",
					"outputs": [
						{
							"internalType": "uint256",
							"name": "",
							"type": "uint256"
						}
					],
					"stateMutability": "view",
					"type": "function"
				},
				{
					"inputs": [
						{
							"internalType": "uint256",
							"name": "_floor",
							"type": "uint256"
						}
					],
					"name": "goTo",
					"outputs": [],
					"stateMutability": "nonpayable",
					"type": "function"
				},
				{
					"inputs": [],
					"name": "top",
					"outputs": [
						{
							"internalType": "bool",
							"name": "",
							"type": "bool"
						}
					],
					"stateMutability": "view",
					"type": "function"
				}
			],
			"devdoc": {
				"kind": "dev",
				"methods": {},
				"version": 1
			},
			"evm": {
				"assembly": "    /* \"contracts/Floor.sol\":182:444  contract Elevator {... */\n  mstore(0x40, 0x80)\n  callvalue\n  dup1\n  iszero\n  tag_1\n  jumpi\n  0x00\n  dup1\n  revert\ntag_1:\n  pop\n  dataSize(sub_0)\n  dup1\n  dataOffset(sub_0)\n  0x00\n  codecopy\n  0x00\n  return\nstop\n\nsub_0: assembly {\n        /* \"contracts/Floor.sol\":182:444  contract Elevator {... */\n      mstore(0x40, 0x80)\n      callvalue\n      dup1\n      iszero\n      tag_1\n      jumpi\n      0x00\n      dup1\n      revert\n    tag_1:\n      pop\n      jumpi(tag_2, lt(calldatasize, 0x04))\n      shr(0xe0, calldataload(0x00))\n      dup1\n      0x40695363\n      eq\n      tag_3\n      jumpi\n      dup1\n      0xed9a7134\n      eq\n      tag_4\n      jumpi\n      dup1\n      0xfe6dcdba\n      eq\n      tag_5\n      jumpi\n    tag_2:\n      0x00\n      dup1\n      revert\n        /* \"contracts/Floor.sol\":223:240  uint public floor */\n    tag_3:\n      tag_6\n      tag_7\n      jump\t// in\n    tag_6:\n      mload(0x40)\n      tag_8\n      swap2\n      swap1\n      tag_9\n      jump\t// in\n    tag_8:\n      mload(0x40)\n      dup1\n      swap2\n      sub\n      swap1\n      return\n        /* \"contracts/Floor.sol\":245:442  function goTo(uint _floor) public {... */\n    tag_4:\n      tag_10\n      0x04\n      dup1\n      calldatasize\n      sub\n      dup2\n      add\n      swap1\n      tag_11\n      swap2\n      swap1\n      tag_12\n      jump\t// in\n    tag_11:\n      tag_13\n      jump\t// in\n    tag_10:\n      stop\n        /* \"contracts/Floor.sol\":204:219  bool public top */\n    tag_5:\n      tag_14\n      tag_15\n      jump\t// in\n    tag_14:\n      mload(0x40)\n      tag_16\n      swap2\n      swap1\n      tag_17\n      jump\t// in\n    tag_16:\n      mload(0x40)\n      dup1\n      swap2\n      sub\n      swap1\n      return\n        /* \"contracts/Floor.sol\":223:240  uint public floor */\n    tag_7:\n      sload(0x01)\n      dup2\n      jump\t// out\n        /* \"contracts/Floor.sol\":245:442  function goTo(uint _floor) public {... */\n    tag_13:\n        /* \"contracts/Floor.sol\":285:302  Building building */\n      0x00\n        /* \"contracts/Floor.sol\":314:324  msg.sender */\n      caller\n        /* \"contracts/Floor.sol\":285:325  Building building = Building(msg.sender) */\n      swap1\n      pop\n        /* \"contracts/Floor.sol\":338:346  building */\n      dup1\n        /* \"contracts/Floor.sol\":338:358  building.isLastFloor */\n      0xffffffffffffffffffffffffffffffffffffffff\n      and\n      0x5f9a4bca\n        /* \"contracts/Floor.sol\":359:365  _floor */\n      dup4\n        /* \"contracts/Floor.sol\":338:366  building.isLastFloor(_floor) */\n      mload(0x40)\n      dup3\n      0xffffffff\n      and\n      0xe0\n      shl\n      dup2\n      mstore\n      0x04\n      add\n      tag_19\n      swap2\n      swap1\n      tag_9\n      jump\t// in\n    tag_19:\n      0x20\n      mload(0x40)\n      dup1\n      dup4\n      sub\n      dup2\n      0x00\n      dup8\n      dup1\n      extcodesize\n      iszero\n      dup1\n      iszero\n      tag_20\n      jumpi\n      0x00\n      dup1\n      revert\n    tag_20:\n      pop\n      gas\n      call\n      iszero\n      dup1\n      iszero\n      tag_22\n      jumpi\n      returndatasize\n      0x00\n      dup1\n      returndatacopy\n      revert(0x00, returndatasize)\n    tag_22:\n      pop\n      pop\n      pop\n      pop\n      mload(0x40)\n      returndatasize\n      not(0x1f)\n      0x1f\n      dup3\n      add\n      and\n      dup3\n      add\n      dup1\n      0x40\n      mstore\n      pop\n      dup2\n      add\n      swap1\n      tag_23\n      swap2\n      swap1\n      tag_24\n      jump\t// in\n    tag_23:\n        /* \"contracts/Floor.sol\":332:438  if (! building.isLastFloor(_floor)) {... */\n      tag_25\n      jumpi\n        /* \"contracts/Floor.sol\":384:390  _floor */\n      dup2\n        /* \"contracts/Floor.sol\":376:381  floor */\n      0x01\n        /* \"contracts/Floor.sol\":376:390  floor = _floor */\n      dup2\n      swap1\n      sstore\n      pop\n        /* \"contracts/Floor.sol\":404:412  building */\n      dup1\n        /* \"contracts/Floor.sol\":404:424  building.isLastFloor */\n      0xffffffffffffffffffffffffffffffffffffffff\n      and\n      0x5f9a4bca\n        /* \"contracts/Floor.sol\":425:430  floor */\n      sload(0x01)\n        /* \"contracts/Floor.sol\":404:431  building.isLastFloor(floor) */\n      mload(0x40)\n      dup3\n      0xffffffff\n      and\n      0xe0\n      shl\n      dup2\n      mstore\n      0x04\n      add\n      tag_26\n      swap2\n      swap1\n      tag_9\n      jump\t// in\n    tag_26:\n      0x20\n      mload(0x40)\n      dup1\n      dup4\n      sub\n      dup2\n      0x00\n      dup8\n      dup1\n      extcodesize\n      iszero\n      dup1\n      iszero\n      tag_27\n      jumpi\n      0x00\n      dup1\n      revert\n    tag_27:\n      pop\n      gas\n      call\n      iszero\n      dup1\n      iszero\n      tag_29\n      jumpi\n      returndatasize\n      0x00\n      dup1\n      returndatacopy\n      revert(0x00, returndatasize)\n    tag_29:\n      pop\n      pop\n      pop\n      pop\n      mload(0x40)\n      returndatasize\n      not(0x1f)\n      0x1f\n      dup3\n      add\n      and\n      dup3\n      add\n      dup1\n      0x40\n      mstore\n      pop\n      dup2\n      add\n      swap1\n      tag_30\n      swap2\n      swap1\n      tag_24\n      jump\t// in\n    tag_30:\n        /* \"contracts/Floor.sol\":398:401  top */\n      0x00\n      dup1\n        /* \"contracts/Floor.sol\":398:431  top = building.isLastFloor(floor) */\n      0x0100\n      exp\n      dup2\n      sload\n      dup2\n      0xff\n      mul\n      not\n      and\n      swap1\n      dup4\n      iszero\n      iszero\n      mul\n      or\n      swap1\n      sstore\n      pop\n        /* \"contracts/Floor.sol\":332:438  if (! building.isLastFloor(_floor)) {... */\n    tag_25:\n        /* \"contracts/Floor.sol\":245:442  function goTo(uint _floor) public {... */\n      pop\n      pop\n      jump\t// out\n        /* \"contracts/Floor.sol\":204:219  bool public top */\n    tag_15:\n      0x00\n      dup1\n      sload\n      swap1\n      0x0100\n      exp\n      swap1\n      div\n      0xff\n      and\n      dup2\n      jump\t// out\n        /* \"#utility.yul\":7:144   */\n    tag_32:\n      0x00\n        /* \"#utility.yul\":92:98   */\n      dup2\n        /* \"#utility.yul\":86:99   */\n      mload\n        /* \"#utility.yul\":77:99   */\n      swap1\n      pop\n        /* \"#utility.yul\":108:138   */\n      tag_34\n        /* \"#utility.yul\":132:137   */\n      dup2\n        /* \"#utility.yul\":108:138   */\n      tag_35\n      jump\t// in\n    tag_34:\n        /* \"#utility.yul\":67:144   */\n      swap3\n      swap2\n      pop\n      pop\n      jump\t// out\n        /* \"#utility.yul\":150:289   */\n    tag_36:\n      0x00\n        /* \"#utility.yul\":234:240   */\n      dup2\n        /* \"#utility.yul\":221:241   */\n      calldataload\n        /* \"#utility.yul\":212:241   */\n      swap1\n      pop\n        /* \"#utility.yul\":250:283   */\n      tag_38\n        /* \"#utility.yul\":277:282   */\n      dup2\n        /* \"#utility.yul\":250:283   */\n      tag_39\n      jump\t// in\n    tag_38:\n        /* \"#utility.yul\":202:289   */\n      swap3\n      swap2\n      pop\n      pop\n      jump\t// out\n        /* \"#utility.yul\":295:573   */\n    tag_24:\n      0x00\n        /* \"#utility.yul\":411:413   */\n      0x20\n        /* \"#utility.yul\":399:408   */\n      dup3\n        /* \"#utility.yul\":390:397   */\n      dup5\n        /* \"#utility.yul\":386:409   */\n      sub\n        /* \"#utility.yul\":382:414   */\n      slt\n        /* \"#utility.yul\":379:381   */\n      iszero\n      tag_41\n      jumpi\n        /* \"#utility.yul\":427:428   */\n      0x00\n        /* \"#utility.yul\":424:425   */\n      dup1\n        /* \"#utility.yul\":417:429   */\n      revert\n        /* \"#utility.yul\":379:381   */\n    tag_41:\n        /* \"#utility.yul\":470:471   */\n      0x00\n        /* \"#utility.yul\":495:556   */\n      tag_42\n        /* \"#utility.yul\":548:555   */\n      dup5\n        /* \"#utility.yul\":539:545   */\n      dup3\n        /* \"#utility.yul\":528:537   */\n      dup6\n        /* \"#utility.yul\":524:546   */\n      add\n        /* \"#utility.yul\":495:556   */\n      tag_32\n      jump\t// in\n    tag_42:\n        /* \"#utility.yul\":485:556   */\n      swap2\n      pop\n        /* \"#utility.yul\":441:566   */\n      pop\n        /* \"#utility.yul\":369:573   */\n      swap3\n      swap2\n      pop\n      pop\n      jump\t// out\n        /* \"#utility.yul\":579:841   */\n    tag_12:\n      0x00\n        /* \"#utility.yul\":687:689   */\n      0x20\n        /* \"#utility.yul\":675:684   */\n      dup3\n        /* \"#utility.yul\":666:673   */\n      dup5\n        /* \"#utility.yul\":662:685   */\n      sub\n        /* \"#utility.yul\":658:690   */\n      slt\n        /* \"#utility.yul\":655:657   */\n      iszero\n      tag_44\n      jumpi\n        /* \"#utility.yul\":703:704   */\n      0x00\n        /* \"#utility.yul\":700:701   */\n      dup1\n        /* \"#utility.yul\":693:705   */\n      revert\n        /* \"#utility.yul\":655:657   */\n    tag_44:\n        /* \"#utility.yul\":746:747   */\n      0x00\n        /* \"#utility.yul\":771:824   */\n      tag_45\n        /* \"#utility.yul\":816:823   */\n      dup5\n        /* \"#utility.yul\":807:813   */\n      dup3\n        /* \"#utility.yul\":796:805   */\n      dup6\n        /* \"#utility.yul\":792:814   */\n      add\n        /* \"#utility.yul\":771:824   */\n      tag_36\n      jump\t// in\n    tag_45:\n        /* \"#utility.yul\":761:824   */\n      swap2\n      pop\n        /* \"#utility.yul\":717:834   */\n      pop\n        /* \"#utility.yul\":645:841   */\n      swap3\n      swap2\n      pop\n      pop\n      jump\t// out\n        /* \"#utility.yul\":847:956   */\n    tag_46:\n        /* \"#utility.yul\":928:949   */\n      tag_48\n        /* \"#utility.yul\":943:948   */\n      dup2\n        /* \"#utility.yul\":928:949   */\n      tag_49\n      jump\t// in\n    tag_48:\n        /* \"#utility.yul\":923:926   */\n      dup3\n        /* \"#utility.yul\":916:950   */\n      mstore\n        /* \"#utility.yul\":906:956   */\n      pop\n      pop\n      jump\t// out\n        /* \"#utility.yul\":962:1080   */\n    tag_50:\n        /* \"#utility.yul\":1049:1073   */\n      tag_52\n        /* \"#utility.yul\":1067:1072   */\n      dup2\n        /* \"#utility.yul\":1049:1073   */\n      tag_53\n      jump\t// in\n    tag_52:\n        /* \"#utility.yul\":1044:1047   */\n      dup3\n        /* \"#utility.yul\":1037:1074   */\n      mstore\n        /* \"#utility.yul\":1027:1080   */\n      pop\n      pop\n      jump\t// out\n        /* \"#utility.yul\":1086:1296   */\n    tag_17:\n      0x00\n        /* \"#utility.yul\":1211:1213   */\n      0x20\n        /* \"#utility.yul\":1200:1209   */\n      dup3\n        /* \"#utility.yul\":1196:1214   */\n      add\n        /* \"#utility.yul\":1188:1214   */\n      swap1\n      pop\n        /* \"#utility.yul\":1224:1289   */\n      tag_55\n        /* \"#utility.yul\":1286:1287   */\n      0x00\n        /* \"#utility.yul\":1275:1284   */\n      dup4\n        /* \"#utility.yul\":1271:1288   */\n      add\n        /* \"#utility.yul\":1262:1268   */\n      dup5\n        /* \"#utility.yul\":1224:1289   */\n      tag_46\n      jump\t// in\n    tag_55:\n        /* \"#utility.yul\":1178:1296   */\n      swap3\n      swap2\n      pop\n      pop\n      jump\t// out\n        /* \"#utility.yul\":1302:1524   */\n    tag_9:\n      0x00\n        /* \"#utility.yul\":1433:1435   */\n      0x20\n        /* \"#utility.yul\":1422:1431   */\n      dup3\n        /* \"#utility.yul\":1418:1436   */\n      add\n        /* \"#utility.yul\":1410:1436   */\n      swap1\n      pop\n        /* \"#utility.yul\":1446:1517   */\n      tag_57\n        /* \"#utility.yul\":1514:1515   */\n      0x00\n        /* \"#utility.yul\":1503:1512   */\n      dup4\n        /* \"#utility.yul\":1499:1516   */\n      add\n        /* \"#utility.yul\":1490:1496   */\n      dup5\n        /* \"#utility.yul\":1446:1517   */\n      tag_50\n      jump\t// in\n    tag_57:\n        /* \"#utility.yul\":1400:1524   */\n      swap3\n      swap2\n      pop\n      pop\n      jump\t// out\n        /* \"#utility.yul\":1530:1620   */\n    tag_49:\n      0x00\n        /* \"#utility.yul\":1607:1612   */\n      dup2\n        /* \"#utility.yul\":1600:1613   */\n      iszero\n        /* \"#utility.yul\":1593:1614   */\n      iszero\n        /* \"#utility.yul\":1582:1614   */\n      swap1\n      pop\n        /* \"#utility.yul\":1572:1620   */\n      swap2\n      swap1\n      pop\n      jump\t// out\n        /* \"#utility.yul\":1626:1703   */\n    tag_53:\n      0x00\n        /* \"#utility.yul\":1692:1697   */\n      dup2\n        /* \"#utility.yul\":1681:1697   */\n      swap1\n      pop\n        /* \"#utility.yul\":1671:1703   */\n      swap2\n      swap1\n      pop\n      jump\t// out\n        /* \"#utility.yul\":1709:1825   */\n    tag_35:\n        /* \"#utility.yul\":1779:1800   */\n      tag_61\n        /* \"#utility.yul\":1794:1799   */\n      dup2\n        /* \"#utility.yul\":1779:1800   */\n      tag_49\n      jump\t// in\n    tag_61:\n        /* \"#utility.yul\":1772:1777   */\n      dup2\n        /* \"#utility.yul\":1769:1801   */\n      eq\n        /* \"#utility.yul\":1759:1761   */\n      tag_62\n      jumpi\n        /* \"#utility.yul\":1815:1816   */\n      0x00\n        /* \"#utility.yul\":1812:1813   */\n      dup1\n        /* \"#utility.yul\":1805:1817   */\n      revert\n        /* \"#utility.yul\":1759:1761   */\n    tag_62:\n        /* \"#utility.yul\":1749:1825   */\n      pop\n      jump\t// out\n        /* \"#utility.yul\":1831:1953   */\n    tag_39:\n        /* \"#utility.yul\":1904:1928   */\n      tag_64\n        /* \"#utility.yul\":1922:1927   */\n      dup2\n        /* \"#utility.yul\":1904:1928   */\n      tag_53\n      jump\t// in\n    tag_64:\n        /* \"#utility.yul\":1897:1902   */\n      dup2\n        /* \"#utility.yul\":1894:1929   */\n      eq\n        /* \"#utility.yul\":1884:1886   */\n      tag_65\n      jumpi\n        /* \"#utility.yul\":1943:1944   */\n      0x00\n        /* \"#utility.yul\":1940:1941   */\n      dup1\n        /* \"#utility.yul\":1933:1945   */\n      revert\n        /* \"#utility.yul\":1884:1886   */\n    tag_65:\n        /* \"#utility.yul\":1874:1953   */\n      pop\n      jump\t// out\n\n    auxdata: 0xa26469706673582212202724e0a48adbf36724a6ebf4f2b2dc407bf1f4bf9a2fca8dee98e2917c83982464736f6c63430008000033\n}\n",
				"bytecode": {
					"linkReferences": {},
					"object": "608060405234801561001057600080fd5b50610344806100206000396000f3fe608060405234801561001057600080fd5b50600436106100415760003560e01c80634069536314610046578063ed9a713414610064578063fe6dcdba14610080575b600080fd5b61004e61009e565b60405161005b91906102af565b60405180910390f35b61007e6004803603810190610079919061024d565b6100a4565b005b6100886101e9565b6040516100959190610294565b60405180910390f35b60015481565b60003390508073ffffffffffffffffffffffffffffffffffffffff16635f9a4bca836040518263ffffffff1660e01b81526004016100e291906102af565b602060405180830381600087803b1580156100fc57600080fd5b505af1158015610110573d6000803e3d6000fd5b505050506040513d601f19601f820116820180604052508101906101349190610224565b6101e557816001819055508073ffffffffffffffffffffffffffffffffffffffff16635f9a4bca6001546040518263ffffffff1660e01b815260040161017a91906102af565b602060405180830381600087803b15801561019457600080fd5b505af11580156101a8573d6000803e3d6000fd5b505050506040513d601f19601f820116820180604052508101906101cc9190610224565b6000806101000a81548160ff0219169083151502179055505b5050565b60008054906101000a900460ff1681565b600081519050610209816102e0565b92915050565b60008135905061021e816102f7565b92915050565b60006020828403121561023657600080fd5b6000610244848285016101fa565b91505092915050565b60006020828403121561025f57600080fd5b600061026d8482850161020f565b91505092915050565b61027f816102ca565b82525050565b61028e816102d6565b82525050565b60006020820190506102a96000830184610276565b92915050565b60006020820190506102c46000830184610285565b92915050565b60008115159050919050565b6000819050919050565b6102e9816102ca565b81146102f457600080fd5b50565b610300816102d6565b811461030b57600080fd5b5056fea26469706673582212202724e0a48adbf36724a6ebf4f2b2dc407bf1f4bf9a2fca8dee98e2917c83982464736f6c63430008000033",
					"opcodes": "PUSH1 0x80 PUSH1 0x40 MSTORE CALLVALUE DUP1 ISZERO PUSH2 0x10 JUMPI PUSH1 0x0 DUP1 REVERT JUMPDEST POP PUSH2 0x344 DUP1 PUSH2 0x20 PUSH1 0x0 CODECOPY PUSH1 0x0 RETURN INVALID PUSH1 0x80 PUSH1 0x40 MSTORE CALLVALUE DUP1 ISZERO PUSH2 0x10 JUMPI PUSH1 0x0 DUP1 REVERT JUMPDEST POP PUSH1 0x4 CALLDATASIZE LT PUSH2 0x41 JUMPI PUSH1 0x0 CALLDATALOAD PUSH1 0xE0 SHR DUP1 PUSH4 0x40695363 EQ PUSH2 0x46 JUMPI DUP1 PUSH4 0xED9A7134 EQ PUSH2 0x64 JUMPI DUP1 PUSH4 0xFE6DCDBA EQ PUSH2 0x80 JUMPI JUMPDEST PUSH1 0x0 DUP1 REVERT JUMPDEST PUSH2 0x4E PUSH2 0x9E JUMP JUMPDEST PUSH1 0x40 MLOAD PUSH2 0x5B SWAP2 SWAP1 PUSH2 0x2AF JUMP JUMPDEST PUSH1 0x40 MLOAD DUP1 SWAP2 SUB SWAP1 RETURN JUMPDEST PUSH2 0x7E PUSH1 0x4 DUP1 CALLDATASIZE SUB DUP2 ADD SWAP1 PUSH2 0x79 SWAP2 SWAP1 PUSH2 0x24D JUMP JUMPDEST PUSH2 0xA4 JUMP JUMPDEST STOP JUMPDEST PUSH2 0x88 PUSH2 0x1E9 JUMP JUMPDEST PUSH1 0x40 MLOAD PUSH2 0x95 SWAP2 SWAP1 PUSH2 0x294 JUMP JUMPDEST PUSH1 0x40 MLOAD DUP1 SWAP2 SUB SWAP1 RETURN JUMPDEST PUSH1 0x1 SLOAD DUP2 JUMP JUMPDEST PUSH1 0x0 CALLER SWAP1 POP DUP1 PUSH20 0xFFFFFFFFFFFFFFFFFFFFFFFFFFFFFFFFFFFFFFFF AND PUSH4 0x5F9A4BCA DUP4 PUSH1 0x40 MLOAD DUP3 PUSH4 0xFFFFFFFF AND PUSH1 0xE0 SHL DUP2 MSTORE PUSH1 0x4 ADD PUSH2 0xE2 SWAP2 SWAP1 PUSH2 0x2AF JUMP JUMPDEST PUSH1 0x20 PUSH1 0x40 MLOAD DUP1 DUP4 SUB DUP2 PUSH1 0x0 DUP8 DUP1 EXTCODESIZE ISZERO DUP1 ISZERO PUSH2 0xFC JUMPI PUSH1 0x0 DUP1 REVERT JUMPDEST POP GAS CALL ISZERO DUP1 ISZERO PUSH2 0x110 JUMPI RETURNDATASIZE PUSH1 0x0 DUP1 RETURNDATACOPY RETURNDATASIZE PUSH1 0x0 REVERT JUMPDEST POP POP POP POP PUSH1 0x40 MLOAD RETURNDATASIZE PUSH1 0x1F NOT PUSH1 0x1F DUP3 ADD AND DUP3 ADD DUP1 PUSH1 0x40 MSTORE POP DUP2 ADD SWAP1 PUSH2 0x134 SWAP2 SWAP1 PUSH2 0x224 JUMP JUMPDEST PUSH2 0x1E5 JUMPI DUP2 PUSH1 0x1 DUP2 SWAP1 SSTORE POP DUP1 PUSH20 0xFFFFFFFFFFFFFFFFFFFFFFFFFFFFFFFFFFFFFFFF AND PUSH4 0x5F9A4BCA PUSH1 0x1 SLOAD PUSH1 0x40 MLOAD DUP3 PUSH4 0xFFFFFFFF AND PUSH1 0xE0 SHL DUP2 MSTORE PUSH1 0x4 ADD PUSH2 0x17A SWAP2 SWAP1 PUSH2 0x2AF JUMP JUMPDEST PUSH1 0x20 PUSH1 0x40 MLOAD DUP1 DUP4 SUB DUP2 PUSH1 0x0 DUP8 DUP1 EXTCODESIZE ISZERO DUP1 ISZERO PUSH2 0x194 JUMPI PUSH1 0x0 DUP1 REVERT JUMPDEST POP GAS CALL ISZERO DUP1 ISZERO PUSH2 0x1A8 JUMPI RETURNDATASIZE PUSH1 0x0 DUP1 RETURNDATACOPY RETURNDATASIZE PUSH1 0x0 REVERT JUMPDEST POP POP POP POP PUSH1 0x40 MLOAD RETURNDATASIZE PUSH1 0x1F NOT PUSH1 0x1F DUP3 ADD AND DUP3 ADD DUP1 PUSH1 0x40 MSTORE POP DUP2 ADD SWAP1 PUSH2 0x1CC SWAP2 SWAP1 PUSH2 0x224 JUMP JUMPDEST PUSH1 0x0 DUP1 PUSH2 0x100 EXP DUP2 SLOAD DUP2 PUSH1 0xFF MUL NOT AND SWAP1 DUP4 ISZERO ISZERO MUL OR SWAP1 SSTORE POP JUMPDEST POP POP JUMP JUMPDEST PUSH1 0x0 DUP1 SLOAD SWAP1 PUSH2 0x100 EXP SWAP1 DIV PUSH1 0xFF AND DUP2 JUMP JUMPDEST PUSH1 0x0 DUP2 MLOAD SWAP1 POP PUSH2 0x209 DUP2 PUSH2 0x2E0 JUMP JUMPDEST SWAP3 SWAP2 POP POP JUMP JUMPDEST PUSH1 0x0 DUP2 CALLDATALOAD SWAP1 POP PUSH2 0x21E DUP2 PUSH2 0x2F7 JUMP JUMPDEST SWAP3 SWAP2 POP POP JUMP JUMPDEST PUSH1 0x0 PUSH1 0x20 DUP3 DUP5 SUB SLT ISZERO PUSH2 0x236 JUMPI PUSH1 0x0 DUP1 REVERT JUMPDEST PUSH1 0x0 PUSH2 0x244 DUP5 DUP3 DUP6 ADD PUSH2 0x1FA JUMP JUMPDEST SWAP2 POP POP SWAP3 SWAP2 POP POP JUMP JUMPDEST PUSH1 0x0 PUSH1 0x20 DUP3 DUP5 SUB SLT ISZERO PUSH2 0x25F JUMPI PUSH1 0x0 DUP1 REVERT JUMPDEST PUSH1 0x0 PUSH2 0x26D DUP5 DUP3 DUP6 ADD PUSH2 0x20F JUMP JUMPDEST SWAP2 POP POP SWAP3 SWAP2 POP POP JUMP JUMPDEST PUSH2 0x27F DUP2 PUSH2 0x2CA JUMP JUMPDEST DUP3 MSTORE POP POP JUMP JUMPDEST PUSH2 0x28E DUP2 PUSH2 0x2D6 JUMP JUMPDEST DUP3 MSTORE POP POP JUMP JUMPDEST PUSH1 0x0 PUSH1 0x20 DUP3 ADD SWAP1 POP PUSH2 0x2A9 PUSH1 0x0 DUP4 ADD DUP5 PUSH2 0x276 JUMP JUMPDEST SWAP3 SWAP2 POP POP JUMP JUMPDEST PUSH1 0x0 PUSH1 0x20 DUP3 ADD SWAP1 POP PUSH2 0x2C4 PUSH1 0x0 DUP4 ADD DUP5 PUSH2 0x285 JUMP JUMPDEST SWAP3 SWAP2 POP POP JUMP JUMPDEST PUSH1 0x0 DUP2 ISZERO ISZERO SWAP1 POP SWAP2 SWAP1 POP JUMP JUMPDEST PUSH1 0x0 DUP2 SWAP1 POP SWAP2 SWAP1 POP JUMP JUMPDEST PUSH2 0x2E9 DUP2 PUSH2 0x2CA JUMP JUMPDEST DUP2 EQ PUSH2 0x2F4 JUMPI PUSH1 0x0 DUP1 REVERT JUMPDEST POP JUMP JUMPDEST PUSH2 0x300 DUP2 PUSH2 0x2D6 JUMP JUMPDEST DUP2 EQ PUSH2 0x30B JUMPI PUSH1 0x0 DUP1 REVERT JUMPDEST POP JUMP INVALID LOG2 PUSH5 0x6970667358 0x22 SLT KECCAK256 0x27 0x24 0xE0 LOG4 DUP11 0xDB RETURN PUSH8 0x24A6EBF4F2B2DC40 PUSH28 0xF1F4BF9A2FCA8DEE98E2917C83982464736F6C634300080000330000 "
				},
				"gasEstimates": {
					"creation": {
						"codeDepositCost": "167200",
						"executionCost": "214",
						"totalCost": "167414"
					},
					"external": {
						"floor()": "1107",
						"goTo(uint256)": "infinite",
						"top()": "1190"
					}
				},
				"methodIdentifiers": {
					"floor()": "40695363",
					"goTo(uint256)": "ed9a7134",
					"top()": "fe6dcdba"
				}
			},
			"storageLayout": {
				"storage": [
					{
						"astId": 11,
						"contract": "contracts/Floor.sol:Elevator",
						"label": "top",
						"offset": 0,
						"slot": "0",
						"type": "t_bool"
					},
					{
						"astId": 13,
						"contract": "contracts/Floor.sol:Elevator",
						"label": "floor",
						"offset": 0,
						"slot": "1",
						"type": "t_uint256"
					}
				],
				"types": {
					"t_bool": {
						"encoding": "inplace",
						"label": "bool",
						"numberOfBytes": "1"
					},
					"t_uint256": {
						"encoding": "inplace",
						"label": "uint256",
						"numberOfBytes": "32"
					}
				}
			},
			"userdoc": {
				"kind": "user",
				"methods": {},
				"version": 1
			}
		}
	}
}