{
	"contracts/fork.sol": {
		"OtherContract": {
			"abi": [
				{
					"anonymous": false,
					"inputs": [
						{
							"indexed": false,
							"internalType": "uint256",
							"name": "amount",
							"type": "uint256"
						},
						{
							"indexed": false,
							"internalType": "uint256",
							"name": "gas",
							"type": "uint256"
						}
					],
					"name": "Logs",
					"type": "event"
				},
				{
					"inputs": [],
					"name": "get_x",
					"outputs": [
						{
							"internalType": "uint256",
							"name": "",
							"type": "uint256"
						}
					],
					"stateMutability": "view",
					"type": "function"
				},
				{
					"inputs": [
						{
							"internalType": "uint256",
							"name": "x",
							"type": "uint256"
						}
					],
					"name": "set_x",
					"outputs": [],
					"stateMutability": "payable",
					"type": "function"
				}
			],
			"devdoc": {
				"kind": "dev",
				"methods": {},
				"version": 1
			},
			"evm": {
				"assembly": "    /* \"contracts/fork.sol\":65:409  contract OtherContract {... */\n  mstore(0x40, 0x80)\n    /* \"contracts/fork.sol\":121:124  100 */\n  0x64\n    /* \"contracts/fork.sol\":100:124  uint256 private _x = 100 */\n  0x00\n  sstore\n    /* \"contracts/fork.sol\":65:409  contract OtherContract {... */\n  callvalue\n  dup1\n  iszero\n  tag_1\n  jumpi\n  0x00\n  dup1\n  revert\ntag_1:\n  pop\n  dataSize(sub_0)\n  dup1\n  dataOffset(sub_0)\n  0x00\n  codecopy\n  0x00\n  return\nstop\n\nsub_0: assembly {\n        /* \"contracts/fork.sol\":65:409  contract OtherContract {... */\n      mstore(0x40, 0x80)\n      jumpi(tag_1, lt(calldatasize, 0x04))\n      shr(0xe0, calldataload(0x00))\n      dup1\n      0x3829050a\n      eq\n      tag_2\n      jumpi\n      dup1\n      0xa5f28578\n      eq\n      tag_3\n      jumpi\n    tag_1:\n      0x00\n      dup1\n      revert\n        /* \"contracts/fork.sol\":177:251  function get_x() external view returns(uint256) {... */\n    tag_2:\n      callvalue\n      dup1\n      iszero\n      tag_4\n      jumpi\n      0x00\n      dup1\n      revert\n    tag_4:\n      pop\n      tag_5\n      tag_6\n      jump\t// in\n    tag_5:\n      mload(0x40)\n      tag_7\n      swap2\n      swap1\n      tag_8\n      jump\t// in\n    tag_7:\n      mload(0x40)\n      dup1\n      swap2\n      sub\n      swap1\n      return\n        /* \"contracts/fork.sol\":257:407  function set_x(uint256 x) external payable {... */\n    tag_3:\n      tag_9\n      0x04\n      dup1\n      calldatasize\n      sub\n      dup2\n      add\n      swap1\n      tag_10\n      swap2\n      swap1\n      tag_11\n      jump\t// in\n    tag_10:\n      tag_12\n      jump\t// in\n    tag_9:\n      stop\n        /* \"contracts/fork.sol\":177:251  function get_x() external view returns(uint256) {... */\n    tag_6:\n        /* \"contracts/fork.sol\":216:223  uint256 */\n      0x00\n        /* \"contracts/fork.sol\":242:244  _x */\n      dup1\n      sload\n        /* \"contracts/fork.sol\":235:244  return _x */\n      swap1\n      pop\n        /* \"contracts/fork.sol\":177:251  function get_x() external view returns(uint256) {... */\n      swap1\n      jump\t// out\n        /* \"contracts/fork.sol\":257:407  function set_x(uint256 x) external payable {... */\n    tag_12:\n        /* \"contracts/fork.sol\":315:316  x */\n      dup1\n        /* \"contracts/fork.sol\":310:312  _x */\n      0x00\n        /* \"contracts/fork.sol\":310:316  _x = x */\n      dup2\n      swap1\n      sstore\n      pop\n        /* \"contracts/fork.sol\":342:343  0 */\n      0x00\n        /* \"contracts/fork.sol\":330:339  msg.value */\n      callvalue\n        /* \"contracts/fork.sol\":330:343  msg.value > 0 */\n      gt\n        /* \"contracts/fork.sol\":326:401  if (msg.value > 0) {... */\n      iszero\n      tag_15\n      jumpi\n        /* \"contracts/fork.sol\":364:390  Logs(msg.value, gasleft()) */\n      0x7c5f5001355f274fb45e9e52aa09b0029dd7469a342f755f9457ff49c70eda97\n        /* \"contracts/fork.sol\":369:378  msg.value */\n      callvalue\n        /* \"contracts/fork.sol\":380:389  gasleft() */\n      gas\n        /* \"contracts/fork.sol\":364:390  Logs(msg.value, gasleft()) */\n      mload(0x40)\n      tag_16\n      swap3\n      swap2\n      swap1\n      tag_17\n      jump\t// in\n    tag_16:\n      mload(0x40)\n      dup1\n      swap2\n      sub\n      swap1\n      log1\n        /* \"contracts/fork.sol\":326:401  if (msg.value > 0) {... */\n    tag_15:\n        /* \"contracts/fork.sol\":257:407  function set_x(uint256 x) external payable {... */\n      pop\n      jump\t// out\n        /* \"#utility.yul\":7:146   */\n    tag_19:\n        /* \"#utility.yul\":53:58   */\n      0x00\n        /* \"#utility.yul\":91:97   */\n      dup2\n        /* \"#utility.yul\":78:98   */\n      calldataload\n        /* \"#utility.yul\":69:98   */\n      swap1\n      pop\n        /* \"#utility.yul\":107:140   */\n      tag_21\n        /* \"#utility.yul\":134:139   */\n      dup2\n        /* \"#utility.yul\":107:140   */\n      tag_22\n      jump\t// in\n    tag_21:\n        /* \"#utility.yul\":7:146   */\n      swap3\n      swap2\n      pop\n      pop\n      jump\t// out\n        /* \"#utility.yul\":152:481   */\n    tag_11:\n        /* \"#utility.yul\":211:217   */\n      0x00\n        /* \"#utility.yul\":260:262   */\n      0x20\n        /* \"#utility.yul\":248:257   */\n      dup3\n        /* \"#utility.yul\":239:246   */\n      dup5\n        /* \"#utility.yul\":235:258   */\n      sub\n        /* \"#utility.yul\":231:263   */\n      slt\n        /* \"#utility.yul\":228:347   */\n      iszero\n      tag_24\n      jumpi\n        /* \"#utility.yul\":266:345   */\n      tag_25\n      tag_26\n      jump\t// in\n    tag_25:\n        /* \"#utility.yul\":228:347   */\n    tag_24:\n        /* \"#utility.yul\":386:387   */\n      0x00\n        /* \"#utility.yul\":411:464   */\n      tag_27\n        /* \"#utility.yul\":456:463   */\n      dup5\n        /* \"#utility.yul\":447:453   */\n      dup3\n        /* \"#utility.yul\":436:445   */\n      dup6\n        /* \"#utility.yul\":432:454   */\n      add\n        /* \"#utility.yul\":411:464   */\n      tag_19\n      jump\t// in\n    tag_27:\n        /* \"#utility.yul\":401:464   */\n      swap2\n      pop\n        /* \"#utility.yul\":357:474   */\n      pop\n        /* \"#utility.yul\":152:481   */\n      swap3\n      swap2\n      pop\n      pop\n      jump\t// out\n        /* \"#utility.yul\":487:605   */\n    tag_28:\n        /* \"#utility.yul\":574:598   */\n      tag_30\n        /* \"#utility.yul\":592:597   */\n      dup2\n        /* \"#utility.yul\":574:598   */\n      tag_31\n      jump\t// in\n    tag_30:\n        /* \"#utility.yul\":569:572   */\n      dup3\n        /* \"#utility.yul\":562:599   */\n      mstore\n        /* \"#utility.yul\":487:605   */\n      pop\n      pop\n      jump\t// out\n        /* \"#utility.yul\":611:833   */\n    tag_8:\n        /* \"#utility.yul\":704:708   */\n      0x00\n        /* \"#utility.yul\":742:744   */\n      0x20\n        /* \"#utility.yul\":731:740   */\n      dup3\n        /* \"#utility.yul\":727:745   */\n      add\n        /* \"#utility.yul\":719:745   */\n      swap1\n      pop\n        /* \"#utility.yul\":755:826   */\n      tag_33\n        /* \"#utility.yul\":823:824   */\n      0x00\n        /* \"#utility.yul\":812:821   */\n      dup4\n        /* \"#utility.yul\":808:825   */\n      add\n        /* \"#utility.yul\":799:805   */\n      dup5\n        /* \"#utility.yul\":755:826   */\n      tag_28\n      jump\t// in\n    tag_33:\n        /* \"#utility.yul\":611:833   */\n      swap3\n      swap2\n      pop\n      pop\n      jump\t// out\n        /* \"#utility.yul\":839:1171   */\n    tag_17:\n        /* \"#utility.yul\":960:964   */\n      0x00\n        /* \"#utility.yul\":998:1000   */\n      0x40\n        /* \"#utility.yul\":987:996   */\n      dup3\n        /* \"#utility.yul\":983:1001   */\n      add\n        /* \"#utility.yul\":975:1001   */\n      swap1\n      pop\n        /* \"#utility.yul\":1011:1082   */\n      tag_35\n        /* \"#utility.yul\":1079:1080   */\n      0x00\n        /* \"#utility.yul\":1068:1077   */\n      dup4\n        /* \"#utility.yul\":1064:1081   */\n      add\n        /* \"#utility.yul\":1055:1061   */\n      dup6\n        /* \"#utility.yul\":1011:1082   */\n      tag_28\n      jump\t// in\n    tag_35:\n        /* \"#utility.yul\":1092:1164   */\n      tag_36\n        /* \"#utility.yul\":1160:1162   */\n      0x20\n        /* \"#utility.yul\":1149:1158   */\n      dup4\n        /* \"#utility.yul\":1145:1163   */\n      add\n        /* \"#utility.yul\":1136:1142   */\n      dup5\n        /* \"#utility.yul\":1092:1164   */\n      tag_28\n      jump\t// in\n    tag_36:\n        /* \"#utility.yul\":839:1171   */\n      swap4\n      swap3\n      pop\n      pop\n      pop\n      jump\t// out\n        /* \"#utility.yul\":1258:1335   */\n    tag_31:\n        /* \"#utility.yul\":1295:1302   */\n      0x00\n        /* \"#utility.yul\":1324:1329   */\n      dup2\n        /* \"#utility.yul\":1313:1329   */\n      swap1\n      pop\n        /* \"#utility.yul\":1258:1335   */\n      swap2\n      swap1\n      pop\n      jump\t// out\n        /* \"#utility.yul\":1464:1581   */\n    tag_26:\n        /* \"#utility.yul\":1573:1574   */\n      0x00\n        /* \"#utility.yul\":1570:1571   */\n      dup1\n        /* \"#utility.yul\":1563:1575   */\n      revert\n        /* \"#utility.yul\":1587:1709   */\n    tag_22:\n        /* \"#utility.yul\":1660:1684   */\n      tag_44\n        /* \"#utility.yul\":1678:1683   */\n      dup2\n        /* \"#utility.yul\":1660:1684   */\n      tag_31\n      jump\t// in\n    tag_44:\n        /* \"#utility.yul\":1653:1658   */\n      dup2\n        /* \"#utility.yul\":1650:1685   */\n      eq\n        /* \"#utility.yul\":1640:1703   */\n      tag_45\n      jumpi\n        /* \"#utility.yul\":1699:1700   */\n      0x00\n        /* \"#utility.yul\":1696:1697   */\n      dup1\n        /* \"#utility.yul\":1689:1701   */\n      revert\n        /* \"#utility.yul\":1640:1703   */\n    tag_45:\n        /* \"#utility.yul\":1587:1709   */\n      pop\n      jump\t// out\n\n    auxdata: 0xa2646970667358221220bc1edb3785ab090ad918030eb9dc757b4d573ecac3f3c96e6478767b64f01a6564736f6c63430008070033\n}\n",
				"bytecode": {
					"linkReferences": {},
					"object": "6080604052606460005534801561001557600080fd5b506101bc806100256000396000f3fe6080604052600436106100295760003560e01c80633829050a1461002e578063a5f2857814610059575b600080fd5b34801561003a57600080fd5b50610043610075565b604051610050919061011c565b60405180910390f35b610073600480360381019061006e91906100e0565b61007e565b005b60008054905090565b8060008190555060003411156100c8577f7c5f5001355f274fb45e9e52aa09b0029dd7469a342f755f9457ff49c70eda97345a6040516100bf929190610137565b60405180910390a15b50565b6000813590506100da8161016f565b92915050565b6000602082840312156100f6576100f561016a565b5b6000610104848285016100cb565b91505092915050565b61011681610160565b82525050565b6000602082019050610131600083018461010d565b92915050565b600060408201905061014c600083018561010d565b610159602083018461010d565b9392505050565b6000819050919050565b600080fd5b61017881610160565b811461018357600080fd5b5056fea2646970667358221220bc1edb3785ab090ad918030eb9dc757b4d573ecac3f3c96e6478767b64f01a6564736f6c63430008070033",
					"opcodes": "PUSH1 0x80 PUSH1 0x40 MSTORE PUSH1 0x64 PUSH1 0x0 SSTORE CALLVALUE DUP1 ISZERO PUSH2 0x15 JUMPI PUSH1 0x0 DUP1 REVERT JUMPDEST POP PUSH2 0x1BC DUP1 PUSH2 0x25 PUSH1 0x0 CODECOPY PUSH1 0x0 RETURN INVALID PUSH1 0x80 PUSH1 0x40 MSTORE PUSH1 0x4 CALLDATASIZE LT PUSH2 0x29 JUMPI PUSH1 0x0 CALLDATALOAD PUSH1 0xE0 SHR DUP1 PUSH4 0x3829050A EQ PUSH2 0x2E JUMPI DUP1 PUSH4 0xA5F28578 EQ PUSH2 0x59 JUMPI JUMPDEST PUSH1 0x0 DUP1 REVERT JUMPDEST CALLVALUE DUP1 ISZERO PUSH2 0x3A JUMPI PUSH1 0x0 DUP1 REVERT JUMPDEST POP PUSH2 0x43 PUSH2 0x75 JUMP JUMPDEST PUSH1 0x40 MLOAD PUSH2 0x50 SWAP2 SWAP1 PUSH2 0x11C JUMP JUMPDEST PUSH1 0x40 MLOAD DUP1 SWAP2 SUB SWAP1 RETURN JUMPDEST PUSH2 0x73 PUSH1 0x4 DUP1 CALLDATASIZE SUB DUP2 ADD SWAP1 PUSH2 0x6E SWAP2 SWAP1 PUSH2 0xE0 JUMP JUMPDEST PUSH2 0x7E JUMP JUMPDEST STOP JUMPDEST PUSH1 0x0 DUP1 SLOAD SWAP1 POP SWAP1 JUMP JUMPDEST DUP1 PUSH1 0x0 DUP2 SWAP1 SSTORE POP PUSH1 0x0 CALLVALUE GT ISZERO PUSH2 0xC8 JUMPI PUSH32 0x7C5F5001355F274FB45E9E52AA09B0029DD7469A342F755F9457FF49C70EDA97 CALLVALUE GAS PUSH1 0x40 MLOAD PUSH2 0xBF SWAP3 SWAP2 SWAP1 PUSH2 0x137 JUMP JUMPDEST PUSH1 0x40 MLOAD DUP1 SWAP2 SUB SWAP1 LOG1 JUMPDEST POP JUMP JUMPDEST PUSH1 0x0 DUP2 CALLDATALOAD SWAP1 POP PUSH2 0xDA DUP2 PUSH2 0x16F JUMP JUMPDEST SWAP3 SWAP2 POP POP JUMP JUMPDEST PUSH1 0x0 PUSH1 0x20 DUP3 DUP5 SUB SLT ISZERO PUSH2 0xF6 JUMPI PUSH2 0xF5 PUSH2 0x16A JUMP JUMPDEST JUMPDEST PUSH1 0x0 PUSH2 0x104 DUP5 DUP3 DUP6 ADD PUSH2 0xCB JUMP JUMPDEST SWAP2 POP POP SWAP3 SWAP2 POP POP JUMP JUMPDEST PUSH2 0x116 DUP2 PUSH2 0x160 JUMP JUMPDEST DUP3 MSTORE POP POP JUMP JUMPDEST PUSH1 0x0 PUSH1 0x20 DUP3 ADD SWAP1 POP PUSH2 0x131 PUSH1 0x0 DUP4 ADD DUP5 PUSH2 0x10D JUMP JUMPDEST SWAP3 SWAP2 POP POP JUMP JUMPDEST PUSH1 0x0 PUSH1 0x40 DUP3 ADD SWAP1 POP PUSH2 0x14C PUSH1 0x0 DUP4 ADD DUP6 PUSH2 0x10D JUMP JUMPDEST PUSH2 0x159 PUSH1 0x20 DUP4 ADD DUP5 PUSH2 0x10D JUMP JUMPDEST SWAP4 SWAP3 POP POP POP JUMP JUMPDEST PUSH1 0x0 DUP2 SWAP1 POP SWAP2 SWAP1 POP JUMP JUMPDEST PUSH1 0x0 DUP1 REVERT JUMPDEST PUSH2 0x178 DUP2 PUSH2 0x160 JUMP JUMPDEST DUP2 EQ PUSH2 0x183 JUMPI PUSH1 0x0 DUP1 REVERT JUMPDEST POP JUMP INVALID LOG2 PUSH5 0x6970667358 0x22 SLT KECCAK256 0xBC 0x1E 0xDB CALLDATACOPY DUP6 0xAB MULMOD EXP 0xD9 XOR SUB 0xE 0xB9 0xDC PUSH22 0x7B4D573ECAC3F3C96E6478767B64F01A6564736F6C63 NUMBER STOP ADDMOD SMOD STOP CALLER "
				},
				"gasEstimates": {
					"creation": {
						"codeDepositCost": "88800",
						"executionCost": "22241",
						"totalCost": "111041"
					},
					"external": {
						"get_x()": "2415",
						"set_x(uint256)": "infinite"
					}
				},
				"methodIdentifiers": {
					"get_x()": "3829050a",
					"set_x(uint256)": "a5f28578"
				}
			},
			"storageLayout": {
				"storage": [
					{
						"astId": 4,
						"contract": "contracts/fork.sol:OtherContract",
						"label": "_x",
						"offset": 0,
						"slot": "0",
						"type": "t_uint256"
					}
				],
				"types": {
					"t_uint256": {
						"encoding": "inplace",
						"label": "uint256",
						"numberOfBytes": "32"
					}
				}
			},
			"userdoc": {
				"kind": "user",
				"methods": {},
				"version": 1
			}
		}
	}
}