{
	"contracts/fork.sol": {
		"ForkContract": {
			"abi": [
				{
					"inputs": [
						{
							"internalType": "address",
							"name": "_address",
							"type": "address"
						}
					],
					"name": "get_x_by_address",
					"outputs": [
						{
							"internalType": "uint256",
							"name": "",
							"type": "uint256"
						}
					],
					"stateMutability": "view",
					"type": "function"
				},
				{
					"inputs": [
						{
							"internalType": "contract OtherContract",
							"name": "_address",
							"type": "address"
						}
					],
					"name": "get_x_by_contract",
					"outputs": [
						{
							"internalType": "uint256",
							"name": "",
							"type": "uint256"
						}
					],
					"stateMutability": "view",
					"type": "function"
				},
				{
					"inputs": [
						{
							"internalType": "address payable",
							"name": "_address",
							"type": "address"
						},
						{
							"internalType": "uint256",
							"name": "value",
							"type": "uint256"
						}
					],
					"name": "set_x_2_other",
					"outputs": [],
					"stateMutability": "payable",
					"type": "function"
				},
				{
					"inputs": [
						{
							"internalType": "address payable",
							"name": "_address",
							"type": "address"
						},
						{
							"internalType": "uint256",
							"name": "amount",
							"type": "uint256"
						}
					],
					"name": "set_x_2_other_with_eth",
					"outputs": [],
					"stateMutability": "payable",
					"type": "function"
				}
			],
			"devdoc": {
				"kind": "dev",
				"methods": {},
				"version": 1
			},
			"evm": {
				"assembly": "    /* \"contracts/fork.sol\":412:1009  contract ForkContract {... */\n  mstore(0x40, 0x80)\n  callvalue\n  dup1\n  iszero\n  tag_1\n  jumpi\n  0x00\n  dup1\n  revert\ntag_1:\n  pop\n  dataSize(sub_0)\n  dup1\n  dataOffset(sub_0)\n  0x00\n  codecopy\n  0x00\n  return\nstop\n\nsub_0: assembly {\n        /* \"contracts/fork.sol\":412:1009  contract ForkContract {... */\n      mstore(0x40, 0x80)\n      jumpi(tag_1, lt(calldatasize, 0x04))\n      shr(0xe0, calldataload(0x00))\n      dup1\n      0x705fe36a\n      eq\n      tag_2\n      jumpi\n      dup1\n      0x810003b9\n      eq\n      tag_3\n      jumpi\n      dup1\n      0xa45473ad\n      eq\n      tag_4\n      jumpi\n      dup1\n      0xa92000ab\n      eq\n      tag_5\n      jumpi\n    tag_1:\n      0x00\n      dup1\n      revert\n        /* \"contracts/fork.sol\":580:743  function set_x_2_other_with_eth(address payable _address, uint256 amount) external payable {... */\n    tag_2:\n      tag_6\n      0x04\n      dup1\n      calldatasize\n      sub\n      dup2\n      add\n      swap1\n      tag_7\n      swap2\n      swap1\n      tag_8\n      jump\t// in\n    tag_7:\n      tag_9\n      jump\t// in\n    tag_6:\n      stop\n        /* \"contracts/fork.sol\":440:574  function set_x_2_other(address payable _address, uint256 value) external payable {... */\n    tag_3:\n      tag_10\n      0x04\n      dup1\n      calldatasize\n      sub\n      dup2\n      add\n      swap1\n      tag_11\n      swap2\n      swap1\n      tag_8\n      jump\t// in\n    tag_11:\n      tag_12\n      jump\t// in\n    tag_10:\n      stop\n        /* \"contracts/fork.sol\":749:871  function get_x_by_contract(OtherContract _address) external view returns(uint256) {... */\n    tag_4:\n      callvalue\n      dup1\n      iszero\n      tag_13\n      jumpi\n      0x00\n      dup1\n      revert\n    tag_13:\n      pop\n      tag_14\n      0x04\n      dup1\n      calldatasize\n      sub\n      dup2\n      add\n      swap1\n      tag_15\n      swap2\n      swap1\n      tag_16\n      jump\t// in\n    tag_15:\n      tag_17\n      jump\t// in\n    tag_14:\n      mload(0x40)\n      tag_18\n      swap2\n      swap1\n      tag_19\n      jump\t// in\n    tag_18:\n      mload(0x40)\n      dup1\n      swap2\n      sub\n      swap1\n      return\n        /* \"contracts/fork.sol\":877:1007  function get_x_by_address(address _address) external view returns(uint256) {... */\n    tag_5:\n      callvalue\n      dup1\n      iszero\n      tag_20\n      jumpi\n      0x00\n      dup1\n      revert\n    tag_20:\n      pop\n      tag_21\n      0x04\n      dup1\n      calldatasize\n      sub\n      dup2\n      add\n      swap1\n      tag_22\n      swap2\n      swap1\n      tag_23\n      jump\t// in\n    tag_22:\n      tag_24\n      jump\t// in\n    tag_21:\n      mload(0x40)\n      tag_25\n      swap2\n      swap1\n      tag_19\n      jump\t// in\n    tag_25:\n      mload(0x40)\n      dup1\n      swap2\n      sub\n      swap1\n      return\n        /* \"contracts/fork.sol\":580:743  function set_x_2_other_with_eth(address payable _address, uint256 amount) external payable {... */\n    tag_9:\n        /* \"contracts/fork.sol\":695:703  _address */\n      dup2\n        /* \"contracts/fork.sol\":681:710  OtherContract(_address).set_x */\n      0xffffffffffffffffffffffffffffffffffffffff\n      and\n      0xa5f28578\n        /* \"contracts/fork.sol\":718:727  msg.value */\n      callvalue\n        /* \"contracts/fork.sol\":729:735  amount */\n      dup4\n        /* \"contracts/fork.sol\":681:736  OtherContract(_address).set_x{value: msg.value}(amount) */\n      mload(0x40)\n      dup4\n      0xffffffff\n      and\n      0xe0\n      shl\n      dup2\n      mstore\n      0x04\n      add\n      tag_27\n      swap2\n      swap1\n      tag_19\n      jump\t// in\n    tag_27:\n      0x00\n      mload(0x40)\n      dup1\n      dup4\n      sub\n      dup2\n      dup6\n      dup9\n      dup1\n      extcodesize\n      iszero\n      dup1\n      iszero\n      tag_28\n      jumpi\n      0x00\n      dup1\n      revert\n    tag_28:\n      pop\n      gas\n      call\n      iszero\n      dup1\n      iszero\n      tag_30\n      jumpi\n      returndatasize\n      0x00\n      dup1\n      returndatacopy\n      revert(0x00, returndatasize)\n    tag_30:\n      pop\n      pop\n      pop\n      pop\n      pop\n        /* \"contracts/fork.sol\":580:743  function set_x_2_other_with_eth(address payable _address, uint256 amount) external payable {... */\n      pop\n      pop\n      jump\t// out\n        /* \"contracts/fork.sol\":440:574  function set_x_2_other(address payable _address, uint256 value) external payable {... */\n    tag_12:\n        /* \"contracts/fork.sol\":545:553  _address */\n      dup2\n        /* \"contracts/fork.sol\":531:560  OtherContract(_address).set_x */\n      0xffffffffffffffffffffffffffffffffffffffff\n      and\n      0xa5f28578\n        /* \"contracts/fork.sol\":561:566  value */\n      dup3\n        /* \"contracts/fork.sol\":531:567  OtherContract(_address).set_x(value) */\n      mload(0x40)\n      dup3\n      0xffffffff\n      and\n      0xe0\n      shl\n      dup2\n      mstore\n      0x04\n      add\n      tag_32\n      swap2\n      swap1\n      tag_19\n      jump\t// in\n    tag_32:\n      0x00\n      mload(0x40)\n      dup1\n      dup4\n      sub\n      dup2\n      0x00\n      dup8\n      dup1\n      extcodesize\n      iszero\n      dup1\n      iszero\n      tag_33\n      jumpi\n      0x00\n      dup1\n      revert\n    tag_33:\n      pop\n      gas\n      call\n      iszero\n      dup1\n      iszero\n      tag_35\n      jumpi\n      returndatasize\n      0x00\n      dup1\n      returndatacopy\n      revert(0x00, returndatasize)\n    tag_35:\n      pop\n      pop\n      pop\n      pop\n        /* \"contracts/fork.sol\":440:574  function set_x_2_other(address payable _address, uint256 value) external payable {... */\n      pop\n      pop\n      jump\t// out\n        /* \"contracts/fork.sol\":749:871  function get_x_by_contract(OtherContract _address) external view returns(uint256) {... */\n    tag_17:\n        /* \"contracts/fork.sol\":822:829  uint256 */\n      0x00\n        /* \"contracts/fork.sol\":848:856  _address */\n      dup2\n        /* \"contracts/fork.sol\":848:862  _address.get_x */\n      0xffffffffffffffffffffffffffffffffffffffff\n      and\n      0x3829050a\n        /* \"contracts/fork.sol\":848:864  _address.get_x() */\n      mload(0x40)\n      dup2\n      0xffffffff\n      and\n      0xe0\n      shl\n      dup2\n      mstore\n      0x04\n      add\n      0x20\n      mload(0x40)\n      dup1\n      dup4\n      sub\n      dup2\n      dup7\n      dup1\n      extcodesize\n      iszero\n      dup1\n      iszero\n      tag_37\n      jumpi\n      0x00\n      dup1\n      revert\n    tag_37:\n      pop\n      gas\n      staticcall\n      iszero\n      dup1\n      iszero\n      tag_39\n      jumpi\n      returndatasize\n      0x00\n      dup1\n      returndatacopy\n      revert(0x00, returndatasize)\n    tag_39:\n      pop\n      pop\n      pop\n      pop\n      mload(0x40)\n      returndatasize\n      not(0x1f)\n      0x1f\n      dup3\n      add\n      and\n      dup3\n      add\n      dup1\n      0x40\n      mstore\n      pop\n      dup2\n      add\n      swap1\n      tag_40\n      swap2\n      swap1\n      tag_41\n      jump\t// in\n    tag_40:\n        /* \"contracts/fork.sol\":841:864  return _address.get_x() */\n      swap1\n      pop\n        /* \"contracts/fork.sol\":749:871  function get_x_by_contract(OtherContract _address) external view returns(uint256) {... */\n      swap2\n      swap1\n      pop\n      jump\t// out\n        /* \"contracts/fork.sol\":877:1007  function get_x_by_address(address _address) external view returns(uint256) {... */\n    tag_24:\n        /* \"contracts/fork.sol\":943:950  uint256 */\n      0x00\n        /* \"contracts/fork.sol\":983:991  _address */\n      dup2\n        /* \"contracts/fork.sol\":969:998  OtherContract(_address).get_x */\n      0xffffffffffffffffffffffffffffffffffffffff\n      and\n      0x3829050a\n        /* \"contracts/fork.sol\":969:1000  OtherContract(_address).get_x() */\n      mload(0x40)\n      dup2\n      0xffffffff\n      and\n      0xe0\n      shl\n      dup2\n      mstore\n      0x04\n      add\n      0x20\n      mload(0x40)\n      dup1\n      dup4\n      sub\n      dup2\n      dup7\n      dup1\n      extcodesize\n      iszero\n      dup1\n      iszero\n      tag_43\n      jumpi\n      0x00\n      dup1\n      revert\n    tag_43:\n      pop\n      gas\n      staticcall\n      iszero\n      dup1\n      iszero\n      tag_45\n      jumpi\n      returndatasize\n      0x00\n      dup1\n      returndatacopy\n      revert(0x00, returndatasize)\n    tag_45:\n      pop\n      pop\n      pop\n      pop\n      mload(0x40)\n      returndatasize\n      not(0x1f)\n      0x1f\n      dup3\n      add\n      and\n      dup3\n      add\n      dup1\n      0x40\n      mstore\n      pop\n      dup2\n      add\n      swap1\n      tag_46\n      swap2\n      swap1\n      tag_41\n      jump\t// in\n    tag_46:\n        /* \"contracts/fork.sol\":962:1000  return OtherContract(_address).get_x() */\n      swap1\n      pop\n        /* \"contracts/fork.sol\":877:1007  function get_x_by_address(address _address) external view returns(uint256) {... */\n      swap2\n      swap1\n      pop\n      jump\t// out\n        /* \"#utility.yul\":7:146   */\n    tag_48:\n        /* \"#utility.yul\":53:58   */\n      0x00\n        /* \"#utility.yul\":91:97   */\n      dup2\n        /* \"#utility.yul\":78:98   */\n      calldataload\n        /* \"#utility.yul\":69:98   */\n      swap1\n      pop\n        /* \"#utility.yul\":107:140   */\n      tag_50\n        /* \"#utility.yul\":134:139   */\n      dup2\n        /* \"#utility.yul\":107:140   */\n      tag_51\n      jump\t// in\n    tag_50:\n        /* \"#utility.yul\":7:146   */\n      swap3\n      swap2\n      pop\n      pop\n      jump\t// out\n        /* \"#utility.yul\":152:307   */\n    tag_52:\n        /* \"#utility.yul\":206:211   */\n      0x00\n        /* \"#utility.yul\":244:250   */\n      dup2\n        /* \"#utility.yul\":231:251   */\n      calldataload\n        /* \"#utility.yul\":222:251   */\n      swap1\n      pop\n        /* \"#utility.yul\":260:301   */\n      tag_54\n        /* \"#utility.yul\":295:300   */\n      dup2\n        /* \"#utility.yul\":260:301   */\n      tag_55\n      jump\t// in\n    tag_54:\n        /* \"#utility.yul\":152:307   */\n      swap3\n      swap2\n      pop\n      pop\n      jump\t// out\n        /* \"#utility.yul\":313:492   */\n    tag_56:\n        /* \"#utility.yul\":379:384   */\n      0x00\n        /* \"#utility.yul\":417:423   */\n      dup2\n        /* \"#utility.yul\":404:424   */\n      calldataload\n        /* \"#utility.yul\":395:424   */\n      swap1\n      pop\n        /* \"#utility.yul\":433:486   */\n      tag_58\n        /* \"#utility.yul\":480:485   */\n      dup2\n        /* \"#utility.yul\":433:486   */\n      tag_59\n      jump\t// in\n    tag_58:\n        /* \"#utility.yul\":313:492   */\n      swap3\n      swap2\n      pop\n      pop\n      jump\t// out\n        /* \"#utility.yul\":498:637   */\n    tag_60:\n        /* \"#utility.yul\":544:549   */\n      0x00\n        /* \"#utility.yul\":582:588   */\n      dup2\n        /* \"#utility.yul\":569:589   */\n      calldataload\n        /* \"#utility.yul\":560:589   */\n      swap1\n      pop\n        /* \"#utility.yul\":598:631   */\n      tag_62\n        /* \"#utility.yul\":625:630   */\n      dup2\n        /* \"#utility.yul\":598:631   */\n      tag_63\n      jump\t// in\n    tag_62:\n        /* \"#utility.yul\":498:637   */\n      swap3\n      swap2\n      pop\n      pop\n      jump\t// out\n        /* \"#utility.yul\":643:786   */\n    tag_64:\n        /* \"#utility.yul\":700:705   */\n      0x00\n        /* \"#utility.yul\":731:737   */\n      dup2\n        /* \"#utility.yul\":725:738   */\n      mload\n        /* \"#utility.yul\":716:738   */\n      swap1\n      pop\n        /* \"#utility.yul\":747:780   */\n      tag_66\n        /* \"#utility.yul\":774:779   */\n      dup2\n        /* \"#utility.yul\":747:780   */\n      tag_63\n      jump\t// in\n    tag_66:\n        /* \"#utility.yul\":643:786   */\n      swap3\n      swap2\n      pop\n      pop\n      jump\t// out\n        /* \"#utility.yul\":792:1121   */\n    tag_23:\n        /* \"#utility.yul\":851:857   */\n      0x00\n        /* \"#utility.yul\":900:902   */\n      0x20\n        /* \"#utility.yul\":888:897   */\n      dup3\n        /* \"#utility.yul\":879:886   */\n      dup5\n        /* \"#utility.yul\":875:898   */\n      sub\n        /* \"#utility.yul\":871:903   */\n      slt\n        /* \"#utility.yul\":868:987   */\n      iszero\n      tag_68\n      jumpi\n        /* \"#utility.yul\":906:985   */\n      tag_69\n      tag_70\n      jump\t// in\n    tag_69:\n        /* \"#utility.yul\":868:987   */\n    tag_68:\n        /* \"#utility.yul\":1026:1027   */\n      0x00\n        /* \"#utility.yul\":1051:1104   */\n      tag_71\n        /* \"#utility.yul\":1096:1103   */\n      dup5\n        /* \"#utility.yul\":1087:1093   */\n      dup3\n        /* \"#utility.yul\":1076:1085   */\n      dup6\n        /* \"#utility.yul\":1072:1094   */\n      add\n        /* \"#utility.yul\":1051:1104   */\n      tag_48\n      jump\t// in\n    tag_71:\n        /* \"#utility.yul\":1041:1104   */\n      swap2\n      pop\n        /* \"#utility.yul\":997:1114   */\n      pop\n        /* \"#utility.yul\":792:1121   */\n      swap3\n      swap2\n      pop\n      pop\n      jump\t// out\n        /* \"#utility.yul\":1127:1617   */\n    tag_8:\n        /* \"#utility.yul\":1203:1209   */\n      0x00\n        /* \"#utility.yul\":1211:1217   */\n      dup1\n        /* \"#utility.yul\":1260:1262   */\n      0x40\n        /* \"#utility.yul\":1248:1257   */\n      dup4\n        /* \"#utility.yul\":1239:1246   */\n      dup6\n        /* \"#utility.yul\":1235:1258   */\n      sub\n        /* \"#utility.yul\":1231:1263   */\n      slt\n        /* \"#utility.yul\":1228:1347   */\n      iszero\n      tag_73\n      jumpi\n        /* \"#utility.yul\":1266:1345   */\n      tag_74\n      tag_70\n      jump\t// in\n    tag_74:\n        /* \"#utility.yul\":1228:1347   */\n    tag_73:\n        /* \"#utility.yul\":1386:1387   */\n      0x00\n        /* \"#utility.yul\":1411:1472   */\n      tag_75\n        /* \"#utility.yul\":1464:1471   */\n      dup6\n        /* \"#utility.yul\":1455:1461   */\n      dup3\n        /* \"#utility.yul\":1444:1453   */\n      dup7\n        /* \"#utility.yul\":1440:1462   */\n      add\n        /* \"#utility.yul\":1411:1472   */\n      tag_52\n      jump\t// in\n    tag_75:\n        /* \"#utility.yul\":1401:1472   */\n      swap3\n      pop\n        /* \"#utility.yul\":1357:1482   */\n      pop\n        /* \"#utility.yul\":1521:1523   */\n      0x20\n        /* \"#utility.yul\":1547:1600   */\n      tag_76\n        /* \"#utility.yul\":1592:1599   */\n      dup6\n        /* \"#utility.yul\":1583:1589   */\n      dup3\n        /* \"#utility.yul\":1572:1581   */\n      dup7\n        /* \"#utility.yul\":1568:1590   */\n      add\n        /* \"#utility.yul\":1547:1600   */\n      tag_60\n      jump\t// in\n    tag_76:\n        /* \"#utility.yul\":1537:1600   */\n      swap2\n      pop\n        /* \"#utility.yul\":1492:1610   */\n      pop\n        /* \"#utility.yul\":1127:1617   */\n      swap3\n      pop\n      swap3\n      swap1\n      pop\n      jump\t// out\n        /* \"#utility.yul\":1623:1992   */\n    tag_16:\n        /* \"#utility.yul\":1702:1708   */\n      0x00\n        /* \"#utility.yul\":1751:1753   */\n      0x20\n        /* \"#utility.yul\":1739:1748   */\n      dup3\n        /* \"#utility.yul\":1730:1737   */\n      dup5\n        /* \"#utility.yul\":1726:1749   */\n      sub\n        /* \"#utility.yul\":1722:1754   */\n      slt\n        /* \"#utility.yul\":1719:1838   */\n      iszero\n      tag_78\n      jumpi\n        /* \"#utility.yul\":1757:1836   */\n      tag_79\n      tag_70\n      jump\t// in\n    tag_79:\n        /* \"#utility.yul\":1719:1838   */\n    tag_78:\n        /* \"#utility.yul\":1877:1878   */\n      0x00\n        /* \"#utility.yul\":1902:1975   */\n      tag_80\n        /* \"#utility.yul\":1967:1974   */\n      dup5\n        /* \"#utility.yul\":1958:1964   */\n      dup3\n        /* \"#utility.yul\":1947:1956   */\n      dup6\n        /* \"#utility.yul\":1943:1965   */\n      add\n        /* \"#utility.yul\":1902:1975   */\n      tag_56\n      jump\t// in\n    tag_80:\n        /* \"#utility.yul\":1892:1975   */\n      swap2\n      pop\n        /* \"#utility.yul\":1848:1985   */\n      pop\n        /* \"#utility.yul\":1623:1992   */\n      swap3\n      swap2\n      pop\n      pop\n      jump\t// out\n        /* \"#utility.yul\":1998:2349   */\n    tag_41:\n        /* \"#utility.yul\":2068:2074   */\n      0x00\n        /* \"#utility.yul\":2117:2119   */\n      0x20\n        /* \"#utility.yul\":2105:2114   */\n      dup3\n        /* \"#utility.yul\":2096:2103   */\n      dup5\n        /* \"#utility.yul\":2092:2115   */\n      sub\n        /* \"#utility.yul\":2088:2120   */\n      slt\n        /* \"#utility.yul\":2085:2204   */\n      iszero\n      tag_82\n      jumpi\n        /* \"#utility.yul\":2123:2202   */\n      tag_83\n      tag_70\n      jump\t// in\n    tag_83:\n        /* \"#utility.yul\":2085:2204   */\n    tag_82:\n        /* \"#utility.yul\":2243:2244   */\n      0x00\n        /* \"#utility.yul\":2268:2332   */\n      tag_84\n        /* \"#utility.yul\":2324:2331   */\n      dup5\n        /* \"#utility.yul\":2315:2321   */\n      dup3\n        /* \"#utility.yul\":2304:2313   */\n      dup6\n        /* \"#utility.yul\":2300:2322   */\n      add\n        /* \"#utility.yul\":2268:2332   */\n      tag_64\n      jump\t// in\n    tag_84:\n        /* \"#utility.yul\":2258:2332   */\n      swap2\n      pop\n        /* \"#utility.yul\":2214:2342   */\n      pop\n        /* \"#utility.yul\":1998:2349   */\n      swap3\n      swap2\n      pop\n      pop\n      jump\t// out\n        /* \"#utility.yul\":2355:2473   */\n    tag_85:\n        /* \"#utility.yul\":2442:2466   */\n      tag_87\n        /* \"#utility.yul\":2460:2465   */\n      dup2\n        /* \"#utility.yul\":2442:2466   */\n      tag_88\n      jump\t// in\n    tag_87:\n        /* \"#utility.yul\":2437:2440   */\n      dup3\n        /* \"#utility.yul\":2430:2467   */\n      mstore\n        /* \"#utility.yul\":2355:2473   */\n      pop\n      pop\n      jump\t// out\n        /* \"#utility.yul\":2479:2701   */\n    tag_19:\n        /* \"#utility.yul\":2572:2576   */\n      0x00\n        /* \"#utility.yul\":2610:2612   */\n      0x20\n        /* \"#utility.yul\":2599:2608   */\n      dup3\n        /* \"#utility.yul\":2595:2613   */\n      add\n        /* \"#utility.yul\":2587:2613   */\n      swap1\n      pop\n        /* \"#utility.yul\":2623:2694   */\n      tag_90\n        /* \"#utility.yul\":2691:2692   */\n      0x00\n        /* \"#utility.yul\":2680:2689   */\n      dup4\n        /* \"#utility.yul\":2676:2693   */\n      add\n        /* \"#utility.yul\":2667:2673   */\n      dup5\n        /* \"#utility.yul\":2623:2694   */\n      tag_85\n      jump\t// in\n    tag_90:\n        /* \"#utility.yul\":2479:2701   */\n      swap3\n      swap2\n      pop\n      pop\n      jump\t// out\n        /* \"#utility.yul\":2788:2884   */\n    tag_93:\n        /* \"#utility.yul\":2825:2832   */\n      0x00\n        /* \"#utility.yul\":2854:2878   */\n      tag_95\n        /* \"#utility.yul\":2872:2877   */\n      dup3\n        /* \"#utility.yul\":2854:2878   */\n      tag_96\n      jump\t// in\n    tag_95:\n        /* \"#utility.yul\":2843:2878   */\n      swap1\n      pop\n        /* \"#utility.yul\":2788:2884   */\n      swap2\n      swap1\n      pop\n      jump\t// out\n        /* \"#utility.yul\":2890:2994   */\n    tag_97:\n        /* \"#utility.yul\":2935:2942   */\n      0x00\n        /* \"#utility.yul\":2964:2988   */\n      tag_99\n        /* \"#utility.yul\":2982:2987   */\n      dup3\n        /* \"#utility.yul\":2964:2988   */\n      tag_96\n      jump\t// in\n    tag_99:\n        /* \"#utility.yul\":2953:2988   */\n      swap1\n      pop\n        /* \"#utility.yul\":2890:2994   */\n      swap2\n      swap1\n      pop\n      jump\t// out\n        /* \"#utility.yul\":3000:3116   */\n    tag_100:\n        /* \"#utility.yul\":3057:3064   */\n      0x00\n        /* \"#utility.yul\":3086:3110   */\n      tag_102\n        /* \"#utility.yul\":3104:3109   */\n      dup3\n        /* \"#utility.yul\":3086:3110   */\n      tag_93\n      jump\t// in\n    tag_102:\n        /* \"#utility.yul\":3075:3110   */\n      swap1\n      pop\n        /* \"#utility.yul\":3000:3116   */\n      swap2\n      swap1\n      pop\n      jump\t// out\n        /* \"#utility.yul\":3122:3248   */\n    tag_96:\n        /* \"#utility.yul\":3159:3166   */\n      0x00\n        /* \"#utility.yul\":3199:3241   */\n      0xffffffffffffffffffffffffffffffffffffffff\n        /* \"#utility.yul\":3192:3197   */\n      dup3\n        /* \"#utility.yul\":3188:3242   */\n      and\n        /* \"#utility.yul\":3177:3242   */\n      swap1\n      pop\n        /* \"#utility.yul\":3122:3248   */\n      swap2\n      swap1\n      pop\n      jump\t// out\n        /* \"#utility.yul\":3254:3331   */\n    tag_88:\n        /* \"#utility.yul\":3291:3298   */\n      0x00\n        /* \"#utility.yul\":3320:3325   */\n      dup2\n        /* \"#utility.yul\":3309:3325   */\n      swap1\n      pop\n        /* \"#utility.yul\":3254:3331   */\n      swap2\n      swap1\n      pop\n      jump\t// out\n        /* \"#utility.yul\":3460:3577   */\n    tag_70:\n        /* \"#utility.yul\":3569:3570   */\n      0x00\n        /* \"#utility.yul\":3566:3567   */\n      dup1\n        /* \"#utility.yul\":3559:3571   */\n      revert\n        /* \"#utility.yul\":3583:3705   */\n    tag_51:\n        /* \"#utility.yul\":3656:3680   */\n      tag_109\n        /* \"#utility.yul\":3674:3679   */\n      dup2\n        /* \"#utility.yul\":3656:3680   */\n      tag_93\n      jump\t// in\n    tag_109:\n        /* \"#utility.yul\":3649:3654   */\n      dup2\n        /* \"#utility.yul\":3646:3681   */\n      eq\n        /* \"#utility.yul\":3636:3699   */\n      tag_110\n      jumpi\n        /* \"#utility.yul\":3695:3696   */\n      0x00\n        /* \"#utility.yul\":3692:3693   */\n      dup1\n        /* \"#utility.yul\":3685:3697   */\n      revert\n        /* \"#utility.yul\":3636:3699   */\n    tag_110:\n        /* \"#utility.yul\":3583:3705   */\n      pop\n      jump\t// out\n        /* \"#utility.yul\":3711:3849   */\n    tag_55:\n        /* \"#utility.yul\":3792:3824   */\n      tag_112\n        /* \"#utility.yul\":3818:3823   */\n      dup2\n        /* \"#utility.yul\":3792:3824   */\n      tag_97\n      jump\t// in\n    tag_112:\n        /* \"#utility.yul\":3785:3790   */\n      dup2\n        /* \"#utility.yul\":3782:3825   */\n      eq\n        /* \"#utility.yul\":3772:3843   */\n      tag_113\n      jumpi\n        /* \"#utility.yul\":3839:3840   */\n      0x00\n        /* \"#utility.yul\":3836:3837   */\n      dup1\n        /* \"#utility.yul\":3829:3841   */\n      revert\n        /* \"#utility.yul\":3772:3843   */\n    tag_113:\n        /* \"#utility.yul\":3711:3849   */\n      pop\n      jump\t// out\n        /* \"#utility.yul\":3855:4017   */\n    tag_59:\n        /* \"#utility.yul\":3948:3992   */\n      tag_115\n        /* \"#utility.yul\":3986:3991   */\n      dup2\n        /* \"#utility.yul\":3948:3992   */\n      tag_100\n      jump\t// in\n    tag_115:\n        /* \"#utility.yul\":3941:3946   */\n      dup2\n        /* \"#utility.yul\":3938:3993   */\n      eq\n        /* \"#utility.yul\":3928:4011   */\n      tag_116\n      jumpi\n        /* \"#utility.yul\":4007:4008   */\n      0x00\n        /* \"#utility.yul\":4004:4005   */\n      dup1\n        /* \"#utility.yul\":3997:4009   */\n      revert\n        /* \"#utility.yul\":3928:4011   */\n    tag_116:\n        /* \"#utility.yul\":3855:4017   */\n      pop\n      jump\t// out\n        /* \"#utility.yul\":4023:4145   */\n    tag_63:\n        /* \"#utility.yul\":4096:4120   */\n      tag_118\n        /* \"#utility.yul\":4114:4119   */\n      dup2\n        /* \"#utility.yul\":4096:4120   */\n      tag_88\n      jump\t// in\n    tag_118:\n        /* \"#utility.yul\":4089:4094   */\n      dup2\n        /* \"#utility.yul\":4086:4121   */\n      eq\n        /* \"#utility.yul\":4076:4139   */\n      tag_119\n      jumpi\n        /* \"#utility.yul\":4135:4136   */\n      0x00\n        /* \"#utility.yul\":4132:4133   */\n      dup1\n        /* \"#utility.yul\":4125:4137   */\n      revert\n        /* \"#utility.yul\":4076:4139   */\n    tag_119:\n        /* \"#utility.yul\":4023:4145   */\n      pop\n      jump\t// out\n\n    auxdata: 0xa26469706673582212200a94a5bcf626c55ac3accd07c0b5363c179201b2e074ce0ce2d566e5fdc2c9c864736f6c63430008070033\n}\n",
				"bytecode": {
					"linkReferences": {},
					"object": "608060405234801561001057600080fd5b50610534806100206000396000f3fe60806040526004361061003f5760003560e01c8063705fe36a14610044578063810003b914610060578063a45473ad1461007c578063a92000ab146100b9575b600080fd5b61005e60048036038101906100599190610379565b6100f6565b005b61007a60048036038101906100759190610379565b610166565b005b34801561008857600080fd5b506100a3600480360381019061009e91906103b9565b6101d5565b6040516100b09190610422565b60405180910390f35b3480156100c557600080fd5b506100e060048036038101906100db919061034c565b61025c565b6040516100ed9190610422565b60405180910390f35b8173ffffffffffffffffffffffffffffffffffffffff1663a5f2857834836040518363ffffffff1660e01b81526004016101309190610422565b6000604051808303818588803b15801561014957600080fd5b505af115801561015d573d6000803e3d6000fd5b50505050505050565b8173ffffffffffffffffffffffffffffffffffffffff1663a5f28578826040518263ffffffff1660e01b815260040161019f9190610422565b600060405180830381600087803b1580156101b957600080fd5b505af11580156101cd573d6000803e3d6000fd5b505050505050565b60008173ffffffffffffffffffffffffffffffffffffffff16633829050a6040518163ffffffff1660e01b815260040160206040518083038186803b15801561021d57600080fd5b505afa158015610231573d6000803e3d6000fd5b505050506040513d601f19601f8201168201806040525081019061025591906103e6565b9050919050565b60008173ffffffffffffffffffffffffffffffffffffffff16633829050a6040518163ffffffff1660e01b815260040160206040518083038186803b1580156102a457600080fd5b505afa1580156102b8573d6000803e3d6000fd5b505050506040513d601f19601f820116820180604052508101906102dc91906103e6565b9050919050565b6000813590506102f2816104a2565b92915050565b600081359050610307816104b9565b92915050565b60008135905061031c816104d0565b92915050565b600081359050610331816104e7565b92915050565b600081519050610346816104e7565b92915050565b6000602082840312156103625761036161049d565b5b6000610370848285016102e3565b91505092915050565b600080604083850312156103905761038f61049d565b5b600061039e858286016102f8565b92505060206103af85828601610322565b9150509250929050565b6000602082840312156103cf576103ce61049d565b5b60006103dd8482850161030d565b91505092915050565b6000602082840312156103fc576103fb61049d565b5b600061040a84828501610337565b91505092915050565b61041c81610493565b82525050565b60006020820190506104376000830184610413565b92915050565b600061044882610473565b9050919050565b600061045a82610473565b9050919050565b600061046c8261043d565b9050919050565b600073ffffffffffffffffffffffffffffffffffffffff82169050919050565b6000819050919050565b600080fd5b6104ab8161043d565b81146104b657600080fd5b50565b6104c28161044f565b81146104cd57600080fd5b50565b6104d981610461565b81146104e457600080fd5b50565b6104f081610493565b81146104fb57600080fd5b5056fea26469706673582212200a94a5bcf626c55ac3accd07c0b5363c179201b2e074ce0ce2d566e5fdc2c9c864736f6c63430008070033",
					"opcodes": "PUSH1 0x80 PUSH1 0x40 MSTORE CALLVALUE DUP1 ISZERO PUSH2 0x10 JUMPI PUSH1 0x0 DUP1 REVERT JUMPDEST POP PUSH2 0x534 DUP1 PUSH2 0x20 PUSH1 0x0 CODECOPY PUSH1 0x0 RETURN INVALID PUSH1 0x80 PUSH1 0x40 MSTORE PUSH1 0x4 CALLDATASIZE LT PUSH2 0x3F JUMPI PUSH1 0x0 CALLDATALOAD PUSH1 0xE0 SHR DUP1 PUSH4 0x705FE36A EQ PUSH2 0x44 JUMPI DUP1 PUSH4 0x810003B9 EQ PUSH2 0x60 JUMPI DUP1 PUSH4 0xA45473AD EQ PUSH2 0x7C JUMPI DUP1 PUSH4 0xA92000AB EQ PUSH2 0xB9 JUMPI JUMPDEST PUSH1 0x0 DUP1 REVERT JUMPDEST PUSH2 0x5E PUSH1 0x4 DUP1 CALLDATASIZE SUB DUP2 ADD SWAP1 PUSH2 0x59 SWAP2 SWAP1 PUSH2 0x379 JUMP JUMPDEST PUSH2 0xF6 JUMP JUMPDEST STOP JUMPDEST PUSH2 0x7A PUSH1 0x4 DUP1 CALLDATASIZE SUB DUP2 ADD SWAP1 PUSH2 0x75 SWAP2 SWAP1 PUSH2 0x379 JUMP JUMPDEST PUSH2 0x166 JUMP JUMPDEST STOP JUMPDEST CALLVALUE DUP1 ISZERO PUSH2 0x88 JUMPI PUSH1 0x0 DUP1 REVERT JUMPDEST POP PUSH2 0xA3 PUSH1 0x4 DUP1 CALLDATASIZE SUB DUP2 ADD SWAP1 PUSH2 0x9E SWAP2 SWAP1 PUSH2 0x3B9 JUMP JUMPDEST PUSH2 0x1D5 JUMP JUMPDEST PUSH1 0x40 MLOAD PUSH2 0xB0 SWAP2 SWAP1 PUSH2 0x422 JUMP JUMPDEST PUSH1 0x40 MLOAD DUP1 SWAP2 SUB SWAP1 RETURN JUMPDEST CALLVALUE DUP1 ISZERO PUSH2 0xC5 JUMPI PUSH1 0x0 DUP1 REVERT JUMPDEST POP PUSH2 0xE0 PUSH1 0x4 DUP1 CALLDATASIZE SUB DUP2 ADD SWAP1 PUSH2 0xDB SWAP2 SWAP1 PUSH2 0x34C JUMP JUMPDEST PUSH2 0x25C JUMP JUMPDEST PUSH1 0x40 MLOAD PUSH2 0xED SWAP2 SWAP1 PUSH2 0x422 JUMP JUMPDEST PUSH1 0x40 MLOAD DUP1 SWAP2 SUB SWAP1 RETURN JUMPDEST DUP2 PUSH20 0xFFFFFFFFFFFFFFFFFFFFFFFFFFFFFFFFFFFFFFFF AND PUSH4 0xA5F28578 CALLVALUE DUP4 PUSH1 0x40 MLOAD DUP4 PUSH4 0xFFFFFFFF AND PUSH1 0xE0 SHL DUP2 MSTORE PUSH1 0x4 ADD PUSH2 0x130 SWAP2 SWAP1 PUSH2 0x422 JUMP JUMPDEST PUSH1 0x0 PUSH1 0x40 MLOAD DUP1 DUP4 SUB DUP2 DUP6 DUP9 DUP1 EXTCODESIZE ISZERO DUP1 ISZERO PUSH2 0x149 JUMPI PUSH1 0x0 DUP1 REVERT JUMPDEST POP GAS CALL ISZERO DUP1 ISZERO PUSH2 0x15D JUMPI RETURNDATASIZE PUSH1 0x0 DUP1 RETURNDATACOPY RETURNDATASIZE PUSH1 0x0 REVERT JUMPDEST POP POP POP POP POP POP POP JUMP JUMPDEST DUP2 PUSH20 0xFFFFFFFFFFFFFFFFFFFFFFFFFFFFFFFFFFFFFFFF AND PUSH4 0xA5F28578 DUP3 PUSH1 0x40 MLOAD DUP3 PUSH4 0xFFFFFFFF AND PUSH1 0xE0 SHL DUP2 MSTORE PUSH1 0x4 ADD PUSH2 0x19F SWAP2 SWAP1 PUSH2 0x422 JUMP JUMPDEST PUSH1 0x0 PUSH1 0x40 MLOAD DUP1 DUP4 SUB DUP2 PUSH1 0x0 DUP8 DUP1 EXTCODESIZE ISZERO DUP1 ISZERO PUSH2 0x1B9 JUMPI PUSH1 0x0 DUP1 REVERT JUMPDEST POP GAS CALL ISZERO DUP1 ISZERO PUSH2 0x1CD JUMPI RETURNDATASIZE PUSH1 0x0 DUP1 RETURNDATACOPY RETURNDATASIZE PUSH1 0x0 REVERT JUMPDEST POP POP POP POP POP POP JUMP JUMPDEST PUSH1 0x0 DUP2 PUSH20 0xFFFFFFFFFFFFFFFFFFFFFFFFFFFFFFFFFFFFFFFF AND PUSH4 0x3829050A PUSH1 0x40 MLOAD DUP2 PUSH4 0xFFFFFFFF AND PUSH1 0xE0 SHL DUP2 MSTORE PUSH1 0x4 ADD PUSH1 0x20 PUSH1 0x40 MLOAD DUP1 DUP4 SUB DUP2 DUP7 DUP1 EXTCODESIZE ISZERO DUP1 ISZERO PUSH2 0x21D JUMPI PUSH1 0x0 DUP1 REVERT JUMPDEST POP GAS STATICCALL ISZERO DUP1 ISZERO PUSH2 0x231 JUMPI RETURNDATASIZE PUSH1 0x0 DUP1 RETURNDATACOPY RETURNDATASIZE PUSH1 0x0 REVERT JUMPDEST POP POP POP POP PUSH1 0x40 MLOAD RETURNDATASIZE PUSH1 0x1F NOT PUSH1 0x1F DUP3 ADD AND DUP3 ADD DUP1 PUSH1 0x40 MSTORE POP DUP2 ADD SWAP1 PUSH2 0x255 SWAP2 SWAP1 PUSH2 0x3E6 JUMP JUMPDEST SWAP1 POP SWAP2 SWAP1 POP JUMP JUMPDEST PUSH1 0x0 DUP2 PUSH20 0xFFFFFFFFFFFFFFFFFFFFFFFFFFFFFFFFFFFFFFFF AND PUSH4 0x3829050A PUSH1 0x40 MLOAD DUP2 PUSH4 0xFFFFFFFF AND PUSH1 0xE0 SHL DUP2 MSTORE PUSH1 0x4 ADD PUSH1 0x20 PUSH1 0x40 MLOAD DUP1 DUP4 SUB DUP2 DUP7 DUP1 EXTCODESIZE ISZERO DUP1 ISZERO PUSH2 0x2A4 JUMPI PUSH1 0x0 DUP1 REVERT JUMPDEST POP GAS STATICCALL ISZERO DUP1 ISZERO PUSH2 0x2B8 JUMPI RETURNDATASIZE PUSH1 0x0 DUP1 RETURNDATACOPY RETURNDATASIZE PUSH1 0x0 REVERT JUMPDEST POP POP POP POP PUSH1 0x40 MLOAD RETURNDATASIZE PUSH1 0x1F NOT PUSH1 0x1F DUP3 ADD AND DUP3 ADD DUP1 PUSH1 0x40 MSTORE POP DUP2 ADD SWAP1 PUSH2 0x2DC SWAP2 SWAP1 PUSH2 0x3E6 JUMP JUMPDEST SWAP1 POP SWAP2 SWAP1 POP JUMP JUMPDEST PUSH1 0x0 DUP2 CALLDATALOAD SWAP1 POP PUSH2 0x2F2 DUP2 PUSH2 0x4A2 JUMP JUMPDEST SWAP3 SWAP2 POP POP JUMP JUMPDEST PUSH1 0x0 DUP2 CALLDATALOAD SWAP1 POP PUSH2 0x307 DUP2 PUSH2 0x4B9 JUMP JUMPDEST SWAP3 SWAP2 POP POP JUMP JUMPDEST PUSH1 0x0 DUP2 CALLDATALOAD SWAP1 POP PUSH2 0x31C DUP2 PUSH2 0x4D0 JUMP JUMPDEST SWAP3 SWAP2 POP POP JUMP JUMPDEST PUSH1 0x0 DUP2 CALLDATALOAD SWAP1 POP PUSH2 0x331 DUP2 PUSH2 0x4E7 JUMP JUMPDEST SWAP3 SWAP2 POP POP JUMP JUMPDEST PUSH1 0x0 DUP2 MLOAD SWAP1 POP PUSH2 0x346 DUP2 PUSH2 0x4E7 JUMP JUMPDEST SWAP3 SWAP2 POP POP JUMP JUMPDEST PUSH1 0x0 PUSH1 0x20 DUP3 DUP5 SUB SLT ISZERO PUSH2 0x362 JUMPI PUSH2 0x361 PUSH2 0x49D JUMP JUMPDEST JUMPDEST PUSH1 0x0 PUSH2 0x370 DUP5 DUP3 DUP6 ADD PUSH2 0x2E3 JUMP JUMPDEST SWAP2 POP POP SWAP3 SWAP2 POP POP JUMP JUMPDEST PUSH1 0x0 DUP1 PUSH1 0x40 DUP4 DUP6 SUB SLT ISZERO PUSH2 0x390 JUMPI PUSH2 0x38F PUSH2 0x49D JUMP JUMPDEST JUMPDEST PUSH1 0x0 PUSH2 0x39E DUP6 DUP3 DUP7 ADD PUSH2 0x2F8 JUMP JUMPDEST SWAP3 POP POP PUSH1 0x20 PUSH2 0x3AF DUP6 DUP3 DUP7 ADD PUSH2 0x322 JUMP JUMPDEST SWAP2 POP POP SWAP3 POP SWAP3 SWAP1 POP JUMP JUMPDEST PUSH1 0x0 PUSH1 0x20 DUP3 DUP5 SUB SLT ISZERO PUSH2 0x3CF JUMPI PUSH2 0x3CE PUSH2 0x49D JUMP JUMPDEST JUMPDEST PUSH1 0x0 PUSH2 0x3DD DUP5 DUP3 DUP6 ADD PUSH2 0x30D JUMP JUMPDEST SWAP2 POP POP SWAP3 SWAP2 POP POP JUMP JUMPDEST PUSH1 0x0 PUSH1 0x20 DUP3 DUP5 SUB SLT ISZERO PUSH2 0x3FC JUMPI PUSH2 0x3FB PUSH2 0x49D JUMP JUMPDEST JUMPDEST PUSH1 0x0 PUSH2 0x40A DUP5 DUP3 DUP6 ADD PUSH2 0x337 JUMP JUMPDEST SWAP2 POP POP SWAP3 SWAP2 POP POP JUMP JUMPDEST PUSH2 0x41C DUP2 PUSH2 0x493 JUMP JUMPDEST DUP3 MSTORE POP POP JUMP JUMPDEST PUSH1 0x0 PUSH1 0x20 DUP3 ADD SWAP1 POP PUSH2 0x437 PUSH1 0x0 DUP4 ADD DUP5 PUSH2 0x413 JUMP JUMPDEST SWAP3 SWAP2 POP POP JUMP JUMPDEST PUSH1 0x0 PUSH2 0x448 DUP3 PUSH2 0x473 JUMP JUMPDEST SWAP1 POP SWAP2 SWAP1 POP JUMP JUMPDEST PUSH1 0x0 PUSH2 0x45A DUP3 PUSH2 0x473 JUMP JUMPDEST SWAP1 POP SWAP2 SWAP1 POP JUMP JUMPDEST PUSH1 0x0 PUSH2 0x46C DUP3 PUSH2 0x43D JUMP JUMPDEST SWAP1 POP SWAP2 SWAP1 POP JUMP JUMPDEST PUSH1 0x0 PUSH20 0xFFFFFFFFFFFFFFFFFFFFFFFFFFFFFFFFFFFFFFFF DUP3 AND SWAP1 POP SWAP2 SWAP1 POP JUMP JUMPDEST PUSH1 0x0 DUP2 SWAP1 POP SWAP2 SWAP1 POP JUMP JUMPDEST PUSH1 0x0 DUP1 REVERT JUMPDEST PUSH2 0x4AB DUP2 PUSH2 0x43D JUMP JUMPDEST DUP2 EQ PUSH2 0x4B6 JUMPI PUSH1 0x0 DUP1 REVERT JUMPDEST POP JUMP JUMPDEST PUSH2 0x4C2 DUP2 PUSH2 0x44F JUMP JUMPDEST DUP2 EQ PUSH2 0x4CD JUMPI PUSH1 0x0 DUP1 REVERT JUMPDEST POP JUMP JUMPDEST PUSH2 0x4D9 DUP2 PUSH2 0x461 JUMP JUMPDEST DUP2 EQ PUSH2 0x4E4 JUMPI PUSH1 0x0 DUP1 REVERT JUMPDEST POP JUMP JUMPDEST PUSH2 0x4F0 DUP2 PUSH2 0x493 JUMP JUMPDEST DUP2 EQ PUSH2 0x4FB JUMPI PUSH1 0x0 DUP1 REVERT JUMPDEST POP JUMP INVALID LOG2 PUSH5 0x6970667358 0x22 SLT KECCAK256 EXP SWAP5 0xA5 0xBC 0xF6 0x26 0xC5 GAS 0xC3 0xAC 0xCD SMOD 0xC0 0xB5 CALLDATASIZE EXTCODECOPY OR SWAP3 ADD 0xB2 0xE0 PUSH21 0xCE0CE2D566E5FDC2C9C864736F6C63430008070033 "
				},
				"gasEstimates": {
					"creation": {
						"codeDepositCost": "266400",
						"executionCost": "306",
						"totalCost": "266706"
					},
					"external": {
						"get_x_by_address(address)": "infinite",
						"get_x_by_contract(address)": "infinite",
						"set_x_2_other(address,uint256)": "infinite",
						"set_x_2_other_with_eth(address,uint256)": "infinite"
					}
				},
				"methodIdentifiers": {
					"get_x_by_address(address)": "a92000ab",
					"get_x_by_contract(address)": "a45473ad",
					"set_x_2_other(address,uint256)": "810003b9",
					"set_x_2_other_with_eth(address,uint256)": "705fe36a"
				}
			},
			"storageLayout": {
				"storage": [],
				"types": null
			},
			"userdoc": {
				"kind": "user",
				"methods": {},
				"version": 1
			}
		}
	}
}