{
	"contracts/Vault.sol": {
		"Vault": {
			"abi": [
				{
					"inputs": [
						{
							"internalType": "bytes32",
							"name": "_password",
							"type": "bytes32"
						}
					],
					"stateMutability": "nonpayable",
					"type": "constructor"
				},
				{
					"inputs": [],
					"name": "locked",
					"outputs": [
						{
							"internalType": "bool",
							"name": "",
							"type": "bool"
						}
					],
					"stateMutability": "view",
					"type": "function"
				},
				{
					"inputs": [
						{
							"internalType": "bytes32",
							"name": "_password",
							"type": "bytes32"
						}
					],
					"name": "unlock",
					"outputs": [],
					"stateMutability": "nonpayable",
					"type": "function"
				}
			],
			"devdoc": {
				"kind": "dev",
				"methods": {},
				"version": 1
			},
			"evm": {
				"assembly": "    /* \"contracts/Vault.sol\":179:444  contract Vault {... */\n  mstore(0x40, 0x80)\n    /* \"contracts/Vault.sol\":249:330  constructor(bytes32 _password) {... */\n  callvalue\n  dup1\n  iszero\n  tag_1\n  jumpi\n  0x00\n  dup1\n  revert\ntag_1:\n  pop\n  mload(0x40)\n  sub(codesize, bytecodeSize)\n  dup1\n  bytecodeSize\n  dup4\n  codecopy\n  dup2\n  dup2\n  add\n  0x40\n  mstore\n  dup2\n  add\n  swap1\n  tag_2\n  swap2\n  swap1\n  tag_3\n  jump\t// in\ntag_2:\n    /* \"contracts/Vault.sol\":295:299  true */\n  0x01\n    /* \"contracts/Vault.sol\":286:292  locked */\n  0x00\n  dup1\n    /* \"contracts/Vault.sol\":286:299  locked = true */\n  0x0100\n  exp\n  dup2\n  sload\n  dup2\n  0xff\n  mul\n  not\n  and\n  swap1\n  dup4\n  iszero\n  iszero\n  mul\n  or\n  swap1\n  sstore\n  pop\n    /* \"contracts/Vault.sol\":316:325  _password */\n  dup1\n    /* \"contracts/Vault.sol\":305:313  password */\n  0x01\n    /* \"contracts/Vault.sol\":305:325  password = _password */\n  dup2\n  swap1\n  sstore\n  pop\n    /* \"contracts/Vault.sol\":249:330  constructor(bytes32 _password) {... */\n  pop\n    /* \"contracts/Vault.sol\":179:444  contract Vault {... */\n  jump(tag_6)\n    /* \"#utility.yul\":7:150   */\ntag_8:\n  0x00\n    /* \"#utility.yul\":95:101   */\n  dup2\n    /* \"#utility.yul\":89:102   */\n  mload\n    /* \"#utility.yul\":80:102   */\n  swap1\n  pop\n    /* \"#utility.yul\":111:144   */\n  tag_10\n    /* \"#utility.yul\":138:143   */\n  dup2\n    /* \"#utility.yul\":111:144   */\n  tag_11\n  jump\t// in\ntag_10:\n    /* \"#utility.yul\":70:150   */\n  swap3\n  swap2\n  pop\n  pop\n  jump\t// out\n    /* \"#utility.yul\":156:440   */\ntag_3:\n  0x00\n    /* \"#utility.yul\":275:277   */\n  0x20\n    /* \"#utility.yul\":263:272   */\n  dup3\n    /* \"#utility.yul\":254:261   */\n  dup5\n    /* \"#utility.yul\":250:273   */\n  sub\n    /* \"#utility.yul\":246:278   */\n  slt\n    /* \"#utility.yul\":243:245   */\n  iszero\n  tag_13\n  jumpi\n    /* \"#utility.yul\":291:292   */\n  0x00\n    /* \"#utility.yul\":288:289   */\n  dup1\n    /* \"#utility.yul\":281:293   */\n  revert\n    /* \"#utility.yul\":243:245   */\ntag_13:\n    /* \"#utility.yul\":334:335   */\n  0x00\n    /* \"#utility.yul\":359:423   */\n  tag_14\n    /* \"#utility.yul\":415:422   */\n  dup5\n    /* \"#utility.yul\":406:412   */\n  dup3\n    /* \"#utility.yul\":395:404   */\n  dup6\n    /* \"#utility.yul\":391:413   */\n  add\n    /* \"#utility.yul\":359:423   */\n  tag_8\n  jump\t// in\ntag_14:\n    /* \"#utility.yul\":349:423   */\n  swap2\n  pop\n    /* \"#utility.yul\":305:433   */\n  pop\n    /* \"#utility.yul\":233:440   */\n  swap3\n  swap2\n  pop\n  pop\n  jump\t// out\n    /* \"#utility.yul\":446:523   */\ntag_15:\n  0x00\n    /* \"#utility.yul\":512:517   */\n  dup2\n    /* \"#utility.yul\":501:517   */\n  swap1\n  pop\n    /* \"#utility.yul\":491:523   */\n  swap2\n  swap1\n  pop\n  jump\t// out\n    /* \"#utility.yul\":529:651   */\ntag_11:\n    /* \"#utility.yul\":602:626   */\n  tag_18\n    /* \"#utility.yul\":620:625   */\n  dup2\n    /* \"#utility.yul\":602:626   */\n  tag_15\n  jump\t// in\ntag_18:\n    /* \"#utility.yul\":595:600   */\n  dup2\n    /* \"#utility.yul\":592:627   */\n  eq\n    /* \"#utility.yul\":582:584   */\n  tag_19\n  jumpi\n    /* \"#utility.yul\":641:642   */\n  0x00\n    /* \"#utility.yul\":638:639   */\n  dup1\n    /* \"#utility.yul\":631:643   */\n  revert\n    /* \"#utility.yul\":582:584   */\ntag_19:\n    /* \"#utility.yul\":572:651   */\n  pop\n  jump\t// out\n    /* \"contracts/Vault.sol\":179:444  contract Vault {... */\ntag_6:\n  dataSize(sub_0)\n  dup1\n  dataOffset(sub_0)\n  0x00\n  codecopy\n  0x00\n  return\nstop\n\nsub_0: assembly {\n        /* \"contracts/Vault.sol\":179:444  contract Vault {... */\n      mstore(0x40, 0x80)\n      callvalue\n      dup1\n      iszero\n      tag_1\n      jumpi\n      0x00\n      dup1\n      revert\n    tag_1:\n      pop\n      jumpi(tag_2, lt(calldatasize, 0x04))\n      shr(0xe0, calldataload(0x00))\n      dup1\n      0xcf309012\n      eq\n      tag_3\n      jumpi\n      dup1\n      0xec9b5b3a\n      eq\n      tag_4\n      jumpi\n    tag_2:\n      0x00\n      dup1\n      revert\n        /* \"contracts/Vault.sol\":198:216  bool public locked */\n    tag_3:\n      tag_5\n      tag_6\n      jump\t// in\n    tag_5:\n      mload(0x40)\n      tag_7\n      swap2\n      swap1\n      tag_8\n      jump\t// in\n    tag_7:\n      mload(0x40)\n      dup1\n      swap2\n      sub\n      swap1\n      return\n        /* \"contracts/Vault.sol\":334:442  function unlock(bytes32 _password) public {... */\n    tag_4:\n      tag_9\n      0x04\n      dup1\n      calldatasize\n      sub\n      dup2\n      add\n      swap1\n      tag_10\n      swap2\n      swap1\n      tag_11\n      jump\t// in\n    tag_10:\n      tag_12\n      jump\t// in\n    tag_9:\n      stop\n        /* \"contracts/Vault.sol\":198:216  bool public locked */\n    tag_6:\n      0x00\n      dup1\n      sload\n      swap1\n      0x0100\n      exp\n      swap1\n      div\n      0xff\n      and\n      dup2\n      jump\t// out\n        /* \"contracts/Vault.sol\":334:442  function unlock(bytes32 _password) public {... */\n    tag_12:\n        /* \"contracts/Vault.sol\":398:407  _password */\n      dup1\n        /* \"contracts/Vault.sol\":386:394  password */\n      sload(0x01)\n        /* \"contracts/Vault.sol\":386:407  password == _password */\n      eq\n        /* \"contracts/Vault.sol\":382:438  if (password == _password) {... */\n      iszero\n      tag_14\n      jumpi\n        /* \"contracts/Vault.sol\":426:431  false */\n      0x00\n        /* \"contracts/Vault.sol\":417:423  locked */\n      dup1\n      0x00\n        /* \"contracts/Vault.sol\":417:431  locked = false */\n      0x0100\n      exp\n      dup2\n      sload\n      dup2\n      0xff\n      mul\n      not\n      and\n      swap1\n      dup4\n      iszero\n      iszero\n      mul\n      or\n      swap1\n      sstore\n      pop\n        /* \"contracts/Vault.sol\":382:438  if (password == _password) {... */\n    tag_14:\n        /* \"contracts/Vault.sol\":334:442  function unlock(bytes32 _password) public {... */\n      pop\n      jump\t// out\n        /* \"#utility.yul\":7:146   */\n    tag_16:\n      0x00\n        /* \"#utility.yul\":91:97   */\n      dup2\n        /* \"#utility.yul\":78:98   */\n      calldataload\n        /* \"#utility.yul\":69:98   */\n      swap1\n      pop\n        /* \"#utility.yul\":107:140   */\n      tag_18\n        /* \"#utility.yul\":134:139   */\n      dup2\n        /* \"#utility.yul\":107:140   */\n      tag_19\n      jump\t// in\n    tag_18:\n        /* \"#utility.yul\":59:146   */\n      swap3\n      swap2\n      pop\n      pop\n      jump\t// out\n        /* \"#utility.yul\":152:414   */\n    tag_11:\n      0x00\n        /* \"#utility.yul\":260:262   */\n      0x20\n        /* \"#utility.yul\":248:257   */\n      dup3\n        /* \"#utility.yul\":239:246   */\n      dup5\n        /* \"#utility.yul\":235:258   */\n      sub\n        /* \"#utility.yul\":231:263   */\n      slt\n        /* \"#utility.yul\":228:230   */\n      iszero\n      tag_21\n      jumpi\n        /* \"#utility.yul\":276:277   */\n      0x00\n        /* \"#utility.yul\":273:274   */\n      dup1\n        /* \"#utility.yul\":266:278   */\n      revert\n        /* \"#utility.yul\":228:230   */\n    tag_21:\n        /* \"#utility.yul\":319:320   */\n      0x00\n        /* \"#utility.yul\":344:397   */\n      tag_22\n        /* \"#utility.yul\":389:396   */\n      dup5\n        /* \"#utility.yul\":380:386   */\n      dup3\n        /* \"#utility.yul\":369:378   */\n      dup6\n        /* \"#utility.yul\":365:387   */\n      add\n        /* \"#utility.yul\":344:397   */\n      tag_16\n      jump\t// in\n    tag_22:\n        /* \"#utility.yul\":334:397   */\n      swap2\n      pop\n        /* \"#utility.yul\":290:407   */\n      pop\n        /* \"#utility.yul\":218:414   */\n      swap3\n      swap2\n      pop\n      pop\n      jump\t// out\n        /* \"#utility.yul\":420:529   */\n    tag_23:\n        /* \"#utility.yul\":501:522   */\n      tag_25\n        /* \"#utility.yul\":516:521   */\n      dup2\n        /* \"#utility.yul\":501:522   */\n      tag_26\n      jump\t// in\n    tag_25:\n        /* \"#utility.yul\":496:499   */\n      dup3\n        /* \"#utility.yul\":489:523   */\n      mstore\n        /* \"#utility.yul\":479:529   */\n      pop\n      pop\n      jump\t// out\n        /* \"#utility.yul\":535:745   */\n    tag_8:\n      0x00\n        /* \"#utility.yul\":660:662   */\n      0x20\n        /* \"#utility.yul\":649:658   */\n      dup3\n        /* \"#utility.yul\":645:663   */\n      add\n        /* \"#utility.yul\":637:663   */\n      swap1\n      pop\n        /* \"#utility.yul\":673:738   */\n      tag_28\n        /* \"#utility.yul\":735:736   */\n      0x00\n        /* \"#utility.yul\":724:733   */\n      dup4\n        /* \"#utility.yul\":720:737   */\n      add\n        /* \"#utility.yul\":711:717   */\n      dup5\n        /* \"#utility.yul\":673:738   */\n      tag_23\n      jump\t// in\n    tag_28:\n        /* \"#utility.yul\":627:745   */\n      swap3\n      swap2\n      pop\n      pop\n      jump\t// out\n        /* \"#utility.yul\":751:841   */\n    tag_26:\n      0x00\n        /* \"#utility.yul\":828:833   */\n      dup2\n        /* \"#utility.yul\":821:834   */\n      iszero\n        /* \"#utility.yul\":814:835   */\n      iszero\n        /* \"#utility.yul\":803:835   */\n      swap1\n      pop\n        /* \"#utility.yul\":793:841   */\n      swap2\n      swap1\n      pop\n      jump\t// out\n        /* \"#utility.yul\":847:924   */\n    tag_30:\n      0x00\n        /* \"#utility.yul\":913:918   */\n      dup2\n        /* \"#utility.yul\":902:918   */\n      swap1\n      pop\n        /* \"#utility.yul\":892:924   */\n      swap2\n      swap1\n      pop\n      jump\t// out\n        /* \"#utility.yul\":930:1052   */\n    tag_19:\n        /* \"#utility.yul\":1003:1027   */\n      tag_33\n        /* \"#utility.yul\":1021:1026   */\n      dup2\n        /* \"#utility.yul\":1003:1027   */\n      tag_30\n      jump\t// in\n    tag_33:\n        /* \"#utility.yul\":996:1001   */\n      dup2\n        /* \"#utility.yul\":993:1028   */\n      eq\n        /* \"#utility.yul\":983:985   */\n      tag_34\n      jumpi\n        /* \"#utility.yul\":1042:1043   */\n      0x00\n        /* \"#utility.yul\":1039:1040   */\n      dup1\n        /* \"#utility.yul\":1032:1044   */\n      revert\n        /* \"#utility.yul\":983:985   */\n    tag_34:\n        /* \"#utility.yul\":973:1052   */\n      pop\n      jump\t// out\n\n    auxdata: 0xa26469706673582212208662a745cb8e7d74c618867fc9b66d4149a1f8acb3523156e351b73575faf13564736f6c63430008000033\n}\n",
				"bytecode": {
					"linkReferences": {},
					"object": "608060405234801561001057600080fd5b506040516102403803806102408339818101604052810190610032919061006e565b60016000806101000a81548160ff02191690831515021790555080600181905550506100b8565b600081519050610068816100a1565b92915050565b60006020828403121561008057600080fd5b600061008e84828501610059565b91505092915050565b6000819050919050565b6100aa81610097565b81146100b557600080fd5b50565b610179806100c76000396000f3fe608060405234801561001057600080fd5b50600436106100365760003560e01c8063cf3090121461003b578063ec9b5b3a14610059575b600080fd5b610043610075565b60405161005091906100fb565b60405180910390f35b610073600480360381019061006e91906100c3565b610086565b005b60008054906101000a900460ff1681565b8060015414156100ab5760008060006101000a81548160ff0219169083151502179055505b50565b6000813590506100bd8161012c565b92915050565b6000602082840312156100d557600080fd5b60006100e3848285016100ae565b91505092915050565b6100f581610116565b82525050565b600060208201905061011060008301846100ec565b92915050565b60008115159050919050565b6000819050919050565b61013581610122565b811461014057600080fd5b5056fea26469706673582212208662a745cb8e7d74c618867fc9b66d4149a1f8acb3523156e351b73575faf13564736f6c63430008000033",
					"opcodes": "PUSH1 0x80 PUSH1 0x40 MSTORE CALLVALUE DUP1 ISZERO PUSH2 0x10 JUMPI PUSH1 0x0 DUP1 REVERT JUMPDEST POP PUSH1 0x40 MLOAD PUSH2 0x240 CODESIZE SUB DUP1 PUSH2 0x240 DUP4 CODECOPY DUP2 DUP2 ADD PUSH1 0x40 MSTORE DUP2 ADD SWAP1 PUSH2 0x32 SWAP2 SWAP1 PUSH2 0x6E JUMP JUMPDEST PUSH1 0x1 PUSH1 0x0 DUP1 PUSH2 0x100 EXP DUP2 SLOAD DUP2 PUSH1 0xFF MUL NOT AND SWAP1 DUP4 ISZERO ISZERO MUL OR SWAP1 SSTORE POP DUP1 PUSH1 0x1 DUP2 SWAP1 SSTORE POP POP PUSH2 0xB8 JUMP JUMPDEST PUSH1 0x0 DUP2 MLOAD SWAP1 POP PUSH2 0x68 DUP2 PUSH2 0xA1 JUMP JUMPDEST SWAP3 SWAP2 POP POP JUMP JUMPDEST PUSH1 0x0 PUSH1 0x20 DUP3 DUP5 SUB SLT ISZERO PUSH2 0x80 JUMPI PUSH1 0x0 DUP1 REVERT JUMPDEST PUSH1 0x0 PUSH2 0x8E DUP5 DUP3 DUP6 ADD PUSH2 0x59 JUMP JUMPDEST SWAP2 POP POP SWAP3 SWAP2 POP POP JUMP JUMPDEST PUSH1 0x0 DUP2 SWAP1 POP SWAP2 SWAP1 POP JUMP JUMPDEST PUSH2 0xAA DUP2 PUSH2 0x97 JUMP JUMPDEST DUP2 EQ PUSH2 0xB5 JUMPI PUSH1 0x0 DUP1 REVERT JUMPDEST POP JUMP JUMPDEST PUSH2 0x179 DUP1 PUSH2 0xC7 PUSH1 0x0 CODECOPY PUSH1 0x0 RETURN INVALID PUSH1 0x80 PUSH1 0x40 MSTORE CALLVALUE DUP1 ISZERO PUSH2 0x10 JUMPI PUSH1 0x0 DUP1 REVERT JUMPDEST POP PUSH1 0x4 CALLDATASIZE LT PUSH2 0x36 JUMPI PUSH1 0x0 CALLDATALOAD PUSH1 0xE0 SHR DUP1 PUSH4 0xCF309012 EQ PUSH2 0x3B JUMPI DUP1 PUSH4 0xEC9B5B3A EQ PUSH2 0x59 JUMPI JUMPDEST PUSH1 0x0 DUP1 REVERT JUMPDEST PUSH2 0x43 PUSH2 0x75 JUMP JUMPDEST PUSH1 0x40 MLOAD PUSH2 0x50 SWAP2 SWAP1 PUSH2 0xFB JUMP JUMPDEST PUSH1 0x40 MLOAD DUP1 SWAP2 SUB SWAP1 RETURN JUMPDEST PUSH2 0x73 PUSH1 0x4 DUP1 CALLDATASIZE SUB DUP2 ADD SWAP1 PUSH2 0x6E SWAP2 SWAP1 PUSH2 0xC3 JUMP JUMPDEST PUSH2 0x86 JUMP JUMPDEST STOP JUMPDEST PUSH1 0x0 DUP1 SLOAD SWAP1 PUSH2 0x100 EXP SWAP1 DIV PUSH1 0xFF AND DUP2 JUMP JUMPDEST DUP1 PUSH1 0x1 SLOAD EQ ISZERO PUSH2 0xAB JUMPI PUSH1 0x0 DUP1 PUSH1 0x0 PUSH2 0x100 EXP DUP2 SLOAD DUP2 PUSH1 0xFF MUL NOT AND SWAP1 DUP4 ISZERO ISZERO MUL OR SWAP1 SSTORE POP JUMPDEST POP JUMP JUMPDEST PUSH1 0x0 DUP2 CALLDATALOAD SWAP1 POP PUSH2 0xBD DUP2 PUSH2 0x12C JUMP JUMPDEST SWAP3 SWAP2 POP POP JUMP JUMPDEST PUSH1 0x0 PUSH1 0x20 DUP3 DUP5 SUB SLT ISZERO PUSH2 0xD5 JUMPI PUSH1 0x0 DUP1 REVERT JUMPDEST PUSH1 0x0 PUSH2 0xE3 DUP5 DUP3 DUP6 ADD PUSH2 0xAE JUMP JUMPDEST SWAP2 POP POP SWAP3 SWAP2 POP POP JUMP JUMPDEST PUSH2 0xF5 DUP2 PUSH2 0x116 JUMP JUMPDEST DUP3 MSTORE POP POP JUMP JUMPDEST PUSH1 0x0 PUSH1 0x20 DUP3 ADD SWAP1 POP PUSH2 0x110 PUSH1 0x0 DUP4 ADD DUP5 PUSH2 0xEC JUMP JUMPDEST SWAP3 SWAP2 POP POP JUMP JUMPDEST PUSH1 0x0 DUP2 ISZERO ISZERO SWAP1 POP SWAP2 SWAP1 POP JUMP JUMPDEST PUSH1 0x0 DUP2 SWAP1 POP SWAP2 SWAP1 POP JUMP JUMPDEST PUSH2 0x135 DUP2 PUSH2 0x122 JUMP JUMPDEST DUP2 EQ PUSH2 0x140 JUMPI PUSH1 0x0 DUP1 REVERT JUMPDEST POP JUMP INVALID LOG2 PUSH5 0x6970667358 0x22 SLT KECCAK256 DUP7 PUSH3 0xA745CB DUP15 PUSH30 0x74C618867FC9B66D4149A1F8ACB3523156E351B73575FAF13564736F6C63 NUMBER STOP ADDMOD STOP STOP CALLER "
				},
				"gasEstimates": {
					"creation": {
						"codeDepositCost": "75400",
						"executionCost": "infinite",
						"totalCost": "infinite"
					},
					"external": {
						"locked()": "1146",
						"unlock(bytes32)": "22099"
					}
				},
				"methodIdentifiers": {
					"locked()": "cf309012",
					"unlock(bytes32)": "ec9b5b3a"
				}
			},
			"storageLayout": {
				"storage": [
					{
						"astId": 3,
						"contract": "contracts/Vault.sol:Vault",
						"label": "locked",
						"offset": 0,
						"slot": "0",
						"type": "t_bool"
					},
					{
						"astId": 5,
						"contract": "contracts/Vault.sol:Vault",
						"label": "password",
						"offset": 0,
						"slot": "1",
						"type": "t_bytes32"
					}
				],
				"types": {
					"t_bool": {
						"encoding": "inplace",
						"label": "bool",
						"numberOfBytes": "1"
					},
					"t_bytes32": {
						"encoding": "inplace",
						"label": "bytes32",
						"numberOfBytes": "32"
					}
				}
			},
			"userdoc": {
				"kind": "user",
				"methods": {},
				"version": 1
			}
		}
	}
}