{
	"contracts/CoilFlip.sol": {
		"CoinFlip": {
			"abi": [
				{
					"inputs": [],
					"stateMutability": "nonpayable",
					"type": "constructor"
				},
				{
					"inputs": [],
					"name": "consecutiveWins",
					"outputs": [
						{
							"internalType": "uint256",
							"name": "",
							"type": "uint256"
						}
					],
					"stateMutability": "view",
					"type": "function"
				},
				{
					"inputs": [
						{
							"internalType": "bool",
							"name": "_guess",
							"type": "bool"
						}
					],
					"name": "flip",
					"outputs": [
						{
							"internalType": "bool",
							"name": "",
							"type": "bool"
						}
					],
					"stateMutability": "nonpayable",
					"type": "function"
				}
			],
			"devdoc": {
				"kind": "dev",
				"methods": {},
				"version": 1
			},
			"evm": {
				"assembly": "    /* \"contracts/CoilFlip.sol\":733:1388  contract CoinFlip {... */\n  mstore(0x40, 0x80)\n    /* \"contracts/CoilFlip.sol\":827:904  57896044618658097711785492504343953926634992332820282019728792003956564819968 */\n  0x8000000000000000000000000000000000000000000000000000000000000000\n    /* \"contracts/CoilFlip.sol\":810:904  uint256 FACTOR = 57896044618658097711785492504343953926634992332820282019728792003956564819968 */\n  0x02\n  sstore\n    /* \"contracts/CoilFlip.sol\":909:953  constructor() {... */\n  callvalue\n  dup1\n  iszero\n  tag_1\n  jumpi\n  0x00\n  dup1\n  revert\ntag_1:\n  pop\n    /* \"contracts/CoilFlip.sol\":947:948  0 */\n  0x00\n    /* \"contracts/CoilFlip.sol\":929:944  consecutiveWins */\n  dup1\n    /* \"contracts/CoilFlip.sol\":929:948  consecutiveWins = 0 */\n  dup2\n  swap1\n  sstore\n  pop\n    /* \"contracts/CoilFlip.sol\":733:1388  contract CoinFlip {... */\n  dataSize(sub_0)\n  dup1\n  dataOffset(sub_0)\n  0x00\n  codecopy\n  0x00\n  return\nstop\n\nsub_0: assembly {\n        /* \"contracts/CoilFlip.sol\":733:1388  contract CoinFlip {... */\n      mstore(0x40, 0x80)\n      callvalue\n      dup1\n      iszero\n      tag_1\n      jumpi\n      0x00\n      dup1\n      revert\n    tag_1:\n      pop\n      jumpi(tag_2, lt(calldatasize, 0x04))\n      shr(0xe0, calldataload(0x00))\n      dup1\n      0x1d263f67\n      eq\n      tag_3\n      jumpi\n      dup1\n      0xe6f334d7\n      eq\n      tag_4\n      jumpi\n    tag_2:\n      0x00\n      dup1\n      revert\n        /* \"contracts/CoilFlip.sol\":957:1386  function flip(bool _guess) public returns (bool) {... */\n    tag_3:\n      tag_5\n      0x04\n      dup1\n      calldatasize\n      sub\n      dup2\n      add\n      swap1\n      tag_6\n      swap2\n      swap1\n      tag_7\n      jump\t// in\n    tag_6:\n      tag_8\n      jump\t// in\n    tag_5:\n      mload(0x40)\n      tag_9\n      swap2\n      swap1\n      tag_10\n      jump\t// in\n    tag_9:\n      mload(0x40)\n      dup1\n      swap2\n      sub\n      swap1\n      return\n        /* \"contracts/CoilFlip.sol\":756:786  uint256 public consecutiveWins */\n    tag_4:\n      tag_11\n      tag_12\n      jump\t// in\n    tag_11:\n      mload(0x40)\n      tag_13\n      swap2\n      swap1\n      tag_14\n      jump\t// in\n    tag_13:\n      mload(0x40)\n      dup1\n      swap2\n      sub\n      swap1\n      return\n        /* \"contracts/CoilFlip.sol\":957:1386  function flip(bool _guess) public returns (bool) {... */\n    tag_8:\n        /* \"contracts/CoilFlip.sol\":1000:1004  bool */\n      0x00\n        /* \"contracts/CoilFlip.sol\":1012:1030  uint256 blockValue */\n      dup1\n        /* \"contracts/CoilFlip.sol\":1066:1067  1 */\n      0x01\n        /* \"contracts/CoilFlip.sol\":1051:1063  block.number */\n      number\n        /* \"contracts/CoilFlip.sol\":1051:1067  block.number - 1 */\n      tag_16\n      swap2\n      swap1\n      tag_17\n      jump\t// in\n    tag_16:\n        /* \"contracts/CoilFlip.sol\":1041:1068  blockhash(block.number - 1) */\n      blockhash\n        /* \"contracts/CoilFlip.sol\":1033:1069  uint256(blockhash(block.number - 1)) */\n      0x00\n      shr\n        /* \"contracts/CoilFlip.sol\":1012:1069  uint256 blockValue = uint256(blockhash(block.number - 1)) */\n      swap1\n      pop\n        /* \"contracts/CoilFlip.sol\":1092:1102  blockValue */\n      dup1\n        /* \"contracts/CoilFlip.sol\":1080:1088  lastHash */\n      sload(0x01)\n        /* \"contracts/CoilFlip.sol\":1080:1102  lastHash == blockValue */\n      eq\n        /* \"contracts/CoilFlip.sol\":1076:1127  if (lastHash == blockValue) {... */\n      iszero\n      tag_18\n      jumpi\n        /* \"contracts/CoilFlip.sol\":1112:1120  revert() */\n      0x00\n      dup1\n      revert\n        /* \"contracts/CoilFlip.sol\":1076:1127  if (lastHash == blockValue) {... */\n    tag_18:\n        /* \"contracts/CoilFlip.sol\":1144:1154  blockValue */\n      dup1\n        /* \"contracts/CoilFlip.sol\":1133:1141  lastHash */\n      0x01\n        /* \"contracts/CoilFlip.sol\":1133:1154  lastHash = blockValue */\n      dup2\n      swap1\n      sstore\n      pop\n        /* \"contracts/CoilFlip.sol\":1160:1176  uint256 coinFlip */\n      0x00\n        /* \"contracts/CoilFlip.sol\":1192:1198  FACTOR */\n      sload(0x02)\n        /* \"contracts/CoilFlip.sol\":1179:1189  blockValue */\n      dup3\n        /* \"contracts/CoilFlip.sol\":1179:1198  blockValue / FACTOR */\n      tag_19\n      swap2\n      swap1\n      tag_20\n      jump\t// in\n    tag_19:\n        /* \"contracts/CoilFlip.sol\":1160:1198  uint256 coinFlip = blockValue / FACTOR */\n      swap1\n      pop\n        /* \"contracts/CoilFlip.sol\":1204:1213  bool side */\n      0x00\n        /* \"contracts/CoilFlip.sol\":1228:1229  1 */\n      0x01\n        /* \"contracts/CoilFlip.sol\":1216:1224  coinFlip */\n      dup3\n        /* \"contracts/CoilFlip.sol\":1216:1229  coinFlip == 1 */\n      eq\n        /* \"contracts/CoilFlip.sol\":1216:1244  coinFlip == 1 ? true : false */\n      tag_21\n      jumpi\n        /* \"contracts/CoilFlip.sol\":1239:1244  false */\n      0x00\n        /* \"contracts/CoilFlip.sol\":1216:1244  coinFlip == 1 ? true : false */\n      jump(tag_22)\n    tag_21:\n        /* \"contracts/CoilFlip.sol\":1232:1236  true */\n      0x01\n        /* \"contracts/CoilFlip.sol\":1216:1244  coinFlip == 1 ? true : false */\n    tag_22:\n        /* \"contracts/CoilFlip.sol\":1204:1244  bool side = coinFlip == 1 ? true : false */\n      swap1\n      pop\n        /* \"contracts/CoilFlip.sol\":1263:1269  _guess */\n      dup5\n        /* \"contracts/CoilFlip.sol\":1255:1269  side == _guess */\n      iszero\n      iszero\n        /* \"contracts/CoilFlip.sol\":1255:1259  side */\n      dup2\n        /* \"contracts/CoilFlip.sol\":1255:1269  side == _guess */\n      iszero\n      iszero\n      eq\n        /* \"contracts/CoilFlip.sol\":1251:1382  if (side == _guess) {... */\n      iszero\n      tag_23\n      jumpi\n        /* \"contracts/CoilFlip.sol\":1279:1294  consecutiveWins */\n      0x00\n      dup1\n        /* \"contracts/CoilFlip.sol\":1279:1296  consecutiveWins++ */\n      dup2\n      sload\n      dup1\n      swap3\n      swap2\n      swap1\n      tag_24\n      swap1\n      tag_25\n      jump\t// in\n    tag_24:\n      swap2\n      swap1\n      pop\n      sstore\n      pop\n        /* \"contracts/CoilFlip.sol\":1311:1315  true */\n      0x01\n        /* \"contracts/CoilFlip.sol\":1304:1315  return true */\n      swap4\n      pop\n      pop\n      pop\n      pop\n      jump(tag_15)\n        /* \"contracts/CoilFlip.sol\":1251:1382  if (side == _guess) {... */\n    tag_23:\n        /* \"contracts/CoilFlip.sol\":1354:1355  0 */\n      0x00\n        /* \"contracts/CoilFlip.sol\":1336:1351  consecutiveWins */\n      dup1\n        /* \"contracts/CoilFlip.sol\":1336:1355  consecutiveWins = 0 */\n      dup2\n      swap1\n      sstore\n      pop\n        /* \"contracts/CoilFlip.sol\":1370:1375  false */\n      0x00\n        /* \"contracts/CoilFlip.sol\":1363:1375  return false */\n      swap4\n      pop\n      pop\n      pop\n      pop\n        /* \"contracts/CoilFlip.sol\":957:1386  function flip(bool _guess) public returns (bool) {... */\n    tag_15:\n      swap2\n      swap1\n      pop\n      jump\t// out\n        /* \"contracts/CoilFlip.sol\":756:786  uint256 public consecutiveWins */\n    tag_12:\n      sload(0x00)\n      dup2\n      jump\t// out\n        /* \"#utility.yul\":7:140   */\n    tag_28:\n      0x00\n        /* \"#utility.yul\":88:94   */\n      dup2\n        /* \"#utility.yul\":75:95   */\n      calldataload\n        /* \"#utility.yul\":66:95   */\n      swap1\n      pop\n        /* \"#utility.yul\":104:134   */\n      tag_30\n        /* \"#utility.yul\":128:133   */\n      dup2\n        /* \"#utility.yul\":104:134   */\n      tag_31\n      jump\t// in\n    tag_30:\n        /* \"#utility.yul\":56:140   */\n      swap3\n      swap2\n      pop\n      pop\n      jump\t// out\n        /* \"#utility.yul\":146:402   */\n    tag_7:\n      0x00\n        /* \"#utility.yul\":251:253   */\n      0x20\n        /* \"#utility.yul\":239:248   */\n      dup3\n        /* \"#utility.yul\":230:237   */\n      dup5\n        /* \"#utility.yul\":226:249   */\n      sub\n        /* \"#utility.yul\":222:254   */\n      slt\n        /* \"#utility.yul\":219:221   */\n      iszero\n      tag_33\n      jumpi\n        /* \"#utility.yul\":267:268   */\n      0x00\n        /* \"#utility.yul\":264:265   */\n      dup1\n        /* \"#utility.yul\":257:269   */\n      revert\n        /* \"#utility.yul\":219:221   */\n    tag_33:\n        /* \"#utility.yul\":310:311   */\n      0x00\n        /* \"#utility.yul\":335:385   */\n      tag_34\n        /* \"#utility.yul\":377:384   */\n      dup5\n        /* \"#utility.yul\":368:374   */\n      dup3\n        /* \"#utility.yul\":357:366   */\n      dup6\n        /* \"#utility.yul\":353:375   */\n      add\n        /* \"#utility.yul\":335:385   */\n      tag_28\n      jump\t// in\n    tag_34:\n        /* \"#utility.yul\":325:385   */\n      swap2\n      pop\n        /* \"#utility.yul\":281:395   */\n      pop\n        /* \"#utility.yul\":209:402   */\n      swap3\n      swap2\n      pop\n      pop\n      jump\t// out\n        /* \"#utility.yul\":408:517   */\n    tag_35:\n        /* \"#utility.yul\":489:510   */\n      tag_37\n        /* \"#utility.yul\":504:509   */\n      dup2\n        /* \"#utility.yul\":489:510   */\n      tag_38\n      jump\t// in\n    tag_37:\n        /* \"#utility.yul\":484:487   */\n      dup3\n        /* \"#utility.yul\":477:511   */\n      mstore\n        /* \"#utility.yul\":467:517   */\n      pop\n      pop\n      jump\t// out\n        /* \"#utility.yul\":523:641   */\n    tag_39:\n        /* \"#utility.yul\":610:634   */\n      tag_41\n        /* \"#utility.yul\":628:633   */\n      dup2\n        /* \"#utility.yul\":610:634   */\n      tag_42\n      jump\t// in\n    tag_41:\n        /* \"#utility.yul\":605:608   */\n      dup3\n        /* \"#utility.yul\":598:635   */\n      mstore\n        /* \"#utility.yul\":588:641   */\n      pop\n      pop\n      jump\t// out\n        /* \"#utility.yul\":647:857   */\n    tag_10:\n      0x00\n        /* \"#utility.yul\":772:774   */\n      0x20\n        /* \"#utility.yul\":761:770   */\n      dup3\n        /* \"#utility.yul\":757:775   */\n      add\n        /* \"#utility.yul\":749:775   */\n      swap1\n      pop\n        /* \"#utility.yul\":785:850   */\n      tag_44\n        /* \"#utility.yul\":847:848   */\n      0x00\n        /* \"#utility.yul\":836:845   */\n      dup4\n        /* \"#utility.yul\":832:849   */\n      add\n        /* \"#utility.yul\":823:829   */\n      dup5\n        /* \"#utility.yul\":785:850   */\n      tag_35\n      jump\t// in\n    tag_44:\n        /* \"#utility.yul\":739:857   */\n      swap3\n      swap2\n      pop\n      pop\n      jump\t// out\n        /* \"#utility.yul\":863:1085   */\n    tag_14:\n      0x00\n        /* \"#utility.yul\":994:996   */\n      0x20\n        /* \"#utility.yul\":983:992   */\n      dup3\n        /* \"#utility.yul\":979:997   */\n      add\n        /* \"#utility.yul\":971:997   */\n      swap1\n      pop\n        /* \"#utility.yul\":1007:1078   */\n      tag_46\n        /* \"#utility.yul\":1075:1076   */\n      0x00\n        /* \"#utility.yul\":1064:1073   */\n      dup4\n        /* \"#utility.yul\":1060:1077   */\n      add\n        /* \"#utility.yul\":1051:1057   */\n      dup5\n        /* \"#utility.yul\":1007:1078   */\n      tag_39\n      jump\t// in\n    tag_46:\n        /* \"#utility.yul\":961:1085   */\n      swap3\n      swap2\n      pop\n      pop\n      jump\t// out\n        /* \"#utility.yul\":1091:1276   */\n    tag_20:\n      0x00\n        /* \"#utility.yul\":1148:1168   */\n      tag_48\n        /* \"#utility.yul\":1166:1167   */\n      dup3\n        /* \"#utility.yul\":1148:1168   */\n      tag_42\n      jump\t// in\n    tag_48:\n        /* \"#utility.yul\":1143:1168   */\n      swap2\n      pop\n        /* \"#utility.yul\":1182:1202   */\n      tag_49\n        /* \"#utility.yul\":1200:1201   */\n      dup4\n        /* \"#utility.yul\":1182:1202   */\n      tag_42\n      jump\t// in\n    tag_49:\n        /* \"#utility.yul\":1177:1202   */\n      swap3\n      pop\n        /* \"#utility.yul\":1221:1222   */\n      dup3\n        /* \"#utility.yul\":1211:1213   */\n      tag_50\n      jumpi\n        /* \"#utility.yul\":1226:1244   */\n      tag_51\n      tag_52\n      jump\t// in\n    tag_51:\n        /* \"#utility.yul\":1211:1213   */\n    tag_50:\n        /* \"#utility.yul\":1268:1269   */\n      dup3\n        /* \"#utility.yul\":1265:1266   */\n      dup3\n        /* \"#utility.yul\":1261:1270   */\n      div\n        /* \"#utility.yul\":1256:1270   */\n      swap1\n      pop\n        /* \"#utility.yul\":1133:1276   */\n      swap3\n      swap2\n      pop\n      pop\n      jump\t// out\n        /* \"#utility.yul\":1282:1473   */\n    tag_17:\n      0x00\n        /* \"#utility.yul\":1342:1362   */\n      tag_54\n        /* \"#utility.yul\":1360:1361   */\n      dup3\n        /* \"#utility.yul\":1342:1362   */\n      tag_42\n      jump\t// in\n    tag_54:\n        /* \"#utility.yul\":1337:1362   */\n      swap2\n      pop\n        /* \"#utility.yul\":1376:1396   */\n      tag_55\n        /* \"#utility.yul\":1394:1395   */\n      dup4\n        /* \"#utility.yul\":1376:1396   */\n      tag_42\n      jump\t// in\n    tag_55:\n        /* \"#utility.yul\":1371:1396   */\n      swap3\n      pop\n        /* \"#utility.yul\":1415:1416   */\n      dup3\n        /* \"#utility.yul\":1412:1413   */\n      dup3\n        /* \"#utility.yul\":1409:1417   */\n      lt\n        /* \"#utility.yul\":1406:1408   */\n      iszero\n      tag_56\n      jumpi\n        /* \"#utility.yul\":1420:1438   */\n      tag_57\n      tag_58\n      jump\t// in\n    tag_57:\n        /* \"#utility.yul\":1406:1408   */\n    tag_56:\n        /* \"#utility.yul\":1465:1466   */\n      dup3\n        /* \"#utility.yul\":1462:1463   */\n      dup3\n        /* \"#utility.yul\":1458:1467   */\n      sub\n        /* \"#utility.yul\":1450:1467   */\n      swap1\n      pop\n        /* \"#utility.yul\":1327:1473   */\n      swap3\n      swap2\n      pop\n      pop\n      jump\t// out\n        /* \"#utility.yul\":1479:1569   */\n    tag_38:\n      0x00\n        /* \"#utility.yul\":1556:1561   */\n      dup2\n        /* \"#utility.yul\":1549:1562   */\n      iszero\n        /* \"#utility.yul\":1542:1563   */\n      iszero\n        /* \"#utility.yul\":1531:1563   */\n      swap1\n      pop\n        /* \"#utility.yul\":1521:1569   */\n      swap2\n      swap1\n      pop\n      jump\t// out\n        /* \"#utility.yul\":1575:1652   */\n    tag_42:\n      0x00\n        /* \"#utility.yul\":1641:1646   */\n      dup2\n        /* \"#utility.yul\":1630:1646   */\n      swap1\n      pop\n        /* \"#utility.yul\":1620:1652   */\n      swap2\n      swap1\n      pop\n      jump\t// out\n        /* \"#utility.yul\":1658:1891   */\n    tag_25:\n      0x00\n        /* \"#utility.yul\":1720:1744   */\n      tag_62\n        /* \"#utility.yul\":1738:1743   */\n      dup3\n        /* \"#utility.yul\":1720:1744   */\n      tag_42\n      jump\t// in\n    tag_62:\n        /* \"#utility.yul\":1711:1744   */\n      swap2\n      pop\n        /* \"#utility.yul\":1766:1832   */\n      0xffffffffffffffffffffffffffffffffffffffffffffffffffffffffffffffff\n        /* \"#utility.yul\":1759:1764   */\n      dup3\n        /* \"#utility.yul\":1756:1833   */\n      eq\n        /* \"#utility.yul\":1753:1755   */\n      iszero\n      tag_63\n      jumpi\n        /* \"#utility.yul\":1836:1854   */\n      tag_64\n      tag_58\n      jump\t// in\n    tag_64:\n        /* \"#utility.yul\":1753:1755   */\n    tag_63:\n        /* \"#utility.yul\":1883:1884   */\n      0x01\n        /* \"#utility.yul\":1876:1881   */\n      dup3\n        /* \"#utility.yul\":1872:1885   */\n      add\n        /* \"#utility.yul\":1865:1885   */\n      swap1\n      pop\n        /* \"#utility.yul\":1701:1891   */\n      swap2\n      swap1\n      pop\n      jump\t// out\n        /* \"#utility.yul\":1897:2077   */\n    tag_58:\n        /* \"#utility.yul\":1945:2022   */\n      0x4e487b7100000000000000000000000000000000000000000000000000000000\n        /* \"#utility.yul\":1942:1943   */\n      0x00\n        /* \"#utility.yul\":1935:2023   */\n      mstore\n        /* \"#utility.yul\":2042:2046   */\n      0x11\n        /* \"#utility.yul\":2039:2040   */\n      0x04\n        /* \"#utility.yul\":2032:2047   */\n      mstore\n        /* \"#utility.yul\":2066:2070   */\n      0x24\n        /* \"#utility.yul\":2063:2064   */\n      0x00\n        /* \"#utility.yul\":2056:2071   */\n      revert\n        /* \"#utility.yul\":2083:2263   */\n    tag_52:\n        /* \"#utility.yul\":2131:2208   */\n      0x4e487b7100000000000000000000000000000000000000000000000000000000\n        /* \"#utility.yul\":2128:2129   */\n      0x00\n        /* \"#utility.yul\":2121:2209   */\n      mstore\n        /* \"#utility.yul\":2228:2232   */\n      0x12\n        /* \"#utility.yul\":2225:2226   */\n      0x04\n        /* \"#utility.yul\":2218:2233   */\n      mstore\n        /* \"#utility.yul\":2252:2256   */\n      0x24\n        /* \"#utility.yul\":2249:2250   */\n      0x00\n        /* \"#utility.yul\":2242:2257   */\n      revert\n        /* \"#utility.yul\":2269:2385   */\n    tag_31:\n        /* \"#utility.yul\":2339:2360   */\n      tag_68\n        /* \"#utility.yul\":2354:2359   */\n      dup2\n        /* \"#utility.yul\":2339:2360   */\n      tag_38\n      jump\t// in\n    tag_68:\n        /* \"#utility.yul\":2332:2337   */\n      dup2\n        /* \"#utility.yul\":2329:2361   */\n      eq\n        /* \"#utility.yul\":2319:2321   */\n      tag_69\n      jumpi\n        /* \"#utility.yul\":2375:2376   */\n      0x00\n        /* \"#utility.yul\":2372:2373   */\n      dup1\n        /* \"#utility.yul\":2365:2377   */\n      revert\n        /* \"#utility.yul\":2319:2321   */\n    tag_69:\n        /* \"#utility.yul\":2309:2385   */\n      pop\n      jump\t// out\n\n    auxdata: 0xa2646970667358221220cd47a36ff3cceb803beb3c622f72bb86b5672a60402b0f3188823b1543ecef9b64736f6c63430008000033\n}\n",
				"bytecode": {
					"linkReferences": {},
					"object": "60806040527f800000000000000000000000000000000000000000000000000000000000000060025534801561003457600080fd5b50600080819055506103278061004b6000396000f3fe608060405234801561001057600080fd5b50600436106100365760003560e01c80631d263f671461003b578063e6f334d71461006b575b600080fd5b6100556004803603810190610050919061013b565b610089565b6040516100629190610182565b60405180910390f35b610073610120565b604051610080919061019d565b60405180910390f35b60008060014361009991906101e9565b4060001c90508060015414156100ae57600080fd5b806001819055506000600254826100c591906101b8565b90506000600182146100d85760006100db565b60015b9050841515811515141561010c576000808154809291906100fb90610233565b91905055506001935050505061011b565b60008081905550600093505050505b919050565b60005481565b600081359050610135816102da565b92915050565b60006020828403121561014d57600080fd5b600061015b84828501610126565b91505092915050565b61016d8161021d565b82525050565b61017c81610229565b82525050565b60006020820190506101976000830184610164565b92915050565b60006020820190506101b26000830184610173565b92915050565b60006101c382610229565b91506101ce83610229565b9250826101de576101dd6102ab565b5b828204905092915050565b60006101f482610229565b91506101ff83610229565b9250828210156102125761021161027c565b5b828203905092915050565b60008115159050919050565b6000819050919050565b600061023e82610229565b91507fffffffffffffffffffffffffffffffffffffffffffffffffffffffffffffffff8214156102715761027061027c565b5b600182019050919050565b7f4e487b7100000000000000000000000000000000000000000000000000000000600052601160045260246000fd5b7f4e487b7100000000000000000000000000000000000000000000000000000000600052601260045260246000fd5b6102e38161021d565b81146102ee57600080fd5b5056fea2646970667358221220cd47a36ff3cceb803beb3c622f72bb86b5672a60402b0f3188823b1543ecef9b64736f6c63430008000033",
					"opcodes": "PUSH1 0x80 PUSH1 0x40 MSTORE PUSH32 0x8000000000000000000000000000000000000000000000000000000000000000 PUSH1 0x2 SSTORE CALLVALUE DUP1 ISZERO PUSH2 0x34 JUMPI PUSH1 0x0 DUP1 REVERT JUMPDEST POP PUSH1 0x0 DUP1 DUP2 SWAP1 SSTORE POP PUSH2 0x327 DUP1 PUSH2 0x4B PUSH1 0x0 CODECOPY PUSH1 0x0 RETURN INVALID PUSH1 0x80 PUSH1 0x40 MSTORE CALLVALUE DUP1 ISZERO PUSH2 0x10 JUMPI PUSH1 0x0 DUP1 REVERT JUMPDEST POP PUSH1 0x4 CALLDATASIZE LT PUSH2 0x36 JUMPI PUSH1 0x0 CALLDATALOAD PUSH1 0xE0 SHR DUP1 PUSH4 0x1D263F67 EQ PUSH2 0x3B JUMPI DUP1 PUSH4 0xE6F334D7 EQ PUSH2 0x6B JUMPI JUMPDEST PUSH1 0x0 DUP1 REVERT JUMPDEST PUSH2 0x55 PUSH1 0x4 DUP1 CALLDATASIZE SUB DUP2 ADD SWAP1 PUSH2 0x50 SWAP2 SWAP1 PUSH2 0x13B JUMP JUMPDEST PUSH2 0x89 JUMP JUMPDEST PUSH1 0x40 MLOAD PUSH2 0x62 SWAP2 SWAP1 PUSH2 0x182 JUMP JUMPDEST PUSH1 0x40 MLOAD DUP1 SWAP2 SUB SWAP1 RETURN JUMPDEST PUSH2 0x73 PUSH2 0x120 JUMP JUMPDEST PUSH1 0x40 MLOAD PUSH2 0x80 SWAP2 SWAP1 PUSH2 0x19D JUMP JUMPDEST PUSH1 0x40 MLOAD DUP1 SWAP2 SUB SWAP1 RETURN JUMPDEST PUSH1 0x0 DUP1 PUSH1 0x1 NUMBER PUSH2 0x99 SWAP2 SWAP1 PUSH2 0x1E9 JUMP JUMPDEST BLOCKHASH PUSH1 0x0 SHR SWAP1 POP DUP1 PUSH1 0x1 SLOAD EQ ISZERO PUSH2 0xAE JUMPI PUSH1 0x0 DUP1 REVERT JUMPDEST DUP1 PUSH1 0x1 DUP2 SWAP1 SSTORE POP PUSH1 0x0 PUSH1 0x2 SLOAD DUP3 PUSH2 0xC5 SWAP2 SWAP1 PUSH2 0x1B8 JUMP JUMPDEST SWAP1 POP PUSH1 0x0 PUSH1 0x1 DUP3 EQ PUSH2 0xD8 JUMPI PUSH1 0x0 PUSH2 0xDB JUMP JUMPDEST PUSH1 0x1 JUMPDEST SWAP1 POP DUP5 ISZERO ISZERO DUP2 ISZERO ISZERO EQ ISZERO PUSH2 0x10C JUMPI PUSH1 0x0 DUP1 DUP2 SLOAD DUP1 SWAP3 SWAP2 SWAP1 PUSH2 0xFB SWAP1 PUSH2 0x233 JUMP JUMPDEST SWAP2 SWAP1 POP SSTORE POP PUSH1 0x1 SWAP4 POP POP POP POP PUSH2 0x11B JUMP JUMPDEST PUSH1 0x0 DUP1 DUP2 SWAP1 SSTORE POP PUSH1 0x0 SWAP4 POP POP POP POP JUMPDEST SWAP2 SWAP1 POP JUMP JUMPDEST PUSH1 0x0 SLOAD DUP2 JUMP JUMPDEST PUSH1 0x0 DUP2 CALLDATALOAD SWAP1 POP PUSH2 0x135 DUP2 PUSH2 0x2DA JUMP JUMPDEST SWAP3 SWAP2 POP POP JUMP JUMPDEST PUSH1 0x0 PUSH1 0x20 DUP3 DUP5 SUB SLT ISZERO PUSH2 0x14D JUMPI PUSH1 0x0 DUP1 REVERT JUMPDEST PUSH1 0x0 PUSH2 0x15B DUP5 DUP3 DUP6 ADD PUSH2 0x126 JUMP JUMPDEST SWAP2 POP POP SWAP3 SWAP2 POP POP JUMP JUMPDEST PUSH2 0x16D DUP2 PUSH2 0x21D JUMP JUMPDEST DUP3 MSTORE POP POP JUMP JUMPDEST PUSH2 0x17C DUP2 PUSH2 0x229 JUMP JUMPDEST DUP3 MSTORE POP POP JUMP JUMPDEST PUSH1 0x0 PUSH1 0x20 DUP3 ADD SWAP1 POP PUSH2 0x197 PUSH1 0x0 DUP4 ADD DUP5 PUSH2 0x164 JUMP JUMPDEST SWAP3 SWAP2 POP POP JUMP JUMPDEST PUSH1 0x0 PUSH1 0x20 DUP3 ADD SWAP1 POP PUSH2 0x1B2 PUSH1 0x0 DUP4 ADD DUP5 PUSH2 0x173 JUMP JUMPDEST SWAP3 SWAP2 POP POP JUMP JUMPDEST PUSH1 0x0 PUSH2 0x1C3 DUP3 PUSH2 0x229 JUMP JUMPDEST SWAP2 POP PUSH2 0x1CE DUP4 PUSH2 0x229 JUMP JUMPDEST SWAP3 POP DUP3 PUSH2 0x1DE JUMPI PUSH2 0x1DD PUSH2 0x2AB JUMP JUMPDEST JUMPDEST DUP3 DUP3 DIV SWAP1 POP SWAP3 SWAP2 POP POP JUMP JUMPDEST PUSH1 0x0 PUSH2 0x1F4 DUP3 PUSH2 0x229 JUMP JUMPDEST SWAP2 POP PUSH2 0x1FF DUP4 PUSH2 0x229 JUMP JUMPDEST SWAP3 POP DUP3 DUP3 LT ISZERO PUSH2 0x212 JUMPI PUSH2 0x211 PUSH2 0x27C JUMP JUMPDEST JUMPDEST DUP3 DUP3 SUB SWAP1 POP SWAP3 SWAP2 POP POP JUMP JUMPDEST PUSH1 0x0 DUP2 ISZERO ISZERO SWAP1 POP SWAP2 SWAP1 POP JUMP JUMPDEST PUSH1 0x0 DUP2 SWAP1 POP SWAP2 SWAP1 POP JUMP JUMPDEST PUSH1 0x0 PUSH2 0x23E DUP3 PUSH2 0x229 JUMP JUMPDEST SWAP2 POP PUSH32 0xFFFFFFFFFFFFFFFFFFFFFFFFFFFFFFFFFFFFFFFFFFFFFFFFFFFFFFFFFFFFFFFF DUP3 EQ ISZERO PUSH2 0x271 JUMPI PUSH2 0x270 PUSH2 0x27C JUMP JUMPDEST JUMPDEST PUSH1 0x1 DUP3 ADD SWAP1 POP SWAP2 SWAP1 POP JUMP JUMPDEST PUSH32 0x4E487B7100000000000000000000000000000000000000000000000000000000 PUSH1 0x0 MSTORE PUSH1 0x11 PUSH1 0x4 MSTORE PUSH1 0x24 PUSH1 0x0 REVERT JUMPDEST PUSH32 0x4E487B7100000000000000000000000000000000000000000000000000000000 PUSH1 0x0 MSTORE PUSH1 0x12 PUSH1 0x4 MSTORE PUSH1 0x24 PUSH1 0x0 REVERT JUMPDEST PUSH2 0x2E3 DUP2 PUSH2 0x21D JUMP JUMPDEST DUP2 EQ PUSH2 0x2EE JUMPI PUSH1 0x0 DUP1 REVERT JUMPDEST POP JUMP INVALID LOG2 PUSH5 0x6970667358 0x22 SLT KECCAK256 0xCD SELFBALANCE LOG3 PUSH16 0xF3CCEB803BEB3C622F72BB86B5672A60 BLOCKHASH 0x2B 0xF BALANCE DUP9 DUP3 EXTCODESIZE ISZERO NUMBER 0xEC 0xEF SWAP12 PUSH5 0x736F6C6343 STOP ADDMOD STOP STOP CALLER "
				},
				"gasEstimates": {
					"creation": {
						"codeDepositCost": "161400",
						"executionCost": "25228",
						"totalCost": "186628"
					},
					"external": {
						"consecutiveWins()": "1129",
						"flip(bool)": "infinite"
					}
				},
				"methodIdentifiers": {
					"consecutiveWins()": "e6f334d7",
					"flip(bool)": "1d263f67"
				}
			},
			"storageLayout": {
				"storage": [
					{
						"astId": 74,
						"contract": "contracts/CoilFlip.sol:CoinFlip",
						"label": "consecutiveWins",
						"offset": 0,
						"slot": "0",
						"type": "t_uint256"
					},
					{
						"astId": 76,
						"contract": "contracts/CoilFlip.sol:CoinFlip",
						"label": "lastHash",
						"offset": 0,
						"slot": "1",
						"type": "t_uint256"
					},
					{
						"astId": 79,
						"contract": "contracts/CoilFlip.sol:CoinFlip",
						"label": "FACTOR",
						"offset": 0,
						"slot": "2",
						"type": "t_uint256"
					}
				],
				"types": {
					"t_uint256": {
						"encoding": "inplace",
						"label": "uint256",
						"numberOfBytes": "32"
					}
				}
			},
			"userdoc": {
				"kind": "user",
				"methods": {},
				"version": 1
			}
		}
	}
}