{
	"contracts/16_preservation.sol": {
		"Preservation": {
			"abi": [
				{
					"inputs": [
						{
							"internalType": "address",
							"name": "_timeZone1LibraryAddress",
							"type": "address"
						},
						{
							"internalType": "address",
							"name": "_timeZone2LibraryAddress",
							"type": "address"
						}
					],
					"stateMutability": "nonpayable",
					"type": "constructor"
				},
				{
					"inputs": [],
					"name": "owner",
					"outputs": [
						{
							"internalType": "address",
							"name": "",
							"type": "address"
						}
					],
					"stateMutability": "view",
					"type": "function"
				},
				{
					"inputs": [
						{
							"internalType": "uint256",
							"name": "_timeStamp",
							"type": "uint256"
						}
					],
					"name": "setFirstTime",
					"outputs": [],
					"stateMutability": "nonpayable",
					"type": "function"
				},
				{
					"inputs": [
						{
							"internalType": "uint256",
							"name": "_timeStamp",
							"type": "uint256"
						}
					],
					"name": "setSecondTime",
					"outputs": [],
					"stateMutability": "nonpayable",
					"type": "function"
				},
				{
					"inputs": [],
					"name": "timeZone1Library",
					"outputs": [
						{
							"internalType": "address",
							"name": "",
							"type": "address"
						}
					],
					"stateMutability": "view",
					"type": "function"
				},
				{
					"inputs": [],
					"name": "timeZone2Library",
					"outputs": [
						{
							"internalType": "address",
							"name": "",
							"type": "address"
						}
					],
					"stateMutability": "view",
					"type": "function"
				}
			],
			"devdoc": {
				"kind": "dev",
				"methods": {},
				"version": 1
			},
			"evm": {
				"assembly": "    /* \"contracts/16_preservation.sol\":57:911  contract Preservation {... */\n  mstore(0x40, 0x80)\n    /* \"contracts/16_preservation.sol\":356:565  constructor(address _timeZone1LibraryAddress, address _timeZone2LibraryAddress) {... */\n  callvalue\n  dup1\n  iszero\n  tag_1\n  jumpi\n  0x00\n  dup1\n  revert\ntag_1:\n  pop\n  mload(0x40)\n  sub(codesize, bytecodeSize)\n  dup1\n  bytecodeSize\n  dup4\n  codecopy\n  dup2\n  dup2\n  add\n  0x40\n  mstore\n  dup2\n  add\n  swap1\n  tag_2\n  swap2\n  swap1\n  tag_3\n  jump\t// in\ntag_2:\n    /* \"contracts/16_preservation.sol\":461:485  _timeZone1LibraryAddress */\n  dup2\n    /* \"contracts/16_preservation.sol\":442:458  timeZone1Library */\n  0x00\n  dup1\n    /* \"contracts/16_preservation.sol\":442:485  timeZone1Library = _timeZone1LibraryAddress */\n  0x0100\n  exp\n  dup2\n  sload\n  dup2\n  0xffffffffffffffffffffffffffffffffffffffff\n  mul\n  not\n  and\n  swap1\n  dup4\n  0xffffffffffffffffffffffffffffffffffffffff\n  and\n  mul\n  or\n  swap1\n  sstore\n  pop\n    /* \"contracts/16_preservation.sol\":511:535  _timeZone2LibraryAddress */\n  dup1\n    /* \"contracts/16_preservation.sol\":492:508  timeZone2Library */\n  0x01\n  0x00\n    /* \"contracts/16_preservation.sol\":492:535  timeZone2Library = _timeZone2LibraryAddress */\n  0x0100\n  exp\n  dup2\n  sload\n  dup2\n  0xffffffffffffffffffffffffffffffffffffffff\n  mul\n  not\n  and\n  swap1\n  dup4\n  0xffffffffffffffffffffffffffffffffffffffff\n  and\n  mul\n  or\n  swap1\n  sstore\n  pop\n    /* \"contracts/16_preservation.sol\":550:560  msg.sender */\n  caller\n    /* \"contracts/16_preservation.sol\":542:547  owner */\n  0x02\n  0x00\n    /* \"contracts/16_preservation.sol\":542:560  owner = msg.sender */\n  0x0100\n  exp\n  dup2\n  sload\n  dup2\n  0xffffffffffffffffffffffffffffffffffffffff\n  mul\n  not\n  and\n  swap1\n  dup4\n  0xffffffffffffffffffffffffffffffffffffffff\n  and\n  mul\n  or\n  swap1\n  sstore\n  pop\n    /* \"contracts/16_preservation.sol\":356:565  constructor(address _timeZone1LibraryAddress, address _timeZone2LibraryAddress) {... */\n  pop\n  pop\n    /* \"contracts/16_preservation.sol\":57:911  contract Preservation {... */\n  jump(tag_6)\n    /* \"#utility.yul\":7:150   */\ntag_8:\n    /* \"#utility.yul\":64:69   */\n  0x00\n    /* \"#utility.yul\":95:101   */\n  dup2\n    /* \"#utility.yul\":89:102   */\n  mload\n    /* \"#utility.yul\":80:102   */\n  swap1\n  pop\n    /* \"#utility.yul\":111:144   */\n  tag_10\n    /* \"#utility.yul\":138:143   */\n  dup2\n    /* \"#utility.yul\":111:144   */\n  tag_11\n  jump\t// in\ntag_10:\n    /* \"#utility.yul\":7:150   */\n  swap3\n  swap2\n  pop\n  pop\n  jump\t// out\n    /* \"#utility.yul\":156:663   */\ntag_3:\n    /* \"#utility.yul\":235:241   */\n  0x00\n    /* \"#utility.yul\":243:249   */\n  dup1\n    /* \"#utility.yul\":292:294   */\n  0x40\n    /* \"#utility.yul\":280:289   */\n  dup4\n    /* \"#utility.yul\":271:278   */\n  dup6\n    /* \"#utility.yul\":267:290   */\n  sub\n    /* \"#utility.yul\":263:295   */\n  slt\n    /* \"#utility.yul\":260:379   */\n  iszero\n  tag_13\n  jumpi\n    /* \"#utility.yul\":298:377   */\n  tag_14\n  tag_15\n  jump\t// in\ntag_14:\n    /* \"#utility.yul\":260:379   */\ntag_13:\n    /* \"#utility.yul\":418:419   */\n  0x00\n    /* \"#utility.yul\":443:507   */\n  tag_16\n    /* \"#utility.yul\":499:506   */\n  dup6\n    /* \"#utility.yul\":490:496   */\n  dup3\n    /* \"#utility.yul\":479:488   */\n  dup7\n    /* \"#utility.yul\":475:497   */\n  add\n    /* \"#utility.yul\":443:507   */\n  tag_8\n  jump\t// in\ntag_16:\n    /* \"#utility.yul\":433:507   */\n  swap3\n  pop\n    /* \"#utility.yul\":389:517   */\n  pop\n    /* \"#utility.yul\":556:558   */\n  0x20\n    /* \"#utility.yul\":582:646   */\n  tag_17\n    /* \"#utility.yul\":638:645   */\n  dup6\n    /* \"#utility.yul\":629:635   */\n  dup3\n    /* \"#utility.yul\":618:627   */\n  dup7\n    /* \"#utility.yul\":614:636   */\n  add\n    /* \"#utility.yul\":582:646   */\n  tag_8\n  jump\t// in\ntag_17:\n    /* \"#utility.yul\":572:646   */\n  swap2\n  pop\n    /* \"#utility.yul\":527:656   */\n  pop\n    /* \"#utility.yul\":156:663   */\n  swap3\n  pop\n  swap3\n  swap1\n  pop\n  jump\t// out\n    /* \"#utility.yul\":750:846   */\ntag_20:\n    /* \"#utility.yul\":787:794   */\n  0x00\n    /* \"#utility.yul\":816:840   */\n  tag_22\n    /* \"#utility.yul\":834:839   */\n  dup3\n    /* \"#utility.yul\":816:840   */\n  tag_23\n  jump\t// in\ntag_22:\n    /* \"#utility.yul\":805:840   */\n  swap1\n  pop\n    /* \"#utility.yul\":750:846   */\n  swap2\n  swap1\n  pop\n  jump\t// out\n    /* \"#utility.yul\":852:978   */\ntag_23:\n    /* \"#utility.yul\":889:896   */\n  0x00\n    /* \"#utility.yul\":929:971   */\n  0xffffffffffffffffffffffffffffffffffffffff\n    /* \"#utility.yul\":922:927   */\n  dup3\n    /* \"#utility.yul\":918:972   */\n  and\n    /* \"#utility.yul\":907:972   */\n  swap1\n  pop\n    /* \"#utility.yul\":852:978   */\n  swap2\n  swap1\n  pop\n  jump\t// out\n    /* \"#utility.yul\":1107:1224   */\ntag_15:\n    /* \"#utility.yul\":1216:1217   */\n  0x00\n    /* \"#utility.yul\":1213:1214   */\n  dup1\n    /* \"#utility.yul\":1206:1218   */\n  revert\n    /* \"#utility.yul\":1230:1352   */\ntag_11:\n    /* \"#utility.yul\":1303:1327   */\n  tag_29\n    /* \"#utility.yul\":1321:1326   */\n  dup2\n    /* \"#utility.yul\":1303:1327   */\n  tag_20\n  jump\t// in\ntag_29:\n    /* \"#utility.yul\":1296:1301   */\n  dup2\n    /* \"#utility.yul\":1293:1328   */\n  eq\n    /* \"#utility.yul\":1283:1346   */\n  tag_30\n  jumpi\n    /* \"#utility.yul\":1342:1343   */\n  0x00\n    /* \"#utility.yul\":1339:1340   */\n  dup1\n    /* \"#utility.yul\":1332:1344   */\n  revert\n    /* \"#utility.yul\":1283:1346   */\ntag_30:\n    /* \"#utility.yul\":1230:1352   */\n  pop\n  jump\t// out\n    /* \"contracts/16_preservation.sol\":57:911  contract Preservation {... */\ntag_6:\n  dataSize(sub_0)\n  dup1\n  dataOffset(sub_0)\n  0x00\n  codecopy\n  0x00\n  return\nstop\n\nsub_0: assembly {\n        /* \"contracts/16_preservation.sol\":57:911  contract Preservation {... */\n      mstore(0x40, 0x80)\n      callvalue\n      dup1\n      iszero\n      tag_1\n      jumpi\n      0x00\n      dup1\n      revert\n    tag_1:\n      pop\n      jumpi(tag_2, lt(calldatasize, 0x04))\n      shr(0xe0, calldataload(0x00))\n      dup1\n      0x27d6974f\n      eq\n      tag_3\n      jumpi\n      dup1\n      0x3dc79422\n      eq\n      tag_4\n      jumpi\n      dup1\n      0x5bda8fa4\n      eq\n      tag_5\n      jumpi\n      dup1\n      0x8da5cb5b\n      eq\n      tag_6\n      jumpi\n      dup1\n      0xf1e02620\n      eq\n      tag_7\n      jumpi\n    tag_2:\n      0x00\n      dup1\n      revert\n        /* \"contracts/16_preservation.sol\":150:181  address public timeZone2Library */\n    tag_3:\n      tag_8\n      tag_9\n      jump\t// in\n    tag_8:\n      mload(0x40)\n      tag_10\n      swap2\n      swap1\n      tag_11\n      jump\t// in\n    tag_10:\n      mload(0x40)\n      dup1\n      swap2\n      sub\n      swap1\n      return\n        /* \"contracts/16_preservation.sol\":115:146  address public timeZone1Library */\n    tag_4:\n      tag_12\n      tag_13\n      jump\t// in\n    tag_12:\n      mload(0x40)\n      tag_14\n      swap2\n      swap1\n      tag_11\n      jump\t// in\n    tag_14:\n      mload(0x40)\n      dup1\n      swap2\n      sub\n      swap1\n      return\n        /* \"contracts/16_preservation.sol\":774:909  function setSecondTime(uint _timeStamp) public {... */\n    tag_5:\n      tag_15\n      0x04\n      dup1\n      calldatasize\n      sub\n      dup2\n      add\n      swap1\n      tag_16\n      swap2\n      swap1\n      tag_17\n      jump\t// in\n    tag_16:\n      tag_18\n      jump\t// in\n    tag_15:\n      stop\n        /* \"contracts/16_preservation.sol\":185:205  address public owner */\n    tag_6:\n      tag_19\n      tag_20\n      jump\t// in\n    tag_19:\n      mload(0x40)\n      tag_21\n      swap2\n      swap1\n      tag_11\n      jump\t// in\n    tag_21:\n      mload(0x40)\n      dup1\n      swap2\n      sub\n      swap1\n      return\n        /* \"contracts/16_preservation.sol\":603:737  function setFirstTime(uint _timeStamp) public {... */\n    tag_7:\n      tag_22\n      0x04\n      dup1\n      calldatasize\n      sub\n      dup2\n      add\n      swap1\n      tag_23\n      swap2\n      swap1\n      tag_17\n      jump\t// in\n    tag_23:\n      tag_24\n      jump\t// in\n    tag_22:\n      stop\n        /* \"contracts/16_preservation.sol\":150:181  address public timeZone2Library */\n    tag_9:\n      0x01\n      0x00\n      swap1\n      sload\n      swap1\n      0x0100\n      exp\n      swap1\n      div\n      0xffffffffffffffffffffffffffffffffffffffff\n      and\n      dup2\n      jump\t// out\n        /* \"contracts/16_preservation.sol\":115:146  address public timeZone1Library */\n    tag_13:\n      0x00\n      dup1\n      sload\n      swap1\n      0x0100\n      exp\n      swap1\n      div\n      0xffffffffffffffffffffffffffffffffffffffff\n      and\n      dup2\n      jump\t// out\n        /* \"contracts/16_preservation.sol\":774:909  function setSecondTime(uint _timeStamp) public {... */\n    tag_18:\n        /* \"contracts/16_preservation.sol\":827:843  timeZone2Library */\n      0x01\n      0x00\n      swap1\n      sload\n      swap1\n      0x0100\n      exp\n      swap1\n      div\n      0xffffffffffffffffffffffffffffffffffffffff\n      and\n        /* \"contracts/16_preservation.sol\":827:856  timeZone2Library.delegatecall */\n      0xffffffffffffffffffffffffffffffffffffffff\n      and\n        /* \"contracts/16_preservation.sol\":321:350  keccak256(\"setTime(uint256)\") */\n      0x3beb26c427d03ceadbdaedc2f7aac4d9fc345b4fcbfc4b80654fee46dd7c349a\n        /* \"contracts/16_preservation.sol\":892:902  _timeStamp */\n      dup3\n        /* \"contracts/16_preservation.sol\":857:903  abi.encodePacked(setTimeSignature, _timeStamp) */\n      add(0x20, mload(0x40))\n      tag_26\n      swap3\n      swap2\n      swap1\n      tag_27\n      jump\t// in\n    tag_26:\n      mload(0x40)\n      0x20\n      dup2\n      dup4\n      sub\n      sub\n      dup2\n      mstore\n      swap1\n      0x40\n      mstore\n        /* \"contracts/16_preservation.sol\":827:904  timeZone2Library.delegatecall(abi.encodePacked(setTimeSignature, _timeStamp)) */\n      mload(0x40)\n      tag_28\n      swap2\n      swap1\n      tag_29\n      jump\t// in\n    tag_28:\n      0x00\n      mload(0x40)\n      dup1\n      dup4\n      sub\n      dup2\n      dup6\n      gas\n      delegatecall\n      swap2\n      pop\n      pop\n      returndatasize\n      dup1\n      0x00\n      dup2\n      eq\n      tag_32\n      jumpi\n      mload(0x40)\n      swap2\n      pop\n      and(add(returndatasize, 0x3f), not(0x1f))\n      dup3\n      add\n      0x40\n      mstore\n      returndatasize\n      dup3\n      mstore\n      returndatasize\n      0x00\n      0x20\n      dup5\n      add\n      returndatacopy\n      jump(tag_31)\n    tag_32:\n      0x60\n      swap2\n      pop\n    tag_31:\n      pop\n      pop\n      pop\n        /* \"contracts/16_preservation.sol\":774:909  function setSecondTime(uint _timeStamp) public {... */\n      pop\n      jump\t// out\n        /* \"contracts/16_preservation.sol\":185:205  address public owner */\n    tag_20:\n      0x02\n      0x00\n      swap1\n      sload\n      swap1\n      0x0100\n      exp\n      swap1\n      div\n      0xffffffffffffffffffffffffffffffffffffffff\n      and\n      dup2\n      jump\t// out\n        /* \"contracts/16_preservation.sol\":603:737  function setFirstTime(uint _timeStamp) public {... */\n    tag_24:\n        /* \"contracts/16_preservation.sol\":655:671  timeZone1Library */\n      0x00\n      dup1\n      sload\n      swap1\n      0x0100\n      exp\n      swap1\n      div\n      0xffffffffffffffffffffffffffffffffffffffff\n      and\n        /* \"contracts/16_preservation.sol\":655:684  timeZone1Library.delegatecall */\n      0xffffffffffffffffffffffffffffffffffffffff\n      and\n        /* \"contracts/16_preservation.sol\":321:350  keccak256(\"setTime(uint256)\") */\n      0x3beb26c427d03ceadbdaedc2f7aac4d9fc345b4fcbfc4b80654fee46dd7c349a\n        /* \"contracts/16_preservation.sol\":720:730  _timeStamp */\n      dup3\n        /* \"contracts/16_preservation.sol\":685:731  abi.encodePacked(setTimeSignature, _timeStamp) */\n      add(0x20, mload(0x40))\n      tag_34\n      swap3\n      swap2\n      swap1\n      tag_27\n      jump\t// in\n    tag_34:\n      mload(0x40)\n      0x20\n      dup2\n      dup4\n      sub\n      sub\n      dup2\n      mstore\n      swap1\n      0x40\n      mstore\n        /* \"contracts/16_preservation.sol\":655:732  timeZone1Library.delegatecall(abi.encodePacked(setTimeSignature, _timeStamp)) */\n      mload(0x40)\n      tag_35\n      swap2\n      swap1\n      tag_29\n      jump\t// in\n    tag_35:\n      0x00\n      mload(0x40)\n      dup1\n      dup4\n      sub\n      dup2\n      dup6\n      gas\n      delegatecall\n      swap2\n      pop\n      pop\n      returndatasize\n      dup1\n      0x00\n      dup2\n      eq\n      tag_38\n      jumpi\n      mload(0x40)\n      swap2\n      pop\n      and(add(returndatasize, 0x3f), not(0x1f))\n      dup3\n      add\n      0x40\n      mstore\n      returndatasize\n      dup3\n      mstore\n      returndatasize\n      0x00\n      0x20\n      dup5\n      add\n      returndatacopy\n      jump(tag_37)\n    tag_38:\n      0x60\n      swap2\n      pop\n    tag_37:\n      pop\n      pop\n      pop\n        /* \"contracts/16_preservation.sol\":603:737  function setFirstTime(uint _timeStamp) public {... */\n      pop\n      jump\t// out\n        /* \"#utility.yul\":7:146   */\n    tag_40:\n        /* \"#utility.yul\":53:58   */\n      0x00\n        /* \"#utility.yul\":91:97   */\n      dup2\n        /* \"#utility.yul\":78:98   */\n      calldataload\n        /* \"#utility.yul\":69:98   */\n      swap1\n      pop\n        /* \"#utility.yul\":107:140   */\n      tag_42\n        /* \"#utility.yul\":134:139   */\n      dup2\n        /* \"#utility.yul\":107:140   */\n      tag_43\n      jump\t// in\n    tag_42:\n        /* \"#utility.yul\":7:146   */\n      swap3\n      swap2\n      pop\n      pop\n      jump\t// out\n        /* \"#utility.yul\":152:481   */\n    tag_17:\n        /* \"#utility.yul\":211:217   */\n      0x00\n        /* \"#utility.yul\":260:262   */\n      0x20\n        /* \"#utility.yul\":248:257   */\n      dup3\n        /* \"#utility.yul\":239:246   */\n      dup5\n        /* \"#utility.yul\":235:258   */\n      sub\n        /* \"#utility.yul\":231:263   */\n      slt\n        /* \"#utility.yul\":228:347   */\n      iszero\n      tag_45\n      jumpi\n        /* \"#utility.yul\":266:345   */\n      tag_46\n      tag_47\n      jump\t// in\n    tag_46:\n        /* \"#utility.yul\":228:347   */\n    tag_45:\n        /* \"#utility.yul\":386:387   */\n      0x00\n        /* \"#utility.yul\":411:464   */\n      tag_48\n        /* \"#utility.yul\":456:463   */\n      dup5\n        /* \"#utility.yul\":447:453   */\n      dup3\n        /* \"#utility.yul\":436:445   */\n      dup6\n        /* \"#utility.yul\":432:454   */\n      add\n        /* \"#utility.yul\":411:464   */\n      tag_40\n      jump\t// in\n    tag_48:\n        /* \"#utility.yul\":401:464   */\n      swap2\n      pop\n        /* \"#utility.yul\":357:474   */\n      pop\n        /* \"#utility.yul\":152:481   */\n      swap3\n      swap2\n      pop\n      pop\n      jump\t// out\n        /* \"#utility.yul\":487:605   */\n    tag_49:\n        /* \"#utility.yul\":574:598   */\n      tag_51\n        /* \"#utility.yul\":592:597   */\n      dup2\n        /* \"#utility.yul\":574:598   */\n      tag_52\n      jump\t// in\n    tag_51:\n        /* \"#utility.yul\":569:572   */\n      dup3\n        /* \"#utility.yul\":562:599   */\n      mstore\n        /* \"#utility.yul\":487:605   */\n      pop\n      pop\n      jump\t// out\n        /* \"#utility.yul\":611:764   */\n    tag_53:\n        /* \"#utility.yul\":714:757   */\n      tag_55\n        /* \"#utility.yul\":733:756   */\n      tag_56\n        /* \"#utility.yul\":750:755   */\n      dup3\n        /* \"#utility.yul\":733:756   */\n      tag_57\n      jump\t// in\n    tag_56:\n        /* \"#utility.yul\":714:757   */\n      tag_58\n      jump\t// in\n    tag_55:\n        /* \"#utility.yul\":709:712   */\n      dup3\n        /* \"#utility.yul\":702:758   */\n      mstore\n        /* \"#utility.yul\":611:764   */\n      pop\n      pop\n      jump\t// out\n        /* \"#utility.yul\":770:1143   */\n    tag_59:\n        /* \"#utility.yul\":874:877   */\n      0x00\n        /* \"#utility.yul\":902:940   */\n      tag_61\n        /* \"#utility.yul\":934:939   */\n      dup3\n        /* \"#utility.yul\":902:940   */\n      tag_62\n      jump\t// in\n    tag_61:\n        /* \"#utility.yul\":956:1044   */\n      tag_63\n        /* \"#utility.yul\":1037:1043   */\n      dup2\n        /* \"#utility.yul\":1032:1035   */\n      dup6\n        /* \"#utility.yul\":956:1044   */\n      tag_64\n      jump\t// in\n    tag_63:\n        /* \"#utility.yul\":949:1044   */\n      swap4\n      pop\n        /* \"#utility.yul\":1053:1105   */\n      tag_65\n        /* \"#utility.yul\":1098:1104   */\n      dup2\n        /* \"#utility.yul\":1093:1096   */\n      dup6\n        /* \"#utility.yul\":1086:1090   */\n      0x20\n        /* \"#utility.yul\":1079:1084   */\n      dup7\n        /* \"#utility.yul\":1075:1091   */\n      add\n        /* \"#utility.yul\":1053:1105   */\n      tag_66\n      jump\t// in\n    tag_65:\n        /* \"#utility.yul\":1130:1136   */\n      dup1\n        /* \"#utility.yul\":1125:1128   */\n      dup5\n        /* \"#utility.yul\":1121:1137   */\n      add\n        /* \"#utility.yul\":1114:1137   */\n      swap2\n      pop\n        /* \"#utility.yul\":878:1143   */\n      pop\n        /* \"#utility.yul\":770:1143   */\n      swap3\n      swap2\n      pop\n      pop\n      jump\t// out\n        /* \"#utility.yul\":1149:1306   */\n    tag_67:\n        /* \"#utility.yul\":1254:1299   */\n      tag_69\n        /* \"#utility.yul\":1274:1298   */\n      tag_70\n        /* \"#utility.yul\":1292:1297   */\n      dup3\n        /* \"#utility.yul\":1274:1298   */\n      tag_71\n      jump\t// in\n    tag_70:\n        /* \"#utility.yul\":1254:1299   */\n      tag_72\n      jump\t// in\n    tag_69:\n        /* \"#utility.yul\":1249:1252   */\n      dup3\n        /* \"#utility.yul\":1242:1300   */\n      mstore\n        /* \"#utility.yul\":1149:1306   */\n      pop\n      pop\n      jump\t// out\n        /* \"#utility.yul\":1312:1704   */\n    tag_27:\n        /* \"#utility.yul\":1450:1453   */\n      0x00\n        /* \"#utility.yul\":1465:1538   */\n      tag_74\n        /* \"#utility.yul\":1534:1537   */\n      dup3\n        /* \"#utility.yul\":1525:1531   */\n      dup6\n        /* \"#utility.yul\":1465:1538   */\n      tag_53\n      jump\t// in\n    tag_74:\n        /* \"#utility.yul\":1563:1564   */\n      0x04\n        /* \"#utility.yul\":1558:1561   */\n      dup3\n        /* \"#utility.yul\":1554:1565   */\n      add\n        /* \"#utility.yul\":1547:1565   */\n      swap2\n      pop\n        /* \"#utility.yul\":1575:1650   */\n      tag_75\n        /* \"#utility.yul\":1646:1649   */\n      dup3\n        /* \"#utility.yul\":1637:1643   */\n      dup5\n        /* \"#utility.yul\":1575:1650   */\n      tag_67\n      jump\t// in\n    tag_75:\n        /* \"#utility.yul\":1675:1677   */\n      0x20\n        /* \"#utility.yul\":1670:1673   */\n      dup3\n        /* \"#utility.yul\":1666:1678   */\n      add\n        /* \"#utility.yul\":1659:1678   */\n      swap2\n      pop\n        /* \"#utility.yul\":1695:1698   */\n      dup2\n        /* \"#utility.yul\":1688:1698   */\n      swap1\n      pop\n        /* \"#utility.yul\":1312:1704   */\n      swap4\n      swap3\n      pop\n      pop\n      pop\n      jump\t// out\n        /* \"#utility.yul\":1710:1981   */\n    tag_29:\n        /* \"#utility.yul\":1840:1843   */\n      0x00\n        /* \"#utility.yul\":1862:1955   */\n      tag_77\n        /* \"#utility.yul\":1951:1954   */\n      dup3\n        /* \"#utility.yul\":1942:1948   */\n      dup5\n        /* \"#utility.yul\":1862:1955   */\n      tag_59\n      jump\t// in\n    tag_77:\n        /* \"#utility.yul\":1855:1955   */\n      swap2\n      pop\n        /* \"#utility.yul\":1972:1975   */\n      dup2\n        /* \"#utility.yul\":1965:1975   */\n      swap1\n      pop\n        /* \"#utility.yul\":1710:1981   */\n      swap3\n      swap2\n      pop\n      pop\n      jump\t// out\n        /* \"#utility.yul\":1987:2209   */\n    tag_11:\n        /* \"#utility.yul\":2080:2084   */\n      0x00\n        /* \"#utility.yul\":2118:2120   */\n      0x20\n        /* \"#utility.yul\":2107:2116   */\n      dup3\n        /* \"#utility.yul\":2103:2121   */\n      add\n        /* \"#utility.yul\":2095:2121   */\n      swap1\n      pop\n        /* \"#utility.yul\":2131:2202   */\n      tag_79\n        /* \"#utility.yul\":2199:2200   */\n      0x00\n        /* \"#utility.yul\":2188:2197   */\n      dup4\n        /* \"#utility.yul\":2184:2201   */\n      add\n        /* \"#utility.yul\":2175:2181   */\n      dup5\n        /* \"#utility.yul\":2131:2202   */\n      tag_49\n      jump\t// in\n    tag_79:\n        /* \"#utility.yul\":1987:2209   */\n      swap3\n      swap2\n      pop\n      pop\n      jump\t// out\n        /* \"#utility.yul\":2296:2394   */\n    tag_62:\n        /* \"#utility.yul\":2347:2353   */\n      0x00\n        /* \"#utility.yul\":2381:2386   */\n      dup2\n        /* \"#utility.yul\":2375:2387   */\n      mload\n        /* \"#utility.yul\":2365:2387   */\n      swap1\n      pop\n        /* \"#utility.yul\":2296:2394   */\n      swap2\n      swap1\n      pop\n      jump\t// out\n        /* \"#utility.yul\":2400:2547   */\n    tag_64:\n        /* \"#utility.yul\":2501:2512   */\n      0x00\n        /* \"#utility.yul\":2538:2541   */\n      dup2\n        /* \"#utility.yul\":2523:2541   */\n      swap1\n      pop\n        /* \"#utility.yul\":2400:2547   */\n      swap3\n      swap2\n      pop\n      pop\n      jump\t// out\n        /* \"#utility.yul\":2553:2649   */\n    tag_52:\n        /* \"#utility.yul\":2590:2597   */\n      0x00\n        /* \"#utility.yul\":2619:2643   */\n      tag_85\n        /* \"#utility.yul\":2637:2642   */\n      dup3\n        /* \"#utility.yul\":2619:2643   */\n      tag_86\n      jump\t// in\n    tag_85:\n        /* \"#utility.yul\":2608:2643   */\n      swap1\n      pop\n        /* \"#utility.yul\":2553:2649   */\n      swap2\n      swap1\n      pop\n      jump\t// out\n        /* \"#utility.yul\":2655:2804   */\n    tag_57:\n        /* \"#utility.yul\":2691:2698   */\n      0x00\n        /* \"#utility.yul\":2731:2797   */\n      0xffffffff00000000000000000000000000000000000000000000000000000000\n        /* \"#utility.yul\":2724:2729   */\n      dup3\n        /* \"#utility.yul\":2720:2798   */\n      and\n        /* \"#utility.yul\":2709:2798   */\n      swap1\n      pop\n        /* \"#utility.yul\":2655:2804   */\n      swap2\n      swap1\n      pop\n      jump\t// out\n        /* \"#utility.yul\":2810:2936   */\n    tag_86:\n        /* \"#utility.yul\":2847:2854   */\n      0x00\n        /* \"#utility.yul\":2887:2929   */\n      0xffffffffffffffffffffffffffffffffffffffff\n        /* \"#utility.yul\":2880:2885   */\n      dup3\n        /* \"#utility.yul\":2876:2930   */\n      and\n        /* \"#utility.yul\":2865:2930   */\n      swap1\n      pop\n        /* \"#utility.yul\":2810:2936   */\n      swap2\n      swap1\n      pop\n      jump\t// out\n        /* \"#utility.yul\":2942:3019   */\n    tag_71:\n        /* \"#utility.yul\":2979:2986   */\n      0x00\n        /* \"#utility.yul\":3008:3013   */\n      dup2\n        /* \"#utility.yul\":2997:3013   */\n      swap1\n      pop\n        /* \"#utility.yul\":2942:3019   */\n      swap2\n      swap1\n      pop\n      jump\t// out\n        /* \"#utility.yul\":3025:3332   */\n    tag_66:\n        /* \"#utility.yul\":3093:3094   */\n      0x00\n        /* \"#utility.yul\":3103:3216   */\n    tag_91:\n        /* \"#utility.yul\":3117:3123   */\n      dup4\n        /* \"#utility.yul\":3114:3115   */\n      dup2\n        /* \"#utility.yul\":3111:3124   */\n      lt\n        /* \"#utility.yul\":3103:3216   */\n      iszero\n      tag_93\n      jumpi\n        /* \"#utility.yul\":3202:3203   */\n      dup1\n        /* \"#utility.yul\":3197:3200   */\n      dup3\n        /* \"#utility.yul\":3193:3204   */\n      add\n        /* \"#utility.yul\":3187:3205   */\n      mload\n        /* \"#utility.yul\":3183:3184   */\n      dup2\n        /* \"#utility.yul\":3178:3181   */\n      dup5\n        /* \"#utility.yul\":3174:3185   */\n      add\n        /* \"#utility.yul\":3167:3206   */\n      mstore\n        /* \"#utility.yul\":3139:3141   */\n      0x20\n        /* \"#utility.yul\":3136:3137   */\n      dup2\n        /* \"#utility.yul\":3132:3142   */\n      add\n        /* \"#utility.yul\":3127:3142   */\n      swap1\n      pop\n        /* \"#utility.yul\":3103:3216   */\n      jump(tag_91)\n    tag_93:\n        /* \"#utility.yul\":3234:3240   */\n      dup4\n        /* \"#utility.yul\":3231:3232   */\n      dup2\n        /* \"#utility.yul\":3228:3241   */\n      gt\n        /* \"#utility.yul\":3225:3326   */\n      iszero\n      tag_94\n      jumpi\n        /* \"#utility.yul\":3314:3315   */\n      0x00\n        /* \"#utility.yul\":3305:3311   */\n      dup5\n        /* \"#utility.yul\":3300:3303   */\n      dup5\n        /* \"#utility.yul\":3296:3312   */\n      add\n        /* \"#utility.yul\":3289:3316   */\n      mstore\n        /* \"#utility.yul\":3225:3326   */\n    tag_94:\n        /* \"#utility.yul\":3074:3332   */\n      pop\n        /* \"#utility.yul\":3025:3332   */\n      pop\n      pop\n      pop\n      jump\t// out\n        /* \"#utility.yul\":3338:3416   */\n    tag_58:\n        /* \"#utility.yul\":3376:3383   */\n      0x00\n        /* \"#utility.yul\":3405:3410   */\n      dup2\n        /* \"#utility.yul\":3394:3410   */\n      swap1\n      pop\n        /* \"#utility.yul\":3338:3416   */\n      swap2\n      swap1\n      pop\n      jump\t// out\n        /* \"#utility.yul\":3422:3501   */\n    tag_72:\n        /* \"#utility.yul\":3461:3468   */\n      0x00\n        /* \"#utility.yul\":3490:3495   */\n      dup2\n        /* \"#utility.yul\":3479:3495   */\n      swap1\n      pop\n        /* \"#utility.yul\":3422:3501   */\n      swap2\n      swap1\n      pop\n      jump\t// out\n        /* \"#utility.yul\":3630:3747   */\n    tag_47:\n        /* \"#utility.yul\":3739:3740   */\n      0x00\n        /* \"#utility.yul\":3736:3737   */\n      dup1\n        /* \"#utility.yul\":3729:3741   */\n      revert\n        /* \"#utility.yul\":3753:3875   */\n    tag_43:\n        /* \"#utility.yul\":3826:3850   */\n      tag_101\n        /* \"#utility.yul\":3844:3849   */\n      dup2\n        /* \"#utility.yul\":3826:3850   */\n      tag_71\n      jump\t// in\n    tag_101:\n        /* \"#utility.yul\":3819:3824   */\n      dup2\n        /* \"#utility.yul\":3816:3851   */\n      eq\n        /* \"#utility.yul\":3806:3869   */\n      tag_102\n      jumpi\n        /* \"#utility.yul\":3865:3866   */\n      0x00\n        /* \"#utility.yul\":3862:3863   */\n      dup1\n        /* \"#utility.yul\":3855:3867   */\n      revert\n        /* \"#utility.yul\":3806:3869   */\n    tag_102:\n        /* \"#utility.yul\":3753:3875   */\n      pop\n      jump\t// out\n\n    auxdata: 0xa2646970667358221220041e5fa4694d6259266ca12990d69f551f608367dddb410fceb8e7cad5a6ba6864736f6c63430008070033\n}\n",
				"bytecode": {
					"linkReferences": {},
					"object": "608060405234801561001057600080fd5b506040516106ca3803806106ca83398181016040528101906100329190610110565b816000806101000a81548173ffffffffffffffffffffffffffffffffffffffff021916908373ffffffffffffffffffffffffffffffffffffffff16021790555080600160006101000a81548173ffffffffffffffffffffffffffffffffffffffff021916908373ffffffffffffffffffffffffffffffffffffffff16021790555033600260006101000a81548173ffffffffffffffffffffffffffffffffffffffff021916908373ffffffffffffffffffffffffffffffffffffffff160217905550505061019e565b60008151905061010a81610187565b92915050565b6000806040838503121561012757610126610182565b5b6000610135858286016100fb565b9250506020610146858286016100fb565b9150509250929050565b600061015b82610162565b9050919050565b600073ffffffffffffffffffffffffffffffffffffffff82169050919050565b600080fd5b61019081610150565b811461019b57600080fd5b50565b61051d806101ad6000396000f3fe608060405234801561001057600080fd5b50600436106100575760003560e01c806327d6974f1461005c5780633dc794221461007a5780635bda8fa4146100985780638da5cb5b146100b4578063f1e02620146100d2575b600080fd5b6100646100ee565b60405161007191906103eb565b60405180910390f35b610082610114565b60405161008f91906103eb565b60405180910390f35b6100b260048036038101906100ad919061030d565b610138565b005b6100bc610206565b6040516100c991906103eb565b60405180910390f35b6100ec60048036038101906100e7919061030d565b61022c565b005b600160009054906101000a900473ffffffffffffffffffffffffffffffffffffffff1681565b60008054906101000a900473ffffffffffffffffffffffffffffffffffffffff1681565b600160009054906101000a900473ffffffffffffffffffffffffffffffffffffffff1673ffffffffffffffffffffffffffffffffffffffff167f3beb26c427d03ceadbdaedc2f7aac4d9fc345b4fcbfc4b80654fee46dd7c349a826040516020016101a49291906103a8565b6040516020818303038152906040526040516101c091906103d4565b600060405180830381855af49150503d80600081146101fb576040519150601f19603f3d011682016040523d82523d6000602084013e610200565b606091505b50505050565b600260009054906101000a900473ffffffffffffffffffffffffffffffffffffffff1681565b60008054906101000a900473ffffffffffffffffffffffffffffffffffffffff1673ffffffffffffffffffffffffffffffffffffffff167f3beb26c427d03ceadbdaedc2f7aac4d9fc345b4fcbfc4b80654fee46dd7c349a826040516020016102969291906103a8565b6040516020818303038152906040526040516102b291906103d4565b600060405180830381855af49150503d80600081146102ed576040519150601f19603f3d011682016040523d82523d6000602084013e6102f2565b606091505b50505050565b600081359050610307816104d0565b92915050565b600060208284031215610323576103226104cb565b5b6000610331848285016102f8565b91505092915050565b6103438161041c565b82525050565b61035a6103558261042e565b6104b7565b82525050565b600061036b82610406565b6103758185610411565b9350610385818560208601610484565b80840191505092915050565b6103a261039d8261047a565b6104c1565b82525050565b60006103b48285610349565b6004820191506103c48284610391565b6020820191508190509392505050565b60006103e08284610360565b915081905092915050565b6000602082019050610400600083018461033a565b92915050565b600081519050919050565b600081905092915050565b60006104278261045a565b9050919050565b60007fffffffff0000000000000000000000000000000000000000000000000000000082169050919050565b600073ffffffffffffffffffffffffffffffffffffffff82169050919050565b6000819050919050565b60005b838110156104a2578082015181840152602081019050610487565b838111156104b1576000848401525b50505050565b6000819050919050565b6000819050919050565b600080fd5b6104d98161047a565b81146104e457600080fd5b5056fea2646970667358221220041e5fa4694d6259266ca12990d69f551f608367dddb410fceb8e7cad5a6ba6864736f6c63430008070033",
					"opcodes": "PUSH1 0x80 PUSH1 0x40 MSTORE CALLVALUE DUP1 ISZERO PUSH2 0x10 JUMPI PUSH1 0x0 DUP1 REVERT JUMPDEST POP PUSH1 0x40 MLOAD PUSH2 0x6CA CODESIZE SUB DUP1 PUSH2 0x6CA DUP4 CODECOPY DUP2 DUP2 ADD PUSH1 0x40 MSTORE DUP2 ADD SWAP1 PUSH2 0x32 SWAP2 SWAP1 PUSH2 0x110 JUMP JUMPDEST DUP2 PUSH1 0x0 DUP1 PUSH2 0x100 EXP DUP2 SLOAD DUP2 PUSH20 0xFFFFFFFFFFFFFFFFFFFFFFFFFFFFFFFFFFFFFFFF MUL NOT AND SWAP1 DUP4 PUSH20 0xFFFFFFFFFFFFFFFFFFFFFFFFFFFFFFFFFFFFFFFF AND MUL OR SWAP1 SSTORE POP DUP1 PUSH1 0x1 PUSH1 0x0 PUSH2 0x100 EXP DUP2 SLOAD DUP2 PUSH20 0xFFFFFFFFFFFFFFFFFFFFFFFFFFFFFFFFFFFFFFFF MUL NOT AND SWAP1 DUP4 PUSH20 0xFFFFFFFFFFFFFFFFFFFFFFFFFFFFFFFFFFFFFFFF AND MUL OR SWAP1 SSTORE POP CALLER PUSH1 0x2 PUSH1 0x0 PUSH2 0x100 EXP DUP2 SLOAD DUP2 PUSH20 0xFFFFFFFFFFFFFFFFFFFFFFFFFFFFFFFFFFFFFFFF MUL NOT AND SWAP1 DUP4 PUSH20 0xFFFFFFFFFFFFFFFFFFFFFFFFFFFFFFFFFFFFFFFF AND MUL OR SWAP1 SSTORE POP POP POP PUSH2 0x19E JUMP JUMPDEST PUSH1 0x0 DUP2 MLOAD SWAP1 POP PUSH2 0x10A DUP2 PUSH2 0x187 JUMP JUMPDEST SWAP3 SWAP2 POP POP JUMP JUMPDEST PUSH1 0x0 DUP1 PUSH1 0x40 DUP4 DUP6 SUB SLT ISZERO PUSH2 0x127 JUMPI PUSH2 0x126 PUSH2 0x182 JUMP JUMPDEST JUMPDEST PUSH1 0x0 PUSH2 0x135 DUP6 DUP3 DUP7 ADD PUSH2 0xFB JUMP JUMPDEST SWAP3 POP POP PUSH1 0x20 PUSH2 0x146 DUP6 DUP3 DUP7 ADD PUSH2 0xFB JUMP JUMPDEST SWAP2 POP POP SWAP3 POP SWAP3 SWAP1 POP JUMP JUMPDEST PUSH1 0x0 PUSH2 0x15B DUP3 PUSH2 0x162 JUMP JUMPDEST SWAP1 POP SWAP2 SWAP1 POP JUMP JUMPDEST PUSH1 0x0 PUSH20 0xFFFFFFFFFFFFFFFFFFFFFFFFFFFFFFFFFFFFFFFF DUP3 AND SWAP1 POP SWAP2 SWAP1 POP JUMP JUMPDEST PUSH1 0x0 DUP1 REVERT JUMPDEST PUSH2 0x190 DUP2 PUSH2 0x150 JUMP JUMPDEST DUP2 EQ PUSH2 0x19B JUMPI PUSH1 0x0 DUP1 REVERT JUMPDEST POP JUMP JUMPDEST PUSH2 0x51D DUP1 PUSH2 0x1AD PUSH1 0x0 CODECOPY PUSH1 0x0 RETURN INVALID PUSH1 0x80 PUSH1 0x40 MSTORE CALLVALUE DUP1 ISZERO PUSH2 0x10 JUMPI PUSH1 0x0 DUP1 REVERT JUMPDEST POP PUSH1 0x4 CALLDATASIZE LT PUSH2 0x57 JUMPI PUSH1 0x0 CALLDATALOAD PUSH1 0xE0 SHR DUP1 PUSH4 0x27D6974F EQ PUSH2 0x5C JUMPI DUP1 PUSH4 0x3DC79422 EQ PUSH2 0x7A JUMPI DUP1 PUSH4 0x5BDA8FA4 EQ PUSH2 0x98 JUMPI DUP1 PUSH4 0x8DA5CB5B EQ PUSH2 0xB4 JUMPI DUP1 PUSH4 0xF1E02620 EQ PUSH2 0xD2 JUMPI JUMPDEST PUSH1 0x0 DUP1 REVERT JUMPDEST PUSH2 0x64 PUSH2 0xEE JUMP JUMPDEST PUSH1 0x40 MLOAD PUSH2 0x71 SWAP2 SWAP1 PUSH2 0x3EB JUMP JUMPDEST PUSH1 0x40 MLOAD DUP1 SWAP2 SUB SWAP1 RETURN JUMPDEST PUSH2 0x82 PUSH2 0x114 JUMP JUMPDEST PUSH1 0x40 MLOAD PUSH2 0x8F SWAP2 SWAP1 PUSH2 0x3EB JUMP JUMPDEST PUSH1 0x40 MLOAD DUP1 SWAP2 SUB SWAP1 RETURN JUMPDEST PUSH2 0xB2 PUSH1 0x4 DUP1 CALLDATASIZE SUB DUP2 ADD SWAP1 PUSH2 0xAD SWAP2 SWAP1 PUSH2 0x30D JUMP JUMPDEST PUSH2 0x138 JUMP JUMPDEST STOP JUMPDEST PUSH2 0xBC PUSH2 0x206 JUMP JUMPDEST PUSH1 0x40 MLOAD PUSH2 0xC9 SWAP2 SWAP1 PUSH2 0x3EB JUMP JUMPDEST PUSH1 0x40 MLOAD DUP1 SWAP2 SUB SWAP1 RETURN JUMPDEST PUSH2 0xEC PUSH1 0x4 DUP1 CALLDATASIZE SUB DUP2 ADD SWAP1 PUSH2 0xE7 SWAP2 SWAP1 PUSH2 0x30D JUMP JUMPDEST PUSH2 0x22C JUMP JUMPDEST STOP JUMPDEST PUSH1 0x1 PUSH1 0x0 SWAP1 SLOAD SWAP1 PUSH2 0x100 EXP SWAP1 DIV PUSH20 0xFFFFFFFFFFFFFFFFFFFFFFFFFFFFFFFFFFFFFFFF AND DUP2 JUMP JUMPDEST PUSH1 0x0 DUP1 SLOAD SWAP1 PUSH2 0x100 EXP SWAP1 DIV PUSH20 0xFFFFFFFFFFFFFFFFFFFFFFFFFFFFFFFFFFFFFFFF AND DUP2 JUMP JUMPDEST PUSH1 0x1 PUSH1 0x0 SWAP1 SLOAD SWAP1 PUSH2 0x100 EXP SWAP1 DIV PUSH20 0xFFFFFFFFFFFFFFFFFFFFFFFFFFFFFFFFFFFFFFFF AND PUSH20 0xFFFFFFFFFFFFFFFFFFFFFFFFFFFFFFFFFFFFFFFF AND PUSH32 0x3BEB26C427D03CEADBDAEDC2F7AAC4D9FC345B4FCBFC4B80654FEE46DD7C349A DUP3 PUSH1 0x40 MLOAD PUSH1 0x20 ADD PUSH2 0x1A4 SWAP3 SWAP2 SWAP1 PUSH2 0x3A8 JUMP JUMPDEST PUSH1 0x40 MLOAD PUSH1 0x20 DUP2 DUP4 SUB SUB DUP2 MSTORE SWAP1 PUSH1 0x40 MSTORE PUSH1 0x40 MLOAD PUSH2 0x1C0 SWAP2 SWAP1 PUSH2 0x3D4 JUMP JUMPDEST PUSH1 0x0 PUSH1 0x40 MLOAD DUP1 DUP4 SUB DUP2 DUP6 GAS DELEGATECALL SWAP2 POP POP RETURNDATASIZE DUP1 PUSH1 0x0 DUP2 EQ PUSH2 0x1FB JUMPI PUSH1 0x40 MLOAD SWAP2 POP PUSH1 0x1F NOT PUSH1 0x3F RETURNDATASIZE ADD AND DUP3 ADD PUSH1 0x40 MSTORE RETURNDATASIZE DUP3 MSTORE RETURNDATASIZE PUSH1 0x0 PUSH1 0x20 DUP5 ADD RETURNDATACOPY PUSH2 0x200 JUMP JUMPDEST PUSH1 0x60 SWAP2 POP JUMPDEST POP POP POP POP JUMP JUMPDEST PUSH1 0x2 PUSH1 0x0 SWAP1 SLOAD SWAP1 PUSH2 0x100 EXP SWAP1 DIV PUSH20 0xFFFFFFFFFFFFFFFFFFFFFFFFFFFFFFFFFFFFFFFF AND DUP2 JUMP JUMPDEST PUSH1 0x0 DUP1 SLOAD SWAP1 PUSH2 0x100 EXP SWAP1 DIV PUSH20 0xFFFFFFFFFFFFFFFFFFFFFFFFFFFFFFFFFFFFFFFF AND PUSH20 0xFFFFFFFFFFFFFFFFFFFFFFFFFFFFFFFFFFFFFFFF AND PUSH32 0x3BEB26C427D03CEADBDAEDC2F7AAC4D9FC345B4FCBFC4B80654FEE46DD7C349A DUP3 PUSH1 0x40 MLOAD PUSH1 0x20 ADD PUSH2 0x296 SWAP3 SWAP2 SWAP1 PUSH2 0x3A8 JUMP JUMPDEST PUSH1 0x40 MLOAD PUSH1 0x20 DUP2 DUP4 SUB SUB DUP2 MSTORE SWAP1 PUSH1 0x40 MSTORE PUSH1 0x40 MLOAD PUSH2 0x2B2 SWAP2 SWAP1 PUSH2 0x3D4 JUMP JUMPDEST PUSH1 0x0 PUSH1 0x40 MLOAD DUP1 DUP4 SUB DUP2 DUP6 GAS DELEGATECALL SWAP2 POP POP RETURNDATASIZE DUP1 PUSH1 0x0 DUP2 EQ PUSH2 0x2ED JUMPI PUSH1 0x40 MLOAD SWAP2 POP PUSH1 0x1F NOT PUSH1 0x3F RETURNDATASIZE ADD AND DUP3 ADD PUSH1 0x40 MSTORE RETURNDATASIZE DUP3 MSTORE RETURNDATASIZE PUSH1 0x0 PUSH1 0x20 DUP5 ADD RETURNDATACOPY PUSH2 0x2F2 JUMP JUMPDEST PUSH1 0x60 SWAP2 POP JUMPDEST POP POP POP POP JUMP JUMPDEST PUSH1 0x0 DUP2 CALLDATALOAD SWAP1 POP PUSH2 0x307 DUP2 PUSH2 0x4D0 JUMP JUMPDEST SWAP3 SWAP2 POP POP JUMP JUMPDEST PUSH1 0x0 PUSH1 0x20 DUP3 DUP5 SUB SLT ISZERO PUSH2 0x323 JUMPI PUSH2 0x322 PUSH2 0x4CB JUMP JUMPDEST JUMPDEST PUSH1 0x0 PUSH2 0x331 DUP5 DUP3 DUP6 ADD PUSH2 0x2F8 JUMP JUMPDEST SWAP2 POP POP SWAP3 SWAP2 POP POP JUMP JUMPDEST PUSH2 0x343 DUP2 PUSH2 0x41C JUMP JUMPDEST DUP3 MSTORE POP POP JUMP JUMPDEST PUSH2 0x35A PUSH2 0x355 DUP3 PUSH2 0x42E JUMP JUMPDEST PUSH2 0x4B7 JUMP JUMPDEST DUP3 MSTORE POP POP JUMP JUMPDEST PUSH1 0x0 PUSH2 0x36B DUP3 PUSH2 0x406 JUMP JUMPDEST PUSH2 0x375 DUP2 DUP6 PUSH2 0x411 JUMP JUMPDEST SWAP4 POP PUSH2 0x385 DUP2 DUP6 PUSH1 0x20 DUP7 ADD PUSH2 0x484 JUMP JUMPDEST DUP1 DUP5 ADD SWAP2 POP POP SWAP3 SWAP2 POP POP JUMP JUMPDEST PUSH2 0x3A2 PUSH2 0x39D DUP3 PUSH2 0x47A JUMP JUMPDEST PUSH2 0x4C1 JUMP JUMPDEST DUP3 MSTORE POP POP JUMP JUMPDEST PUSH1 0x0 PUSH2 0x3B4 DUP3 DUP6 PUSH2 0x349 JUMP JUMPDEST PUSH1 0x4 DUP3 ADD SWAP2 POP PUSH2 0x3C4 DUP3 DUP5 PUSH2 0x391 JUMP JUMPDEST PUSH1 0x20 DUP3 ADD SWAP2 POP DUP2 SWAP1 POP SWAP4 SWAP3 POP POP POP JUMP JUMPDEST PUSH1 0x0 PUSH2 0x3E0 DUP3 DUP5 PUSH2 0x360 JUMP JUMPDEST SWAP2 POP DUP2 SWAP1 POP SWAP3 SWAP2 POP POP JUMP JUMPDEST PUSH1 0x0 PUSH1 0x20 DUP3 ADD SWAP1 POP PUSH2 0x400 PUSH1 0x0 DUP4 ADD DUP5 PUSH2 0x33A JUMP JUMPDEST SWAP3 SWAP2 POP POP JUMP JUMPDEST PUSH1 0x0 DUP2 MLOAD SWAP1 POP SWAP2 SWAP1 POP JUMP JUMPDEST PUSH1 0x0 DUP2 SWAP1 POP SWAP3 SWAP2 POP POP JUMP JUMPDEST PUSH1 0x0 PUSH2 0x427 DUP3 PUSH2 0x45A JUMP JUMPDEST SWAP1 POP SWAP2 SWAP1 POP JUMP JUMPDEST PUSH1 0x0 PUSH32 0xFFFFFFFF00000000000000000000000000000000000000000000000000000000 DUP3 AND SWAP1 POP SWAP2 SWAP1 POP JUMP JUMPDEST PUSH1 0x0 PUSH20 0xFFFFFFFFFFFFFFFFFFFFFFFFFFFFFFFFFFFFFFFF DUP3 AND SWAP1 POP SWAP2 SWAP1 POP JUMP JUMPDEST PUSH1 0x0 DUP2 SWAP1 POP SWAP2 SWAP1 POP JUMP JUMPDEST PUSH1 0x0 JUMPDEST DUP4 DUP2 LT ISZERO PUSH2 0x4A2 JUMPI DUP1 DUP3 ADD MLOAD DUP2 DUP5 ADD MSTORE PUSH1 0x20 DUP2 ADD SWAP1 POP PUSH2 0x487 JUMP JUMPDEST DUP4 DUP2 GT ISZERO PUSH2 0x4B1 JUMPI PUSH1 0x0 DUP5 DUP5 ADD MSTORE JUMPDEST POP POP POP POP JUMP JUMPDEST PUSH1 0x0 DUP2 SWAP1 POP SWAP2 SWAP1 POP JUMP JUMPDEST PUSH1 0x0 DUP2 SWAP1 POP SWAP2 SWAP1 POP JUMP JUMPDEST PUSH1 0x0 DUP1 REVERT JUMPDEST PUSH2 0x4D9 DUP2 PUSH2 0x47A JUMP JUMPDEST DUP2 EQ PUSH2 0x4E4 JUMPI PUSH1 0x0 DUP1 REVERT JUMPDEST POP JUMP INVALID LOG2 PUSH5 0x6970667358 0x22 SLT KECCAK256 DIV 0x1E 0x5F LOG4 PUSH10 0x4D6259266CA12990D69F SSTORE 0x1F PUSH1 0x83 PUSH8 0xDDDB410FCEB8E7CA 0xD5 0xA6 0xBA PUSH9 0x64736F6C6343000807 STOP CALLER "
				},
				"gasEstimates": {
					"creation": {
						"codeDepositCost": "261800",
						"executionCost": "infinite",
						"totalCost": "infinite"
					},
					"external": {
						"owner()": "2558",
						"setFirstTime(uint256)": "infinite",
						"setSecondTime(uint256)": "infinite",
						"timeZone1Library()": "2511",
						"timeZone2Library()": "2492"
					}
				},
				"methodIdentifiers": {
					"owner()": "8da5cb5b",
					"setFirstTime(uint256)": "f1e02620",
					"setSecondTime(uint256)": "5bda8fa4",
					"timeZone1Library()": "3dc79422",
					"timeZone2Library()": "27d6974f"
				}
			},
			"storageLayout": {
				"storage": [
					{
						"astId": 3,
						"contract": "contracts/16_preservation.sol:Preservation",
						"label": "timeZone1Library",
						"offset": 0,
						"slot": "0",
						"type": "t_address"
					},
					{
						"astId": 5,
						"contract": "contracts/16_preservation.sol:Preservation",
						"label": "timeZone2Library",
						"offset": 0,
						"slot": "1",
						"type": "t_address"
					},
					{
						"astId": 7,
						"contract": "contracts/16_preservation.sol:Preservation",
						"label": "owner",
						"offset": 0,
						"slot": "2",
						"type": "t_address"
					},
					{
						"astId": 9,
						"contract": "contracts/16_preservation.sol:Preservation",
						"label": "storedTime",
						"offset": 0,
						"slot": "3",
						"type": "t_uint256"
					}
				],
				"types": {
					"t_address": {
						"encoding": "inplace",
						"label": "address",
						"numberOfBytes": "20"
					},
					"t_uint256": {
						"encoding": "inplace",
						"label": "uint256",
						"numberOfBytes": "32"
					}
				}
			},
			"userdoc": {
				"kind": "user",
				"methods": {},
				"version": 1
			}
		}
	}
}