{
	"contracts/pa.sol": {
		"Son": {
			"abi": [
				{
					"anonymous": false,
					"inputs": [
						{
							"indexed": false,
							"internalType": "string",
							"name": "msg",
							"type": "string"
						}
					],
					"name": "Log",
					"type": "event"
				},
				{
					"inputs": [],
					"name": "init",
					"outputs": [],
					"stateMutability": "nonpayable",
					"type": "function"
				},
				{
					"inputs": [],
					"name": "say",
					"outputs": [],
					"stateMutability": "nonpayable",
					"type": "function"
				}
			],
			"devdoc": {
				"kind": "dev",
				"methods": {},
				"version": 1
			},
			"evm": {
				"assembly": "    /* \"contracts/pa.sol\":362:546  contract Son is GraPa, Fat {... */\n  mstore(0x40, 0x80)\n  callvalue\n  dup1\n  iszero\n  tag_1\n  jumpi\n  0x00\n  dup1\n  revert\ntag_1:\n  pop\n  dataSize(sub_0)\n  dup1\n  dataOffset(sub_0)\n  0x00\n  codecopy\n  0x00\n  return\nstop\n\nsub_0: assembly {\n        /* \"contracts/pa.sol\":362:546  contract Son is GraPa, Fat {... */\n      mstore(0x40, 0x80)\n      callvalue\n      dup1\n      iszero\n      tag_1\n      jumpi\n      0x00\n      dup1\n      revert\n    tag_1:\n      pop\n      jumpi(tag_2, lt(calldatasize, 0x04))\n      shr(0xe0, calldataload(0x00))\n      dup1\n      0x954ab4b2\n      eq\n      tag_3\n      jumpi\n      dup1\n      0xe1c7392a\n      eq\n      tag_4\n      jumpi\n    tag_2:\n      0x00\n      dup1\n      revert\n        /* \"contracts/pa.sol\":477:544  function say() public override {... */\n    tag_3:\n      tag_5\n      tag_6\n      jump\t// in\n    tag_5:\n      stop\n        /* \"contracts/pa.sol\":395:471  function init() public override(GraPa, Fat) {... */\n    tag_4:\n      tag_7\n      tag_8\n      jump\t// in\n    tag_7:\n      stop\n        /* \"contracts/pa.sol\":477:544  function say() public override {... */\n    tag_6:\n        /* \"contracts/pa.sol\":523:537  Log(\"say son\") */\n      0xcf34ef537ac33ee1ac626ca1587a0a7e8e51561e5514f8cb36afa1c5102b3bab\n      mload(0x40)\n      tag_10\n      swap1\n      tag_11\n      jump\t// in\n    tag_10:\n      mload(0x40)\n      dup1\n      swap2\n      sub\n      swap1\n      log1\n        /* \"contracts/pa.sol\":477:544  function say() public override {... */\n      jump\t// out\n        /* \"contracts/pa.sol\":395:471  function init() public override(GraPa, Fat) {... */\n    tag_8:\n        /* \"contracts/pa.sol\":454:464  Log(\"Son\") */\n      0xcf34ef537ac33ee1ac626ca1587a0a7e8e51561e5514f8cb36afa1c5102b3bab\n      mload(0x40)\n      tag_13\n      swap1\n      tag_14\n      jump\t// in\n    tag_13:\n      mload(0x40)\n      dup1\n      swap2\n      sub\n      swap1\n      log1\n        /* \"contracts/pa.sol\":395:471  function init() public override(GraPa, Fat) {... */\n      jump\t// out\n        /* \"#utility.yul\":7:372   */\n    tag_16:\n        /* \"#utility.yul\":149:152   */\n      0x00\n        /* \"#utility.yul\":170:236   */\n      tag_18\n        /* \"#utility.yul\":234:235   */\n      0x03\n        /* \"#utility.yul\":229:232   */\n      dup4\n        /* \"#utility.yul\":170:236   */\n      tag_19\n      jump\t// in\n    tag_18:\n        /* \"#utility.yul\":163:236   */\n      swap2\n      pop\n        /* \"#utility.yul\":245:338   */\n      tag_20\n        /* \"#utility.yul\":334:337   */\n      dup3\n        /* \"#utility.yul\":245:338   */\n      tag_21\n      jump\t// in\n    tag_20:\n        /* \"#utility.yul\":363:365   */\n      0x20\n        /* \"#utility.yul\":358:361   */\n      dup3\n        /* \"#utility.yul\":354:366   */\n      add\n        /* \"#utility.yul\":347:366   */\n      swap1\n      pop\n        /* \"#utility.yul\":7:372   */\n      swap2\n      swap1\n      pop\n      jump\t// out\n        /* \"#utility.yul\":378:743   */\n    tag_22:\n        /* \"#utility.yul\":520:523   */\n      0x00\n        /* \"#utility.yul\":541:607   */\n      tag_24\n        /* \"#utility.yul\":605:606   */\n      0x07\n        /* \"#utility.yul\":600:603   */\n      dup4\n        /* \"#utility.yul\":541:607   */\n      tag_19\n      jump\t// in\n    tag_24:\n        /* \"#utility.yul\":534:607   */\n      swap2\n      pop\n        /* \"#utility.yul\":616:709   */\n      tag_25\n        /* \"#utility.yul\":705:708   */\n      dup3\n        /* \"#utility.yul\":616:709   */\n      tag_26\n      jump\t// in\n    tag_25:\n        /* \"#utility.yul\":734:736   */\n      0x20\n        /* \"#utility.yul\":729:732   */\n      dup3\n        /* \"#utility.yul\":725:737   */\n      add\n        /* \"#utility.yul\":718:737   */\n      swap1\n      pop\n        /* \"#utility.yul\":378:743   */\n      swap2\n      swap1\n      pop\n      jump\t// out\n        /* \"#utility.yul\":749:1168   */\n    tag_14:\n        /* \"#utility.yul\":915:919   */\n      0x00\n        /* \"#utility.yul\":953:955   */\n      0x20\n        /* \"#utility.yul\":942:951   */\n      dup3\n        /* \"#utility.yul\":938:956   */\n      add\n        /* \"#utility.yul\":930:956   */\n      swap1\n      pop\n        /* \"#utility.yul\":1002:1011   */\n      dup2\n        /* \"#utility.yul\":996:1000   */\n      dup2\n        /* \"#utility.yul\":992:1012   */\n      sub\n        /* \"#utility.yul\":988:989   */\n      0x00\n        /* \"#utility.yul\":977:986   */\n      dup4\n        /* \"#utility.yul\":973:990   */\n      add\n        /* \"#utility.yul\":966:1013   */\n      mstore\n        /* \"#utility.yul\":1030:1161   */\n      tag_28\n        /* \"#utility.yul\":1156:1160   */\n      dup2\n        /* \"#utility.yul\":1030:1161   */\n      tag_16\n      jump\t// in\n    tag_28:\n        /* \"#utility.yul\":1022:1161   */\n      swap1\n      pop\n        /* \"#utility.yul\":749:1168   */\n      swap2\n      swap1\n      pop\n      jump\t// out\n        /* \"#utility.yul\":1174:1593   */\n    tag_11:\n        /* \"#utility.yul\":1340:1344   */\n      0x00\n        /* \"#utility.yul\":1378:1380   */\n      0x20\n        /* \"#utility.yul\":1367:1376   */\n      dup3\n        /* \"#utility.yul\":1363:1381   */\n      add\n        /* \"#utility.yul\":1355:1381   */\n      swap1\n      pop\n        /* \"#utility.yul\":1427:1436   */\n      dup2\n        /* \"#utility.yul\":1421:1425   */\n      dup2\n        /* \"#utility.yul\":1417:1437   */\n      sub\n        /* \"#utility.yul\":1413:1414   */\n      0x00\n        /* \"#utility.yul\":1402:1411   */\n      dup4\n        /* \"#utility.yul\":1398:1415   */\n      add\n        /* \"#utility.yul\":1391:1438   */\n      mstore\n        /* \"#utility.yul\":1455:1586   */\n      tag_30\n        /* \"#utility.yul\":1581:1585   */\n      dup2\n        /* \"#utility.yul\":1455:1586   */\n      tag_22\n      jump\t// in\n    tag_30:\n        /* \"#utility.yul\":1447:1586   */\n      swap1\n      pop\n        /* \"#utility.yul\":1174:1593   */\n      swap2\n      swap1\n      pop\n      jump\t// out\n        /* \"#utility.yul\":1599:1768   */\n    tag_19:\n        /* \"#utility.yul\":1683:1694   */\n      0x00\n        /* \"#utility.yul\":1717:1723   */\n      dup3\n        /* \"#utility.yul\":1712:1715   */\n      dup3\n        /* \"#utility.yul\":1705:1724   */\n      mstore\n        /* \"#utility.yul\":1757:1761   */\n      0x20\n        /* \"#utility.yul\":1752:1755   */\n      dup3\n        /* \"#utility.yul\":1748:1762   */\n      add\n        /* \"#utility.yul\":1733:1762   */\n      swap1\n      pop\n        /* \"#utility.yul\":1599:1768   */\n      swap3\n      swap2\n      pop\n      pop\n      jump\t// out\n        /* \"#utility.yul\":1774:1927   */\n    tag_21:\n        /* \"#utility.yul\":1914:1919   */\n      0x536f6e0000000000000000000000000000000000000000000000000000000000\n        /* \"#utility.yul\":1910:1911   */\n      0x00\n        /* \"#utility.yul\":1902:1908   */\n      dup3\n        /* \"#utility.yul\":1898:1912   */\n      add\n        /* \"#utility.yul\":1891:1920   */\n      mstore\n        /* \"#utility.yul\":1774:1927   */\n      pop\n      jump\t// out\n        /* \"#utility.yul\":1933:2090   */\n    tag_26:\n        /* \"#utility.yul\":2073:2082   */\n      0x73617920736f6e00000000000000000000000000000000000000000000000000\n        /* \"#utility.yul\":2069:2070   */\n      0x00\n        /* \"#utility.yul\":2061:2067   */\n      dup3\n        /* \"#utility.yul\":2057:2071   */\n      add\n        /* \"#utility.yul\":2050:2083   */\n      mstore\n        /* \"#utility.yul\":1933:2090   */\n      pop\n      jump\t// out\n\n    auxdata: 0xa264697066735822122019f487de7a972602cfab6e60a81d8aff52c2f96c8e6e4766840e8fbb43d5d59564736f6c63430008070033\n}\n",
				"bytecode": {
					"linkReferences": {},
					"object": "608060405234801561001057600080fd5b506101dc806100206000396000f3fe608060405234801561001057600080fd5b50600436106100365760003560e01c8063954ab4b21461003b578063e1c7392a14610045575b600080fd5b61004361004f565b005b61004d610086565b005b7fcf34ef537ac33ee1ac626ca1587a0a7e8e51561e5514f8cb36afa1c5102b3bab60405161007c90610123565b60405180910390a1565b7fcf34ef537ac33ee1ac626ca1587a0a7e8e51561e5514f8cb36afa1c5102b3bab6040516100b390610103565b60405180910390a1565b60006100ca600383610143565b91506100d582610154565b602082019050919050565b60006100ed600783610143565b91506100f88261017d565b602082019050919050565b6000602082019050818103600083015261011c816100bd565b9050919050565b6000602082019050818103600083015261013c816100e0565b9050919050565b600082825260208201905092915050565b7f536f6e0000000000000000000000000000000000000000000000000000000000600082015250565b7f73617920736f6e0000000000000000000000000000000000000000000000000060008201525056fea264697066735822122019f487de7a972602cfab6e60a81d8aff52c2f96c8e6e4766840e8fbb43d5d59564736f6c63430008070033",
					"opcodes": "PUSH1 0x80 PUSH1 0x40 MSTORE CALLVALUE DUP1 ISZERO PUSH2 0x10 JUMPI PUSH1 0x0 DUP1 REVERT JUMPDEST POP PUSH2 0x1DC DUP1 PUSH2 0x20 PUSH1 0x0 CODECOPY PUSH1 0x0 RETURN INVALID PUSH1 0x80 PUSH1 0x40 MSTORE CALLVALUE DUP1 ISZERO PUSH2 0x10 JUMPI PUSH1 0x0 DUP1 REVERT JUMPDEST POP PUSH1 0x4 CALLDATASIZE LT PUSH2 0x36 JUMPI PUSH1 0x0 CALLDATALOAD PUSH1 0xE0 SHR DUP1 PUSH4 0x954AB4B2 EQ PUSH2 0x3B JUMPI DUP1 PUSH4 0xE1C7392A EQ PUSH2 0x45 JUMPI JUMPDEST PUSH1 0x0 DUP1 REVERT JUMPDEST PUSH2 0x43 PUSH2 0x4F JUMP JUMPDEST STOP JUMPDEST PUSH2 0x4D PUSH2 0x86 JUMP JUMPDEST STOP JUMPDEST PUSH32 0xCF34EF537AC33EE1AC626CA1587A0A7E8E51561E5514F8CB36AFA1C5102B3BAB PUSH1 0x40 MLOAD PUSH2 0x7C SWAP1 PUSH2 0x123 JUMP JUMPDEST PUSH1 0x40 MLOAD DUP1 SWAP2 SUB SWAP1 LOG1 JUMP JUMPDEST PUSH32 0xCF34EF537AC33EE1AC626CA1587A0A7E8E51561E5514F8CB36AFA1C5102B3BAB PUSH1 0x40 MLOAD PUSH2 0xB3 SWAP1 PUSH2 0x103 JUMP JUMPDEST PUSH1 0x40 MLOAD DUP1 SWAP2 SUB SWAP1 LOG1 JUMP JUMPDEST PUSH1 0x0 PUSH2 0xCA PUSH1 0x3 DUP4 PUSH2 0x143 JUMP JUMPDEST SWAP2 POP PUSH2 0xD5 DUP3 PUSH2 0x154 JUMP JUMPDEST PUSH1 0x20 DUP3 ADD SWAP1 POP SWAP2 SWAP1 POP JUMP JUMPDEST PUSH1 0x0 PUSH2 0xED PUSH1 0x7 DUP4 PUSH2 0x143 JUMP JUMPDEST SWAP2 POP PUSH2 0xF8 DUP3 PUSH2 0x17D JUMP JUMPDEST PUSH1 0x20 DUP3 ADD SWAP1 POP SWAP2 SWAP1 POP JUMP JUMPDEST PUSH1 0x0 PUSH1 0x20 DUP3 ADD SWAP1 POP DUP2 DUP2 SUB PUSH1 0x0 DUP4 ADD MSTORE PUSH2 0x11C DUP2 PUSH2 0xBD JUMP JUMPDEST SWAP1 POP SWAP2 SWAP1 POP JUMP JUMPDEST PUSH1 0x0 PUSH1 0x20 DUP3 ADD SWAP1 POP DUP2 DUP2 SUB PUSH1 0x0 DUP4 ADD MSTORE PUSH2 0x13C DUP2 PUSH2 0xE0 JUMP JUMPDEST SWAP1 POP SWAP2 SWAP1 POP JUMP JUMPDEST PUSH1 0x0 DUP3 DUP3 MSTORE PUSH1 0x20 DUP3 ADD SWAP1 POP SWAP3 SWAP2 POP POP JUMP JUMPDEST PUSH32 0x536F6E0000000000000000000000000000000000000000000000000000000000 PUSH1 0x0 DUP3 ADD MSTORE POP JUMP JUMPDEST PUSH32 0x73617920736F6E00000000000000000000000000000000000000000000000000 PUSH1 0x0 DUP3 ADD MSTORE POP JUMP INVALID LOG2 PUSH5 0x6970667358 0x22 SLT KECCAK256 NOT DELEGATECALL DUP8 0xDE PUSH27 0x972602CFAB6E60A81D8AFF52C2F96C8E6E4766840E8FBB43D5D595 PUSH5 0x736F6C6343 STOP ADDMOD SMOD STOP CALLER "
				},
				"gasEstimates": {
					"creation": {
						"codeDepositCost": "95200",
						"executionCost": "141",
						"totalCost": "95341"
					},
					"external": {
						"init()": "1946",
						"say()": "1924"
					}
				},
				"methodIdentifiers": {
					"init()": "e1c7392a",
					"say()": "954ab4b2"
				}
			},
			"storageLayout": {
				"storage": [],
				"types": null
			},
			"userdoc": {
				"kind": "user",
				"methods": {},
				"version": 1
			}
		}
	}
}