{
	"data": {
		"bytecode": {
			"linkReferences": {},
			"object": "608060405234801561001057600080fd5b50610431806100206000396000f3fe608060405234801561001057600080fd5b50600436106100415760003560e01c806319ae899414610046578063caf4468314610062578063f7adc48f1461007e575b600080fd5b610060600480360381019061005b91906101b8565b61009a565b005b61007c600480360381019061007791906101b8565b6100df565b005b610098600480360381019061009391906101b8565b610128565b005b60f581146100a757600080fd5b7f166b96a382dc3abc86ba052ca9c020cfd7022d2d3059e868918a3d20779e41cc6040516100d4906102d1565b60405180910390a150565b60f581146100f0576100ef61030c565b5b7f166b96a382dc3abc86ba052ca9c020cfd7022d2d3059e868918a3d20779e41cc60405161011d90610291565b60405180910390a150565b60f5811461016b576040517f6d209261000000000000000000000000000000000000000000000000000000008152600401610162906102b1565b60405180910390fd5b7f166b96a382dc3abc86ba052ca9c020cfd7022d2d3059e868918a3d20779e41cc60405161019890610271565b60405180910390a150565b6000813590506101b2816103e4565b92915050565b6000602082840312156101ce576101cd61033b565b5b60006101dc848285016101a3565b91505092915050565b60006101f26009836102f1565b91506101fd82610340565b602082019050919050565b60006102156009836102f1565b915061022082610369565b602082019050919050565b60006102386015836102f1565b915061024382610392565b602082019050919050565b600061025b6009836102f1565b9150610266826103bb565b602082019050919050565b6000602082019050818103600083015261028a816101e5565b9050919050565b600060208201905081810360008301526102aa81610208565b9050919050565b600060208201905081810360008301526102ca8161022b565b9050919050565b600060208201905081810360008301526102ea8161024e565b9050919050565b600082825260208201905092915050565b6000819050919050565b7f4e487b7100000000000000000000000000000000000000000000000000000000600052600160045260246000fd5b600080fd5b7f7375636365737320330000000000000000000000000000000000000000000000600082015250565b7f7375636365737320320000000000000000000000000000000000000000000000600082015250565b7f6572726f72332c206e6f742076616c6964206e756d0000000000000000000000600082015250565b7f7375636365737320310000000000000000000000000000000000000000000000600082015250565b6103ed81610302565b81146103f857600080fd5b5056fea2646970667358221220654c4123f262d4324e63931836a425fd72e028feafb3e09990cf32962453e74464736f6c63430008070033",
			"opcodes": "PUSH1 0x80 PUSH1 0x40 MSTORE CALLVALUE DUP1 ISZERO PUSH2 0x10 JUMPI PUSH1 0x0 DUP1 REVERT JUMPDEST POP PUSH2 0x431 DUP1 PUSH2 0x20 PUSH1 0x0 CODECOPY PUSH1 0x0 RETURN INVALID PUSH1 0x80 PUSH1 0x40 MSTORE CALLVALUE DUP1 ISZERO PUSH2 0x10 JUMPI PUSH1 0x0 DUP1 REVERT JUMPDEST POP PUSH1 0x4 CALLDATASIZE LT PUSH2 0x41 JUMPI PUSH1 0x0 CALLDATALOAD PUSH1 0xE0 SHR DUP1 PUSH4 0x19AE8994 EQ PUSH2 0x46 JUMPI DUP1 PUSH4 0xCAF44683 EQ PUSH2 0x62 JUMPI DUP1 PUSH4 0xF7ADC48F EQ PUSH2 0x7E JUMPI JUMPDEST PUSH1 0x0 DUP1 REVERT JUMPDEST PUSH2 0x60 PUSH1 0x4 DUP1 CALLDATASIZE SUB DUP2 ADD SWAP1 PUSH2 0x5B SWAP2 SWAP1 PUSH2 0x1B8 JUMP JUMPDEST PUSH2 0x9A JUMP JUMPDEST STOP JUMPDEST PUSH2 0x7C PUSH1 0x4 DUP1 CALLDATASIZE SUB DUP2 ADD SWAP1 PUSH2 0x77 SWAP2 SWAP1 PUSH2 0x1B8 JUMP JUMPDEST PUSH2 0xDF JUMP JUMPDEST STOP JUMPDEST PUSH2 0x98 PUSH1 0x4 DUP1 CALLDATASIZE SUB DUP2 ADD SWAP1 PUSH2 0x93 SWAP2 SWAP1 PUSH2 0x1B8 JUMP JUMPDEST PUSH2 0x128 JUMP JUMPDEST STOP JUMPDEST PUSH1 0xF5 DUP2 EQ PUSH2 0xA7 JUMPI PUSH1 0x0 DUP1 REVERT JUMPDEST PUSH32 0x166B96A382DC3ABC86BA052CA9C020CFD7022D2D3059E868918A3D20779E41CC PUSH1 0x40 MLOAD PUSH2 0xD4 SWAP1 PUSH2 0x2D1 JUMP JUMPDEST PUSH1 0x40 MLOAD DUP1 SWAP2 SUB SWAP1 LOG1 POP JUMP JUMPDEST PUSH1 0xF5 DUP2 EQ PUSH2 0xF0 JUMPI PUSH2 0xEF PUSH2 0x30C JUMP JUMPDEST JUMPDEST PUSH32 0x166B96A382DC3ABC86BA052CA9C020CFD7022D2D3059E868918A3D20779E41CC PUSH1 0x40 MLOAD PUSH2 0x11D SWAP1 PUSH2 0x291 JUMP JUMPDEST PUSH1 0x40 MLOAD DUP1 SWAP2 SUB SWAP1 LOG1 POP JUMP JUMPDEST PUSH1 0xF5 DUP2 EQ PUSH2 0x16B JUMPI PUSH1 0x40 MLOAD PUSH32 0x6D20926100000000000000000000000000000000000000000000000000000000 DUP2 MSTORE PUSH1 0x4 ADD PUSH2 0x162 SWAP1 PUSH2 0x2B1 JUMP JUMPDEST PUSH1 0x40 MLOAD DUP1 SWAP2 SUB SWAP1 REVERT JUMPDEST PUSH32 0x166B96A382DC3ABC86BA052CA9C020CFD7022D2D3059E868918A3D20779E41CC PUSH1 0x40 MLOAD PUSH2 0x198 SWAP1 PUSH2 0x271 JUMP JUMPDEST PUSH1 0x40 MLOAD DUP1 SWAP2 SUB SWAP1 LOG1 POP JUMP JUMPDEST PUSH1 0x0 DUP2 CALLDATALOAD SWAP1 POP PUSH2 0x1B2 DUP2 PUSH2 0x3E4 JUMP JUMPDEST SWAP3 SWAP2 POP POP JUMP JUMPDEST PUSH1 0x0 PUSH1 0x20 DUP3 DUP5 SUB SLT ISZERO PUSH2 0x1CE JUMPI PUSH2 0x1CD PUSH2 0x33B JUMP JUMPDEST JUMPDEST PUSH1 0x0 PUSH2 0x1DC DUP5 DUP3 DUP6 ADD PUSH2 0x1A3 JUMP JUMPDEST SWAP2 POP POP SWAP3 SWAP2 POP POP JUMP JUMPDEST PUSH1 0x0 PUSH2 0x1F2 PUSH1 0x9 DUP4 PUSH2 0x2F1 JUMP JUMPDEST SWAP2 POP PUSH2 0x1FD DUP3 PUSH2 0x340 JUMP JUMPDEST PUSH1 0x20 DUP3 ADD SWAP1 POP SWAP2 SWAP1 POP JUMP JUMPDEST PUSH1 0x0 PUSH2 0x215 PUSH1 0x9 DUP4 PUSH2 0x2F1 JUMP JUMPDEST SWAP2 POP PUSH2 0x220 DUP3 PUSH2 0x369 JUMP JUMPDEST PUSH1 0x20 DUP3 ADD SWAP1 POP SWAP2 SWAP1 POP JUMP JUMPDEST PUSH1 0x0 PUSH2 0x238 PUSH1 0x15 DUP4 PUSH2 0x2F1 JUMP JUMPDEST SWAP2 POP PUSH2 0x243 DUP3 PUSH2 0x392 JUMP JUMPDEST PUSH1 0x20 DUP3 ADD SWAP1 POP SWAP2 SWAP1 POP JUMP JUMPDEST PUSH1 0x0 PUSH2 0x25B PUSH1 0x9 DUP4 PUSH2 0x2F1 JUMP JUMPDEST SWAP2 POP PUSH2 0x266 DUP3 PUSH2 0x3BB JUMP JUMPDEST PUSH1 0x20 DUP3 ADD SWAP1 POP SWAP2 SWAP1 POP JUMP JUMPDEST PUSH1 0x0 PUSH1 0x20 DUP3 ADD SWAP1 POP DUP2 DUP2 SUB PUSH1 0x0 DUP4 ADD MSTORE PUSH2 0x28A DUP2 PUSH2 0x1E5 JUMP JUMPDEST SWAP1 POP SWAP2 SWAP1 POP JUMP JUMPDEST PUSH1 0x0 PUSH1 0x20 DUP3 ADD SWAP1 POP DUP2 DUP2 SUB PUSH1 0x0 DUP4 ADD MSTORE PUSH2 0x2AA DUP2 PUSH2 0x208 JUMP JUMPDEST SWAP1 POP SWAP2 SWAP1 POP JUMP JUMPDEST PUSH1 0x0 PUSH1 0x20 DUP3 ADD SWAP1 POP DUP2 DUP2 SUB PUSH1 0x0 DUP4 ADD MSTORE PUSH2 0x2CA DUP2 PUSH2 0x22B JUMP JUMPDEST SWAP1 POP SWAP2 SWAP1 POP JUMP JUMPDEST PUSH1 0x0 PUSH1 0x20 DUP3 ADD SWAP1 POP DUP2 DUP2 SUB PUSH1 0x0 DUP4 ADD MSTORE PUSH2 0x2EA DUP2 PUSH2 0x24E JUMP JUMPDEST SWAP1 POP SWAP2 SWAP1 POP JUMP JUMPDEST PUSH1 0x0 DUP3 DUP3 MSTORE PUSH1 0x20 DUP3 ADD SWAP1 POP SWAP3 SWAP2 POP POP JUMP JUMPDEST PUSH1 0x0 DUP2 SWAP1 POP SWAP2 SWAP1 POP JUMP JUMPDEST PUSH32 0x4E487B7100000000000000000000000000000000000000000000000000000000 PUSH1 0x0 MSTORE PUSH1 0x1 PUSH1 0x4 MSTORE PUSH1 0x24 PUSH1 0x0 REVERT JUMPDEST PUSH1 0x0 DUP1 REVERT JUMPDEST PUSH32 0x7375636365737320330000000000000000000000000000000000000000000000 PUSH1 0x0 DUP3 ADD MSTORE POP JUMP JUMPDEST PUSH32 0x7375636365737320320000000000000000000000000000000000000000000000 PUSH1 0x0 DUP3 ADD MSTORE POP JUMP JUMPDEST PUSH32 0x6572726F72332C206E6F742076616C6964206E756D0000000000000000000000 PUSH1 0x0 DUP3 ADD MSTORE POP JUMP JUMPDEST PUSH32 0x7375636365737320310000000000000000000000000000000000000000000000 PUSH1 0x0 DUP3 ADD MSTORE POP JUMP JUMPDEST PUSH2 0x3ED DUP2 PUSH2 0x302 JUMP JUMPDEST DUP2 EQ PUSH2 0x3F8 JUMPI PUSH1 0x0 DUP1 REVERT JUMPDEST POP JUMP INVALID LOG2 PUSH5 0x6970667358 0x22 SLT KECCAK256 PUSH6 0x4C4123F262D4 ORIGIN 0x4E PUSH4 0x931836A4 0x25 REVERT PUSH19 0xE028FEAFB3E09990CF32962453E74464736F6C PUSH4 0x43000807 STOP CALLER "
		},
		"gasEstimates": {
			"creation": {
				"codeDepositCost": "214600",
				"executionCost": "257",
				"totalCost": "214857"
			},
			"external": {
				"test1(uint256)": "2209",
				"test2(uint256)": "2231",
				"test3(uint256)": "738"
			}
		},
		"methodIdentifiers": {
			"test1(uint256)": "19ae8994",
			"test2(uint256)": "caf44683",
			"test3(uint256)": "f7adc48f"
		}
	},
	"abi": [
		{
			"inputs": [
				{
					"internalType": "string",
					"name": "value",
					"type": "string"
				}
			],
			"name": "CCError",
			"type": "error"
		},
		{
			"anonymous": false,
			"inputs": [
				{
					"indexed": false,
					"internalType": "string",
					"name": "value",
					"type": "string"
				}
			],
			"name": "Success",
			"type": "event"
		},
		{
			"inputs": [
				{
					"internalType": "uint256",
					"name": "_c",
					"type": "uint256"
				}
			],
			"name": "test1",
			"outputs": [],
			"stateMutability": "nonpayable",
			"type": "function"
		},
		{
			"inputs": [
				{
					"internalType": "uint256",
					"name": "_c",
					"type": "uint256"
				}
			],
			"name": "test2",
			"outputs": [],
			"stateMutability": "nonpayable",
			"type": "function"
		},
		{
			"inputs": [
				{
					"internalType": "uint256",
					"name": "_c",
					"type": "uint256"
				}
			],
			"name": "test3",
			"outputs": [],
			"stateMutability": "nonpayable",
			"type": "function"
		}
	]
}