{
	"data": {
		"bytecode": {
			"linkReferences": {},
			"object": "608060405234801561001057600080fd5b50610f7a806100206000396000f3fe60806040523480156200001157600080fd5b50600436106200002e5760003560e01c80633894e5161462000033575b600080fd5b6200005160048036038101906200004b919062000138565b62000053565b005b813382604051620000649062000095565b620000729392919062000201565b604051809103906000f0801580156200008f573d6000803e3d6000fd5b50505050565b610b5d80620003e883390190565b6000620000ba620000b4846200026e565b62000245565b905082815260208101848484011115620000d957620000d8620003ad565b5b620000e6848285620002fe565b509392505050565b600082601f830112620001065762000105620003a8565b5b813562000118848260208601620000a3565b91505092915050565b6000813590506200013281620003cd565b92915050565b60008060408385031215620001525762000151620003b7565b5b600083013567ffffffffffffffff811115620001735762000172620003b2565b5b6200018185828601620000ee565b9250506020620001948582860162000121565b9150509250929050565b620001a981620002c0565b82525050565b6000620001bc82620002a4565b620001c88185620002af565b9350620001da8185602086016200030d565b620001e581620003bc565b840191505092915050565b620001fb81620002f4565b82525050565b600060608201905081810360008301526200021d8186620001af565b90506200022e60208301856200019e565b6200023d6040830184620001f0565b949350505050565b60006200025162000264565b90506200025f828262000343565b919050565b6000604051905090565b600067ffffffffffffffff8211156200028c576200028b62000379565b5b6200029782620003bc565b9050602081019050919050565b600081519050919050565b600082825260208201905092915050565b6000620002cd82620002d4565b9050919050565b600073ffffffffffffffffffffffffffffffffffffffff82169050919050565b6000819050919050565b82818337600083830152505050565b60005b838110156200032d57808201518184015260208101905062000310565b838111156200033d576000848401525b50505050565b6200034e82620003bc565b810181811067ffffffffffffffff8211171562000370576200036f62000379565b5b80604052505050565b7f4e487b7100000000000000000000000000000000000000000000000000000000600052604160045260246000fd5b600080fd5b600080fd5b600080fd5b600080fd5b6000601f19601f8301169050919050565b620003d881620002f4565b8114620003e457600080fd5b5056fe60806040523480156200001157600080fd5b5060405162000b5d38038062000b5d8339818101604052810190620000379190620001f9565b82600090805190602001906200004f9291906200009d565b5080600160008473ffffffffffffffffffffffffffffffffffffffff1673ffffffffffffffffffffffffffffffffffffffff168152602001908152602001600020819055505050506200046a565b828054620000ab9062000347565b90600052602060002090601f016020900481019282620000cf57600085556200011b565b82601f10620000ea57805160ff19168380011785556200011b565b828001600101855582156200011b579182015b828111156200011a578251825591602001919060010190620000fd565b5b5090506200012a91906200012e565b5090565b5b80821115620001495760008160009055506001016200012f565b5090565b6000620001646200015e846200029d565b62000274565b90508281526020810184848401111562000183576200018262000416565b5b6200019084828562000311565b509392505050565b600081519050620001a98162000436565b92915050565b600082601f830112620001c757620001c662000411565b5b8151620001d98482602086016200014d565b91505092915050565b600081519050620001f38162000450565b92915050565b60008060006060848603121562000215576200021462000420565b5b600084015167ffffffffffffffff8111156200023657620002356200041b565b5b6200024486828701620001af565b9350506020620002578682870162000198565b92505060406200026a86828701620001e2565b9150509250925092565b60006200028062000293565b90506200028e82826200037d565b919050565b6000604051905090565b600067ffffffffffffffff821115620002bb57620002ba620003e2565b5b620002c68262000425565b9050602081019050919050565b6000620002e082620002e7565b9050919050565b600073ffffffffffffffffffffffffffffffffffffffff82169050919050565b6000819050919050565b60005b838110156200033157808201518184015260208101905062000314565b8381111562000341576000848401525b50505050565b600060028204905060018216806200036057607f821691505b60208210811415620003775762000376620003b3565b5b50919050565b620003888262000425565b810181811067ffffffffffffffff82111715620003aa57620003a9620003e2565b5b80604052505050565b7f4e487b7100000000000000000000000000000000000000000000000000000000600052602260045260246000fd5b7f4e487b7100000000000000000000000000000000000000000000000000000000600052604160045260246000fd5b600080fd5b600080fd5b600080fd5b600080fd5b6000601f19601f8301169050919050565b6200044181620002d3565b81146200044d57600080fd5b50565b6200045b8162000307565b81146200046757600080fd5b50565b6106e3806200047a6000396000f3fe6080604052600436106100425760003560e01c8062f55d9d1461009e57806306fdde03146100c757806327e235e3146100f2578063a9059cbb1461012f57610099565b3661009957600a3461005491906104b3565b600160003373ffffffffffffffffffffffffffffffffffffffff1673ffffffffffffffffffffffffffffffffffffffff16815260200190815260200160002081905550005b600080fd5b3480156100aa57600080fd5b506100c560048036038101906100c091906103a5565b610158565b005b3480156100d357600080fd5b506100dc610171565b6040516100e9919061045a565b60405180910390f35b3480156100fe57600080fd5b5061011960048036038101906101149190610378565b6101ff565b604051610126919061047c565b60405180910390f35b34801561013b57600080fd5b50610156600480360381019061015191906103d2565b610217565b005b8073ffffffffffffffffffffffffffffffffffffffff16ff5b6000805461017e906105c2565b80601f01602080910402602001604051908101604052809291908181526020018280546101aa906105c2565b80156101f75780601f106101cc576101008083540402835291602001916101f7565b820191906000526020600020905b8154815290600101906020018083116101da57829003601f168201915b505050505081565b60016020528060005260406000206000915090505481565b80600160003373ffffffffffffffffffffffffffffffffffffffff1673ffffffffffffffffffffffffffffffffffffffff16815260200190815260200160002054101561026357600080fd5b80600160003373ffffffffffffffffffffffffffffffffffffffff1673ffffffffffffffffffffffffffffffffffffffff168152602001908152602001600020546102ae919061050d565b600160003373ffffffffffffffffffffffffffffffffffffffff1673ffffffffffffffffffffffffffffffffffffffff1681526020019081526020016000208190555080600160008473ffffffffffffffffffffffffffffffffffffffff1673ffffffffffffffffffffffffffffffffffffffff168152602001908152602001600020819055505050565b60008135905061034881610668565b92915050565b60008135905061035d8161067f565b92915050565b60008135905061037281610696565b92915050565b60006020828403121561038e5761038d610652565b5b600061039c84828501610339565b91505092915050565b6000602082840312156103bb576103ba610652565b5b60006103c98482850161034e565b91505092915050565b600080604083850312156103e9576103e8610652565b5b60006103f785828601610339565b925050602061040885828601610363565b9150509250929050565b600061041d82610497565b61042781856104a2565b935061043781856020860161058f565b61044081610657565b840191505092915050565b61045481610585565b82525050565b600060208201905081810360008301526104748184610412565b905092915050565b6000602082019050610491600083018461044b565b92915050565b600081519050919050565b600082825260208201905092915050565b60006104be82610585565b91506104c983610585565b9250817fffffffffffffffffffffffffffffffffffffffffffffffffffffffffffffffff0483118215151615610502576105016105f4565b5b828202905092915050565b600061051882610585565b915061052383610585565b925082821015610536576105356105f4565b5b828203905092915050565b600061054c82610565565b9050919050565b600061055e82610565565b9050919050565b600073ffffffffffffffffffffffffffffffffffffffff82169050919050565b6000819050919050565b60005b838110156105ad578082015181840152602081019050610592565b838111156105bc576000848401525b50505050565b600060028204905060018216806105da57607f821691505b602082108114156105ee576105ed610623565b5b50919050565b7f4e487b7100000000000000000000000000000000000000000000000000000000600052601160045260246000fd5b7f4e487b7100000000000000000000000000000000000000000000000000000000600052602260045260246000fd5b600080fd5b6000601f19601f8301169050919050565b61067181610541565b811461067c57600080fd5b50565b61068881610553565b811461069357600080fd5b50565b61069f81610585565b81146106aa57600080fd5b5056fea2646970667358221220f4df7f77a0c1d777b7749708b95e504a923d4569e28add85521a838e1ead501764736f6c63430008070033a2646970667358221220241aca0b5379411342c3c569527181fc865219b69b0ec4ab8ac46e7f6c2db2a864736f6c63430008070033",
			"opcodes": "PUSH1 0x80 PUSH1 0x40 MSTORE CALLVALUE DUP1 ISZERO PUSH2 0x10 JUMPI PUSH1 0x0 DUP1 REVERT JUMPDEST POP PUSH2 0xF7A DUP1 PUSH2 0x20 PUSH1 0x0 CODECOPY PUSH1 0x0 RETURN INVALID PUSH1 0x80 PUSH1 0x40 MSTORE CALLVALUE DUP1 ISZERO PUSH3 0x11 JUMPI PUSH1 0x0 DUP1 REVERT JUMPDEST POP PUSH1 0x4 CALLDATASIZE LT PUSH3 0x2E JUMPI PUSH1 0x0 CALLDATALOAD PUSH1 0xE0 SHR DUP1 PUSH4 0x3894E516 EQ PUSH3 0x33 JUMPI JUMPDEST PUSH1 0x0 DUP1 REVERT JUMPDEST PUSH3 0x51 PUSH1 0x4 DUP1 CALLDATASIZE SUB DUP2 ADD SWAP1 PUSH3 0x4B SWAP2 SWAP1 PUSH3 0x138 JUMP JUMPDEST PUSH3 0x53 JUMP JUMPDEST STOP JUMPDEST DUP2 CALLER DUP3 PUSH1 0x40 MLOAD PUSH3 0x64 SWAP1 PUSH3 0x95 JUMP JUMPDEST PUSH3 0x72 SWAP4 SWAP3 SWAP2 SWAP1 PUSH3 0x201 JUMP JUMPDEST PUSH1 0x40 MLOAD DUP1 SWAP2 SUB SWAP1 PUSH1 0x0 CREATE DUP1 ISZERO DUP1 ISZERO PUSH3 0x8F JUMPI RETURNDATASIZE PUSH1 0x0 DUP1 RETURNDATACOPY RETURNDATASIZE PUSH1 0x0 REVERT JUMPDEST POP POP POP POP JUMP JUMPDEST PUSH2 0xB5D DUP1 PUSH3 0x3E8 DUP4 CODECOPY ADD SWAP1 JUMP JUMPDEST PUSH1 0x0 PUSH3 0xBA PUSH3 0xB4 DUP5 PUSH3 0x26E JUMP JUMPDEST PUSH3 0x245 JUMP JUMPDEST SWAP1 POP DUP3 DUP2 MSTORE PUSH1 0x20 DUP2 ADD DUP5 DUP5 DUP5 ADD GT ISZERO PUSH3 0xD9 JUMPI PUSH3 0xD8 PUSH3 0x3AD JUMP JUMPDEST JUMPDEST PUSH3 0xE6 DUP5 DUP3 DUP6 PUSH3 0x2FE JUMP JUMPDEST POP SWAP4 SWAP3 POP POP POP JUMP JUMPDEST PUSH1 0x0 DUP3 PUSH1 0x1F DUP4 ADD SLT PUSH3 0x106 JUMPI PUSH3 0x105 PUSH3 0x3A8 JUMP JUMPDEST JUMPDEST DUP2 CALLDATALOAD PUSH3 0x118 DUP5 DUP3 PUSH1 0x20 DUP7 ADD PUSH3 0xA3 JUMP JUMPDEST SWAP2 POP POP SWAP3 SWAP2 POP POP JUMP JUMPDEST PUSH1 0x0 DUP2 CALLDATALOAD SWAP1 POP PUSH3 0x132 DUP2 PUSH3 0x3CD JUMP JUMPDEST SWAP3 SWAP2 POP POP JUMP JUMPDEST PUSH1 0x0 DUP1 PUSH1 0x40 DUP4 DUP6 SUB SLT ISZERO PUSH3 0x152 JUMPI PUSH3 0x151 PUSH3 0x3B7 JUMP JUMPDEST JUMPDEST PUSH1 0x0 DUP4 ADD CALLDATALOAD PUSH8 0xFFFFFFFFFFFFFFFF DUP2 GT ISZERO PUSH3 0x173 JUMPI PUSH3 0x172 PUSH3 0x3B2 JUMP JUMPDEST JUMPDEST PUSH3 0x181 DUP6 DUP3 DUP7 ADD PUSH3 0xEE JUMP JUMPDEST SWAP3 POP POP PUSH1 0x20 PUSH3 0x194 DUP6 DUP3 DUP7 ADD PUSH3 0x121 JUMP JUMPDEST SWAP2 POP POP SWAP3 POP SWAP3 SWAP1 POP JUMP JUMPDEST PUSH3 0x1A9 DUP2 PUSH3 0x2C0 JUMP JUMPDEST DUP3 MSTORE POP POP JUMP JUMPDEST PUSH1 0x0 PUSH3 0x1BC DUP3 PUSH3 0x2A4 JUMP JUMPDEST PUSH3 0x1C8 DUP2 DUP6 PUSH3 0x2AF JUMP JUMPDEST SWAP4 POP PUSH3 0x1DA DUP2 DUP6 PUSH1 0x20 DUP7 ADD PUSH3 0x30D JUMP JUMPDEST PUSH3 0x1E5 DUP2 PUSH3 0x3BC JUMP JUMPDEST DUP5 ADD SWAP2 POP POP SWAP3 SWAP2 POP POP JUMP JUMPDEST PUSH3 0x1FB DUP2 PUSH3 0x2F4 JUMP JUMPDEST DUP3 MSTORE POP POP JUMP JUMPDEST PUSH1 0x0 PUSH1 0x60 DUP3 ADD SWAP1 POP DUP2 DUP2 SUB PUSH1 0x0 DUP4 ADD MSTORE PUSH3 0x21D DUP2 DUP7 PUSH3 0x1AF JUMP JUMPDEST SWAP1 POP PUSH3 0x22E PUSH1 0x20 DUP4 ADD DUP6 PUSH3 0x19E JUMP JUMPDEST PUSH3 0x23D PUSH1 0x40 DUP4 ADD DUP5 PUSH3 0x1F0 JUMP JUMPDEST SWAP5 SWAP4 POP POP POP POP JUMP JUMPDEST PUSH1 0x0 PUSH3 0x251 PUSH3 0x264 JUMP JUMPDEST SWAP1 POP PUSH3 0x25F DUP3 DUP3 PUSH3 0x343 JUMP JUMPDEST SWAP2 SWAP1 POP JUMP JUMPDEST PUSH1 0x0 PUSH1 0x40 MLOAD SWAP1 POP SWAP1 JUMP JUMPDEST PUSH1 0x0 PUSH8 0xFFFFFFFFFFFFFFFF DUP3 GT ISZERO PUSH3 0x28C JUMPI PUSH3 0x28B PUSH3 0x379 JUMP JUMPDEST JUMPDEST PUSH3 0x297 DUP3 PUSH3 0x3BC JUMP JUMPDEST SWAP1 POP PUSH1 0x20 DUP2 ADD SWAP1 POP SWAP2 SWAP1 POP JUMP JUMPDEST PUSH1 0x0 DUP2 MLOAD SWAP1 POP SWAP2 SWAP1 POP JUMP JUMPDEST PUSH1 0x0 DUP3 DUP3 MSTORE PUSH1 0x20 DUP3 ADD SWAP1 POP SWAP3 SWAP2 POP POP JUMP JUMPDEST PUSH1 0x0 PUSH3 0x2CD DUP3 PUSH3 0x2D4 JUMP JUMPDEST SWAP1 POP SWAP2 SWAP1 POP JUMP JUMPDEST PUSH1 0x0 PUSH20 0xFFFFFFFFFFFFFFFFFFFFFFFFFFFFFFFFFFFFFFFF DUP3 AND SWAP1 POP SWAP2 SWAP1 POP JUMP JUMPDEST PUSH1 0x0 DUP2 SWAP1 POP SWAP2 SWAP1 POP JUMP JUMPDEST DUP3 DUP2 DUP4 CALLDATACOPY PUSH1 0x0 DUP4 DUP4 ADD MSTORE POP POP POP JUMP JUMPDEST PUSH1 0x0 JUMPDEST DUP4 DUP2 LT ISZERO PUSH3 0x32D JUMPI DUP1 DUP3 ADD MLOAD DUP2 DUP5 ADD MSTORE PUSH1 0x20 DUP2 ADD SWAP1 POP PUSH3 0x310 JUMP JUMPDEST DUP4 DUP2 GT ISZERO PUSH3 0x33D JUMPI PUSH1 0x0 DUP5 DUP5 ADD MSTORE JUMPDEST POP POP POP POP JUMP JUMPDEST PUSH3 0x34E DUP3 PUSH3 0x3BC JUMP JUMPDEST DUP2 ADD DUP2 DUP2 LT PUSH8 0xFFFFFFFFFFFFFFFF DUP3 GT OR ISZERO PUSH3 0x370 JUMPI PUSH3 0x36F PUSH3 0x379 JUMP JUMPDEST JUMPDEST DUP1 PUSH1 0x40 MSTORE POP POP POP JUMP JUMPDEST PUSH32 0x4E487B7100000000000000000000000000000000000000000000000000000000 PUSH1 0x0 MSTORE PUSH1 0x41 PUSH1 0x4 MSTORE PUSH1 0x24 PUSH1 0x0 REVERT JUMPDEST PUSH1 0x0 DUP1 REVERT JUMPDEST PUSH1 0x0 DUP1 REVERT JUMPDEST PUSH1 0x0 DUP1 REVERT JUMPDEST PUSH1 0x0 DUP1 REVERT JUMPDEST PUSH1 0x0 PUSH1 0x1F NOT PUSH1 0x1F DUP4 ADD AND SWAP1 POP SWAP2 SWAP1 POP JUMP JUMPDEST PUSH3 0x3D8 DUP2 PUSH3 0x2F4 JUMP JUMPDEST DUP2 EQ PUSH3 0x3E4 JUMPI PUSH1 0x0 DUP1 REVERT JUMPDEST POP JUMP INVALID PUSH1 0x80 PUSH1 0x40 MSTORE CALLVALUE DUP1 ISZERO PUSH3 0x11 JUMPI PUSH1 0x0 DUP1 REVERT JUMPDEST POP PUSH1 0x40 MLOAD PUSH3 0xB5D CODESIZE SUB DUP1 PUSH3 0xB5D DUP4 CODECOPY DUP2 DUP2 ADD PUSH1 0x40 MSTORE DUP2 ADD SWAP1 PUSH3 0x37 SWAP2 SWAP1 PUSH3 0x1F9 JUMP JUMPDEST DUP3 PUSH1 0x0 SWAP1 DUP1 MLOAD SWAP1 PUSH1 0x20 ADD SWAP1 PUSH3 0x4F SWAP3 SWAP2 SWAP1 PUSH3 0x9D JUMP JUMPDEST POP DUP1 PUSH1 0x1 PUSH1 0x0 DUP5 PUSH20 0xFFFFFFFFFFFFFFFFFFFFFFFFFFFFFFFFFFFFFFFF AND PUSH20 0xFFFFFFFFFFFFFFFFFFFFFFFFFFFFFFFFFFFFFFFF AND DUP2 MSTORE PUSH1 0x20 ADD SWAP1 DUP2 MSTORE PUSH1 0x20 ADD PUSH1 0x0 KECCAK256 DUP2 SWAP1 SSTORE POP POP POP POP PUSH3 0x46A JUMP JUMPDEST DUP3 DUP1 SLOAD PUSH3 0xAB SWAP1 PUSH3 0x347 JUMP JUMPDEST SWAP1 PUSH1 0x0 MSTORE PUSH1 0x20 PUSH1 0x0 KECCAK256 SWAP1 PUSH1 0x1F ADD PUSH1 0x20 SWAP1 DIV DUP2 ADD SWAP3 DUP3 PUSH3 0xCF JUMPI PUSH1 0x0 DUP6 SSTORE PUSH3 0x11B JUMP JUMPDEST DUP3 PUSH1 0x1F LT PUSH3 0xEA JUMPI DUP1 MLOAD PUSH1 0xFF NOT AND DUP4 DUP1 ADD OR DUP6 SSTORE PUSH3 0x11B JUMP JUMPDEST DUP3 DUP1 ADD PUSH1 0x1 ADD DUP6 SSTORE DUP3 ISZERO PUSH3 0x11B JUMPI SWAP2 DUP3 ADD JUMPDEST DUP3 DUP2 GT ISZERO PUSH3 0x11A JUMPI DUP3 MLOAD DUP3 SSTORE SWAP2 PUSH1 0x20 ADD SWAP2 SWAP1 PUSH1 0x1 ADD SWAP1 PUSH3 0xFD JUMP JUMPDEST JUMPDEST POP SWAP1 POP PUSH3 0x12A SWAP2 SWAP1 PUSH3 0x12E JUMP JUMPDEST POP SWAP1 JUMP JUMPDEST JUMPDEST DUP1 DUP3 GT ISZERO PUSH3 0x149 JUMPI PUSH1 0x0 DUP2 PUSH1 0x0 SWAP1 SSTORE POP PUSH1 0x1 ADD PUSH3 0x12F JUMP JUMPDEST POP SWAP1 JUMP JUMPDEST PUSH1 0x0 PUSH3 0x164 PUSH3 0x15E DUP5 PUSH3 0x29D JUMP JUMPDEST PUSH3 0x274 JUMP JUMPDEST SWAP1 POP DUP3 DUP2 MSTORE PUSH1 0x20 DUP2 ADD DUP5 DUP5 DUP5 ADD GT ISZERO PUSH3 0x183 JUMPI PUSH3 0x182 PUSH3 0x416 JUMP JUMPDEST JUMPDEST PUSH3 0x190 DUP5 DUP3 DUP6 PUSH3 0x311 JUMP JUMPDEST POP SWAP4 SWAP3 POP POP POP JUMP JUMPDEST PUSH1 0x0 DUP2 MLOAD SWAP1 POP PUSH3 0x1A9 DUP2 PUSH3 0x436 JUMP JUMPDEST SWAP3 SWAP2 POP POP JUMP JUMPDEST PUSH1 0x0 DUP3 PUSH1 0x1F DUP4 ADD SLT PUSH3 0x1C7 JUMPI PUSH3 0x1C6 PUSH3 0x411 JUMP JUMPDEST JUMPDEST DUP2 MLOAD PUSH3 0x1D9 DUP5 DUP3 PUSH1 0x20 DUP7 ADD PUSH3 0x14D JUMP JUMPDEST SWAP2 POP POP SWAP3 SWAP2 POP POP JUMP JUMPDEST PUSH1 0x0 DUP2 MLOAD SWAP1 POP PUSH3 0x1F3 DUP2 PUSH3 0x450 JUMP JUMPDEST SWAP3 SWAP2 POP POP JUMP JUMPDEST PUSH1 0x0 DUP1 PUSH1 0x0 PUSH1 0x60 DUP5 DUP7 SUB SLT ISZERO PUSH3 0x215 JUMPI PUSH3 0x214 PUSH3 0x420 JUMP JUMPDEST JUMPDEST PUSH1 0x0 DUP5 ADD MLOAD PUSH8 0xFFFFFFFFFFFFFFFF DUP2 GT ISZERO PUSH3 0x236 JUMPI PUSH3 0x235 PUSH3 0x41B JUMP JUMPDEST JUMPDEST PUSH3 0x244 DUP7 DUP3 DUP8 ADD PUSH3 0x1AF JUMP JUMPDEST SWAP4 POP POP PUSH1 0x20 PUSH3 0x257 DUP7 DUP3 DUP8 ADD PUSH3 0x198 JUMP JUMPDEST SWAP3 POP POP PUSH1 0x40 PUSH3 0x26A DUP7 DUP3 DUP8 ADD PUSH3 0x1E2 JUMP JUMPDEST SWAP2 POP POP SWAP3 POP SWAP3 POP SWAP3 JUMP JUMPDEST PUSH1 0x0 PUSH3 0x280 PUSH3 0x293 JUMP JUMPDEST SWAP1 POP PUSH3 0x28E DUP3 DUP3 PUSH3 0x37D JUMP JUMPDEST SWAP2 SWAP1 POP JUMP JUMPDEST PUSH1 0x0 PUSH1 0x40 MLOAD SWAP1 POP SWAP1 JUMP JUMPDEST PUSH1 0x0 PUSH8 0xFFFFFFFFFFFFFFFF DUP3 GT ISZERO PUSH3 0x2BB JUMPI PUSH3 0x2BA PUSH3 0x3E2 JUMP JUMPDEST JUMPDEST PUSH3 0x2C6 DUP3 PUSH3 0x425 JUMP JUMPDEST SWAP1 POP PUSH1 0x20 DUP2 ADD SWAP1 POP SWAP2 SWAP1 POP JUMP JUMPDEST PUSH1 0x0 PUSH3 0x2E0 DUP3 PUSH3 0x2E7 JUMP JUMPDEST SWAP1 POP SWAP2 SWAP1 POP JUMP JUMPDEST PUSH1 0x0 PUSH20 0xFFFFFFFFFFFFFFFFFFFFFFFFFFFFFFFFFFFFFFFF DUP3 AND SWAP1 POP SWAP2 SWAP1 POP JUMP JUMPDEST PUSH1 0x0 DUP2 SWAP1 POP SWAP2 SWAP1 POP JUMP JUMPDEST PUSH1 0x0 JUMPDEST DUP4 DUP2 LT ISZERO PUSH3 0x331 JUMPI DUP1 DUP3 ADD MLOAD DUP2 DUP5 ADD MSTORE PUSH1 0x20 DUP2 ADD SWAP1 POP PUSH3 0x314 JUMP JUMPDEST DUP4 DUP2 GT ISZERO PUSH3 0x341 JUMPI PUSH1 0x0 DUP5 DUP5 ADD MSTORE JUMPDEST POP POP POP POP JUMP JUMPDEST PUSH1 0x0 PUSH1 0x2 DUP3 DIV SWAP1 POP PUSH1 0x1 DUP3 AND DUP1 PUSH3 0x360 JUMPI PUSH1 0x7F DUP3 AND SWAP2 POP JUMPDEST PUSH1 0x20 DUP3 LT DUP2 EQ ISZERO PUSH3 0x377 JUMPI PUSH3 0x376 PUSH3 0x3B3 JUMP JUMPDEST JUMPDEST POP SWAP2 SWAP1 POP JUMP JUMPDEST PUSH3 0x388 DUP3 PUSH3 0x425 JUMP JUMPDEST DUP2 ADD DUP2 DUP2 LT PUSH8 0xFFFFFFFFFFFFFFFF DUP3 GT OR ISZERO PUSH3 0x3AA JUMPI PUSH3 0x3A9 PUSH3 0x3E2 JUMP JUMPDEST JUMPDEST DUP1 PUSH1 0x40 MSTORE POP POP POP JUMP JUMPDEST PUSH32 0x4E487B7100000000000000000000000000000000000000000000000000000000 PUSH1 0x0 MSTORE PUSH1 0x22 PUSH1 0x4 MSTORE PUSH1 0x24 PUSH1 0x0 REVERT JUMPDEST PUSH32 0x4E487B7100000000000000000000000000000000000000000000000000000000 PUSH1 0x0 MSTORE PUSH1 0x41 PUSH1 0x4 MSTORE PUSH1 0x24 PUSH1 0x0 REVERT JUMPDEST PUSH1 0x0 DUP1 REVERT JUMPDEST PUSH1 0x0 DUP1 REVERT JUMPDEST PUSH1 0x0 DUP1 REVERT JUMPDEST PUSH1 0x0 DUP1 REVERT JUMPDEST PUSH1 0x0 PUSH1 0x1F NOT PUSH1 0x1F DUP4 ADD AND SWAP1 POP SWAP2 SWAP1 POP JUMP JUMPDEST PUSH3 0x441 DUP2 PUSH3 0x2D3 JUMP JUMPDEST DUP2 EQ PUSH3 0x44D JUMPI PUSH1 0x0 DUP1 REVERT JUMPDEST POP JUMP JUMPDEST PUSH3 0x45B DUP2 PUSH3 0x307 JUMP JUMPDEST DUP2 EQ PUSH3 0x467 JUMPI PUSH1 0x0 DUP1 REVERT JUMPDEST POP JUMP JUMPDEST PUSH2 0x6E3 DUP1 PUSH3 0x47A PUSH1 0x0 CODECOPY PUSH1 0x0 RETURN INVALID PUSH1 0x80 PUSH1 0x40 MSTORE PUSH1 0x4 CALLDATASIZE LT PUSH2 0x42 JUMPI PUSH1 0x0 CALLDATALOAD PUSH1 0xE0 SHR DUP1 PUSH3 0xF55D9D EQ PUSH2 0x9E JUMPI DUP1 PUSH4 0x6FDDE03 EQ PUSH2 0xC7 JUMPI DUP1 PUSH4 0x27E235E3 EQ PUSH2 0xF2 JUMPI DUP1 PUSH4 0xA9059CBB EQ PUSH2 0x12F JUMPI PUSH2 0x99 JUMP JUMPDEST CALLDATASIZE PUSH2 0x99 JUMPI PUSH1 0xA CALLVALUE PUSH2 0x54 SWAP2 SWAP1 PUSH2 0x4B3 JUMP JUMPDEST PUSH1 0x1 PUSH1 0x0 CALLER PUSH20 0xFFFFFFFFFFFFFFFFFFFFFFFFFFFFFFFFFFFFFFFF AND PUSH20 0xFFFFFFFFFFFFFFFFFFFFFFFFFFFFFFFFFFFFFFFF AND DUP2 MSTORE PUSH1 0x20 ADD SWAP1 DUP2 MSTORE PUSH1 0x20 ADD PUSH1 0x0 KECCAK256 DUP2 SWAP1 SSTORE POP STOP JUMPDEST PUSH1 0x0 DUP1 REVERT JUMPDEST CALLVALUE DUP1 ISZERO PUSH2 0xAA JUMPI PUSH1 0x0 DUP1 REVERT JUMPDEST POP PUSH2 0xC5 PUSH1 0x4 DUP1 CALLDATASIZE SUB DUP2 ADD SWAP1 PUSH2 0xC0 SWAP2 SWAP1 PUSH2 0x3A5 JUMP JUMPDEST PUSH2 0x158 JUMP JUMPDEST STOP JUMPDEST CALLVALUE DUP1 ISZERO PUSH2 0xD3 JUMPI PUSH1 0x0 DUP1 REVERT JUMPDEST POP PUSH2 0xDC PUSH2 0x171 JUMP JUMPDEST PUSH1 0x40 MLOAD PUSH2 0xE9 SWAP2 SWAP1 PUSH2 0x45A JUMP JUMPDEST PUSH1 0x40 MLOAD DUP1 SWAP2 SUB SWAP1 RETURN JUMPDEST CALLVALUE DUP1 ISZERO PUSH2 0xFE JUMPI PUSH1 0x0 DUP1 REVERT JUMPDEST POP PUSH2 0x119 PUSH1 0x4 DUP1 CALLDATASIZE SUB DUP2 ADD SWAP1 PUSH2 0x114 SWAP2 SWAP1 PUSH2 0x378 JUMP JUMPDEST PUSH2 0x1FF JUMP JUMPDEST PUSH1 0x40 MLOAD PUSH2 0x126 SWAP2 SWAP1 PUSH2 0x47C JUMP JUMPDEST PUSH1 0x40 MLOAD DUP1 SWAP2 SUB SWAP1 RETURN JUMPDEST CALLVALUE DUP1 ISZERO PUSH2 0x13B JUMPI PUSH1 0x0 DUP1 REVERT JUMPDEST POP PUSH2 0x156 PUSH1 0x4 DUP1 CALLDATASIZE SUB DUP2 ADD SWAP1 PUSH2 0x151 SWAP2 SWAP1 PUSH2 0x3D2 JUMP JUMPDEST PUSH2 0x217 JUMP JUMPDEST STOP JUMPDEST DUP1 PUSH20 0xFFFFFFFFFFFFFFFFFFFFFFFFFFFFFFFFFFFFFFFF AND SELFDESTRUCT JUMPDEST PUSH1 0x0 DUP1 SLOAD PUSH2 0x17E SWAP1 PUSH2 0x5C2 JUMP JUMPDEST DUP1 PUSH1 0x1F ADD PUSH1 0x20 DUP1 SWAP2 DIV MUL PUSH1 0x20 ADD PUSH1 0x40 MLOAD SWAP1 DUP2 ADD PUSH1 0x40 MSTORE DUP1 SWAP3 SWAP2 SWAP1 DUP2 DUP2 MSTORE PUSH1 0x20 ADD DUP3 DUP1 SLOAD PUSH2 0x1AA SWAP1 PUSH2 0x5C2 JUMP JUMPDEST DUP1 ISZERO PUSH2 0x1F7 JUMPI DUP1 PUSH1 0x1F LT PUSH2 0x1CC JUMPI PUSH2 0x100 DUP1 DUP4 SLOAD DIV MUL DUP4 MSTORE SWAP2 PUSH1 0x20 ADD SWAP2 PUSH2 0x1F7 JUMP JUMPDEST DUP3 ADD SWAP2 SWAP1 PUSH1 0x0 MSTORE PUSH1 0x20 PUSH1 0x0 KECCAK256 SWAP1 JUMPDEST DUP2 SLOAD DUP2 MSTORE SWAP1 PUSH1 0x1 ADD SWAP1 PUSH1 0x20 ADD DUP1 DUP4 GT PUSH2 0x1DA JUMPI DUP3 SWAP1 SUB PUSH1 0x1F AND DUP3 ADD SWAP2 JUMPDEST POP POP POP POP POP DUP2 JUMP JUMPDEST PUSH1 0x1 PUSH1 0x20 MSTORE DUP1 PUSH1 0x0 MSTORE PUSH1 0x40 PUSH1 0x0 KECCAK256 PUSH1 0x0 SWAP2 POP SWAP1 POP SLOAD DUP2 JUMP JUMPDEST DUP1 PUSH1 0x1 PUSH1 0x0 CALLER PUSH20 0xFFFFFFFFFFFFFFFFFFFFFFFFFFFFFFFFFFFFFFFF AND PUSH20 0xFFFFFFFFFFFFFFFFFFFFFFFFFFFFFFFFFFFFFFFF AND DUP2 MSTORE PUSH1 0x20 ADD SWAP1 DUP2 MSTORE PUSH1 0x20 ADD PUSH1 0x0 KECCAK256 SLOAD LT ISZERO PUSH2 0x263 JUMPI PUSH1 0x0 DUP1 REVERT JUMPDEST DUP1 PUSH1 0x1 PUSH1 0x0 CALLER PUSH20 0xFFFFFFFFFFFFFFFFFFFFFFFFFFFFFFFFFFFFFFFF AND PUSH20 0xFFFFFFFFFFFFFFFFFFFFFFFFFFFFFFFFFFFFFFFF AND DUP2 MSTORE PUSH1 0x20 ADD SWAP1 DUP2 MSTORE PUSH1 0x20 ADD PUSH1 0x0 KECCAK256 SLOAD PUSH2 0x2AE SWAP2 SWAP1 PUSH2 0x50D JUMP JUMPDEST PUSH1 0x1 PUSH1 0x0 CALLER PUSH20 0xFFFFFFFFFFFFFFFFFFFFFFFFFFFFFFFFFFFFFFFF AND PUSH20 0xFFFFFFFFFFFFFFFFFFFFFFFFFFFFFFFFFFFFFFFF AND DUP2 MSTORE PUSH1 0x20 ADD SWAP1 DUP2 MSTORE PUSH1 0x20 ADD PUSH1 0x0 KECCAK256 DUP2 SWAP1 SSTORE POP DUP1 PUSH1 0x1 PUSH1 0x0 DUP5 PUSH20 0xFFFFFFFFFFFFFFFFFFFFFFFFFFFFFFFFFFFFFFFF AND PUSH20 0xFFFFFFFFFFFFFFFFFFFFFFFFFFFFFFFFFFFFFFFF AND DUP2 MSTORE PUSH1 0x20 ADD SWAP1 DUP2 MSTORE PUSH1 0x20 ADD PUSH1 0x0 KECCAK256 DUP2 SWAP1 SSTORE POP POP POP JUMP JUMPDEST PUSH1 0x0 DUP2 CALLDATALOAD SWAP1 POP PUSH2 0x348 DUP2 PUSH2 0x668 JUMP JUMPDEST SWAP3 SWAP2 POP POP JUMP JUMPDEST PUSH1 0x0 DUP2 CALLDATALOAD SWAP1 POP PUSH2 0x35D DUP2 PUSH2 0x67F JUMP JUMPDEST SWAP3 SWAP2 POP POP JUMP JUMPDEST PUSH1 0x0 DUP2 CALLDATALOAD SWAP1 POP PUSH2 0x372 DUP2 PUSH2 0x696 JUMP JUMPDEST SWAP3 SWAP2 POP POP JUMP JUMPDEST PUSH1 0x0 PUSH1 0x20 DUP3 DUP5 SUB SLT ISZERO PUSH2 0x38E JUMPI PUSH2 0x38D PUSH2 0x652 JUMP JUMPDEST JUMPDEST PUSH1 0x0 PUSH2 0x39C DUP5 DUP3 DUP6 ADD PUSH2 0x339 JUMP JUMPDEST SWAP2 POP POP SWAP3 SWAP2 POP POP JUMP JUMPDEST PUSH1 0x0 PUSH1 0x20 DUP3 DUP5 SUB SLT ISZERO PUSH2 0x3BB JUMPI PUSH2 0x3BA PUSH2 0x652 JUMP JUMPDEST JUMPDEST PUSH1 0x0 PUSH2 0x3C9 DUP5 DUP3 DUP6 ADD PUSH2 0x34E JUMP JUMPDEST SWAP2 POP POP SWAP3 SWAP2 POP POP JUMP JUMPDEST PUSH1 0x0 DUP1 PUSH1 0x40 DUP4 DUP6 SUB SLT ISZERO PUSH2 0x3E9 JUMPI PUSH2 0x3E8 PUSH2 0x652 JUMP JUMPDEST JUMPDEST PUSH1 0x0 PUSH2 0x3F7 DUP6 DUP3 DUP7 ADD PUSH2 0x339 JUMP JUMPDEST SWAP3 POP POP PUSH1 0x20 PUSH2 0x408 DUP6 DUP3 DUP7 ADD PUSH2 0x363 JUMP JUMPDEST SWAP2 POP POP SWAP3 POP SWAP3 SWAP1 POP JUMP JUMPDEST PUSH1 0x0 PUSH2 0x41D DUP3 PUSH2 0x497 JUMP JUMPDEST PUSH2 0x427 DUP2 DUP6 PUSH2 0x4A2 JUMP JUMPDEST SWAP4 POP PUSH2 0x437 DUP2 DUP6 PUSH1 0x20 DUP7 ADD PUSH2 0x58F JUMP JUMPDEST PUSH2 0x440 DUP2 PUSH2 0x657 JUMP JUMPDEST DUP5 ADD SWAP2 POP POP SWAP3 SWAP2 POP POP JUMP JUMPDEST PUSH2 0x454 DUP2 PUSH2 0x585 JUMP JUMPDEST DUP3 MSTORE POP POP JUMP JUMPDEST PUSH1 0x0 PUSH1 0x20 DUP3 ADD SWAP1 POP DUP2 DUP2 SUB PUSH1 0x0 DUP4 ADD MSTORE PUSH2 0x474 DUP2 DUP5 PUSH2 0x412 JUMP JUMPDEST SWAP1 POP SWAP3 SWAP2 POP POP JUMP JUMPDEST PUSH1 0x0 PUSH1 0x20 DUP3 ADD SWAP1 POP PUSH2 0x491 PUSH1 0x0 DUP4 ADD DUP5 PUSH2 0x44B JUMP JUMPDEST SWAP3 SWAP2 POP POP JUMP JUMPDEST PUSH1 0x0 DUP2 MLOAD SWAP1 POP SWAP2 SWAP1 POP JUMP JUMPDEST PUSH1 0x0 DUP3 DUP3 MSTORE PUSH1 0x20 DUP3 ADD SWAP1 POP SWAP3 SWAP2 POP POP JUMP JUMPDEST PUSH1 0x0 PUSH2 0x4BE DUP3 PUSH2 0x585 JUMP JUMPDEST SWAP2 POP PUSH2 0x4C9 DUP4 PUSH2 0x585 JUMP JUMPDEST SWAP3 POP DUP2 PUSH32 0xFFFFFFFFFFFFFFFFFFFFFFFFFFFFFFFFFFFFFFFFFFFFFFFFFFFFFFFFFFFFFFFF DIV DUP4 GT DUP3 ISZERO ISZERO AND ISZERO PUSH2 0x502 JUMPI PUSH2 0x501 PUSH2 0x5F4 JUMP JUMPDEST JUMPDEST DUP3 DUP3 MUL SWAP1 POP SWAP3 SWAP2 POP POP JUMP JUMPDEST PUSH1 0x0 PUSH2 0x518 DUP3 PUSH2 0x585 JUMP JUMPDEST SWAP2 POP PUSH2 0x523 DUP4 PUSH2 0x585 JUMP JUMPDEST SWAP3 POP DUP3 DUP3 LT ISZERO PUSH2 0x536 JUMPI PUSH2 0x535 PUSH2 0x5F4 JUMP JUMPDEST JUMPDEST DUP3 DUP3 SUB SWAP1 POP SWAP3 SWAP2 POP POP JUMP JUMPDEST PUSH1 0x0 PUSH2 0x54C DUP3 PUSH2 0x565 JUMP JUMPDEST SWAP1 POP SWAP2 SWAP1 POP JUMP JUMPDEST PUSH1 0x0 PUSH2 0x55E DUP3 PUSH2 0x565 JUMP JUMPDEST SWAP1 POP SWAP2 SWAP1 POP JUMP JUMPDEST PUSH1 0x0 PUSH20 0xFFFFFFFFFFFFFFFFFFFFFFFFFFFFFFFFFFFFFFFF DUP3 AND SWAP1 POP SWAP2 SWAP1 POP JUMP JUMPDEST PUSH1 0x0 DUP2 SWAP1 POP SWAP2 SWAP1 POP JUMP JUMPDEST PUSH1 0x0 JUMPDEST DUP4 DUP2 LT ISZERO PUSH2 0x5AD JUMPI DUP1 DUP3 ADD MLOAD DUP2 DUP5 ADD MSTORE PUSH1 0x20 DUP2 ADD SWAP1 POP PUSH2 0x592 JUMP JUMPDEST DUP4 DUP2 GT ISZERO PUSH2 0x5BC JUMPI PUSH1 0x0 DUP5 DUP5 ADD MSTORE JUMPDEST POP POP POP POP JUMP JUMPDEST PUSH1 0x0 PUSH1 0x2 DUP3 DIV SWAP1 POP PUSH1 0x1 DUP3 AND DUP1 PUSH2 0x5DA JUMPI PUSH1 0x7F DUP3 AND SWAP2 POP JUMPDEST PUSH1 0x20 DUP3 LT DUP2 EQ ISZERO PUSH2 0x5EE JUMPI PUSH2 0x5ED PUSH2 0x623 JUMP JUMPDEST JUMPDEST POP SWAP2 SWAP1 POP JUMP JUMPDEST PUSH32 0x4E487B7100000000000000000000000000000000000000000000000000000000 PUSH1 0x0 MSTORE PUSH1 0x11 PUSH1 0x4 MSTORE PUSH1 0x24 PUSH1 0x0 REVERT JUMPDEST PUSH32 0x4E487B7100000000000000000000000000000000000000000000000000000000 PUSH1 0x0 MSTORE PUSH1 0x22 PUSH1 0x4 MSTORE PUSH1 0x24 PUSH1 0x0 REVERT JUMPDEST PUSH1 0x0 DUP1 REVERT JUMPDEST PUSH1 0x0 PUSH1 0x1F NOT PUSH1 0x1F DUP4 ADD AND SWAP1 POP SWAP2 SWAP1 POP JUMP JUMPDEST PUSH2 0x671 DUP2 PUSH2 0x541 JUMP JUMPDEST DUP2 EQ PUSH2 0x67C JUMPI PUSH1 0x0 DUP1 REVERT JUMPDEST POP JUMP JUMPDEST PUSH2 0x688 DUP2 PUSH2 0x553 JUMP JUMPDEST DUP2 EQ PUSH2 0x693 JUMPI PUSH1 0x0 DUP1 REVERT JUMPDEST POP JUMP JUMPDEST PUSH2 0x69F DUP2 PUSH2 0x585 JUMP JUMPDEST DUP2 EQ PUSH2 0x6AA JUMPI PUSH1 0x0 DUP1 REVERT JUMPDEST POP JUMP INVALID LOG2 PUSH5 0x6970667358 0x22 SLT KECCAK256 DELEGATECALL 0xDF PUSH32 0x77A0C1D777B7749708B95E504A923D4569E28ADD85521A838E1EAD501764736F PUSH13 0x63430008070033A26469706673 PC 0x22 SLT KECCAK256 0x24 BYTE 0xCA SIGNEXTEND MSTORE8 PUSH26 0x411342C3C569527181FC865219B69B0EC4AB8AC46E7F6C2DB2A8 PUSH5 0x736F6C6343 STOP ADDMOD SMOD STOP CALLER "
		},
		"gasEstimates": {
			"creation": {
				"codeDepositCost": "792400",
				"executionCost": "825",
				"totalCost": "793225"
			},
			"external": {
				"generateToken(string,uint256)": "infinite"
			}
		},
		"methodIdentifiers": {
			"generateToken(string,uint256)": "3894e516"
		}
	},
	"abi": [
		{
			"inputs": [
				{
					"internalType": "string",
					"name": "_name",
					"type": "string"
				},
				{
					"internalType": "uint256",
					"name": "_initialSupply",
					"type": "uint256"
				}
			],
			"name": "generateToken",
			"outputs": [],
			"stateMutability": "nonpayable",
			"type": "function"
		}
	]
}