{
	"data": {
		"bytecode": {
			"linkReferences": {},
			"object": "608060405234801561001057600080fd5b50610278806100206000396000f3fe608060405234801561001057600080fd5b506004361061002b5760003560e01c8063fc37dcf414610030575b600080fd5b61004a600480360381019061004591906100ba565b610060565b6040516100579190610172565b60405180910390f35b600060d660f81b609460f81b83600160f81b6040516020016100859493929190610124565b6040516020818303038152906040528051906020012060001c9050919050565b6000813590506100b48161022b565b92915050565b6000602082840312156100d0576100cf610219565b5b60006100de848285016100a5565b91505092915050565b6100f08161018d565b82525050565b6101076101028261018d565b6101eb565b82525050565b61011e6101198261019f565b6101fd565b82525050565b6000610130828761010d565b600182019150610140828661010d565b60018201915061015082856100f6565b601482019150610160828461010d565b60018201915081905095945050505050565b600060208201905061018760008301846100e7565b92915050565b6000610198826101cb565b9050919050565b60007fff0000000000000000000000000000000000000000000000000000000000000082169050919050565b600073ffffffffffffffffffffffffffffffffffffffff82169050919050565b60006101f682610207565b9050919050565b6000819050919050565b60006102128261021e565b9050919050565b600080fd5b60008160601b9050919050565b6102348161018d565b811461023f57600080fd5b5056fea2646970667358221220c1bf1321bd28927efc50c2ef50daa44c42cb0560f2ba52a6d5bc2e639b5ad35364736f6c63430008070033",
			"opcodes": "PUSH1 0x80 PUSH1 0x40 MSTORE CALLVALUE DUP1 ISZERO PUSH2 0x10 JUMPI PUSH1 0x0 DUP1 REVERT JUMPDEST POP PUSH2 0x278 DUP1 PUSH2 0x20 PUSH1 0x0 CODECOPY PUSH1 0x0 RETURN INVALID PUSH1 0x80 PUSH1 0x40 MSTORE CALLVALUE DUP1 ISZERO PUSH2 0x10 JUMPI PUSH1 0x0 DUP1 REVERT JUMPDEST POP PUSH1 0x4 CALLDATASIZE LT PUSH2 0x2B JUMPI PUSH1 0x0 CALLDATALOAD PUSH1 0xE0 SHR DUP1 PUSH4 0xFC37DCF4 EQ PUSH2 0x30 JUMPI JUMPDEST PUSH1 0x0 DUP1 REVERT JUMPDEST PUSH2 0x4A PUSH1 0x4 DUP1 CALLDATASIZE SUB DUP2 ADD SWAP1 PUSH2 0x45 SWAP2 SWAP1 PUSH2 0xBA JUMP JUMPDEST PUSH2 0x60 JUMP JUMPDEST PUSH1 0x40 MLOAD PUSH2 0x57 SWAP2 SWAP1 PUSH2 0x172 JUMP JUMPDEST PUSH1 0x40 MLOAD DUP1 SWAP2 SUB SWAP1 RETURN JUMPDEST PUSH1 0x0 PUSH1 0xD6 PUSH1 0xF8 SHL PUSH1 0x94 PUSH1 0xF8 SHL DUP4 PUSH1 0x1 PUSH1 0xF8 SHL PUSH1 0x40 MLOAD PUSH1 0x20 ADD PUSH2 0x85 SWAP5 SWAP4 SWAP3 SWAP2 SWAP1 PUSH2 0x124 JUMP JUMPDEST PUSH1 0x40 MLOAD PUSH1 0x20 DUP2 DUP4 SUB SUB DUP2 MSTORE SWAP1 PUSH1 0x40 MSTORE DUP1 MLOAD SWAP1 PUSH1 0x20 ADD KECCAK256 PUSH1 0x0 SHR SWAP1 POP SWAP2 SWAP1 POP JUMP JUMPDEST PUSH1 0x0 DUP2 CALLDATALOAD SWAP1 POP PUSH2 0xB4 DUP2 PUSH2 0x22B JUMP JUMPDEST SWAP3 SWAP2 POP POP JUMP JUMPDEST PUSH1 0x0 PUSH1 0x20 DUP3 DUP5 SUB SLT ISZERO PUSH2 0xD0 JUMPI PUSH2 0xCF PUSH2 0x219 JUMP JUMPDEST JUMPDEST PUSH1 0x0 PUSH2 0xDE DUP5 DUP3 DUP6 ADD PUSH2 0xA5 JUMP JUMPDEST SWAP2 POP POP SWAP3 SWAP2 POP POP JUMP JUMPDEST PUSH2 0xF0 DUP2 PUSH2 0x18D JUMP JUMPDEST DUP3 MSTORE POP POP JUMP JUMPDEST PUSH2 0x107 PUSH2 0x102 DUP3 PUSH2 0x18D JUMP JUMPDEST PUSH2 0x1EB JUMP JUMPDEST DUP3 MSTORE POP POP JUMP JUMPDEST PUSH2 0x11E PUSH2 0x119 DUP3 PUSH2 0x19F JUMP JUMPDEST PUSH2 0x1FD JUMP JUMPDEST DUP3 MSTORE POP POP JUMP JUMPDEST PUSH1 0x0 PUSH2 0x130 DUP3 DUP8 PUSH2 0x10D JUMP JUMPDEST PUSH1 0x1 DUP3 ADD SWAP2 POP PUSH2 0x140 DUP3 DUP7 PUSH2 0x10D JUMP JUMPDEST PUSH1 0x1 DUP3 ADD SWAP2 POP PUSH2 0x150 DUP3 DUP6 PUSH2 0xF6 JUMP JUMPDEST PUSH1 0x14 DUP3 ADD SWAP2 POP PUSH2 0x160 DUP3 DUP5 PUSH2 0x10D JUMP JUMPDEST PUSH1 0x1 DUP3 ADD SWAP2 POP DUP2 SWAP1 POP SWAP6 SWAP5 POP POP POP POP POP JUMP JUMPDEST PUSH1 0x0 PUSH1 0x20 DUP3 ADD SWAP1 POP PUSH2 0x187 PUSH1 0x0 DUP4 ADD DUP5 PUSH2 0xE7 JUMP JUMPDEST SWAP3 SWAP2 POP POP JUMP JUMPDEST PUSH1 0x0 PUSH2 0x198 DUP3 PUSH2 0x1CB JUMP JUMPDEST SWAP1 POP SWAP2 SWAP1 POP JUMP JUMPDEST PUSH1 0x0 PUSH32 0xFF00000000000000000000000000000000000000000000000000000000000000 DUP3 AND SWAP1 POP SWAP2 SWAP1 POP JUMP JUMPDEST PUSH1 0x0 PUSH20 0xFFFFFFFFFFFFFFFFFFFFFFFFFFFFFFFFFFFFFFFF DUP3 AND SWAP1 POP SWAP2 SWAP1 POP JUMP JUMPDEST PUSH1 0x0 PUSH2 0x1F6 DUP3 PUSH2 0x207 JUMP JUMPDEST SWAP1 POP SWAP2 SWAP1 POP JUMP JUMPDEST PUSH1 0x0 DUP2 SWAP1 POP SWAP2 SWAP1 POP JUMP JUMPDEST PUSH1 0x0 PUSH2 0x212 DUP3 PUSH2 0x21E JUMP JUMPDEST SWAP1 POP SWAP2 SWAP1 POP JUMP JUMPDEST PUSH1 0x0 DUP1 REVERT JUMPDEST PUSH1 0x0 DUP2 PUSH1 0x60 SHL SWAP1 POP SWAP2 SWAP1 POP JUMP JUMPDEST PUSH2 0x234 DUP2 PUSH2 0x18D JUMP JUMPDEST DUP2 EQ PUSH2 0x23F JUMPI PUSH1 0x0 DUP1 REVERT JUMPDEST POP JUMP INVALID LOG2 PUSH5 0x6970667358 0x22 SLT KECCAK256 0xC1 0xBF SGT 0x21 0xBD 0x28 SWAP3 PUSH31 0xFC50C2EF50DAA44C42CB0560F2BA52A6D5BC2E639B5AD35364736F6C634300 ADDMOD SMOD STOP CALLER "
		},
		"gasEstimates": {
			"creation": {
				"codeDepositCost": "126400",
				"executionCost": "171",
				"totalCost": "126571"
			},
			"external": {
				"calculateContractAddress(address)": "infinite"
			}
		},
		"methodIdentifiers": {
			"calculateContractAddress(address)": "fc37dcf4"
		}
	},
	"abi": [
		{
			"inputs": [
				{
					"internalType": "address",
					"name": "_origin",
					"type": "address"
				}
			],
			"name": "calculateContractAddress",
			"outputs": [
				{
					"internalType": "address",
					"name": "",
					"type": "address"
				}
			],
			"stateMutability": "pure",
			"type": "function"
		}
	]
}