{
	"data": {
		"bytecode": {
			"linkReferences": {},
			"object": "60806040523480156200001157600080fd5b50604051620007c5380380620007c58339818101604052810190620000379190620001a6565b81806000819055505080600190805190602001906200005892919062000061565b505050620003b4565b8280546200006f90620002ab565b90600052602060002090601f016020900481019282620000935760008555620000df565b82601f10620000ae57805160ff1916838001178555620000df565b82800160010185558215620000df579182015b82811115620000de578251825591602001919060010190620000c1565b5b509050620000ee9190620000f2565b5090565b5b808211156200010d576000816000905550600101620000f3565b5090565b600062000128620001228462000235565b6200020c565b9050828152602081018484840111156200014757620001466200037a565b5b6200015484828562000275565b509392505050565b600082601f83011262000174576200017362000375565b5b81516200018684826020860162000111565b91505092915050565b600081519050620001a0816200039a565b92915050565b60008060408385031215620001c057620001bf62000384565b5b6000620001d0858286016200018f565b925050602083015167ffffffffffffffff811115620001f457620001f36200037f565b5b62000202858286016200015c565b9150509250929050565b6000620002186200022b565b9050620002268282620002e1565b919050565b6000604051905090565b600067ffffffffffffffff82111562000253576200025262000346565b5b6200025e8262000389565b9050602081019050919050565b6000819050919050565b60005b838110156200029557808201518184015260208101905062000278565b83811115620002a5576000848401525b50505050565b60006002820490506001821680620002c457607f821691505b60208210811415620002db57620002da62000317565b5b50919050565b620002ec8262000389565b810181811067ffffffffffffffff821117156200030e576200030d62000346565b5b80604052505050565b7f4e487b7100000000000000000000000000000000000000000000000000000000600052602260045260246000fd5b7f4e487b7100000000000000000000000000000000000000000000000000000000600052604160045260246000fd5b600080fd5b600080fd5b600080fd5b600080fd5b6000601f19601f8301169050919050565b620003a5816200026b565b8114620003b157600080fd5b50565b61040180620003c46000396000f3fe608060405234801561001057600080fd5b506004361061004c5760003560e01c80630dbe671f14610051578063954ab4b21461006f578063c3da42b814610079578063e1c7392a14610097575b600080fd5b6100596100a1565b6040516100669190610293565b60405180910390f35b6100776100a7565b005b6100816100de565b60405161008e9190610231565b60405180910390f35b61009f61016c565b005b60005481565b7fcf34ef537ac33ee1ac626ca1587a0a7e8e51561e5514f8cb36afa1c5102b3bab6040516100d490610273565b60405180910390a1565b600180546100eb90610307565b80601f016020809104026020016040519081016040528092919081815260200182805461011790610307565b80156101645780601f1061013957610100808354040283529160200191610164565b820191906000526020600020905b81548152906001019060200180831161014757829003601f168201915b505050505081565b7fcf34ef537ac33ee1ac626ca1587a0a7e8e51561e5514f8cb36afa1c5102b3bab60405161019990610253565b60405180910390a1565b60006101ae826102ae565b6101b881856102b9565b93506101c88185602086016102d4565b6101d181610368565b840191505092915050565b60006101e96003836102b9565b91506101f482610379565b602082019050919050565b600061020c6007836102b9565b9150610217826103a2565b602082019050919050565b61022b816102ca565b82525050565b6000602082019050818103600083015261024b81846101a3565b905092915050565b6000602082019050818103600083015261026c816101dc565b9050919050565b6000602082019050818103600083015261028c816101ff565b9050919050565b60006020820190506102a86000830184610222565b92915050565b600081519050919050565b600082825260208201905092915050565b6000819050919050565b60005b838110156102f25780820151818401526020810190506102d7565b83811115610301576000848401525b50505050565b6000600282049050600182168061031f57607f821691505b6020821081141561033357610332610339565b5b50919050565b7f4e487b7100000000000000000000000000000000000000000000000000000000600052602260045260246000fd5b6000601f19601f8301169050919050565b7f536f6e0000000000000000000000000000000000000000000000000000000000600082015250565b7f73617920736f6e0000000000000000000000000000000000000000000000000060008201525056fea264697066735822122043a909d538aa4c07deb03a01efc14a2230398a9d76c458694a19a617e62aa6c664736f6c63430008070033",
			"opcodes": "PUSH1 0x80 PUSH1 0x40 MSTORE CALLVALUE DUP1 ISZERO PUSH3 0x11 JUMPI PUSH1 0x0 DUP1 REVERT JUMPDEST POP PUSH1 0x40 MLOAD PUSH3 0x7C5 CODESIZE SUB DUP1 PUSH3 0x7C5 DUP4 CODECOPY DUP2 DUP2 ADD PUSH1 0x40 MSTORE DUP2 ADD SWAP1 PUSH3 0x37 SWAP2 SWAP1 PUSH3 0x1A6 JUMP JUMPDEST DUP2 DUP1 PUSH1 0x0 DUP2 SWAP1 SSTORE POP POP DUP1 PUSH1 0x1 SWAP1 DUP1 MLOAD SWAP1 PUSH1 0x20 ADD SWAP1 PUSH3 0x58 SWAP3 SWAP2 SWAP1 PUSH3 0x61 JUMP JUMPDEST POP POP POP PUSH3 0x3B4 JUMP JUMPDEST DUP3 DUP1 SLOAD PUSH3 0x6F SWAP1 PUSH3 0x2AB JUMP JUMPDEST SWAP1 PUSH1 0x0 MSTORE PUSH1 0x20 PUSH1 0x0 KECCAK256 SWAP1 PUSH1 0x1F ADD PUSH1 0x20 SWAP1 DIV DUP2 ADD SWAP3 DUP3 PUSH3 0x93 JUMPI PUSH1 0x0 DUP6 SSTORE PUSH3 0xDF JUMP JUMPDEST DUP3 PUSH1 0x1F LT PUSH3 0xAE JUMPI DUP1 MLOAD PUSH1 0xFF NOT AND DUP4 DUP1 ADD OR DUP6 SSTORE PUSH3 0xDF JUMP JUMPDEST DUP3 DUP1 ADD PUSH1 0x1 ADD DUP6 SSTORE DUP3 ISZERO PUSH3 0xDF JUMPI SWAP2 DUP3 ADD JUMPDEST DUP3 DUP2 GT ISZERO PUSH3 0xDE JUMPI DUP3 MLOAD DUP3 SSTORE SWAP2 PUSH1 0x20 ADD SWAP2 SWAP1 PUSH1 0x1 ADD SWAP1 PUSH3 0xC1 JUMP JUMPDEST JUMPDEST POP SWAP1 POP PUSH3 0xEE SWAP2 SWAP1 PUSH3 0xF2 JUMP JUMPDEST POP SWAP1 JUMP JUMPDEST JUMPDEST DUP1 DUP3 GT ISZERO PUSH3 0x10D JUMPI PUSH1 0x0 DUP2 PUSH1 0x0 SWAP1 SSTORE POP PUSH1 0x1 ADD PUSH3 0xF3 JUMP JUMPDEST POP SWAP1 JUMP JUMPDEST PUSH1 0x0 PUSH3 0x128 PUSH3 0x122 DUP5 PUSH3 0x235 JUMP JUMPDEST PUSH3 0x20C JUMP JUMPDEST SWAP1 POP DUP3 DUP2 MSTORE PUSH1 0x20 DUP2 ADD DUP5 DUP5 DUP5 ADD GT ISZERO PUSH3 0x147 JUMPI PUSH3 0x146 PUSH3 0x37A JUMP JUMPDEST JUMPDEST PUSH3 0x154 DUP5 DUP3 DUP6 PUSH3 0x275 JUMP JUMPDEST POP SWAP4 SWAP3 POP POP POP JUMP JUMPDEST PUSH1 0x0 DUP3 PUSH1 0x1F DUP4 ADD SLT PUSH3 0x174 JUMPI PUSH3 0x173 PUSH3 0x375 JUMP JUMPDEST JUMPDEST DUP2 MLOAD PUSH3 0x186 DUP5 DUP3 PUSH1 0x20 DUP7 ADD PUSH3 0x111 JUMP JUMPDEST SWAP2 POP POP SWAP3 SWAP2 POP POP JUMP JUMPDEST PUSH1 0x0 DUP2 MLOAD SWAP1 POP PUSH3 0x1A0 DUP2 PUSH3 0x39A JUMP JUMPDEST SWAP3 SWAP2 POP POP JUMP JUMPDEST PUSH1 0x0 DUP1 PUSH1 0x40 DUP4 DUP6 SUB SLT ISZERO PUSH3 0x1C0 JUMPI PUSH3 0x1BF PUSH3 0x384 JUMP JUMPDEST JUMPDEST PUSH1 0x0 PUSH3 0x1D0 DUP6 DUP3 DUP7 ADD PUSH3 0x18F JUMP JUMPDEST SWAP3 POP POP PUSH1 0x20 DUP4 ADD MLOAD PUSH8 0xFFFFFFFFFFFFFFFF DUP2 GT ISZERO PUSH3 0x1F4 JUMPI PUSH3 0x1F3 PUSH3 0x37F JUMP JUMPDEST JUMPDEST PUSH3 0x202 DUP6 DUP3 DUP7 ADD PUSH3 0x15C JUMP JUMPDEST SWAP2 POP POP SWAP3 POP SWAP3 SWAP1 POP JUMP JUMPDEST PUSH1 0x0 PUSH3 0x218 PUSH3 0x22B JUMP JUMPDEST SWAP1 POP PUSH3 0x226 DUP3 DUP3 PUSH3 0x2E1 JUMP JUMPDEST SWAP2 SWAP1 POP JUMP JUMPDEST PUSH1 0x0 PUSH1 0x40 MLOAD SWAP1 POP SWAP1 JUMP JUMPDEST PUSH1 0x0 PUSH8 0xFFFFFFFFFFFFFFFF DUP3 GT ISZERO PUSH3 0x253 JUMPI PUSH3 0x252 PUSH3 0x346 JUMP JUMPDEST JUMPDEST PUSH3 0x25E DUP3 PUSH3 0x389 JUMP JUMPDEST SWAP1 POP PUSH1 0x20 DUP2 ADD SWAP1 POP SWAP2 SWAP1 POP JUMP JUMPDEST PUSH1 0x0 DUP2 SWAP1 POP SWAP2 SWAP1 POP JUMP JUMPDEST PUSH1 0x0 JUMPDEST DUP4 DUP2 LT ISZERO PUSH3 0x295 JUMPI DUP1 DUP3 ADD MLOAD DUP2 DUP5 ADD MSTORE PUSH1 0x20 DUP2 ADD SWAP1 POP PUSH3 0x278 JUMP JUMPDEST DUP4 DUP2 GT ISZERO PUSH3 0x2A5 JUMPI PUSH1 0x0 DUP5 DUP5 ADD MSTORE JUMPDEST POP POP POP POP JUMP JUMPDEST PUSH1 0x0 PUSH1 0x2 DUP3 DIV SWAP1 POP PUSH1 0x1 DUP3 AND DUP1 PUSH3 0x2C4 JUMPI PUSH1 0x7F DUP3 AND SWAP2 POP JUMPDEST PUSH1 0x20 DUP3 LT DUP2 EQ ISZERO PUSH3 0x2DB JUMPI PUSH3 0x2DA PUSH3 0x317 JUMP JUMPDEST JUMPDEST POP SWAP2 SWAP1 POP JUMP JUMPDEST PUSH3 0x2EC DUP3 PUSH3 0x389 JUMP JUMPDEST DUP2 ADD DUP2 DUP2 LT PUSH8 0xFFFFFFFFFFFFFFFF DUP3 GT OR ISZERO PUSH3 0x30E JUMPI PUSH3 0x30D PUSH3 0x346 JUMP JUMPDEST JUMPDEST DUP1 PUSH1 0x40 MSTORE POP POP POP JUMP JUMPDEST PUSH32 0x4E487B7100000000000000000000000000000000000000000000000000000000 PUSH1 0x0 MSTORE PUSH1 0x22 PUSH1 0x4 MSTORE PUSH1 0x24 PUSH1 0x0 REVERT JUMPDEST PUSH32 0x4E487B7100000000000000000000000000000000000000000000000000000000 PUSH1 0x0 MSTORE PUSH1 0x41 PUSH1 0x4 MSTORE PUSH1 0x24 PUSH1 0x0 REVERT JUMPDEST PUSH1 0x0 DUP1 REVERT JUMPDEST PUSH1 0x0 DUP1 REVERT JUMPDEST PUSH1 0x0 DUP1 REVERT JUMPDEST PUSH1 0x0 DUP1 REVERT JUMPDEST PUSH1 0x0 PUSH1 0x1F NOT PUSH1 0x1F DUP4 ADD AND SWAP1 POP SWAP2 SWAP1 POP JUMP JUMPDEST PUSH3 0x3A5 DUP2 PUSH3 0x26B JUMP JUMPDEST DUP2 EQ PUSH3 0x3B1 JUMPI PUSH1 0x0 DUP1 REVERT JUMPDEST POP JUMP JUMPDEST PUSH2 0x401 DUP1 PUSH3 0x3C4 PUSH1 0x0 CODECOPY PUSH1 0x0 RETURN INVALID PUSH1 0x80 PUSH1 0x40 MSTORE CALLVALUE DUP1 ISZERO PUSH2 0x10 JUMPI PUSH1 0x0 DUP1 REVERT JUMPDEST POP PUSH1 0x4 CALLDATASIZE LT PUSH2 0x4C JUMPI PUSH1 0x0 CALLDATALOAD PUSH1 0xE0 SHR DUP1 PUSH4 0xDBE671F EQ PUSH2 0x51 JUMPI DUP1 PUSH4 0x954AB4B2 EQ PUSH2 0x6F JUMPI DUP1 PUSH4 0xC3DA42B8 EQ PUSH2 0x79 JUMPI DUP1 PUSH4 0xE1C7392A EQ PUSH2 0x97 JUMPI JUMPDEST PUSH1 0x0 DUP1 REVERT JUMPDEST PUSH2 0x59 PUSH2 0xA1 JUMP JUMPDEST PUSH1 0x40 MLOAD PUSH2 0x66 SWAP2 SWAP1 PUSH2 0x293 JUMP JUMPDEST PUSH1 0x40 MLOAD DUP1 SWAP2 SUB SWAP1 RETURN JUMPDEST PUSH2 0x77 PUSH2 0xA7 JUMP JUMPDEST STOP JUMPDEST PUSH2 0x81 PUSH2 0xDE JUMP JUMPDEST PUSH1 0x40 MLOAD PUSH2 0x8E SWAP2 SWAP1 PUSH2 0x231 JUMP JUMPDEST PUSH1 0x40 MLOAD DUP1 SWAP2 SUB SWAP1 RETURN JUMPDEST PUSH2 0x9F PUSH2 0x16C JUMP JUMPDEST STOP JUMPDEST PUSH1 0x0 SLOAD DUP2 JUMP JUMPDEST PUSH32 0xCF34EF537AC33EE1AC626CA1587A0A7E8E51561E5514F8CB36AFA1C5102B3BAB PUSH1 0x40 MLOAD PUSH2 0xD4 SWAP1 PUSH2 0x273 JUMP JUMPDEST PUSH1 0x40 MLOAD DUP1 SWAP2 SUB SWAP1 LOG1 JUMP JUMPDEST PUSH1 0x1 DUP1 SLOAD PUSH2 0xEB SWAP1 PUSH2 0x307 JUMP JUMPDEST DUP1 PUSH1 0x1F ADD PUSH1 0x20 DUP1 SWAP2 DIV MUL PUSH1 0x20 ADD PUSH1 0x40 MLOAD SWAP1 DUP2 ADD PUSH1 0x40 MSTORE DUP1 SWAP3 SWAP2 SWAP1 DUP2 DUP2 MSTORE PUSH1 0x20 ADD DUP3 DUP1 SLOAD PUSH2 0x117 SWAP1 PUSH2 0x307 JUMP JUMPDEST DUP1 ISZERO PUSH2 0x164 JUMPI DUP1 PUSH1 0x1F LT PUSH2 0x139 JUMPI PUSH2 0x100 DUP1 DUP4 SLOAD DIV MUL DUP4 MSTORE SWAP2 PUSH1 0x20 ADD SWAP2 PUSH2 0x164 JUMP JUMPDEST DUP3 ADD SWAP2 SWAP1 PUSH1 0x0 MSTORE PUSH1 0x20 PUSH1 0x0 KECCAK256 SWAP1 JUMPDEST DUP2 SLOAD DUP2 MSTORE SWAP1 PUSH1 0x1 ADD SWAP1 PUSH1 0x20 ADD DUP1 DUP4 GT PUSH2 0x147 JUMPI DUP3 SWAP1 SUB PUSH1 0x1F AND DUP3 ADD SWAP2 JUMPDEST POP POP POP POP POP DUP2 JUMP JUMPDEST PUSH32 0xCF34EF537AC33EE1AC626CA1587A0A7E8E51561E5514F8CB36AFA1C5102B3BAB PUSH1 0x40 MLOAD PUSH2 0x199 SWAP1 PUSH2 0x253 JUMP JUMPDEST PUSH1 0x40 MLOAD DUP1 SWAP2 SUB SWAP1 LOG1 JUMP JUMPDEST PUSH1 0x0 PUSH2 0x1AE DUP3 PUSH2 0x2AE JUMP JUMPDEST PUSH2 0x1B8 DUP2 DUP6 PUSH2 0x2B9 JUMP JUMPDEST SWAP4 POP PUSH2 0x1C8 DUP2 DUP6 PUSH1 0x20 DUP7 ADD PUSH2 0x2D4 JUMP JUMPDEST PUSH2 0x1D1 DUP2 PUSH2 0x368 JUMP JUMPDEST DUP5 ADD SWAP2 POP POP SWAP3 SWAP2 POP POP JUMP JUMPDEST PUSH1 0x0 PUSH2 0x1E9 PUSH1 0x3 DUP4 PUSH2 0x2B9 JUMP JUMPDEST SWAP2 POP PUSH2 0x1F4 DUP3 PUSH2 0x379 JUMP JUMPDEST PUSH1 0x20 DUP3 ADD SWAP1 POP SWAP2 SWAP1 POP JUMP JUMPDEST PUSH1 0x0 PUSH2 0x20C PUSH1 0x7 DUP4 PUSH2 0x2B9 JUMP JUMPDEST SWAP2 POP PUSH2 0x217 DUP3 PUSH2 0x3A2 JUMP JUMPDEST PUSH1 0x20 DUP3 ADD SWAP1 POP SWAP2 SWAP1 POP JUMP JUMPDEST PUSH2 0x22B DUP2 PUSH2 0x2CA JUMP JUMPDEST DUP3 MSTORE POP POP JUMP JUMPDEST PUSH1 0x0 PUSH1 0x20 DUP3 ADD SWAP1 POP DUP2 DUP2 SUB PUSH1 0x0 DUP4 ADD MSTORE PUSH2 0x24B DUP2 DUP5 PUSH2 0x1A3 JUMP JUMPDEST SWAP1 POP SWAP3 SWAP2 POP POP JUMP JUMPDEST PUSH1 0x0 PUSH1 0x20 DUP3 ADD SWAP1 POP DUP2 DUP2 SUB PUSH1 0x0 DUP4 ADD MSTORE PUSH2 0x26C DUP2 PUSH2 0x1DC JUMP JUMPDEST SWAP1 POP SWAP2 SWAP1 POP JUMP JUMPDEST PUSH1 0x0 PUSH1 0x20 DUP3 ADD SWAP1 POP DUP2 DUP2 SUB PUSH1 0x0 DUP4 ADD MSTORE PUSH2 0x28C DUP2 PUSH2 0x1FF JUMP JUMPDEST SWAP1 POP SWAP2 SWAP1 POP JUMP JUMPDEST PUSH1 0x0 PUSH1 0x20 DUP3 ADD SWAP1 POP PUSH2 0x2A8 PUSH1 0x0 DUP4 ADD DUP5 PUSH2 0x222 JUMP JUMPDEST SWAP3 SWAP2 POP POP JUMP JUMPDEST PUSH1 0x0 DUP2 MLOAD SWAP1 POP SWAP2 SWAP1 POP JUMP JUMPDEST PUSH1 0x0 DUP3 DUP3 MSTORE PUSH1 0x20 DUP3 ADD SWAP1 POP SWAP3 SWAP2 POP POP JUMP JUMPDEST PUSH1 0x0 DUP2 SWAP1 POP SWAP2 SWAP1 POP JUMP JUMPDEST PUSH1 0x0 JUMPDEST DUP4 DUP2 LT ISZERO PUSH2 0x2F2 JUMPI DUP1 DUP3 ADD MLOAD DUP2 DUP5 ADD MSTORE PUSH1 0x20 DUP2 ADD SWAP1 POP PUSH2 0x2D7 JUMP JUMPDEST DUP4 DUP2 GT ISZERO PUSH2 0x301 JUMPI PUSH1 0x0 DUP5 DUP5 ADD MSTORE JUMPDEST POP POP POP POP JUMP JUMPDEST PUSH1 0x0 PUSH1 0x2 DUP3 DIV SWAP1 POP PUSH1 0x1 DUP3 AND DUP1 PUSH2 0x31F JUMPI PUSH1 0x7F DUP3 AND SWAP2 POP JUMPDEST PUSH1 0x20 DUP3 LT DUP2 EQ ISZERO PUSH2 0x333 JUMPI PUSH2 0x332 PUSH2 0x339 JUMP JUMPDEST JUMPDEST POP SWAP2 SWAP1 POP JUMP JUMPDEST PUSH32 0x4E487B7100000000000000000000000000000000000000000000000000000000 PUSH1 0x0 MSTORE PUSH1 0x22 PUSH1 0x4 MSTORE PUSH1 0x24 PUSH1 0x0 REVERT JUMPDEST PUSH1 0x0 PUSH1 0x1F NOT PUSH1 0x1F DUP4 ADD AND SWAP1 POP SWAP2 SWAP1 POP JUMP JUMPDEST PUSH32 0x536F6E0000000000000000000000000000000000000000000000000000000000 PUSH1 0x0 DUP3 ADD MSTORE POP JUMP JUMPDEST PUSH32 0x73617920736F6E00000000000000000000000000000000000000000000000000 PUSH1 0x0 DUP3 ADD MSTORE POP JUMP INVALID LOG2 PUSH5 0x6970667358 0x22 SLT KECCAK256 NUMBER 0xA9 MULMOD 0xD5 CODESIZE 0xAA 0x4C SMOD 0xDE 0xB0 GASPRICE ADD 0xEF 0xC1 0x4A 0x22 ADDRESS CODECOPY DUP11 SWAP14 PUSH23 0xC458694A19A617E62AA6C664736F6C6343000807003300 "
		},
		"gasEstimates": {
			"creation": {
				"codeDepositCost": "205000",
				"executionCost": "infinite",
				"totalCost": "infinite"
			},
			"external": {
				"a()": "2407",
				"c()": "infinite",
				"init()": "1990",
				"say()": "1946"
			}
		},
		"methodIdentifiers": {
			"a()": "0dbe671f",
			"c()": "c3da42b8",
			"init()": "e1c7392a",
			"say()": "954ab4b2"
		}
	},
	"abi": [
		{
			"inputs": [
				{
					"internalType": "uint256",
					"name": "_a",
					"type": "uint256"
				},
				{
					"internalType": "string",
					"name": "_c",
					"type": "string"
				}
			],
			"stateMutability": "nonpayable",
			"type": "constructor"
		},
		{
			"anonymous": false,
			"inputs": [
				{
					"indexed": false,
					"internalType": "string",
					"name": "msg",
					"type": "string"
				}
			],
			"name": "Log",
			"type": "event"
		},
		{
			"inputs": [],
			"name": "a",
			"outputs": [
				{
					"internalType": "uint256",
					"name": "",
					"type": "uint256"
				}
			],
			"stateMutability": "view",
			"type": "function"
		},
		{
			"inputs": [],
			"name": "c",
			"outputs": [
				{
					"internalType": "string",
					"name": "",
					"type": "string"
				}
			],
			"stateMutability": "view",
			"type": "function"
		},
		{
			"inputs": [],
			"name": "init",
			"outputs": [],
			"stateMutability": "nonpayable",
			"type": "function"
		},
		{
			"inputs": [],
			"name": "say",
			"outputs": [],
			"stateMutability": "nonpayable",
			"type": "function"
		}
	]
}